:100000000C94F4000C9413010C9413010C94130140
:100010000C9413010C9413010C9413010C94130110
:100020000C9413010C9413010C9413010C94130100
:100030000C9413010C9413010C9413010C941301F0
:100040000C9413010C9413010C9413010C941301E0
:100050000C9413010C9413010C9413010C941301D0
:100060000C9413010C94AE140C9488130C9413018B
:100070000C9484140C945E130C9413010C941301CF
:100080000C9413010C9413010C9413010C941301A0
:100090000C9413010C9413010C9413010C94130190
:1000A0000C9413010C9413010C94120F0C94130173
:1000B0000C9413010C9413010C9413010C94130170
:1000C0000C9413010C9413010C9413010C94130160
:1000D0000C9413010C9413010C9413010C94130150
:1000E0000C9413010C9413010C9406140C940A1331
:1000F0000C9413010C94DC130C94E0120C94130177
:100100000C9413010C9413010C9413010C9413011F
:100110000C9413010C9413010C9413010C9413010F
:100120000C9413010C9413010C94680F0C9413019C
:100130000C9413010C9465110C9413010C9413018D
:100140000C9413010C9413010C9413010C943011B2
:100150000C9413010C9413010C9413010C941301CF
:100160000C945A140C948F120C94C8120C943014E2
:100170000C9434130C9413010C9413010C9413017C
:100180000C9413010C9413010C9413010C9413019F
:100190000C9413010C9413010C9413010C9413018F
:1001A0000C9413010C9413010C9413010C9413017F
:1001B0000C9413010C9413010C9413010C9413016F
:1001C0000C9413010C9413010C9413010C9413015F
:1001D0000C9413010C9413010C9413010C94D81477
:1001E0000C94B2130C94130111241FBECFEFDFE265
:1001F000DEBFCDBF10E2A0E0B0E2ECE4F2E300E04D
:100200000BBF02C007900D92A835B107D9F712E2D3
:10021000A8E5B0E201C01D92AE3DB107E1F70E9432
:1002200025110C9424190C940000AC01FB010097DB
:10023000B1F48081918197FF07C02FEF8833920737
:100240005CF488539F4F05C0893C91052CF0885C75
:1002500090408083918308951082118208952081B7
:1002600031811816190634F437FD17C028173907DD
:1002700034F40CC037FF11C0821793073CF4C90156
:10028000841B950B893C910594F01AC0CA01821B0E
:10029000930B893C91055CF010C020813181CA012B
:1002A000821B930B89539F4F8F58914018F44083C2
:1002B00051830895241735071CF428533F4F02C07B
:1002C000285C30402083318308958091292020913B
:1002D0006D2030916E2040916F20509170208B30B6
:1002E00008F465C0CA01B9012BE030E040E050E0FD
:1002F0000E94E7182093712030937220409373205E
:100300005093742010926D2010926E2010926F20E6
:100310001092702010922920A90125E0433E520737
:1003200018F460E070E040C037E04035530798F4BF
:1003300084E190E09C01429FC001439F900D529F39
:10034000900D11248C5B95476DE671E00E94C018FA
:10035000605B7F4F29C038E0453C530798F484E147
:1003600090E09C01429FC001439F900D529F900DD1
:1003700011248054924965E771E00E94C0186C59BD
:100380007F4F12C084E190E09C01429FC001439FD7
:10039000900D529F900D112484569F4A6DE671E096
:1003A0000E94C01868587F4F6093AF2017C08F5FBE
:1003B0008093292080913F2090914020AA2797FD8B
:1003C000A095BA2F280F391F4A1F5B1F20936D205D
:1003D00030936E2040936F2050937020E0912A203C
:1003E000F0912B2084E391E265E770E2099580911A
:1003F000C5208F5F8093C5208B3010F01092C520F0
:1004000008956091392070913A20882777FD809572
:10041000982F29EB30E040E050E00E94A11824E63C
:1004200030E040E050E00E94E718209339203093FC
:100430003A2060913B2070913C20882777FD809581
:10044000982F29EB30E040E050E00E94A11824E60C
:1004500030E040E050E00E94E71820933B203093CA
:100460003C2060913D2070913E20882777FD80954B
:10047000982F29EB30E040E050E00E94A11824E6DC
:1004800030E040E050E00E94E71820933D20309398
:100490003E2060913F2070914020882777FD809515
:1004A000982F29EB30E040E050E00E94A11824E6AC
:1004B00030E040E050E00E94E71820933F20309366
:1004C00040206091412070914220882777FD8095DF
:1004D000982F29EB30E040E050E00E94A11824E67C
:1004E00030E040E050E00E94E71820934120309334
:1004F00042206091432070914420882777FD8095A9
:10050000982F29EB30E040E050E00E94A11824E64B
:1005100030E040E050E00E94E71820934320309301
:1005200044206091452070914620882777FD809572
:10053000982F29EB30E040E050E00E94A11824E61B
:1005400030E040E050E00E94E718209345203093CF
:1005500046206091472070914820882777FD80953C
:10056000982F29EB30E040E050E00E94A11824E6EB
:1005700030E040E050E00E94E7182093472030939D
:1005800048206091492070914A20882777FD809506
:10059000982F29EB30E040E050E00E94A11824E6BB
:1005A00030E040E050E00E94E7182093492030936B
:1005B0004A2060914B2070914C20882777FD8095D0
:1005C000982F29EB30E040E050E00E94A11824E68B
:1005D00030E040E050E00E94E71820934B20309339
:1005E0004C2060914D2070914E20882777FD80959A
:1005F000982F29EB30E040E050E00E94A11824E65B
:1006000030E040E050E00E94E71820934D20309306
:100610004E2060914F2070915020882777FD809563
:10062000982F29EB30E040E050E00E94A11824E62A
:1006300030E040E050E00E94E71820934F203093D4
:10064000502008952F923F924F925F926F927F9227
:100650008F929F92AF92BF92CF92DF92EF92FF92D2
:100660000F931F93DF93CF93CDB7DEB72A97CDBFFC
:10067000DEBF7C0169877A879B01245F3F4F298316
:100680003A838B01015B1F4FCB01895B9F4F8B83AB
:100690009C83DB01A85BBF4FAD83BE83FB01E05CA5
:1006A000FF4FEF83F887E5E42E2E312C9B01260EB9
:1006B000371E66E4462E512C420E531E53E4652E1F
:1006C000712C620E731E44E4842E912C820E931EB4
:1006D00091E4A92EB12CA20EB31E82E4C82ED12C17
:1006E000C20ED31ECBC0C7010E94960E9091582017
:1006F000992359F4853A09F0BFC0A985BA851D969A
:100700008C93B1E0B0935820B9C09C3048F4E9858F
:10071000FA85E90FF11D85879F5F90935820AEC041
:100720009C3009F0A9C0E985FA85818FFDE0F0933E
:100730005820A985BA855B961C92E985FA85A9851A
:10074000BA855B969C915B978585980F5B969C9389
:100750005B97319629813A81E217F30781F7599621
:100760008C915997891709F087C01E968C911E9716
:1007700087FF82C0982F93701F968C911F97919638
:100780008C93919750968C91509792968C939297C8
:10079000992311F551968C9151979F968C939F9721
:1007A00052968C915297D3968C93D39753968C9163
:1007B0005397D6968C93D69754968C915497DC96F3
:1007C0008C93DC9755968C91D5018C93E985FA85AD
:1007D0008689D6018C934CC0913089F4E985FA85DD
:1007E000818980AB828984AB838986A7848985AF20
:1007F0008589D3018C938689F401808339C0A985CA
:10080000BA8551968C91519752962C915297539646
:100810003C91539754964C91549755965C915597AB
:1008200056966C915697923081F4D1968C93D197CD
:10083000D5962C93D597EF81F8853083DE964C932F
:10084000D1015C93F201608313C0A985BA85D29669
:100850008C93D297D7962C93D797DB963C93DB97C4
:10086000DF964C93EB81FC815083AD81BE816C930C
:10087000F80180818F5F808310925820C7010E9409
:100880008C0E882309F02FCF2A96CDBFDEBFCF91E3
:10089000DF911F910F91FF90EF90DF90CF90BF906D
:1008A000AF909F908F907F906F905F904F903F9010
:1008B0002F9008956F927F928F929F92AF92BF92E6
:1008C000CF92DF92EF92FF920F931F93CF93DF931C
:1008D00080915B2090915C208831910508F47AC466
:1008E000489731F4E0915520F0915620099572C453
:1008F0000E940102809148068295869581708093BE
:100900005D20813021F4E0E6F6E0868305C081E0D9
:10091000E0E6F6E0858382E08093A120E0918806FE
:100920008091A806382F337086958695582F53707E
:1009300086958695682F6370782F769576952091A9
:100940003A20822F869590E001968830910518F024
:1009500087E090E005C08130910511F482E090E0DD
:10096000482F8093A020323021F48295807F8068C8
:1009700008C0313049F490E024E0880F991F2A958F
:10098000E1F78093982002C010929820523019F419
:100990008091982005C0513031F480919820886072
:1009A000842B80939820623041F4842F90E004E0FF
:1009B000880F991F0A95E1F706C0613039F4842F3A
:1009C0008295807F80688093992002C01092992040
:1009D000809145209091462014E0959587951A9531
:1009E000E1F7982F87FD03C080E6891B01C0805A7C
:1009F000282F2695269526952F5F283010F027E082
:100A000003C0223008F422E0903638F48091992017
:100A10008860822B8093992007C0903A28F08091BB
:100A20009920282B20939920809143209091442055
:100A3000B4E095958795BA95E1F7982F87FD03C0A7
:100A400080E6891B01C0805A8695869586958F5FC2
:100A5000883010F087E003C0823008F482E09036DE
:100A600038F490E0A4E0880F991FAA95E1F708C038
:100A7000903A18F410929B2005C08295807F806880
:100A800080939B208091412090914220F4E09595A5
:100A90008795FA95E1F7982F87FD03C080E6891BBB
:100AA00001C0805A282F2695269526952F5F28303D
:100AB00010F027E003C0223008F422E0903638F42A
:100AC00080919B208860822B80939B2007C0903A66
:100AD00028F080919B20282B20939B20723041F49A
:100AE000842F90E064E0880F991F6A95E1F706C0B3
:100AF000713039F4842F8295807F806880939A20AA
:100B000002C010929A2020914B2030914C2054E04A
:100B1000359527955A95E1F727FD03C080E6821B9E
:100B200002C0822F805A982F9695969596959F5F32
:100B3000983010F097E003C0923008F492E020362D
:100B4000310530F480919A20982B90939A2009C017
:100B5000203A310530F080919A208860892B80936B
:100B60009A208E2F829586958370823031F442953B
:100B7000407F406840939C200EC0813051F4842F08
:100B800090E024E0880F991F2A95E1F780939C203C
:100B900002C010929C2080919C208F6080939C20AA
:100BA0008091492090914A209595879595958795B4
:100BB0006091472070914820759567957595679568
:100BC00020914D2030914E2041E0803C940724F448
:100BD0008C01005C11400AC052E0803495071CF47F
:100BE00000E010E003C08C010054124081E0603C42
:100BF000780724F4EB01C05CD1400AC092E0603475
:100C000079071CF4C0E0D0E003C0EB01C054D2402F
:100C1000C80164E070E00E94D418FE01E61BF70BE7
:100C2000BF01882777FD8095982FB4E035952795EB
:100C3000BA95E1F73901882477FC8094982CA401B7
:100C400093010E94A1182EEA31E040E050E00E949A
:100C50000919C901DA015C016D01F0E6AF16FFEF79
:100C6000BF06FFEFCF06FFEFDF0644F4A0E6AA2E93
:100C7000AFEFBA2EAFEFCA2EAFEFDA2EC80164E0A5
:100C800070E00E94D418C60FD71FBE01882777FDD9
:100C90008095982FA40193010E94A1182EEA31E0BB
:100CA00040E050E00E940919C901DA017C018D0180
:100CB00040E6E4164FEFF4064FEF04074FEF14073A
:100CC00044F4F0E6EF2EFFEFFF2EFFEF0F2FFFEFC4
:100CD0001F2FD601C501813A9105A105B10524F068
:100CE00080EA90E0A0E0B0E060E670E20E941501CA
:100CF000D801C701813A9105A105B10524F080EA28
:100D000090E0A0E0B0E06EE570E20E941501209155
:100D100060203091612040915E2050915F2021152C
:100D2000310529F4109292201092942010C01216CE
:100D3000130634F481E0809392202093942007C01E
:100D400082E080939220822F819580939420411598
:100D5000510529F4109293201092952010C014167A
:100D6000150634F481E0809393204093952007C0CA
:100D700082E080939320842F819580939520909199
:100D8000680692959695977090936420943091F0B0
:100D9000953028F4923061F09330E1F415C095302D
:100DA00079F09630B9F4109227201092282012C0C2
:100DB00081E007C082E080932720909328200AC01A
:100DC00083E08093272004C084E08093272082E082
:100DD00080932820E0E8F6E087E086838091282051
:100DE0008583409127204295440F407E20913B20EF
:100DF00030913C202093622030936320C9018152BE
:100E000092408F5D9B4038F4205232402093622004
:100E10003093632012C082E0213238072CF4109204
:100E200062201092632009C020503E4034F08FEDC4
:100E30009BE0809362209093632020916220309108
:100E40006320C9016FE570E00E94D418449754F400
:100E5000C9016FE570E00E94D4186093622070931E
:100E6000632010C0C9016FE570E00E94D418842F80
:100E70008F6190E001976817790721F060936220F5
:100E800070936320809162209091632097FF05C04A
:100E9000109262201092632008C0809734F08FE196
:100EA00090E0809362209093632050916220542BB5
:100EB00050939F20809148068170809367202091F5
:100EC00088062695269526952370209366203091D6
:100ED00088063295369537703093652090919E2024
:100EE0009F71813009F0906490939E2032FD04C080
:100EF00080919E20806A03C080919E208F75809390
:100F00009E20213011F480E803C0223021F480E4D7
:100F100080939D2002C010929D2080914806869566
:100F2000817080936C209091480692959170909377
:100F30006B20813049F41092A22010926820109208
:100F4000692010926A2023C0913039F49093A22036
:100F500010926820109269201AC080916A2088231C
:100F6000B1F480916820909169208931910538F021
:100F700082E08093A22081E080936A2008C00196DD
:100F800080936820909369208C5F8093A220809149
:100F9000A220882309F0B2C085EA809375201092C0
:100FA000912080919220880F880F90919320892B17
:100FB0008093762080919420809377208091952053
:100FC000809378209091BF209923E1F084E0809372
:100FD0007E20977080917920807F982B9093792044
:100FE0008091992080937A2090919A20907F80918F
:100FF0007B208F70982B90937B2080919B208093F7
:101000007C201DC010927E208091982080937920B2
:101010008091992080937A2090919A20907F80915E
:101020007B208F70982B90937B2080919B208093C6
:101030007C208091C020882311F080937E209091A5
:10104000BE20992369F080917E20886080937E2065
:1010500080917B20807F9770982B90937B200EC08F
:1010600080917E20877F80937E2090917B20907F4F
:1010700080919A208F70892B80937B202091C220B1
:101080002F7180919E20807E282B20939E2080911E
:101090009C2080937D2090919D20907F80917E2048
:1010A0008F70982B90937E2020937F2050938020E8
:1010B0008091C120813071F480E38093762081E1BA
:1010C0008093772082E28093782083E38093792055
:1010D00084E40FC08230D9F580E38093762085E5E3
:1010E0008093772086E68093782087E78093792025
:1010F00088E880937A201092C12029C08130B1F411
:1011000020E030E0F901EB58FF4DD901A050B04E7E
:101110008C9180832F5F3F4F2C30310599F7809160
:101120009E2080937F205093802011C0823079F4DC
:1011300020E030E0F901EB58FF4DD901A35FBF4D2E
:101140008C9180832F5F3F4F2C30310599F710929F
:101150008120C5E7D0E28E01F80181918F01909145
:101160008120890F80938120F0E201381F07A1F7C9
:101170000E9465011092592010925A2010925B2013
:1011800010925C20F80180A1813069F482EC91E238
:1011900068810E94650E8823C9F32196F0E2C23867
:1011A000DF07A1F70EC0823061F487E992E268811F
:1011B0000E94650E8823C9F3219640E2C238D40705
:1011C000A1F78091C3208F5F8093C320883010F0F7
:1011D0001092C32080915B2090915C2001968093B7
:1011E0005B2090935C20DF91CF911F910F91FF9036
:1011F000EF90DF90CF90BF90AF909F908F907F90B7
:101200006F900895F8940E94D81160E07BE480E02C
:1012100090E00E949B1760E07BE480E090E00E94F9
:101220001E1860E07BE480E090E00E9411170E94AD
:101230005C120E9450120E94F30DE0EAF0E08091EF
:10124000A200816082838091A2008260828380916B
:10125000A20084608283E0E4F6E083E382838583F6
:1012600020E636E080EEF90182838583A0E8B6E0CF
:1012700088EF12968C93129715968C931597E0EA47
:10128000F6E08FEF8283858381E0F9018183868395
:1012900087E011968C93119715968C9382E0818349
:1012A000868378940E94AE100E94361080E197E207
:1012B00029E130E0F9013197F1F70197D9F780E49E
:1012C00099E065E00E94B80A80E099E065E00E943C
:1012D000B20A0895BF92CF92DF92EF92FF920F93DE
:1012E0001F93CF93DF938C01EB012DE0B22E9CE096
:1012F000E92EF12CE60EF71E82E0C82EDD24D394F1
:1013000054C0C8010E94960E9091E520992339F4AB
:10131000853A09F048C08D87D092E52046C09C30C0
:1013200040F4FE01E90FF11D85879F5F9093E52052
:101330003CC09C30C1F5898FB092E5201C8EFE0127
:101340009C8D8585980F9C8F3196EE15FF05C1F712
:10135000898D891741F58E8587FD25C082958F700F
:1013600081F49F85892F8295869587708093BE2012
:10137000892F8695869587708093BF209370909370
:10138000C02088898A3819F4D092C12004C08B38D3
:1013900011F4C092C12089898093C2208091C62017
:1013A0008F5F8093C6201092E520C8010E948C0EAA
:1013B000882309F0A6CFDF91CF911F910F91FF9065
:1013C000EF90DF90CF90BF900895EF92FF920F9330
:1013D0001F93DF93CF93CDB7DEB72D97CDBFDEBF81
:1013E0007C01FB014091E7204F5F43704093E72071
:1013F000258D878D213029F4082F10E0159507954C
:101400000EC0223019F000E010E009C090E0909585
:1014100081959F4F62E070E00E94D4188B01268D69
:1014200080A1213029F4282F30E0359527950EC072
:10143000223019F020E030E009C090E090958195CD
:101440009F4F62E070E00E94D4189B0185EA898377
:101450004A830B832C83442399F487A58D8383A926
:101460008E8386A98F8384AD8887EF5BFF4F819140
:10147000898780818A8732978081E054F0403BC021
:10148000413099F480A98D8384A98E8386A58F83AA
:1014900085AD8887ED5BFF4F8191898780818A8741
:1014A0003E968081E255F04026C0423099F481A9F1
:1014B0008D8385A98E8382AD86958F8386AD88873F
:1014C000EB5BFF4F819189878081E654F0408A87EA
:1014D00081A111C082A98D8387A98E8383AD8F835B
:1014E00087AD8887E95BFF4F819189878081E854C8
:1014F000F0408A8782A18B8785A58C871D8620E096
:10150000AE014F5F5F4F08C0FA01E20FF11D8D85FC
:101510009081890F8D872F5F2C30B0F31092E620D9
:101520008E010F5F1F4F10C08091E620F801E80F79
:10153000F11DC70160810E94650E8823A9F3809187
:10154000E6208F5F8093E6208091E6208D3060F367
:101550002D96CDBFDEBFCF91DF911F910F91FF90F0
:10156000EF900895FC018081807F862B8083089511
:10157000FC018081807F862B80830895FC0181811E
:10158000887F862B81830895FC018181887F862B4B
:1015900081830895FC01838180718062862B83831F
:1015A0000895FC01838180718062862B8383089576
:1015B000FC018181607F862B81830895FC018181FC
:1015C0006073862B81830895FC018181607F609523
:1015D000862381830895FC01818160736095862351
:1015E00081830895FC0186818C7F862B86830895F4
:1015F000FC0186818C7F862B86830895FC01868181
:10160000837F862B86830895FC018681837F862BCA
:1016100086830895FC0187818C7F862B87830895BC
:10162000FC0187818C7F862B87830895FC0187814D
:10163000837F862B87830895FC018781837F862B98
:1016400087830895FC0187818F7C862B878308958B
:10165000FC0187818F73862B87830895FC0180812D
:10166000807F80838CE081870895FC018081807F6A
:1016700080838CE081870895DC0182E0A030B80788
:1016800081F482E08093CA01E0E2F0E0E4911092FC
:10169000CA011C96EC931C978093CA01E1E2F0E02A
:1016A0000FC082E08093CA01E4E2F0E0E49110927E
:1016B000CA011C96EC931C978093CA01E5E2F0E006
:1016C000E4911092CA011D96EC930895FC0181E00B
:1016D000838324813581261B3109C9010895FC01CA
:1016E00081E0838324813581772767FD7095261BF0
:1016F000370BC9010895FC0181E083832481358182
:10170000C9010895FC0181E0838384810895FC016F
:1017100081E0838385810895FC018481148295E1B1
:101720009A95F1F784830895FC01948181E0848384
:101730008AE28A95F1F794830895FB014423C1F06E
:1017400020E030E040E051E0808180688083838148
:1017500080FFFDCF538384819581280F391F4F5F10
:10176000443091F73695279536952795822F089521
:10177000808180688083838180FFFDCF81E08383C7
:10178000848195810895FB014423C1F020E030E07D
:1017900040E051E0808180688083838180FFFDCFBD
:1017A000538384819581280F391F4F5F443091F70F
:1017B000C90164E070E00E94D4180BC08081806889
:1017C0008083838180FFFDCF81E083838481958145
:1017D000682F862F0895AAECB1E092E09C93E82F41
:1017E000F0E0E4911C928E2F08950F93DF93CF9336
:1017F0000F92CDB7DEB72FB72983F8941BBEFC013B
:1018000008ED04BF608389818FBF0F90CF91DF9176
:101810000F910895662311F490E001C090E2482BE7
:10182000942BE0E5F0E0928308956F71682BE0E57A
:10183000F0E065830895E0E5F0E02081982F909531
:10184000922390839081892308950F93DF93CF9300
:101850000F92CDB7DEB79FB79983F8941BBE682B64
:1018600081E490E0FC0108ED04BF608389818FBFB3
:101870000F90CF91DF910F9108950F93DF93CF9346
:101880000F92CDB7DEB7209140009FB79983F894AF
:101890001BBEA0E4B0E0287F282BFD0108ED04BFAB
:1018A000208399819FBF9C9189230F90CF91DF91D5
:1018B0000F910895E0E4F0E09381917F9160982B7F
:1018C00093830895282F30915600662311F0982FA6
:1018D00001C090E0822F80958323982BE0E5F0E013
:1018E0009683213031F48091680081608093680094
:1018F0000895223029F48091600081608093600017
:1019000008950F93DF93CF930F92CDB7DEB78FB7C4
:101910008983F8941BBE23E083E590E0FC0108ED89
:1019200004BF208389818FBF0F90CF91DF910F91EA
:1019300008950F93DF93CF930F92CDB7DEB78FB794
:101940008983F8941BBE21E082E490E0FC0108ED5D
:1019500004BF208389818FBF0F90CF91DF910F91BA
:101960000895982F8091CF0187FDFCCF8091CF0102
:1019700081FF12C086E3E0ECF1E08287EF93FF93F2
:101980000F932F93EBECF1E008ED21E004BF2083EF
:101990002F910F91FF91EF91E0ECF1E083E38287CB
:1019A000262F30E02F713070892F90E055E0880F9E
:1019B000991F5A95E1F7282B392B2093C001832FCB
:1019C0008F7181831282448385E38287EF93FF9333
:1019D0000F932F93EBECF1E008ED21E004BF20839F
:1019E0002F910F91FF91EF910895982FE0ECF1E086
:1019F0008091CF0187FDFACF262F30E02F71307014
:101A0000892F90E065E0880F991F6A95E1F7282BF0
:101A1000392B2093C001832F8F718183128286E03E
:101A20008287EF93FF930F932F93EBECF1E008ED98
:101A300021E004BF20832F910F91FF91EF918091BE
:101A4000C40108958091CF0187FDFCCF0895809156
:101A5000CF0187FDFCCF8091CF0181FF12C086E3CB
:101A6000E0ECF1E08287EF93FF930F932F93EBEC81
:101A7000F1E008ED21E004BF20832F910F91FF9149
:101A8000EF910895982FE0ECF1E08091CF0187FD70
:101A9000FACF83E382879093C0011182128264831C
:101AA0000895DC01E0ECF1E08091CF0187FDFACFF1
:101AB00083E382871182128290E09093C0018D911E
:101AC00084839F5F9032C9F70895982FE0ECF1E08E
:101AD0008091CF0187FDFACF892F90E075E0880FC4
:101AE000991F7A95E1F78093C001892F8F718183C7
:101AF000128285E38287EF93FF930F932F93EBEC92
:101B0000F1E008ED21E004BF20832F910F91FF91B8
:101B1000EF910895982FE0ECF1E08091CF0187FDDF
:101B2000FACF892F90E0A5E0880F991FAA95E1F7D9
:101B30008093C001892F8F718183128282E3828713
:101B4000EF93FF930F932F93EBECF1E008ED21E07F
:101B500004BF20832F910F91FF91EF910895982F4B
:101B6000E0ECF1E08091CF0187FDFACF892F90E082
:101B7000B5E0880F991FBA95E1F78093C001892FCE
:101B80008F718183128284E38287EF93FF930F9397
:101B90002F93EBECF1E008ED21E004BF20832F91BF
:101BA0000F91FF91EF9108958091CF0187FDFCCFB8
:101BB00080E3E0ECF1E08287EF93FF930F932F93A4
:101BC000EBECF1E008ED21E004BF20832F910F91B1
:101BD000FF91EF910895E0EAF0E08281806498ED52
:101BE00094BF82830895E0EAF0E082818F7B98EDD4
:101BF00094BF82830895FC0181858C7F862B818729
:101C000042870895FC018185837F862B81874387E6
:101C10000895EF920F93FC01442311F490E001C06A
:101C200090E8222311F480E001C080E4E02A9E299C
:101C3000982B8FB7F8946093B000908B8FBF0F9163
:101C4000EF900895E0EBF0E09281907F982B9283E3
:101C50000895E0EBF0E092819F70982B92830895B5
:101C6000E0EBF0E09381907F982B93830895E0EB75
:101C7000F0E093819F70982B93830895FC0160831B
:101C800071834283EC5BFF4F108212923396108275
:101C900012920895FC0162830895FC01EB5BFF4FF3
:101CA0008191908120E08F5F8F71891321E0822FD5
:101CB0000895FC01EB5BFF4F8191908120E0815002
:101CC0008F71891321E0822F0895CF93DF93DC0178
:101CD000EC01CB5BDF4F8881AA5BBF4F9C91A65480
:101CE000B04020E08F5F8F71891791F021E08881EB
:101CF000FD01E80FF11D63A38F5F8F718883ED9164
:101D0000FC91119783818C7F12969C91892B838300
:101D1000822FDF91CF910895FC01ED5BFF4F9191F0
:101D2000808120E0981321E0822F0895FC01DC01DE
:101D3000AC5BBF4F8C91E80FF11D83819C919F5F3D
:101D40009F719C930895CF93DF93DC01EC01CD5BF1
:101D5000DF4F98819F5F9F71AC5BBF4F8C91A45404
:101D6000B040ED91FC911197E081981711F480E05B
:101D700007C08881A80FB11D1396EC93988381E06A
:101D8000DF91CF910895CF93DF93FC01EC01CA5B03
:101D9000DF4F9881EB5BFF4F8081E554F040A081DD
:101DA000B181891739F413968C9113978C7F139610
:101DB0008C9309C08881E80FF11D83A18C938881E1
:101DC0008F5F8F718883DF91CF910895FC0170FF41
:101DD00003C08481816002C084818E7F848360839C
:101DE0000895FC01848180FF05C08081282F30E0A8
:101DF000316003C08081282F30E0C90108950F931E
:101E00001F9300E012E0F80180818160808380E010
:101E100092E00E94940BF8018181886081831F9178
:101E20000F9108951F920F920FB60F920BB60F925B
:101E300011242F933F934F935F936F937F938F93CF
:101E40009F93AF93BF93EF93FF93E0E4F2E0818120
:101E5000877F818380818E7F808380E692E060919E
:101E600037200E946F0B8093492090934A2088E688
:101E700092E0609137200E946F0B80934B209093EB
:101E80004C2080E792E0609137200E946F0B809396
:101E90004D2090934E2088E792E0609137200E9479
:101EA0006F0B80934F2090935020FF91EF91BF9143
:101EB000AF919F918F917F916F915F914F913F91E2
:101EC0002F910F900BBE0F900FBE0F901F90189583
:101ED0001F920F920FB60F920BB60F9211242F93F1
:101EE0003F934F935F936F937F938F939F93AF93A2
:101EF000BF93CF93DF93EF93FF93C0E0D2E0809145
:101F00000102877F8983809100028E7F8093000287
:101F100080913820882309F049C080E292E06091E6
:101F200036200E946F0B8093392090933A2088E2EC
:101F300092E0609136200E946F0B80933B2090933B
:101F40003C2080E392E0609136200E946F0B8093EA
:101F50003D2090933E2088E392E0609136200E94DD
:101F60006F0B80933F209093402080E2E0E2F2E00C
:101F7000818388E2E8E2F2E0818380E3E0E3F2E05B
:101F8000818388E3E8E3F2E0818381E08093382075
:101F90008091000281608093000280E092E00E94C4
:101FA000940B80910102886089834BC0813009F0D5
:101FB00048C080E292E0609136200E946F0B8093CF
:101FC00041209093422088E292E0609136200E9466
:101FD0006F0B809343209093442080E392E06091C4
:101FE00036200E946F0B809345209093462088E313
:101FF00092E0609136200E946F0B8093472090936F
:102000004820E0E2F2E0118288E0E8E2F2E0818339
:1020100080E1E0E3F2E0818388E1E8E3F2E08183BC
:10202000109238208091400281608093400280E4C9
:1020300092E00E94940B809141028860E0E4F2E01B
:102040008183FF91EF91DF91CF91BF91AF919F91EC
:102050008F917F916F915F914F913F912F910F9051
:102060000BBE0F900FBE0F901F901895EF92FF922E
:102070000F931F93CF93DF9380E492E00E943C0B79
:1020800080E4E82E82E0F82ED70111968C9111970A
:10209000897E11968C93119714968C911497876072
:1020A00014968C93149712968C9112978F7C806162
:1020B00012968C93129700E612E0E8018881807EE8
:1020C0008260888389E089838C9181608C9380E42D
:1020D00092E00E94940B80E492E060E672E040E0BF
:1020E0000E94C30B80933720F70180818E7F80830D
:1020F0008881807E8160888328E632E0D9018C91D6
:10210000807E81608C93A0E7B2E08C91807E8160BC
:102110008C93E8E7F2E08081807E81608083888113
:10212000807E81608883198288E0E901898380E16B
:1021300011968C9388E18183D70113968C91139724
:10214000806C13968C938281807F82608283DF9182
:10215000CF911F910F91FF90EF900895EF92FF9212
:102160000F931F93CF93DF9380E092E00E943C0B8C
:10217000E12C92E0F92ED70111968C911197897E6E
:1021800011968C93119714968C91149787601496DE
:102190008C93149712968C9112978F7C8061129673
:1021A0008C93129700E212E0E8018881807E8260C1
:1021B000888389E089838C9181608C9380E092E0B0
:1021C0000E94940B80E092E060E272E040E00E94A6
:1021D000C30B80933620F70180818E7F80838881B6
:1021E000807E8160888328E232E0D9018C91807EF4
:1021F00081608C93A0E3B2E08C91807E81608C93AF
:10220000E8E3F2E08081807E816080838881807E47
:1022100081608883198288E0E901898380E11196D1
:102220008C9388E18183D70113968C911397806CEE
:1022300013968C938281807F82608283DF91CF911D
:102240001F910F91FF90EF900895E0911B20F09166
:102250001C20099520E533ECC9010197F1F7FCCF6B
:102260001F920F920FB60F920BB60F9211242F935D
:102270003F934F935F936F937F938F939F93AF930E
:10228000BF93EF93FF9380E499E060E00E94B80A67
:10229000E0911D20F0911E20099580E499E065E011
:1022A0000E94B80AFF91EF91BF91AF919F918F91DA
:1022B0007F916F915F914F913F912F910F900BBE46
:1022C0000F900FBE0F901F9018951F920F920FB690
:1022D0000F920BB60F9211242F933F934F935F935E
:1022E0006F937F938F939F93AF93BF93EF93FF93DE
:1022F00080E099E060E00E94B20AE0912C20F09129
:102300002D2084E391E268EC70E209958091C5206C
:102310008A3069F48091C620882369F41092BE2027
:102320001092BF201092C0201092C12004C08823B8
:1023300011F41092C6208091A1208093E820813072
:1023400039F4E0912520F091262082EC91E208C03A
:10235000823049F4E0912520F091262087E992E22D
:1023600065E770E209958091C320873029F4809158
:10237000C4208093C72004C0882311F41092C42085
:1023800080E099E065E00E94B20AFF91EF91BF9171
:10239000AF919F918F917F916F915F914F913F91FD
:1023A0002F910F900BBE0F900FBE0F901F9018959E
:1023B00080E460E040E00E940A0C80915000886058
:1023C000809350008091510083FFFCCF80EC68E047
:1023D0000E94150C8091500080618093500080E035
:1023E00061E00E94250C8091510084FFFCCF84E0C5
:1023F0000E943D0C88E00E941B0C0895F8940E94F6
:10240000D81160E07BE480E090E00E941E1860EC50
:1024100072E180E090E00E949B1760E07BE480E046
:1024200090E00E94111760E07BE480E090E00E9461
:102430008E1660E07BE480E090E00E940B1660E086
:102440007BE480E090E00E94851560E07BE480E022
:1024500090E00E9402150E945C120E9450120E949D
:10246000F30DE0EAF0E08281816082838281826004
:102470008283828184608283E0E8F6E080E1818368
:10248000868380E281838683A0E4B6E082E01196B1
:102490008C93119716968C938183868378940895F4
:1024A0008FEC97E0E0E4F9E086A397A380E499E05D
:1024B00061E00E94F80A089583EF91E0E0E0F9E01E
:1024C00086A397A380E099E061E00E94F20A089554
:1024D000CF93DF93DC01EC01CA5BDF4F9881AB5BEC
:1024E000BF4F8C91A554B040891731F4ED91FC9108
:1024F00083818C7F838310C082E0E0E6F6E08583F1
:102500008881FD01E80FF11D83A1ED91FC9180838D
:1025100088818F5F8F718883DF91CF9108951F929B
:102520000F920FB60F920BB60F9211248F939F93B9
:10253000EF93FF939091DD228091DC22891741F483
:10254000E0919722F091982283818C7F838315C03C
:1025500082E0E0E6F6E08583E091DD22F0E0E956F6
:10256000FD4D83A1E0919722F09198228083809184
:10257000DD228F5F8F718093DD22FF91EF919F911C
:102580008F910F900BBE0F900FBE0F901F9018955C
:102590001F920F920FB60F920BB60F9211248F93CA
:1025A000EF93FF9382E0E0E6F6E08683FF91EF9100
:1025B0008F910F900BBE0F900FBE0F901F9018952C
:1025C0001F920F920FB60F920BB60F9211242F93FA
:1025D0003F934F935F936F937F938F939F93AF93AB
:1025E000BF93EF93FF9389E092E20E94C30EFF91A5
:1025F000EF91BF91AF919F918F917F916F915F917B
:102600004F913F912F910F900BBE0F900FBE0F90E7
:102610001F9018951F920F920FB60F920BB60F9244
:1026200011242F933F934F935F936F937F938F93D7
:102630009F93AF93BF93EF93FF938DEE90E20E9431
:10264000C30EFF91EF91BF91AF919F918F917F91B9
:102650006F915F914F913F912F910F900BBE0F9013
:102660000FBE0F901F9018951F920F920FB60F92EA
:102670000BB60F9211242F933F934F935F936F9359
:102680007F938F939F93AF93BF93EF93FF938BE7CA
:1026900091E20E94C30EFF91EF91BF91AF919F9184
:1026A0008F917F916F915F914F913F912F910F90FB
:1026B0000BBE0F900FBE0F901F9018951F920F9298
:1026C0000FB60F920BB60F9211242F933F934F9397
:1026D0005F936F937F938F939F93AF93BF93EF938A
:1026E000FF9384E391E20E94C30EFF91EF91BF91AB
:1026F000AF919F918F917F916F915F914F913F919A
:102700002F910F900BBE0F900FBE0F901F9018953A
:102710001F920F920FB60F920BB60F9211242F93A8
:102720003F934F935F936F937F938F939F93AF9359
:10273000BF93EF93FF9382EC91E20E94C30EFF914F
:10274000EF91BF91AF919F918F917F916F915F9129
:102750004F913F912F910F900BBE0F900FBE0F9096
:102760001F9018951F920F920FB60F920BB60F92F3
:1027700011242F933F934F935F936F937F938F9386
:102780009F93AF93BF93EF93FF9380E592E20E94F4
:10279000C30EFF91EF91BF91AF919F918F917F9168
:1027A0006F915F914F913F912F910F900BBE0F90C2
:1027B0000FBE0F901F9018951F920F920FB60F9299
:1027C0000BB60F9211242F933F934F935F936F9308
:1027D0007F938F939F93AF93BF93EF93FF9389E082
:1027E00092E20E94A30EFF91EF91BF91AF919F9152
:1027F0008F917F916F915F914F913F912F910F90AA
:102800000BBE0F900FBE0F901F9018951F920F9246
:102810000FB60F920BB60F9211242F933F934F9345
:102820005F936F937F938F939F93AF93BF93EF9338
:10283000FF938DEE90E20E94A30EFF91EF91BF9166
:10284000AF919F918F917F916F915F914F913F9148
:102850002F910F900BBE0F900FBE0F901F901895E9
:102860001F920F920FB60F920BB60F9211242F9357
:102870003F934F935F936F937F938F939F93AF9308
:10288000BF93EF93FF938BE791E20E94A30EFF911A
:10289000EF91BF91AF919F918F917F916F915F91D8
:1028A0004F913F912F910F900BBE0F900FBE0F9045
:1028B0001F9018951F920F920FB60F920BB60F92A2
:1028C00011242F933F934F935F936F937F938F9335
:1028D0009F93AF93BF93EF93FF9387E992E20E9498
:1028E000A30EFF91EF91BF91AF919F918F917F9137
:1028F0006F915F914F913F912F910F900BBE0F9071
:102900000FBE0F901F9018951F920F920FB60F9247
:102910000BB60F9211242F933F934F935F936F93B6
:102920007F938F939F93AF93BF93EF93FF9384E332
:1029300091E20E94A30EFF91EF91BF91AF919F9101
:102940008F917F916F915F914F913F912F910F9058
:102950000BBE0F900FBE0F901F9018951F920F92F5
:102960000FB60F920BB60F9211242F933F934F93F4
:102970005F936F937F938F939F93AF93BF93EF93E7
:10298000FF9382EC91E20E94A30EFF91EF91BF9121
:10299000AF919F918F917F916F915F914F913F91F7
:1029A0002F910F900BBE0F900FBE0F901F90189598
:1029B0001F920F920FB60F920BB60F9211242F9306
:1029C0003F934F935F936F937F938F939F93AF93B7
:1029D000BF93EF93FF9380E592E20E94A30EFF91D5
:1029E000EF91BF91AF919F918F917F916F915F9187
:1029F0004F913F912F910F900BBE0F900FBE0F90F4
:102A00001F901895EF92FF920F931F937B018C01FB
:102A1000E0EAF6E088E0818384E0828380E592E268
:102A200060EA7BE042E00E943E0EA0915022B0910D
:102A3000512283E015968C93159713968C911397DA
:102A40008F7C806213968C93139780E8E81685E25A
:102A5000F80680E0080780E01807D9F080E0E81663
:102A60008BE4F80680E0080780E01807D9F080ECD6
:102A7000E81682E1F80680E0080780E01807F1F424
:102A80008DEF9CE08093E9209093EA208DEF9FEFFB
:102A900011C085EF9CE08093E9209093EA208CEFB1
:102AA0009FEF08C085EE9CE08093E9209093EA2098
:102AB0008BEF9FEF8093EB209093EC202091E92007
:102AC0003091EA20E0EAFBE02683232F330F330B1B
:102AD0008091EB209091EC2034E0880F991F3A957B
:102AE000E1F7282B278314968C9114978061149614
:102AF0008C93149714968C911497886014968C93E9
:102B00001F910F91FF90EF900895EF92FF920F9316
:102B10001F937B018C01E0E8F6E082E081838583EE
:102B200080E8818380E4828389E092E260EB7AE04E
:102B300042E00E943E0EA0910922B0910A2283E059
:102B400015968C93159713968C9113978F7C8062B2
:102B500013968C93139780E8E81685E2F80680E0D8
:102B6000080780E01807D9F080E0E8168BE4F80643
:102B700080E0080780E01807D9F080ECE81682E1D1
:102B8000F80680E0080780E01807F1F48DEF9CE07C
:102B90008093E9209093EA208DEF9FEF11C085EF9D
:102BA0009CE08093E9209093EA208CEF9FEF08C08F
:102BB00085EE9CE08093E9209093EA208BEF9FEFD5
:102BC0008093EB209093EC202091E9203091EA2033
:102BD000E0EBFAE02683232F330F330B8091EB20B9
:102BE0009091EC2054E0880F991F5A95E1F7282B1B
:102BF000278314968C911497806114968C93149764
:102C000014968C911497886014968C931F910F9151
:102C1000FF90EF900895EF92FF920F931F937B0127
:102C20008C01E0E8F6E088E0818384E082838DEE29
:102C300090E260EA7AE042E00E943E0EA091ED2030
:102C4000B091EE2083E015968C93159713968C9196
:102C500013978F7C806213968C93139780E8E81605
:102C600085E2F80680E0080780E01807D9F080E0E8
:102C7000E8168BE4F80680E0080780E01807D9F032
:102C800080ECE81682E1F80680E0080780E018078B
:102C9000F1F48DEF9CE08093E9209093EA208DEF92
:102CA0009FEF11C085EF9CE08093E9209093EA208C
:102CB0008CEF9FEF08C085EE9CE08093E920909315
:102CC000EA208BEF9FEF8093EB209093EC202091F4
:102CD000E9203091EA20E0EAFAE02683232F330F3F
:102CE000330B8091EB209091EC2074E0880F991FBA
:102CF0007A95E1F7282B278314968C91149780619D
:102D000014968C93149714968C911497886014964B
:102D10008C931F910F91FF90EF900895EF92FF9287
:102D20000F931F937B018C01E0E6F6E080E881833E
:102D300080E482838BE791E260EB79E042E00E94DD
:102D40003E0EA0917B21B0917C2183E015968C935F
:102D5000159713968C9113978F7C806213968C93A2
:102D6000139780E8E81685E2F80680E0080780E01F
:102D70001807D9F080E0E8168BE4F80680E0080731
:102D800080E01807D9F080ECE81682E1F80680E0D0
:102D9000080780E01807F1F48DEF9CE08093E920AC
:102DA0009093EA208DEF9FEF11C085EF9CE0809318
:102DB000E9209093EA208CEF9FEF08C085EE9CE01D
:102DC0008093E9209093EA208BEF9FEF8093EB2094
:102DD0009093EC202091E9203091EA20E0EBF9E09B
:102DE0002683232F330F330B8091EB209091EC201F
:102DF00004E0880F991F0A95E1F7282B2783149682
:102E00008C911497806114968C93149714968C91DE
:102E10001497886014968C931F910F91FF90EF90F8
:102E20000895EF92FF920F931F937B018C01E0E6D0
:102E3000F6E088E0818384E0828387E992E260EAB9
:102E400079E042E00E943E0EA0919722B091982234
:102E500083E015968C93159713968C9113978F7C1E
:102E6000806213968C93139713968C9113978C60B2
:102E700013968C93139780E8E81685E2F80680E0B5
:102E8000080780E01807D9F080E0E8168BE4F80620
:102E900080E0080780E01807D9F080ECE81682E1AE
:102EA000F80680E0080780E01807F1F48DEF9CE059
:102EB0008093E9209093EA208DEF9FEF11C085EF7A
:102EC0009CE08093E9209093EA208CEF9FEF08C06C
:102ED00085EE9CE08093E9209093EA208BEF9FEFB2
:102EE0008093EB209093EC202091E9203091EA2010
:102EF000E0EAF9E02683232F330F330B8091EB2098
:102F00009091EC2034E0880F991F3A95E1F7282B37
:102F1000278314968C911497806114968C93149740
:102F200014968C911497886014968C931F910F912E
:102F3000FF90EF900895EF92FF920F931F937B0104
:102F40008C01E0E4F6E080E8818380E4828384E31E
:102F500091E260EB78E042E00E943E0EA0913421C5
:102F6000B091352183E015968C93159713968C912B
:102F700013978F7C806213968C93139780E8E816E2
:102F800085E2F80680E0080780E01807D9F080E0C5
:102F9000E8168BE4F80680E0080780E01807D9F00F
:102FA00080ECE81682E1F80680E0080780E0180768
:102FB000F1F48DEF9CE08093E9209093EA208DEF6F
:102FC0009FEF11C085EF9CE08093E9209093EA2069
:102FD0008CEF9FEF08C085EE9CE08093E9209093F2
:102FE000EA208BEF9FEF8093EB209093EC202091D1
:102FF000E9203091EA20E0EBF8E02683232F330F1D
:10300000330B8091EB209091EC2054E0880F991FB6
:103010005A95E1F7282B278314968C911497806199
:1030200014968C93149714968C9114978860149628
:103030008C931F910F91FF90EF900895EF92FF9264
:103040000F931F937B018C01E0E4F6E088E081831D
:1030500084E0828382EC91E260EA78E042E00E94C0
:103060003E0EA091C221B091C32183E015968C93AE
:10307000159713968C9113978F7C806213968C937F
:10308000139780E8E81685E2F80680E0080780E0FC
:103090001807D9F080E0E8168BE4F80680E008070E
:1030A00080E01807D9F080ECE81682E1F80680E0AD
:1030B000080780E01807F1F48DEF9CE08093E92089
:1030C0009093EA208DEF9FEF11C085EF9CE08093F5
:1030D000E9209093EA208CEF9FEF08C085EE9CE0FA
:1030E0008093E9209093EA208BEF9FEF8093EB2071
:1030F0009093EC202091E9203091EA20E0EAF8E07A
:103100002683232F330F330B8091EB209091EC20FB
:1031100074E0880F991F7A95E1F7282B278314967E
:103120008C911497806114968C93149714968C91BB
:103130001497886014968C931F910F91FF90EF90D5
:103140000895629FD001739FF001829FE00DF11DF1
:10315000649FE00DF11D929FF00D839FF00D749F11
:10316000F00D659FF00D9927729FB00DE11DF91FBD
:10317000639FB00DE11DF91FBD01CF01112408951A
:10318000AA1BBB1B51E107C0AA1FBB1FA617B7078D
:1031900010F0A61BB70B881F991F5A95A9F78095A9
:1031A0009095BC01CD01089597FB092E07260AD002
:1031B00077FD04D0E5DF06D000201AF47095619504
:1031C0007F4F0895F6F7909581959F4F0895A1E25E
:1031D0001A2EAA1BBB1BFD010DC0AA1FBB1FEE1F91
:1031E000FF1FA217B307E407F50720F0A21BB30BDC
:1031F000E40BF50B661F771F881F991F1A9469F758
:1032000060957095809590959B01AC01BD01CF01B3
:10321000089597FB092E05260ED057FD04D0D7DF61
:103220000AD0001C38F450954095309521953F4FB9
:103230004F4F5F4F0895F6F7909580957095619583
:0C3240007F4F8F4F9F4F0895F894FFCFF1
:10324C00A5000000000000000F00008700A550AA98
:10325C00BBCCDDEEFF11223344000002095A0400FE
:10326C000000000000220304020AE5096A090000BC
:10327C000000000000000000000000000000000042
:10328C000000000000000000000000000000000032
:08329C000064001E00FF0E009B
:00000001FF
