:020000040800F2
:1000000018170020350200083D0200083F020008D2
:1000100041020008430200084502000800000000F9
:10002000000000000000000000000000470200087F
:1000300049020008000000004B0200084D020008C1
:100040004F0200084F0200084F0200084F0200084C
:100050004F0200084F0200084F0200084F0200083C
:100060004F0200084F0200084F0200084F0200082C
:100070004F0200084F0200084F0200084F0200081C
:100080004F0200084F0200084F0200084F0200080C
:100090004F0200084F0200084F0200084F020008FC
:1000A0004F0200084F0200084F0200084F020008EC
:1000B00091130008C5130008FD1300084F02000843
:1000C0004F0200084F0200084F0200084F020008CC
:1000D0004F02000821160008D916000891170008E1
:1000E0004F0200084F0200084F0200084F020008AC
:1000F0004F0200084F0200084F0200084F0200089C
:100100004F0200084F0200084F0200084F0200088B
:10011000F9140008691500084F0200084F02000892
:100120004F0200084F0200084F0200084F0200086B
:100130004F0200084F0200084F0200084F0200085B
:100140004F0200084F0200084F0200084F0200084B
:100150004F0200084F0200084F020008D91800089B
:100160004F0200084F0200084F0200084F0200082B
:100170004F0200084F0200084F0200084F0200081B
:100180004F0200084F02000800F002F800F042F8A9
:100190000AA090E8000C82448344AAF10107DA45E2
:1001A00001D100F037F8AFF2090EBAE80F0013F0F2
:1001B000010F18BFFB1A43F001031847E496000033
:1001C00004970000103A24BF78C878C1FAD85207C3
:1001D00024BF30C830C144BF04680C6070470000C1
:1001E0000023002400250026103A28BF78C1FBD840
:1001F000520728BF30C148BF0B6070471FB509F0D8
:1002000003FA9DE8030000F097F900F081F81FBDA4
:1002100010B510BD00F0D3F91146FFF7EFFF08F05D
:10022000E7FB00F00BFA03B4FFF7F2FF03BC00F0AA
:1002300043FA00000948804709480047FEE7FEE707
:10024000FEE7FEE7FEE7FEE7FEE7FEE7FEE7FEE786
:1002500004480549054A064B70470000351300085D
:100260008901000818030020181700201813002027
:100270001813002010B54C1084EA530404D54042F2
:10028000C1F1000138BF491E1B4204D55242C3F1DF
:10029000000338BF5B1E00F0A7F814F0804F04D0B5
:1002A0004042C1F1000138BF491E14F0004F04D094
:1002B0005242C3F1000338BF5B1E10BD4FF0000275
:1002C00000B5134694469646203922BFA0E80C504C
:1002D000A0E80C50B1F12001BFF4F7AF090728BF27
:1002E000A0E80C5048BF0CC05DF804EB890028BFA3
:1002F00040F8042B08BF704748BF20F8022B11F0CC
:10030000804F18BF00F8012B704770477047704747
:1003100070B5064C7C44064D7D4403E020682044C3
:100320008047241DAC42F9D170BD0000A8950000A3
:10033000AC95000000487047EC02002070B50646FE
:1003400000F0DAF8056806F10B0020F00704B4426B
:100350009CBF002070BD2B466A68BAB11068A042ED
:1003600010D304F1080188423CBF5068586007D39D
:100370005168101941601168091B016058601460D0
:10038000101D70BD13465268002AE7D12146284649
:1003900000F0BEF80028DED170BD70B50446051F20
:1003A00000F0AAF80068002C14BF446870BD002C4F
:1003B00018BFA54284BF20466468F8D801680A18AF
:1003C000AA4218BF456003D12A680546114401605E
:1003D00028684119A1421CBF6C6070BD61686960EA
:1003E00021680844286070BD53EA020C00F069805F
:1003F0002DE9F04B4FF00006002B1FBFB3FA83F539
:1004000003FA05F424FA05F65E4012BF1643B2FA69
:1004100082F502FA05F4C5F120051EBF22FA05FC9B
:1004200044EA0C04203556EA044C4FEA144418BF41
:10043000641C4FF000084FF00009904271EB030C70
:1004400039D3002919BFB1FA81F701FA07F6B0FADA
:1004500080F700FA07F6C7F120071EBF20FA07FC55
:1004600046EA0C062037B6FBF4FCA7EB0507103F65
:1004700007F01F0BCBF120060CFA0BFB2CFA06F64B
:1004800044BFB3460026202FA4BF5E464FF0000BAA
:100490005BEA060C08BF4FF0010B19EB0B09ABFB35
:1004A000027C48EB0608C01B06FB02CC0BFB03CC0E
:1004B00071EB0C01C1E70B46024641464846BDE8D8
:1004C000F08B13B54FF000004FF00001AFF3008048
:1004D000BDE81C40704710B500F012F8006810BD70
:1004E00010B5044600F00CF8046010BD00F05AB8D6
:1004F00000487047B802002000487047C002002042
:1005000000487047B8020020704770477047704736
:1005100038B504460A4600206946AFF3008000283B
:1005200008BF38BD02460099204600F06DF8012052
:1005300038BD012000F090B8F8B5AFF30080054653
:1005400000200C46102000BF0646A819A0420DD975
:10055000324669460020AFF30080070008BF00F074
:100560007BF80098A04218BF0546C419FFF7C4FFE6
:1005700005600746F01D20F007004619284600F0E8
:100580000AF8B44208BFF8BDA21B31463868BDE87E
:10059000F84000F039B800210160C0E9011070474F
:1005A0001020704710B500F062F8016919B10022FF
:1005B0000261884701E08068804700F045F8754691
:1005C000FFF796FFAE4605006946534620F0070048
:1005D000854618B020B5FFF73BFEBDE820404FF040
:1005E00000064FF000074FF000084FF0000B21F01D
:1005F0000701AC46ACE8C009ACE8C009ACE8C009EA
:10060000ACE8C0098D467047034640688C46002818
:1006100018BF814284BF03464068F8D81868184460
:10062000884207D00CF1030020F00700001D411A9A
:10063000521A0146081D0A60FFF7AFBE0446AFF329
:1006400000802046FFF7EFFD002000F046F8FFF79E
:10065000DFFD012000F030F810B500F045F8BDE8EE
:10066000104000F035B8000010B5FFF7EDFF70B591
:1006700000F02AF804680546A4B92020FFF75EFEC2
:10068000040011D0094900202C60C4E90001084988
:10069000A1602073206160610649A06109B100F08A
:1006A0004BF8E061204670BDFFF7CEFF0000000070
:1006B000690600080000000001491820ABBEFEE7F3
:1006C000260002007047000000487047F402002036
:1006D000002801D0FFF7F0BF704710B500F064F8B4
:1006E000BDE81040FFF7F4BF10B5012805D0002188
:1006F00003A000F03FF8012010BD09A1F8E70000B9
:1007000053494752544D454D3A204F7574206F66FA
:100710002068656170206D656D6F72790000000062
:100720003A2048656170206D656D6F727920636F46
:10073000727275707465640010B58820FFF7FEFD55
:10074000002801D00021017010BD802902D808B115
:10075000017809B100207047012100F8081B70479B
:1007600018B100F10802914201D000207047002129
:100770000170704770B505460C460A2000E06D1CFC
:1007800000F02AF835B128780028F8D102E0641C7E
:1007900000F022F814B120780028F8D1BDE87040AC
:1007A0000A2000F019B8000010B5002102A0FFF7E0
:1007B000E1FF012010BD0000534947414252543A25
:1007C0002041626E6F726D616C207465726D696E2E
:1007D0006174696F6E00000008B569468DF800000D
:1007E0000320ABBE08BD0029816802D041F00101A1
:1007F00001E021F00101816070470000074B10B556
:100800001A6807490A40D0E900142143D0E90240A0
:10081000044321431143196010BD0000042301402B
:10082000E030FCFF0029816802D041F4807101E0D2
:1008300021F48071816070470029816802D041F401
:10084000007101E021F400718160704730B54268A9
:100850000F4B0C791A400B6842EA042213434360A1
:1008600082680C4B4D791A40D1E9034323438C68CD
:1008700044EA4504234313438360C26A097D22F49A
:100880007002491EC9B242EA0151C16230BD000086
:10089000FFFEFFFCFDF7FFC070B5072409290AD948
:1008A000C568A1F10A0606EB4606B440A543B3406D
:1008B0001D43C56007E0056901EB4106B440A5434F
:1008C000B3401D4305611F23072A09D2446B521E02
:1008D00002EB820293409C4391400C43446370BD01
:1008E0000D2A09D2046BD21F02EB820293409C4373
:1008F00091400C43046370BDC46A0D3A02EB82025E
:1009000093409C4391400C43C46270BD816841F0A8
:10091000804181607047000010B50A4C0122072316
:1009200011462046FFF7B8FF01212046FFF784FF5C
:1009300001212046FFF776FF2046BDE81040012147
:10094000FFF751BF002001401FB500204FF4804148
:100950000090CDE9010103906846FFF74FFF1FBDEE
:1009600010B590B012490020CDE900011149CDE940
:1009700002100A21CDE904104FF48061069149006C
:10098000079189000891491109914902CDE90A109E
:100990000121CDE90C10084C0E906946204600F06C
:1009A00055F80121204600F047F810B010BD0000B6
:1009B0004C200140A4020020106402401CB502201B
:1009C000009003208DF8040000208DF80700694690
:1009D000014800F07BF81CBD0000024010B5012169
:1009E000094800F027F90121080200F03BF9FFF760
:1009F000B7FFFFF7E3FFFFF7A7FF00F007F8BDE839
:100A00001040FFF789BF00000100400000B587B02B
:100A10000020012100908DF804108DF8051002903F
:100A200004908DF8141069460248FFF70FFF07B0D5
:100A300000BD0000002001400029016802D041F003
:100A4000010101E021F001010160704730B5036848
:100A5000124ACC6813400A682243D1E905452C4369
:100A60002243CC6922430C6A22434C6A22438C6A9B
:100A700022434C6B22438C6B22431A43026042692F
:100A800022F00703D1E90B2422431A4342610A6989
:100A900042604A6882608968C16030BD3F801CF056
:100AA0000021084A084600BF32F91030401CC0B28D
:100AB00019440A28F8D30A2091FBF0F00249088073
:100AC00070470000A4020020A6000020F0B500231B
:100AD000012403270D6804FA03F21540954242D120
:100AE000D0F800C05E0007FA06F52CEA050CC0F845
:100AF00000C091F804C0D0F800E00CFA06FC4CEA03
:100B00000E0CC0F800C091F804C0BCF1010F02D077
:100B1000BCF1020F1FD1D0F808C02CEA050CC0F8B8
:100B200008C091F805C0D0F808E00CFA06FC4CEAC1
:100B30000E0CC0F808C0D0F804C02CEA020CC0F8B3
:100B400004C0426891F806C00CFA03FC1FFA8CFC42
:100B500042EA0C024260C268AA43C260CA79C56810
:100B6000B2402A43C2605B1C102BB3D3F0BD4B07CD
:100B7000DB0E9A40C90810B500EB8100016A0F2412
:100B80009C40A1430162016A1143016210BD02460B
:100B9000002012690A4200D001207047024600205E
:100BA00052690A4200D00120704741837047018397
:100BB00070470AB1018370474183704770B50F21B8
:100BC000C478027801234FF0E026E4B1124C246887
:100BD00004F4E064C4F5E064C4F30724C4F104053C
:100BE000E1404478AC4085780D4025430B4C290109
:100BF0001155007800F01F018B40400906EB800082
:100C0000C0F8003170BD02F01F008340500906EBB0
:100C10008000C0F8803170BD0CED00E000E400E021
:100C20000249084302490860704700000000FA05C5
:100C30000CED00E0044A0029116801D0014300E0F6
:100C4000814311607047000030380240044A002997
:100C5000116801D0014300E081431160704700003A
:100C600040380240044A0029116801D0014300E0E5
:100C700081431160704700004438024070B5204A3B
:100C80001168204C11F00C0104D06610042903D027
:100C9000082903D004601BE0066019E01849091F09
:100CA0000B68C3F380550B6803F03F0315B1B6FB27
:100CB000F3F301E0B4FBF3F30C680968C4F38814A0
:100CC0006343C1F30141491C4900B3FBF1F10160E9
:100CD00011680F2303EA11110B4B5C5C0168E140C2
:100CE00041601468072505EA94241C5D21FA04F488
:100CF0008460126805EA52329A5CD140C16070BDCE
:100D0000083802400024F400A80000207CB501212E
:100D10000846FFF78FFF01210220FFF78BFF01211B
:100D20000420FFF787FF01210820FFF783FF01213F
:100D30001020FFF77FFF01212020FFF77BFF01211B
:100D40004020FFF777FF264D002423460122022191
:100D50001020CDE9004500F049F8002301220221CE
:100D60002020CDE9004500F041F81E4E0221CDE9DA
:100D7000004600230122480200F038F8CDE9004681
:100D8000022100230122084600F030F8CDE9004698
:100D9000012200230221104600F028F8022100233E
:100DA0000122C801CDE9004500F020F80E4D0023D6
:100DB0001A4602210420CDE9004500F017F800236F
:100DC000012202211020CDE9004500F00FF8002398
:100DD0001A4602212020CDE9004500F007F87CBD2D
:100DE00000000240000C0240000802401CB5059BB8
:100DF0008DF8042000908DF8051069461846FFF71D
:100E000065FE1CBDF0B52D4D074687B029462C4820
:100E100000F03EFE0021284600F09CFD012110203C
:100E2000FFF720FF01210846FFF704FF254C0722AA
:100E300009212046FFF79BFE07220A212046FFF7E3
:100E400096FE01260222CDE900640023114610021D
:100E5000FFF7CCFF0222CDE90064002311465002C7
:100E6000FFF7C4FF01210846FFF7E4FE02A800F0E7
:100E700043FE0020ADF80C00ADF80E00ADF81000F8
:100E8000ADF814000C20ADF81200029702A9284614
:100E900000F0A2FD01220021252000F0D9F9012255
:100EA00040F22551284600F07EFD012240F22661E5
:100EB000284600F078FD07B0F0BD000000100140AA
:100EC000F4000020000002402DE9FC41254E0746B9
:100ED0003146254800F0DCFD0021304600F03AFDA7
:100EE00001214804FFF7B2FE01210846FFF7A2FEE8
:100EF0001E4C072202212046FFF739FE072203215C
:100F00002046FFF734FE0125CDE9005402220023DC
:100F100011460420FFF76AFFCDE9005402220023A6
:100F200011460820FFF762FF01210846FFF782FE05
:100F30000C223946304600F073F9022200212620A7
:100F400000F086F9012240F22551304600F02BFDD9
:100F500002B03046BDE8F041012240F2266100F0C7
:100F600022BD0000004400403C010020000002407F
:100F70002DE9FC41254E07463146254800F088FD05
:100F80000021304600F0E6FC01218804FFF75EFEF8
:100F900001210820FFF74EFE1E4C072208212046A3
:100FA000FFF7E5FD072209212046FFF7E0FD0125B7
:100FB0000222CDE9005400231146D001FFF716FFAD
:100FC0000222CDE90054002311461002FFF70EFF64
:100FD00001210820FFF72EFE0C223946304600F092
:100FE0001FF903220021272000F032F9012240F2EC
:100FF0002551304600F0D7FC02B03046BDE8F04144
:10100000012240F2266100F0CEBC00000048004002
:1010100084010020000C02402DE9FC41254E0746CA
:101020003146254800F034FD0021304600F092FCA6
:101030000121C804FFF70AFE01210420FFF7FAFD91
:101040001E4C08220A212046FFF791FD08220B21A1
:101050002046FFF78CFD00250222CDE900542B46E7
:1010600011465002FFF7C2FE0222CDE900540023D0
:1010700011469002FFF7BAFE01210820FFF7DAFDC2
:101080000C223946304600F0CBF8002211463420BD
:1010900000F0DEF8012240F22551304600F083FCDA
:1010A00002B03046BDE8F041012240F2266100F076
:1010B0007ABC0000004C0040CC0100200008024037
:1010C0002DE9FC41284D07462946284800F0E0FC60
:1010D0000021284600F03EFC01210805FFF7B6FD7F
:1010E00001210420FFF7A6FD01210820FFF7A2FD42
:1010F0001F4C08220C212046FFF739FD1D4E082207
:1011000002213046FFF733FD20460124CDE900409F
:10111000022200231146D002FFF768FECDE9004607
:101120000222002311460420FFF760FE012108205F
:10113000FFF780FD0C223946284600F071F80322A3
:101140000021352000F084F8012240F22551284684
:1011500000F029FC02B02846BDE8F041012240F22F
:10116000266100F020BC0000005000401402002066
:1011700000080240000C02402DE9FC41254E0746C4
:101180003146254800F084FC0021304600F0E2FBA7
:1011900001212020FFF766FD01210420FFF74AFD11
:1011A0001E4C082206212046FFF7E1FC08220721F9
:1011B0002046FFF7DCFC0125CDE900540222002384
:1011C00011464020FFF712FECDE900540222002311
:1011D00011468020FFF70AFE01210846FFF72AFD8D
:1011E0000C223946304600F01BF8002211464720F9
:1011F00000F02EF8012240F22551304600F0D3FBDA
:1012000002B03046BDE8F041012240F2266100F014
:10121000CABB0000001401405C020020000802402C
:101220007FB5064614460D46684600F065FC002171
:10123000ADF80410ADF80810ADF80610ADF80C10BC
:101240000095ADF80A406946304600F0C5FB7FBD09
:1012500008B58DF800008DF801108DF802200120EE
:101260008DF803006846FFF7A9FC08BD0CB5002007
:101270002749019000900A6842F480320A604FF4D6
:10128000A0630A6802F400320092019A521C019293
:10129000009A12B9019A9A42F3D10A68920334D59E
:1012A000012000901A484030026842F080520260EB
:1012B0001848026842F4804202601548083002680B
:1012C0000260026842F400420260026842F4A052E6
:1012D0000260031F104A1A600A6842F080720A60B6
:1012E0000A689201FCD50D4A40F20561116001685F
:1012F00021F003010160016841F002010160016811
:10130000C1F381010229FAD10CBD00900CBD00008F
:10131000003802400070004008544007003C024082
:1013200042F6DE6302E01946491EFDD2401EFAD2A3
:1013300070470000124810B5016841F47001016067
:101340001048016841F0010101600E4A0021083295
:10135000116002680C4B1A400260031D0B4A1A60B0
:10136000026822F48022026006480C300160FFF718
:101370007DFF03494FF000608039086010BD000018
:1013800088ED00E000380240FFFFF6FE1030002438
:1013900010B54FF08044204601F02CFA00280ED002
:1013A000204601F03CFA204601F03CFA044800686F
:1013B00001F08AFA2046BDE8104001F03ABA10BDAB
:1013C0000000002010B50B4C204601F013FA002855
:1013D0000ED0204601F023FA204601F023FA0648F9
:1013E000006801F0E1FA2046BDE8104001F021BAA2
:1013F00010BD0000000400400000002010B50B4CA0
:10140000204601F0F7F900280ED0204601F007FA37
:10141000204601F007FA0648006801F065FB204607
:10142000BDE8104001F005BA10BD00000008004002
:1014300000000020C94301827047C9430182704700
:101440000029018802D041F0010101E021F00101F1
:101450000180704702460020138A92890B4202EAFB
:10146000010202D0002A00D001207047002A8289A0
:1014700001D00A4300E08A438281704730B5028878
:10148000164B174C98420DD0A0420BD0B0F1804FB4
:1014900008D0144DA84205D0134DA84202D0134DD8
:1014A000A84203D122F070054A882A43104DA84271
:1014B00006D0104DA84203D022F440750A892A4371
:1014C00002804A68C2620A880285984201D0A0421E
:1014D00001D1897A01860121818230BD000001405D
:1014E000000401400004004000080040000C0040DF
:1014F000001000400014004070B5184C40F2255513
:101500002946204600F030FA30B12946204600F046
:101510001BFA134800F0D8FA40F2277529462046F6
:1015200000F022FA30B12946204600F00DFA0C48AE
:1015300000F066F940F226652946204600F014FACC
:10154000002809D02946204600F0FEF9BDE8704089
:1015500002210448FFF729BB70BD0000004C004089
:10156000CC010020000C024070B5184C40F225550B
:101570002946204600F0F8F930B12946204600F00F
:10158000E3F9134800F0A0FA40F2277529462046F7
:1015900000F0EAF930B12946204600F0D5F90C48B0
:1015A00000F052F940F226652946204600F0DCF9A9
:1015B000002809D02946204600F0C6F9BDE8704051
:1015C00001210448FFF7F1BA70BD0000005000404F
:1015D00014020020000C024070B50446051D90F86E
:1015E000470095F94210814205D12068818921F098
:1015F0008001818170BD10210848FFF7D8FA94F965
:10160000471005F12000085C2168888015F8430F19
:10161000401C00F01F00287070BD00000000024058
:1016200070B5184C40F225552946204600F09CF92B
:1016300030B12946204600F087F9134800F044FAFB
:1016400040F227752946204600F08EF930B1294630
:10165000204600F079F90C48FFF7BEFF40F22665FE
:101660002946204600F080F9002809D02946204666
:1016700000F06AF9BDE8704010210448FFF795BA00
:1016800070BD000000100140F40000200000024086
:1016900070B50446051D90F8470095F94210814247
:1016A00005D12068818921F08001818170BD2021D0
:1016B0000848FFF77CFA94F9471005F12000085C10
:1016C0002168888015F8430F401C00F01F00287027
:1016D00070BD00000000024070B5184C40F2255566
:1016E0002946204600F040F930B12946204600F056
:1016F0002BF9134800F0E8F940F2277529462046F7
:1017000000F032F930B12946204600F01DF90C48AE
:10171000FFF7BEFF40F226652946204600F024F977
:10172000002809D02946204600F00EF9BDE8704097
:1017300020210448FFF739BA70BD00000044004082
:101740003C0100200000024070B50446051D90F8E1
:10175000470095F94210814205D12068818921F026
:101760008001818170BD4FF480610848FFF71FFA46
:1017700094F9471005F12000085C2168888015F86D
:10178000430F401C00F01F00287070BD000C024089
:1017900070B5184C40F225552946204600F0E4F873
:1017A00030B12946204600F0CFF8134800F08CF9FC
:1017B00040F227752946204600F0D6F830B1294678
:1017C000204600F0C1F80C48FFF7BEFF40F2266546
:1017D0002946204600F0C8F800280AD029462046AD
:1017E00000F0B2F8BDE870404FF480610348FFF7A5
:1017F000DCB970BD0048004084010020000C0240AC
:1018000070B50446051D90F8470095F942108142D5
:1018100005D12068818921F08001818170BD02217C
:101820000848FFF7C4F994F9471005F12000085C57
:101830002168888015F8430F401C00F01F002870B5
:1018400070BD0000000C024070B50446051D90F804
:10185000470095F94210814205D12068818921F025
:101860008001818170BD01210848FFF7A0F994F93A
:10187000471005F12000085C2168888015F8430FA7
:10188000401C00F01F00287070BD0000000C0240DA
:1018900070B50446051D90F8470095F94210814245
:1018A00005D12068818921F08001818170BD4FF4CC
:1018B00080710848FFF77BF994F9471005F1200083
:1018C000085C2168888015F8430F401C00F01F0059
:1018D000287070BD0000024070B5184C40F22555CC
:1018E0002946204600F040F830B12946204600F055
:1018F0002BF8134800F0E8F840F2277529462046F7
:1019000000F032F830B12946204600F01DF80C48AE
:10191000FFF7BEFF40F226652946204600F024F876
:1019200000280AD02946204600F00EF8BDE8704095
:101930004FF480710348FFF738B970BD00140140BF
:101940005C020020000002400A0A01219140C943C4
:10195000018070470029818902D041F4005101E0E3
:1019600021F400518181704730B501F01F0201243C
:101970000025C1F3421304FA02F2012B0FD0022B0F
:101980000FD0838A4FEA11210088134204FA01F430
:1019900000EA040001D000B10125284630BD83894A
:1019A000F0E7038AEEE710B5C1F3421301F01F041C
:1019B0000121A140012B07D0022B07D01430002AAF
:1019C000026805D00A4304E00C30F8E71030F6E76F
:1019D0008A43026010BD00007FB50446008A0D46B0
:1019E00020F44051E88808432082A08941F20C612C
:1019F0008843A9882A8911436A8902431143A18136
:101A0000A08A20F44071A8890843A0826846FFF7A5
:101A100035F91D48844202D01C48844201D1039804
:101A200000E00298A1890904002900EBC00101EB44
:101A30000010296802DA4FEA410101E04FEA810112
:101A4000B0FBF1F26420B2FBF0F14FEA01114FEA72
:101A500011136FF018056B4302EB8302A3891D0479
:101A60004FF0320306D503EBC202B2FBF0F000F0F8
:101A7000070005E003EB0212B2FBF0F000F00F00EC
:101A8000084320817FBD0000001001400014014088
:101A900040F8281B002141770177C1778177704793
:101AA00010F8441F4078814201D001207047002087
:101AB0007047011D90F94500085C11F8412F521C38
:101AC00002F01F020A70704730B500F1440211782D
:101AD0005278491C01F01F0103689B889142DBB2D8
:101AE00001D1002206E090F944500122041D2B553B
:101AF00080F84410104630BD4FF4165101600021AB
:101B00008180C18001810C2242818181704710F85F
:101B1000461F491C407801F01F01814201D001207D
:101B200070470020704730B50C460346021DFFF792
:101B3000EEFF01000ED092F84200151885F8204003
:101B4000401C00F01F0082F842001868828942F0B1
:101B500080028281084630BD7CB5017A05460124A9
:101B600004FA01F02146FFF765F828680023CDE963
:101B70000040A888012280B21946FFF737F97CBDE2
:101B8000002100F011B810B50446808881B22068A9
:101B9000FFF704F8C0F10100C2B2A08881B220684A
:101BA000BDE81040FFF705B805C8002991B201D083
:101BB000FEF7FBBFFEF7FBBF10B504461948C4E9AA
:101BC0000012814201D1002026E01748814201D154
:101BD000012021E01548814201D102201CE0144877
:101BE000814201D1032017E01248814201D1042033
:101BF00012E01148814201D105200DE00F488142D9
:101C000001D1062008E00E48814201D1072003E0FF
:101C10000C48814201D10820A0602046FFF79CFFBC
:101C2000204610BD000002400004024000080240AF
:101C3000000C024000100240001402400018024054
:101C4000001C024000200240406801280ED00228FB
:101C50000FD0032810D0042811D0052812D0062850
:101C600013D10A48012100BFFFF774BE01210848C3
:101C7000FAE701210748F7E701210748F4E70121C6
:101C80000648F1E701210648EEE7704700140140DD
:101C9000001001400044004000480040004C00405B
:101CA000005000402DE9F04116460D46074600243D
:101CB00006E0295D384600F00CF80028F9D0641CD5
:101CC000B442F6DBBDE8F0810068FFF7F2BE406881
:101CD000704710B50068FFF726FF002800D00120EC
:101CE00010BD10B50068FFF7DBFE002800D0012012
:101CF00010BD000010B504461046C4E901120129C8
:101D00000AD002290DD0032910D0042913D00529A7
:101D100016D0062919D01CE00F492160FFF772F890
:101D200017E00E492160FFF7CFF812E00C4921605F
:101D3000FFF71EF90DE00B492160FFF76DF908E090
:101D400009492160FFF7BCF903E008492160FFF76A
:101D500013FA204610BD0000F40000203C010020D2
:101D600084010020CC010020140200205C0200202D
:101D70002DE9F04700258146A846FFF7A8FF401E41
:101D8000C4B2354E5EE04846FFF79EFF014656F866
:101D9000240005F09AFC56F8240005F08FFC56F854
:101DA000240005F08FFCA4284CD1A43556F824005B
:101DB00005F084FC56F8240005F084FC2844C5B2E4
:101DC00056F8240005F07AFC56F8240005F07AFC59
:101DD00040062ED55FF0000756F8240005F072FC8F
:101DE0002844C5B256F8240005F068FC7F1C032F78
:101DF000F2DB56F8240005F065FCA84214D1164920
:101E0000002504EB4400243901EB400756F8240078
:101E100005F054FC56F8240005F054FC78556D1C70
:101E2000062DF3DB4FF0010856F8240005F046FCC0
:101E300007E056F8240005F04BFC56F8240005F0A6
:101E400047FC00254846FFF74CFF414630EA0800B2
:101E500099D10846BDE8F087DC00002010B50446A3
:101E6000217A6068FFF735FF0028F9D0617A606851
:101E7000FFF72FFF0028F9D0A17A6068FFF729FF4C
:101E80000028F9D0E06841786068FFF722FF002859
:101E9000F8D0E06801786068FFF71BFF0028F8D0F1
:101EA000207A617A0844A17A0844E1684A7809787E
:101EB00010440844C1B26068FFF70BFF0028EFD060
:101EC00010BD19B9427C0AB1082A00D34174704789
:101ED000024900EB400001EB40007047B8000020D1
:101EE000427C082A00D24174704700210174704777
:101EF00010B504460A48C4E90001022005F01AFCA6
:101F0000014600200880A422E16022726072A07263
:101F10000870E168487020746074204610BD0000AD
:101F200028980008418370474A1E092A16D2C9B270
:101F3000002241F020038372012907D0062907D02F
:101F4000092907D0C1680A80FFF788BF818A02E0AB
:101F5000C18A00E0018BC2681180F5E7704710B5B7
:101F60000446481E0C282AD2C8B20021A0720D28AF
:101F70001AD2DFE800F0190707090D0F1113151722
:101F800017171700608B00E0A08BE16808800BE05A
:101F9000E08BFAE7208CF8E7608CF6E7A08CF4E79A
:101FA000E08CF2E7E06801802046FFF757FF207CD5
:101FB000401CC0B22074152801D91520207410BD12
:101FC000B0F91210B1F5FA7F01DA012100E0032126
:101FD000FFF7C5BF428B002112B181834182704758
:101FE000428A40F6AC53521C12B242829A42F6DD4B
:101FF0004FF4FA724282818370472DE9F05F8B467D
:102000000025DDE90A1CDDE90CAE2C46AD1A9C4129
:1020100002DA14461D4603E00025544265EB030531
:10202000322700263C1BAE4173DA00252C46AD1A40
:102030009C4102DA16461F4603E00027564267EB32
:1020400003074FF42F750024AD1BBC4109DAB0F92A
:102050002E20A2FB0104D31703FB014102FB0C114C
:102060004BE000252C46AD1A9C4102DA9046994679
:1020700005E04FF00009D2F1000869EB03094FF4C5
:10208000E1750024B5EB080574EB09040ADAB0F930
:102090003000A0FB0134C21702FB014100FB0C1110
:1020A000122218E000252C46AD1A9C4103DB0024C7
:1020B000524264EB0303C825AA1AB0F93000002489
:1020C0009C41A0FB01344FEAE07202FB01410ADAB5
:1020D00000FB0C110F22A3FB020501FB025100249F
:1020E00003FB041109E000FB0C140A21A3FB01050A
:1020F00004FB0151002203FB021152467346FEF716
:10210000B9F8DC46BDE8F04F00B25DF804EB60477B
:10211000FFE700214183BDE8F09F2DE9F05F0AACA5
:102120008246B4E8031000252C46DDF834B0AD1A21
:102130009C4102DA14461D4603E00025544265EB3B
:102140000305322700263C1BAE4174DA00252C46DD
:10215000AD1A9C4102DA16461F4603E0002756429C
:1021600067EB03074FF42F750024AD1BBC410CDA5D
:10217000BAF92E20A2FB0045D31703FB005002FB47
:10218000010162465B4620464DE000252C46AD1A13
:102190009C4102DA9046994605E04FF00009D2F1E1
:1021A000000869EB03094FF4E1750024B5EB08055D
:1021B00074EB09040ADABAF93020A2FB0045D31700
:1021C00003FB005002FB0101122318E000252C46FE
:1021D000AD1A9C4103DB0024524264EB0303C82583
:1021E000AA1A0024BAF930209C41A2FB00454FEA0C
:1021F000E27303FB00500ADA02FB01010F23A4FB88
:10220000030501FB0351002204FB021109E002FB5C
:1022100001020A23A4FB030502FB0352002104FB75
:10222000012162465B46FEF725F801B25046BDE843
:10223000F05F00F02DB80020AAF81A00BDE8F09F6A
:102240002DE9F0410025DDE90617DDE9086C2C4693
:10225000AD1A9C4103DB0025524265EB03030525C3
:102260000024AA1A9C4110DAB0F92E200446A2FBE1
:102270000105D31703FB015102FB071132466346E8
:10228000FDF7F8FF6083BDE8F08100214183FAE7A4
:102290004A1EC72A01D2C82104E011F1C70201D3A6
:1022A0006FF0C7014183704710B5FFF721FE0B495E
:1022B000016000214183C185018681838182C182C1
:1022C0000183C183018441848184C1840185418566
:1022D00081854FF4FA71418210BD000038980008E2
:1022E00010B5044604210C48FEF751FC0B490023AD
:1022F0004A7882420CD00A78642A06D9487008B11C
:10230000A37406E00120A07403E0521C0A7000E0F0
:102310000B70A07C10BD000000080240A00000204F
:10232000C17C044800294FF0100101D0FEF73DBCEC
:10233000FEF73DBC0008024010B50446807A00F06C
:10234000F00040F00200A072E26800201080E06817
:1023500001702046FFF782FD207C401CC0B2207433
:10236000142801D91420207410BD10B50446807AB9
:1023700000F0F00040F00300A072E268002010803E
:10238000E2681170E16848702046FFF767FD207C25
:10239000401CC0B22074142801D91420207410BD30
:1023A00010B5FFF7A5FD0649016003214172817A4E
:1023B00041F0300181720021C174817410BD0000B0
:1023C000489800081CB508A2D2E90012CDE9001215
:1023D000817C8DF80410BC318DF805104068062210
:1023E0006946FFF75FFC1CBDA40117000000000058
:1023F000822901D9052102E07F2902D904218174B3
:1024000070477C2901D90321F9E7792901D90221F3
:10241000F5E7762901D90121F1E70021EFE7000076
:1024200010B5FFF765FD024901600121817410BDFF
:102430005898000810B50446807CA072E168A07D21
:102440000870E168607D48702046FFF707FD207C3A
:10245000401C207410BD000010B5FFF749FD06496F
:1024600001600A214172002181720522C274017546
:1024700041758175817410BD689800082DE9F0419F
:102480000025884604462F463EE04046FFF71CFCE8
:102490000146206905F019F9206905F00FF9206956
:1024A00005F010F9A5282FD1A535EEB2206905F069
:1024B00005F9206905F006F9000621D400252069F8
:1024C00005F000F93044C6B2206905F0F7F86D1C3C
:1024D0000B2DF4DB206905F0F5F8B0420CD1002596
:1024E000206905F0EBF8206905F0ECF8A169485582
:1024F0006D1C0D2DF4DB0127206905F0DFF802E0EB
:10250000206905F0E5F800254046FFF7EAFBB843EF
:10251000BBD13846BDE8F0812DE9F0410546C168E0
:10252000FFF7ACFF0F4C002610B1268001210FE011
:1025300021884FF4FA77B94203D2491C2180BDE8C3
:10254000F0812846A968FFF799FF18B1668002213B
:102550006960F4E76188B94202D2491C6180EEE704
:102560006E60ECE7A200002042684169012A03D0B6
:1025700080680D22FFF796BBC068FAE710B500220D
:1025800044698B5CA354521C0D2AF9DB10BD00007A
:1025900070B5044611480025C4E90005C4E90221CC
:1025A000082005F0C7F80D2105F096F820610D20F0
:1025B00005F0BBF860610D2005F0B7F8A0610020C0
:1025C00061690D54401C0D28FADB0020A1690D54EF
:1025D000401C0D28FADB204670BD000078980008EA
:1025E00010B5044606F0FAF9C0F30B00608210BD86
:1025F00010B5FEF7F3F9BDE810400148FEF786B9C3
:102600000020014070B504460848C4E900010220DA
:1026100005F090F800250580A060022005F08AF8FA
:102620000580E0606582204670BD00008898000843
:10263000202900D2C1757047C174704781747047FA
:1026400041757047052900D28175704710B5044661
:102650000020E1680880207D0028E068417802D0F1
:1026600041F0010101E001F0FE014170607D0028B0
:10267000E068417802D041F0200101E001F0DF0183
:102680004170A07C0028E068417802D041F0400110
:1026900001E001F0BF014170E07C0028E068417872
:1026A00002D041F0800101E001F07F014170E1685A
:1026B000E27D087810430870A27DE16840EA42108C
:1026C00008702046FFF7CAFB207C401CC0B2207473
:1026D000142801D91420207410BD00001CB50AA1D3
:1026E0000446D1E90001CDE900010622694660688F
:1026F000FFF7D8FA207C401CC0B22074142801D9FE
:10270000142020741CBD0000A40932B5F589000016
:1027100010B5FFF7EDFB0749016009214172817A8D
:1027200041F03101817200218174C17401754175DC
:1027300010BD0000989800083EB50446012956DBFC
:10274000481E042802D240F28F102EE0481F0528B0
:1027500002D240F21F3028E0A1F10A00282802D25C
:1027600040F2DB5021E0A1F13200322802D240F6E3
:102770005F101AE0A1F16400B0F5C87F02D241F207
:10278000670012E0A1F5FA7040F6C412904202D23E
:1027900042F2CF0009E0A1F6B830B0F5FA6F02D2EC
:1027A00044F29F1001E04AF20F40A08110484143DB
:1027B000A089401C91FBF0F0401EA0600190A08910
:1027C000ADF800000020ADF80800ADF80200207957
:1027D0008DF80A0069462069FEF750FE0121206944
:1027E000FEF728FE012211462069FEF73FFE3EBD9E
:1027F000204801000121FEF72DBE08B50175427584
:1028000002788DF800208DF80110407D8DF80200CF
:1028100001208DF803006846FEF7D0F908BD0121BC
:10282000FEF70BBE0021FEF70BBE00690021FEF78C
:1028300007BE0121FEF704BE00690121FEF700BEBC
:1028400010B504460161B1F1804F07D01A488142AA
:1028500009D11D200121206002201BE01C20012144
:102860002060084616E01548814204D11E2001214F
:10287000206004200EE01248814204D13220012160
:102880002060082006E00F48814205D137202060F3
:1028900001212020FEF7DAF9002211462046FFF739
:1028A000ACFF0020207101212046FFF745FF2046A4
:1028B000FFF7BBFF204610BD0004004000080040A9
:1028C000000C00400014004070B50446C06C007954
:1028D0002076A06DFFF704FD10B1204604F05AFDEC
:1028E00094F82000012803D0207E012528B109E0BA
:1028F0002046BDE8704001F0F3BE204601F0EEFC3A
:1029000084F82150204601F023FD94F8240000288B
:1029100046D0204601F0F8FD94F8260000283FD06C
:10292000204600F049F994F82700002838D0E06CE0
:10293000FFF7F2FD68B184F82150204602F030FF25
:10294000204604F0EBF9204603F046FCE06CFFF76C
:102950000BFE204602F0B8F8204602F0E1FB2046CC
:1029600002F008FF0F4CA06DFFF734FBE06DFFF79E
:1029700031FB206EFFF72EFB606EFFF72BFBA06E86
:10298000FFF728FBE06EFFF725FB206FFFF722FB28
:10299000606FFFF71FFBA06FBDE87040FFF71ABB29
:1029A00070BD00000800002070B5044602F0AAF9CE
:1029B00094F8250000286FD0204603F07FF894F8A3
:1029C0002400002868D0204603F01CF994F8260063
:1029D000002861D0204602F0EDFA94F82700002884
:1029E0007FD0204602F084FB94F82800002878D09D
:1029F00094F82100002874D03A4DA8780B2866D2AC
:102A0000DFE800F0061117252D3B41464B515500DC
:102A1000A86DFFF7D5FA207E0028206D15D1002182
:102A20008183206D0FE0E86DFFF7CAFA0021A06DE9
:102A300012E0286EFFF7C4FA207E0028606D04D1F2
:102A400000218183606D032110E002210EE0686E99
:102A5000FFF7B6FA0121A06DFFF787FC37E0A86EFB
:102A6000FFF7AEFA207E20B10221686DFFF777FAFA
:102A70002DE0686D00218183E5E7E86EFFF7A0FA9D
:102A80000221A06DE8E7286FFFF79AFA206D08E0B1
:102A9000686FFFF795FA1AE023E0A86FFFF790FA46
:102AA000606D0921E2E7E06DFFF7D0FD0FE0207EC9
:102AB000012802D1A06EFFF7BDFCE978A06D49B2F4
:102AC000FFF73AFCE878401C00F00300E870A878B3
:102AD000401CC0B2A8700B2803D10020A87084F855
:102AE000210070BD0800002010B50446806DFFF77E
:102AF00017FC606EFFF766FC207E02280AD0207E5D
:102B0000012809D02069FFF73BF86069BDE8104053
:102B1000FFF736B8206900E06069BDE81040FFF7B4
:102B200032B800002DE9F041214C40F2DC57214E33
:102B3000226A40F24C45B2F90020BA4209DB626ACF
:102B4000B2F90020AA4204DBE269B2F90020B242E5
:102B50002CDD002202F022F9206A44F62062B0F94E
:102B600000104FF4FA70B942216E01DA8A8301E055
:102B700000238B834882616AB1F90010A942616E1B
:102B800002DA8A83488202E0488200228A83E1696D
:102B9000B1F90010B142E16D02DD4BF2E01200E04C
:102BA00000228A8348820020BDE8F0810120FBE7F3
:102BB00008000020E0FCFFFF70B5044690F82700F5
:102BC000002600281DD1E06990F900206E490B25F0
:102BD0000B2AC96C16DA0846FFF7CAF8002810D08D
:102BE0003046FFF775F9417800290AD181786629C6
:102BF00007D1C1784F2904D100794B2801D1E06970
:102C0000057070BD90F901200B2A16DA0846FFF70F
:102C1000AFF80028F5D03046FFF75AF9417801297E
:102C2000EFD181786629ECD1C1784F29E9D10079BB
:102C30004B28E6D1E069457070BD90F902200B2A5F
:102C400016DA0846FFF794F80028F5D03046FFF76B
:102C50003FF941780229EFD181786629ECD1C1781A
:102C60004F29E9D100794B28E6D1E069857070BD24
:102C700090F903200B2A16DA0846FFF779F80028A6
:102C8000F5D03046FFF724F941780329EFD1817858
:102C90006629ECD1C1784F29E9D100794B28E6D1DA
:102CA000E069C57070BD90F904200B2A16DA084659
:102CB000FFF75EF80028F5D03046FFF709F94178B4
:102CC0000429EFD181786629ECD1C1784F29E9D167
:102CD00000794B28E6D1E069057170BD90F90520B7
:102CE0000B2A16DA0846FFF743F80028F5D03046DD
:102CF000FFF7EEF841780529EFD181786629ECD10C
:102D0000C1784F29E9D100794B28E6D1E0694571B6
:102D100070BD90F906200B2A16DA0846FFF728F84E
:102D20000028F5D03046FFF7D3F841780629EFD1D7
:102D300081786629ECD1C1784F29E9D100794B28F7
:102D4000E6D1E069857170BD90F907000B2816DAAD
:102D50000846FFF70DF80028F5D03046FFF7B8F821
:102D600041780729EFD181786629ECD1C1784F29C4
:102D7000E9D100794B28E6D1E069C57170BD012029
:102D800084F8270070BD000008000020002280F8B1
:102D900027201146C3695A54491C0D29FADB704794
:102DA00070B53D4E0C462DED088B44F25061B06974
:102DB000B0F90050F069B0F90000084406F0C7F817
:102DC0009FED36AB53EC1A2B06F028F99FED359B9F
:102DD00053EC192B06F022F99FED34BB53EC1B2B5F
:102DE00005F02EFF41EC180B306AB0F9000006F038
:102DF000AEF853EC1A2B06F011F953EC192B06F030
:102E00000DF953EC1B2B05F01BFF41EC100B51ECA3
:102E1000190B53EC102B06F00DFB53EC182B06F09E
:102E200009FB41EC100B04F0CFFF9FED221B51EC8E
:102E3000100B53EC112B06F0F1F841EC190BB0EE2E
:102E4000480AF0EE680A04F0BFFF9FED1C1B51EC2E
:102E5000100B53EC112B06F0E1F853EC192B05F095
:102E60003BFE9FED181B53EC112B06F0D5F906D253
:102E7000604200B2002C04DA14498D4205DC0020C7
:102E800003E043F20C018D42F9DABDEC088BBDE89A
:102E9000704003F029B80000080000200000000086
:102EA00000000040E0864454FB210940000000007F
:102EB0000094E140000000008047EA40000000006C
:102EC000003FEB40000000000011E240F4CFFFFFA4
:102ED0002DE9F04F1F462DED108B83B014460E46A2
:102EE00083469FEDFDCB90F822004FF0000A9FED46
:102EF000FCAB9FEDFDBBFE4D0028A5F180086ED117
:102F000004F1080090EC040B51EC100B53EC112B66
:102F100005F0E2FD41EC100B04F056FF53EC1A2BC8
:102F200051EC100B06F07AF841EC180B94ED020B03
:102F300004F04AFF53EC1B2B51EC100B06F06EF81B
:102F400053EC182B06F076FA41EC180B94ED000BBD
:102F500004F03AFF53EC182B51EC100B06F05EF81E
:102F600041EC100B85ED000B94ED000B04F098FF85
:102F700053EC182B51EC100B06F050F841EC100BF1
:102F800004F1080085ED020B90EC040B51EC100BE2
:102F900053EC112B05F0A0FD41EC100B04F080FF69
:102FA00053EC1A2B51EC100B06F038F841EC180BCF
:102FB00094ED020B04F074FF53EC1B2B51EC100B3F
:102FC00006F02CF853EC182B06F034FA41EC100BF9
:102FD000012185ED040B88F80BA08BF8221007EB7C
:102FE00047099FEDC4DB9FEDC5EB9FEDC6FB9FED51
:102FF000C78B9FEDC89B012E06D0022E7ED0032EDC
:103000007DD0002E7CD0F0E204F1080090EC040B9F
:1030100051EC100B53EC112B05F05EFD41EC100B45
:1030200004F0D2FE53EC1A2B51EC100B05F0F6FF16
:1030300041EC1C0B94ED020B04F0C6FE53EC1B2B71
:1030400051EC100B05F0EAFF53EC1C2B06F0F2F9E3
:1030500041EC1C0B98F90B00022802D003280FD07A
:1030600036E094ED000B04F0AFFE53EC1C2B51EC5A
:10307000100B05F0D3FF41EC100B85ED000B27E0A2
:1030800004F1080090EC040B51EC100B53EC112BE5
:1030900005F022FD41EC100B04F002FF53EC1A2B5B
:1030A00051EC100B05F0BAFF41EC1A0B94ED020B3A
:1030B00004F0F6FE53EC1B2B51EC100B05F0AEFFA9
:1030C00053EC1A2B06F0B6F941EC100B85ED040B0E
:1030D000484605F03CFF41EC1A0B94ED000B04F060
:1030E000DFFE53EC1C2B51EC100B05F097FF53EC5B
:1030F0001A2B05F0F1FC41EC100B02E0D2E075E276
:10310000B5E385ED020B53EC102B05F087FF95ED31
:10311000000B41EC1A0B53EC102B51EC100B05F08B
:103120007DFF53EC1A2B05F0D7FC95ED040B41EC19
:103130001B0B53EC102B51EC100B05F06FFF53ECF5
:103140001B2B05F0C9FC41EC1A0BB0EE4B0AF0EE5C
:103150006B0A04F011FFB0EE40BAF0EE60BAB0EEC8
:103160004A0AF0EE6A0A04F007FFB0EE40CAF0EE39
:1031700060CA9FED6A0B53EC102B95ED000B51ECE0
:10318000100B05F00FFF0CD2D8F85820A2F81AA0A7
:10319000D8F85C20A2F81AA0D8F86000A0F81AA00D
:1031A0001FE295ED000B53EC102B95ED020B51EC4B
:1031B000100B05F045FD41EC100B04F091FC53ECB5
:1031C000182B51EC100B05F029FF53EC192B05F0CF
:1031D00037FD41EC100B53EC1D2B8DED000B51EC2A
:1031E0001C0B05F01BFF41EC1C0B53EC1E2B51EC90
:1031F0001A0B05F071FC53EC1F2B06F01BF953EC76
:103200001C2B05F01DFD41EC100B04F0C1FAB0EED3
:1032100040CAF0EE60CA95ED040B53EC1B2B51EC49
:10322000100B05F00DFD41EC100B04F059FCB0EE55
:10323000401AF0EE601A53EC1C2B51EC110B05F008
:103240004BFC9FED381B53EC112B06F0F3F853ECBD
:10325000182B05F0E3FE53EC192B05F0F1FC53ECB1
:10326000182B06F0E7F89FED310B41EC1B0B53ECEC
:103270001A2B51EC100B06F0DDF89FED2E1B53ECD2
:10328000112B05F0DDFC41EC100B04F081FA53EC3E
:10329000182B51EC100B05F0C1FE53EC192B05F067
:1032A000CFFC89E104F1080090EC040B51EC100B09
:1032B00053EC112B05F010FC41EC100B04F084FDD5
:1032C00053EC1A2B51EC100B05F0A8FE41EC1C0B33
:1032D00094ED020B32E0000000000000000000004E
:1032E0009A99999999D1804000000000007081401E
:1032F00088000020000000000070914000000000E5
:10330000100113415C8FC2F5ECAD114100000000CB
:103310000094D140E0864454FB21094000000000A5
:1033200000C07240844A5CC7B8E2923FAE47E17A7F
:103330007E572241666666666E54224104F044FD63
:1033400053EC1B2B51EC100B05F068FE53EC1C2BBF
:1033500006F070F841EC1C0B98F90B00012802D024
:1033600003280FD036E094ED000B04F099FD53ECE8
:103370001C2B51EC100B05F051FE41EC100B85EDB0
:10338000020B27E004F1080090EC040B51EC100B49
:1033900053EC112B05F0A0FB41EC100B04F080FD69
:1033A00053EC1A2B51EC100B05F038FE41EC1A0BC4
:1033B00094ED020B04F074FD53EC1B2B51EC100B3D
:1033C00005F02CFE53EC1A2B06F034F841EC100BF0
:1033D00085ED040B09EBD970401005F0B8FD41EC08
:1033E0001A0B94ED000B04F0EFFC53EC1C2B51EC8A
:1033F000100B05F013FE53EC1A2B05F06DFB41EC9E
:103400001A0B85ED00AB95ED020B53EC102B51EC34
:10341000100B05F003FE41EC1B0B53EC1A2B51EC87
:103420001A0B05F0FBFD53EC1B2B05F055FB95ED3E
:10343000040B41EC1B0B53EC102B51EC100B05F063
:10344000EDFD53EC1B2B05F047FB41EC1A0BB0EEE6
:103450004B0AF0EE6B0A04F08FFDB0EE40BAF0EECE
:1034600060BAB0EE4A0AF0EE6A0A04F085FDB0EEEA
:1034700040CAF0EE60CA95ED000B53EC102B95EDB1
:10348000020B51EC100B05F0DBFB41EC100B04F0D0
:1034900027FB53EC182B51EC100B05F0BFFD53EC40
:1034A000192B05F0CDFB41EC100B53EC1D2B8DEDD2
:1034B000000B51EC1C0B05F0B1FD41EC1C0B53EC67
:1034C0001E2B51EC1A0B05F007FB53EC1F2B05F0DC
:1034D000B1FF53EC1C2B05F0B3FB41EC100B04F0D7
:1034E00057F9B0EE40CAF0EE60CA95ED040B53EC0C
:1034F0001B2B51EC100B05F0A3FB41EC100B04F05F
:10350000EFFAB0EE401AF0EE601A53EC1C2B51ECBF
:10351000110B05F0E1FA1FED7D1B53EC112B05F0AB
:1035200089FF53EC182B05F079FD53EC192B05F0AE
:1035300087FB53EC182B05F07DFF53EC1A2B41EC65
:103540001B0B1FED860B51EC100B05F073FF1FEDED
:10355000871B53EC112B05F073FB41EC100B04F0AF
:1035600017F953EC182B51EC100B05F057FD53ECE9
:10357000192B05F065FB41EC180B9FEDD70B53ECB5
:10358000102B95ED000B51EC100B05F00BFD02D24A
:10359000002FFFF6F9AD9FEDD20B53EC102B95EDFC
:1035A000000B51EC100B05F037FE1AD27900032006
:1035B00091FBF0F751EC180B05F09AFC814651ECA9
:1035C0001B0B05F095FC9DED000B044651EC100B18
:1035D00005F08EFC01464B4622460097584601F006
:1035E00045FC88F80B6095ED00CB49E104F108003B
:1035F00090EC040B51EC100B53EC112B05F06CFA12
:1036000041EC100B04F0E0FB53EC1A2B51EC100BC7
:1036100005F004FD41EC1C0B94ED020B04F0D4FB0F
:1036200053EC1B2B51EC100B05F0F8FC53EC1C2B4E
:1036300005F000FF41EC1C0B98F90B00012802D0AB
:1036400002280FD01CE094ED000B04F029FC53EC91
:103650001C2B51EC100B05F0E1FC41EC100B85ED3F
:10366000020B0DE094ED000B04F0AEFB53EC1C2BB1
:1036700051EC100B05F0D2FC41EC100B85ED000B6A
:10368000384605F064FC41EC1C0B04F1080090EC9A
:10369000040B51EC100B53EC112B05F01DFA41EC0F
:1036A000100B04F0FDFB53EC1A2B51EC100B05F042
:1036B000B5FC41EC1A0B94ED020B04F0F1FB53EC5A
:1036C0001B2B51EC100B05F0A9FC53EC1A2B05F049
:1036D000B1FE53EC1C2B05F0FFF941EC1A0B85ED04
:1036E00004AB95ED020B53EC102B51EC100B05F0D5
:1036F00095FC95ED000B41EC1B0B53EC102B51ECA2
:10370000100B05F08BFC53EC1B2B05F0E5F941EC9D
:103710001B0B53EC1A2B51EC1A0B05F07FFC53ECEE
:103720001B2B05F0D9F941EC1A0BB0EE4B0AF0EE69
:103730006B0A04F021FCB0EE40BAF0EE60BAB0EED5
:103740004A0AF0EE6A0A04F017FC53EC1D2B51EC08
:10375000100B05F063FC41EC1C0B53EC1E2B51ECE1
:103760001A0B05F0B9F953EC1F2B05F063FE53EC6F
:103770001C2B05F065FA41EC100B04F009F8B0EED3
:1037800040CAF0EE60CA95ED040B53EC1B2B51ECD4
:10379000100B05F055FA41EC100B04F0A1F9B0EE56
:1037A000401AF0EE601A53EC1C2B51EC110B05F093
:1037B00093F99FED4D1B53EC112B05F03BFE53ECA1
:1037C000182B05F02BFC53EC192B05F039FA53ECB0
:1037D000182B05F02FFE53EC1A2B41EC1B0B9FED21
:1037E000440B51EC100B05F025FE9FED431B53ECF1
:1037F000112B05F025FA41EC100B03F0C9FF53EC37
:10380000182B51EC100B05F009FC53EC192B05F0AB
:1038100017FA9FED3B0B41EC1A0B53EC102B95ED77
:10382000000B51EC100B05F0BDFBFFF4ADAC032019
:1038300097FBF0F751EC1A0B05F05AFB824651EC5E
:103840001B0B05F055FB94ED000B814653EC182B38
:1038500051EC100B05F0E2FB53EC192B05F0F0F9DD
:1038600005F046FB014653464A460097B6E600205F
:1038700002F03AFB002002F063FA002002F0D8FBCD
:10388000D8F85C004446418BD8F86000408B08446F
:1038900001B2D8F86400FEF745FBA06DB0F91A003C
:1038A00005F055FB9FED181B53EC112B05F0B6FBF3
:1038B00005F01EFB404201B2A06EFEF733FB5846F6
:1038C00001F088F803B0B0EE4C0AF0EE6C0ABDECE3
:1038D000108BBDE8F08F00000000000000A07440D5
:1038E0000000000000406F40844A5CC7B8E2923F8D
:1038F000AE47E17A7E572241666666666E54224183
:103900000000000000C0724026E4839ECD2AF63FEE
:1039100070B508462DED108B82B09FEDFD8BFE4CEF
:1039200005F015FB41EC190BE06944F25061B0EE73
:1039300048BAB0F90000F0EE68BAB0EE48AAF0EE6E
:1039400068AA084405F003FB9FEDF4FB53EC1F2B22
:1039500005F064FB9FEDF3DB53EC1D2B05F05EFBE4
:103960009FEDF21B53EC112B05F06AF941EC1C0B97
:10397000206AB0F9000005F0EAFA53EC1F2B05F0BD
:103980004DFB53EC1D2B05F049FB9FEDE81B53EC61
:10399000112B05F055F941EC1E0B606AB0F90000DF
:1039A00005F0D5FA53EC1F2B05F038FB53EC1D2B1B
:1039B00005F034FB9FEDDD1B53EC112B05F040F9B6
:1039C00041EC1F0B53EC1E2B51EC1D0B05F032FD8F
:1039D00053EC1C2B05F02EFD41EC100B53EC1C2B73
:1039E0008DED000B9FEDD30B51EC100B05F022FD7C
:1039F00041EC1D0B53EC1E2B51EC1F0B05F01AFD77
:103A000053EC1D2B05F068F841EC1E0BB0EE4C0A90
:103A1000F0EE6C0A04F0D8F99FEDC81B51EC100BC6
:103A200053EC112B05F0FAFA41EC1C0B9DED000B49
:103A300004F0CAF99FEDC31B51EC100B53EC112B92
:103A400005F0ECFA41EC1D0B51EC1C0B53EC1D2B5B
:103A500005F042F80E46054646EC1C0BB0EE4E0A49
:103A6000F0EE6E0A04F01CFA9FEDB81B51EC100B3F
:103A700053EC112B05F0D2FA53EC1C2B05F002FC91
:103A800041EC1F0B9FEDB3EB51EC1C0B53EC1E2BC9
:103A900005F088FA06D353EC1E2B51EC1F0B05F0F2
:103AA00081FA06D253EC182B51EC190B05F0B4FB3C
:103AB0003AD353EC182B51EC190B05F073FA08D2DA
:103AC0009FEDA60B51EC1C0B53EC102B05F06AFA82
:103AD0002AD3B0EE480AF0EE680A53EC102B51ECF2
:103AE000190B05F05FFA0DD2206A43F2C821B0F934
:103AF0000000884218DC606A43F69821B0F90000A3
:103B0000884211DCB0EE49AAF0EE69AA46EC1B5BD4
:103B100053EC1D2B51EC190B05F080FA53EC1B2BC9
:103B200005F08EF841EC1B0B51EC1A0B53EC1B2BE0
:103B300005F080FC41EC1D0B53EC182B51EC1A0BDB
:103B400005F06AFB04D2B0EE4AEAF0EE6AEA05E05C
:103B500051EC1A0B04F0B3FF41EC1E0BB0EE48CA57
:103B6000F0EE68CA53EC1C2B51EC1B0B05F054FB18
:103B700004D2B0EE4B0AF0EE6B0A05E051EC1B0BE1
:103B800004F09DFF41EC100B53EC1E2B51EC100B7D
:103B900005F042FB53EC1C2B0CD251EC1B0B05F037
:103BA0003BFB04D2B0EE4B8AF0EE6B8A12E051EC94
:103BB0001B0B0BE051EC1A0B05F02EFB04D2B0EE00
:103BC0004A8AF0EE6A8A05E051EC1A0B04F077FF9E
:103BD00041EC180B53EC1C2B51EC1D0B05F01CFB9E
:103BE00004D2B0EE4DEAF0EE6DEA05E051EC1D0BAB
:103BF00004F065FF41EC1E0B53EC1C2B51EC180B31
:103C000005F00AFB04D2B0EE480AF0EE680A05E0BF
:103C100051EC180B04F053FF41EC100B53EC1E2B2E
:103C200051EC100B05F0F8FA53EC1C2B07D251ECB9
:103C3000180B05F0F1FA12D351EC180B0BE051EC14
:103C40001D0B05F0E9FA04D2B0EE4D8AF0EE6D8A54
:103C500005E051EC1D0B04F032FF41EC180B53EC66
:103C60001C2B51EC190B05F0D7FA05D351EC190BAD
:103C700004F025FF41EC190B53EC182B51EC1B0BF6
:103C800004F0DEFF53EC192B05F0C8F941EC1B0BD7
:103C900053EC182B51EC1A0B04F0D2FF53EC192BF8
:103CA00005F0BCF941EC1A0B53EC182B51EC1D0B31
:103CB00004F0C6FF53EC192B05F0B0F941EC180BDA
:103CC00051EC1B0B05F014F900B202F039F851EC7D
:103CD0001A0B04F0F4FE05F00BF900B202F0A8F99B
:103CE00051EC180B04F0EBFE05F002F900B201F004
:103CF000A3FBE06D408B30B1206E408B18B1606E3D
:103D0000408B002838D1002002F01AF8002029E06A
:103D1000000000000000000008000020000000007B
:103D200000000040E0864454FB21094000000000F0
:103D30000094E140E0864454FB21F93F000000007C
:103D4000003FEB40000000008047EA400000000018
:103D5000006AD840000000000088E3400000000036
:103D60000046DE4002F064F902B00020BDEC108B8A
:103D7000BDE8704001F060BB02B0BDEC108B70BDBF
:103D80002DE9F34F8B462DED108B87B044F2506A2E
:103D90009FEDFD8BFE4989468A69B0EE489AF0EEA8
:103DA000689AB2F900600A6AB2F900504A6AC969B1
:103DB000B2F90040B1F9001001EB0A0005F0C7F8B4
:103DC0009FEDF4EB53EC1E2B05F028F99FEDF3CBA0
:103DD00053EC1C2B05F022F99FEDF2FB53EC1F2B4B
:103DE00004F02EFF9FEDF1BB53EC1B2B04F074FE8F
:103DF00041EC1A0B284605F0AAF853EC1E2B05F0EF
:103E00000DF953EC1C2B05F009F953EC1F2B04F0B2
:103E100017FF41EC1D0B204605F099F853EC1E2BC3
:103E200005F0FCF853EC1C2B05F0F8F853EC1F2BB5
:103E300004F006FF41EC1F0B53EC1D2B51EC1C0B47
:103E400005F0F8FA53EC1A2B05F0F4FA41EC1E0BCE
:103E500053EC1A2B51EC1B0B05F0ECFA53EC1B2B1B
:103E600004F03AFE41EC1C0B53EC1D2B51EC1F0BE4
:103E700005F0E0FA53EC1C2B04F02EFE41EC100B85
:103E80008DED040BB0EE4A0AF0EE6A0A03F09CFFD7
:103E90009FEDC8DB51EC100B53EC1D2B05F0BEF869
:103EA00041EC100B8DED020BB0EE4E0AF0EE6E0AF7
:103EB00003F08AFF9FEDC1FB51EC100B53EC1F2B5D
:103EC00005F0ACF841EC1C0B53EC1B2B51EC1A0B1E
:103ED00005F0B0FA804641EC100B019103F0E0FFD1
:103EE00053EC1D2B51EC100B05F098F841EC1A0B1C
:103EF00053EC1B2B51EC1E0B04F0EEFD074641EC7E
:103F0000100B009103F0CCFF53EC1F2B51EC100B66
:103F100005F084F841EC1B0B009941EC107B03F099
:103F200053FF53EC1F2B51EC100B05F077F841ECCD
:103F30001E0B019941EC108B03F046FF53EC1D2B37
:103F400051EC100B05F06AF853EC1E2B04F0C4FD85
:103F500041EC1D0B9DED040B03F0A2FF9FED991B9F
:103F600051EC100B53EC112B05F058F853EC1D2BB2
:103F700005F088F941EC1E0B9FED940B51EC1D0BE5
:103F800053EC102B05F00EF837D2002440F23927FD
:103F9000BBF1000F0DDD179800F0BEF9002827D007
:103FA00042F22830CDE9014053464242CDF800A00C
:103FB00018E04FF4FA639D4276DB06F2077041F297
:103FC0001751884206D244F26820CDE90140814A67
:103FD000009307E043F66C10CDE9014041F6C813A9
:103FE0007D4A0093CDE903473146179800F0D4FB92
:103FF00007B0BDEC108BBDE8FC8F9FED780B51EC4A
:104000001E0B53EC102B04F0CDFF4DD353EC1B2BA8
:1040100051EC1A0B05F000F9584604D204F097FF52
:1040200004F04DFD01E004F092FFB0EE48DAF0EE4E
:1040300068DA41EC1A0B53EC1D2B04F0B3FF05D2E8
:1040400043F2C82085421BDC844219DC9DED020B43
:10405000B0EE4A8AF0EE6A8A53EC1C2B51EC100B3E
:1040600004F03AFD41EC190B53EC1C2B51EC1A0BEC
:1040700004F0D4FF53EC192B04F0E2FD41EC190BD2
:1040800051EC180B53EC192B05F0D4F941EC1C0B37
:1040900053EC1D2B51EC180B05F0BEF805D2B0EE19
:1040A00048BAF0EE68BA06E00AE151EC180B04F0E9
:1040B00006FD41EC1B0B53EC1D2B51EC190B05F0CD
:1040C000ABF804D2B0EE490AF0EE690A05E051EC13
:1040D000190B04F0F4FC41EC100B53EC1B2B51ECCE
:1040E000100B05F099F853EC1D2B0CD251EC190B69
:1040F00005F092F804D2B0EE49BAF0EE69BA12E0D7
:1041000051EC190B0BE051EC180B05F085F804D2BB
:10411000B0EE48BAF0EE68BA05E051EC180B04F0C6
:10412000CEFC41EC1B0B53EC1D2B51EC1C0B05F092
:1041300073F804D2B0EE4CEAF0EE6CEA05E051EC14
:104140001C0B04F0BCFC41EC1E0B53EC1D2B51EC82
:104150001B0B05F061F804D2B0EE4B0AF0EE6B0ACF
:1041600005E051EC1B0B04F0AAFC41EC100B53ECE6
:104170001E2B51EC100B05F04FF853EC1D2B37D2D2
:1041800051EC1B0B2EE000000000000000000000BE
:10419000080000200000000000000040E0864454B9
:1041A000FB210940000000000094E140E0864454F7
:1041B000FB21F93F00000000003FEB400000000041
:1041C0008047EA4000000000006AD840000000007C
:1041D000004CDD4018FCFFFF1CF3FFFF0000000057
:1041E0000011E24005F018F812D351EC1B0B0BE064
:1041F00051EC1C0B05F010F804D2B0EE4CBAF0EE06
:104200006CBA05E051EC1C0B04F059FC41EC1B0BA3
:1042100053EC1D2B51EC1A0B04F0FEFF05D351ECAF
:104220001A0B04F04CFC41EC1A0B53EC1B2B51EC19
:10423000190B04F005FD53EC1A2B04F0EFFE41ECD2
:10424000190B53EC1B2B51EC180B04F0F9FC53EC3D
:104250001A2B04F0E3FE41EC180B53EC1B2B51EC32
:104260001C0B04F0EDFC53EC1A2B04F0D7FE41ECD0
:104270001A0B51EC190B04F03BFE00B201F060FD8B
:1042800051EC180B04F01BFC04F032FE00B201F0FC
:10429000CFFE51EC1A0B04F012FC04F029FE00B220
:1042A00001F0CAF8D9F85C104846498B41B1016E5B
:1042B000498B29B1D9F86400408B00287FF498AE6F
:1042C000002001F03DFD002001F0B2FE07B000200B
:1042D000BDEC108BBDE8FC4F01F0AEB8026D0021C3
:1042E0005183406D41830B48426D5183826D5183F0
:1042F000C26D5183026E5183426E5183826E51832F
:10430000C26E5183026F5183426F5183806F41832C
:10431000704700000800002070B540F239240546BF
:104320002146FEF7FFFB00280DD00848C06BB0F90E
:104330000000A0F23520092806D300222146284695
:1043400000F02CFD002070BD012070BD0800002091
:104350002DE9F041044690F82400002700281BD1E5
:10436000E16991F90020674E0B250B2AF06C15DAF4
:10437000FDF7FEFC00280FD03846FDF7A9FD417877
:10438000002909D181784C2906D1B169C2784A70D7
:1043900000790870E0690570BDE8F08191F90120AD
:1043A0000B2A14DAFDF7E4FC0028F5D03846FDF7B7
:1043B0008FFD41780129EFD181784C29ECD1F16949
:1043C000C2784A7000790870E0694570E4E791F9B5
:1043D00002200B2A14DAFDF7CBFC0028DCD038468B
:1043E000FDF776FD41780229D6D181784C29D3D1C9
:1043F000316AC2784A7000790870E0698570CBE74D
:1044000091F903200B2A14DAFDF7B2FC0028C3D07F
:104410003846FDF75DFD41780329BDD181784C29EF
:10442000BAD1716AC2784A7000790870E069C570C3
:10443000B2E791F904200B2A14DAFDF799FC002861
:10444000AAD03846FDF744FD41780429A4D18178EB
:104450004C29A1D1B16AC2784A7000790870E0692C
:10446000057199E791F905200B2A14DAFDF780FC14
:10447000002891D03846FDF72BFD417805298BD1D6
:1044800081784C2988D1F16AC2784A700079087025
:10449000E069457180E791F906200B2A14DAFDF7EF
:1044A00067FC002892D03846FDF712FD41780629B6
:1044B0008CD181784C2989D1316BC2784A700079CE
:1044C0000870E069857167E791F907100B2914DA24
:1044D000FDF74EFC002892D03846FDF7F9FC4178F4
:1044E00007298CD181784C2989D1716BC2784A70A7
:1044F00000790870E069C5714EE7012084F8240056
:104500004AE700000800002070B5044690F8260035
:10451000002600281DD1E06990F900306F4A0B2574
:104520000B2BD16C16DA0846FDF722FC002810D0C0
:104530003046FDF7CDFC417800290AD18178622907
:1045400007D1C1784F2904D100794B2801D1E06906
:10455000057070BD90F901300B2B16DA0846FDF797
:1045600007FC0028F5D03046FDF7B2FC4178012960
:10457000EFD181786229ECD1C1784F29E9D1007956
:104580004B28E6D1E069457070BD90F902300B2BE5
:1045900016DA0846FDF7ECFB0028F5D03046FDF7AB
:1045A00097FC41780229EFD181786229ECD1C1785A
:1045B0004F29E9D100794B28E6D1E069857070BDBB
:1045C00090F903300B2B16DA0846FDF7D1FB0028D3
:1045D000F5D03046FDF77CFC41780329EFD1817896
:1045E0006229ECD1C1784F29E9D100794B28E6D175
:1045F000E069C57070BD90F904300B2B16DA0846DF
:10460000FDF7B6FB0028F5D03046FDF761FC417898
:104610000429EFD181786229ECD1C1784F29E9D101
:1046200000794B28E6D1E069057170BD90F905303D
:104630000B2B16DA0846FDF79BFB0028F5D0304619
:10464000FDF746FC41780529EFD181786229ECD14C
:10465000C1784F29E9D100794B28E6D1E06945714D
:1046600070BD90F906300B2B16DA0846FDF780FB7B
:104670000028F5D03046FDF72BFC41780629EFD114
:1046800081786229ECD1C1784F29E9D100794B2892
:10469000E6D1E069857170BD90F907000B2816DA44
:1046A0000846FDF765FB0028F5D03046FDF710FC05
:1046B00041780729EFD181786229ECD1C1784F295F
:1046C000E9D100794B28E6D1E069C57170BD0120C0
:1046D00084F826000020507070BD00000800002003
:1046E00010B590F91800214C01280BD0022827D0D2
:1046F00010BD606CFDF7E8FA0146E06CFDF7E9FAE1
:104700000028F6D0606CFDF7ECFA0028F1D108E043
:10471000E06CFDF7D9FA0146606CFDF7DAFA002883
:10472000F6D0E06CFDF7DDFA0028F1D110BD206C69
:10473000FDF7CAFA0146E06CFDF7CBFA0028F6D087
:10474000206CFDF7CEFA0028F1D108E0E06CFDF70F
:10475000BBFA0146206CFDF7BCFA0028F6D0E06CED
:10476000FDF7BFFA0028F1D110BD000008000020BD
:10477000002280F824201146C3695A54491C0D298F
:10478000FADB7047002280F826201146C3695A548C
:10479000491C0D29FADB70472DE9FF4F95B00F46F4
:1047A00023A91D46B1E8000F1646202104A8FBF7F7
:1047B00085FD20210CA8FBF781FD654C48F6986229
:1047C000A069B0F90000381A0490E069B0F900005F
:1047D000301A0590206AB0F90000281A0690606A25
:1047E000B0F900102298401A0790A06AB0F90010A2
:1047F000A8EB01000890E06AB0F90010A9EB0100F5
:104800000990206BB0F90010AAEB0100CDE90A0B6A
:104810000498C0EBC001C1EBC010C11700EB1170D0
:1048200000110C90059948F69860414341F2ED70F3
:1048300091FBF0F10D910699514391FBF0F10E912E
:104840000799514391FBF0F00F90089840F2755191
:104850004843C82190FBF1F01090099840F275513F
:1048600048434FF4967190FBF1F011900A9840F68E
:10487000DF2148434FF47A7190FBF1F01290002051
:1048800013900CA9159802F071FB054600220B99B4
:10489000159800F083FA60784042054255D0EE1733
:1048A000CDE902561298C117CDE900010A9A206F8E
:1048B000D317FDF732FCCDE902561198099AC117BA
:1048C000CDE90001D3172349E06EFDF796FBCDE952
:1048D00002561098089AC117CDE90001D317A06EAF
:1048E000FDF71BFCCDE902560F98079AC117CDE9D9
:1048F0000001D3171849606EFDF77FFB0E98CDE9D4
:104900000256C117CDE90001069A1449D317206E4B
:10491000FDF773FBCDE902560D98C117CDE90001F3
:10492000059A0F49D317E06DFDF767FBCDE90256F5
:104930000C98049AC117CDE90001D3170949A06D5D
:10494000FDF75BFB159800F045F819B0BDE8F08F56
:10495000080000200961000839540008316000088F
:10496000415D0008E95E000830B5C46B836B00222E
:10497000B4F90040B3F9003004EBD474C4F3470534
:10498000046C406C03EBD373B4F90040B0F9000041
:10499000C3F3470304EBD47400EBD0701146C4F3A7
:1049A0004704C0F34700322B01D901221946322DAA
:1049B00001D9521C2944322C01D9521C21443228DD
:1049C00001D9521C01441AB1B1FBF2F0C0B230BDA2
:1049D0000020FBE72DE9FE4F3A484FF00008C4469F
:1049E000416D47468B46497C4646454644464346CC
:1049F00042460B2901D00C2901D14FF00108816DED
:104A00000291497C0B2901D00C2901D14FF0010CF6
:104A1000C16D0191497C0B2901D00C2900D10127DE
:104A2000016E0091497C0B2901D00C2900D101268F
:104A3000416E8E46497C0B2901D00C2900D10125FD
:104A4000816E8A46497C0B2901D00C2900D10124B2
:104A5000C16E8946497C0B2901D00C2900D1012364
:104A6000016F487C0B2801D00C2800D1012248EAB4
:104A70000C003843304328432043184310431ED0D2
:104A80000020B8F1000F01D1ABF81A00BCF1000F03
:104A900003D1DDF808C0ACF81A000FB9019F788384
:104AA0000EB9009E70830DB9AEF81A000CB9AAF8C1
:104AB0001A000BB9A9F81A0002B948830120BDE811
:104AC000FE8F0000080000202DE9F0418C4C0646C6
:104AD000A06D017C0A2902D90821FDF7F2F9E06DE9
:104AE000017C0A2902D90821FDF7EBF9206E017C2F
:104AF0000A2902D90821FDF7E4F9606E017C0A2930
:104B000002D90821FDF7DDF9A06E017C0A2902D93E
:104B10000821FDF7D6F9E06E017C0A2902D90821A7
:104B2000FDF7CFF9206F017C0A2902D90821FDF792
:104B3000C8F9606F017C0A2902D90821FDF7C1F983
:104B4000A06F017C0A2902D90821FDF7BAF9F06D9E
:104B5000017C0A2902D90821FDF7B3F9E06CFDF7C1
:104B600007F900287DD00020FDF7B2F9417805460D
:104B70000F0900D00837A878412803D0682801D051
:104B8000432864D101F00F00092860D2DFE800F06B
:104B9000050F19232D37414B5800A06DFDF7A5F9DE
:104BA0003946A06DFDF78DF9E978A06944E0E06D24
:104BB000FDF79BF93946E06DFDF783F9E978E06987
:104BC0003AE0206EFDF791F93946206EFDF779F94C
:104BD000E978206A30E0606EFDF787F93946606E4B
:104BE000FDF76FF9E978606A26E0A06EFDF77DF9C0
:104BF0003946A06EFDF765F9E978A06A1CE0E06E21
:104C0000FDF773F93946E06EFDF75BF9E978E06A84
:104C100012E0206FFDF769F93946206FFDF751F971
:104C2000E978206B08E0606FFDF75FF93946606F47
:104C3000FDF747F9E978606B41702979017006E06A
:104C4000A06FFDF752F93946A06FFDF73AF92078C9
:104C5000032836D1E069B0F90000A0F257204142A4
:104C600000E04AE040F2AE48414508D8E06D417CA2
:104C70000B2901D00C2902D10021FDF722F9206A6D
:104C8000B0F90000A0F2AF404142414508D8206E83
:104C9000417C0B2901D00C2902D10021FDF711F92B
:104CA000606AB0F90000A0F21F304142414508D8C7
:104CB000606E417C0B2901D00C2902D10021FDF747
:104CC00000F9687800F00F00092806D1F06DFDF7B3
:104CD0000CF93946F06DFDF7F4F8687800F00F0034
:104CE0000A280AD13946B06EFDF7EBF8B06E297983
:104CF000C174B06EC07C86F82300BDE8F08100006E
:104D00000800002070B5054690F82500002842D123
:104D1000214C2079C8B1012824D0022825D00328AD
:104D200026D0042827D0052828D0062829D00728EF
:104D30002AD04FF47A60FCF7F3FAA86D0121C17410
:104D4000A86DBDE87040FDF7EBBA6868FDF76DFD32
:104D5000E868FDF76AFD0521A868FDF7EDFC07216D
:104D6000A06D13E00721E06D10E00721206E0DE03B
:104D70000721606E0AE00721A06E07E00721E06EC0
:104D800004E00721206F01E00721606FFDF7CCF8F8
:104D90002079401C207170BD080000202DE9F047EB
:104DA000DFF8C4909246A1F23A33D9F83C00B0F94A
:104DB00000200020702B54D3A2F23A33702B50D332
:104DC0004FF4FA6441F65833674240F23938A5107F
:104DD0005E424FEAA70C414514D8A2F2AA38B8F1B6
:104DE000560F07D2891A01F5806112E00A2915DDF4
:104DF000204625E08A420BDB511A19E00A291CDD06
:104E000038461DE040F2AA3842450BD38A4209DAFF
:104E1000891A09B21429E9DD184611E004290FDDC9
:104E200028460DE08A4202DBB2F5806FE4D3891A8E
:104E300009B21429E2DD304602E0042900DD6046B3
:104E4000BAF1000F00B208D000F054FA0146D9F8C8
:104E50005400BDE8F047FDF743B8BDE8F04700F067
:104E600049BABDE8F0870000080000202DE9F04FA6
:104E70008DB00D46824698461446202104A8169F00
:104E8000FBF71CFA374E48F69862B069B0F900009B
:104E9000A5EB0009F069B0F90000251A306AB0F9F5
:104EA0000010A8EB0108C9EBC901C1EBC910C1177B
:104EB00000EB11700011049048F69860684341F2CD
:104EC000ED7190FBF1F0059008FB02F090FBF1F022
:104ED000069004A9504602F049F804467078404212
:104EE00004423CD07E420698002F01DD394600E0A6
:104EF000314648434FF0070B90FBFBF0C1174FEAD8
:104F0000E47A42464FEAE8738DE81304DFF85480F0
:104F1000D8F86000FDF794F90598002F01DD3946B7
:104F200000E03146484390FBFBF0C1178DE81304C5
:104F30002A46EB174546D8F85C00FDF781F904983E
:104F4000002F00DC3746784390FBFBF0C1178DE85B
:104F500013044A464FEAE973A86DFDF771F90DB0E5
:104F6000BDE8F08F0800002070B50446006EFDF724
:104F70003FFB0F4D286CFCF767FE686CFCF764FE86
:104F8000A86CFCF761FEE86CFCF75EFE286DFCF790
:104F90005BFE2068FCF758FE6068FDF74DFCA068DA
:104FA000FDF74AFCE068BDE87040FDF745BC000035
:104FB0000800002090F82710002912D1C16991F94A
:104FC00000304A4A0A2B05DA0878401C087006218E
:104FD000906D7CE091F900300B2B03DA0878401CCF
:104FE0000870704791F901300A2B05DA4878401CA7
:104FF00048700621D06D6AE091F901300B2B03DA7D
:105000004878401C4870704791F902300A2B05DA45
:105010008878401C88700621106E58E091F90230A3
:105020000B2B03DA8878401C8870704791F90330A5
:105030000A2B05DAC878401CC8700621506E46E07D
:1050400091F903300B2B03DAC878401CC870704705
:1050500091F904300A2B05DA0879401C0871062101
:10506000906E34E091F904300B2B03DA0879401C80
:105070000871704791F905300A2B05DA4879401C10
:1050800048710621D06E22E091F905300B2B03DA2E
:105090004879401C4871704791F906300A2B05DAAF
:1050A0008879401C88710621106F10E091F9063054
:1050B0000B2B03DA8879401C8871704791F907300F
:1050C0000A2B06DAC879401CC8710621506FFCF71C
:1050D0002BBF91F907200B2A03DAC879401CC8714D
:1050E0007047012180F82710704700000800002059
:1050F00010B590F8281000290ED1084C61790A29C2
:1051000005D2C06DFDF7EAFA6079401C03E0012189
:1051100080F828100020607110BD000008000020F9
:105120002DE9F041724E044641F28832B6F9121070
:10513000481C00B2914201DA70820CE004D1708206
:10514000A06DFCF7D2FE06E0A06D017C0A2902D911
:105150000821FCF7B6FE206D017C0A2902D908213E
:10516000FCF7AFFE606D017C0A2902D90821FCF72B
:10517000A8FE706D017C0A2902D90821FCF7A1FE66
:10518000306DFCF7F5FD002827D00120FCF7A0FECC
:1051900005464078070900D0083710F00F001ED0F0
:1051A000012836D002284FD0032816D1A06DFCF775
:1051B0009CFE3946A06DFCF784FEA87801210222EE
:1051C000722853D0732808D1E87883097ED0B1EBD8
:1051D000901F7CD1287984F84900BDE8F081206DCA
:1051E000FCF783FE17B13946206D07E094F94800BB
:1051F0005A28206D01DD092100E00021FCF761FE45
:10520000A8784928E9D1216BE87848702879216B82
:1052100018E0606DFCF769FE17B13946606D07E074
:1052200094F949005A28606D01DD092100E0002150
:10523000FCF747FEA8784928CFD1616BE878487021
:105240002879616B0870C8E7706DFCF74EFE0FB1EE
:10525000394606E094F94A005A2801DD092100E0A8
:105260000021706DBDE8F041FCF72BBEE8788309A2
:1052700009D0B1EB901F0DD1E16B00F03F004870F9
:105280002879E16B1AE0A16B00F03F0048702879A3
:10529000A16B13E0B2EB901F06D1216C00F03F0030
:1052A00048702879216C09E00321B1EB901F06D1E9
:1052B000616C00F03F0048702879616C08702046EE
:1052C000FFF752FB6076617E606E01E004E007E06C
:1052D000BDE8F041FDF78CB8287984F848007CE7F8
:1052E000B2EB901FAFD1287984F84A0075E700002F
:1052F000080000202DE9F0474C4905460024C86B02
:1053000040F26542008810FB02F0C21700EBD26049
:10531000C0F34F12C8692346B0F900708869B0F92C
:1053200000600846406D6DB1497871B1A2F5E44165
:10533000DC3940F6644C614509D2052143830846B7
:10534000BDE8F08743831846FAE729465FE003216A
:1053500095FBF1F1DFF8D8C0DFF8D88041F2EC39E5
:1053600009B2002D30DA6FF0C70A674519DD4645EE
:1053700017DD4E4515DAA2F5E6463F3E41F282378B
:10538000BE42E2D248F29455AA4240D848F2305187
:105390008A4203D95146FCF77BFF00E04383032494
:1053A00042E045F21706B242CFD844F6EB65AA4276
:1053B0002DD844F623618A4203D95146FCF768FF91
:1053C00000E0438301242FE0674518DD464516DDE4
:1053D0004E4514DAA2F5D6465C3EB6F59C5FB4D8CD
:1053E00046F68845AA4212D346F6EC418A4203D2D9
:1053F000C821FCF74DFF00E04383042414E046F28B
:105400008476B242A1D346F6B005AA4202D2FCF796
:105410003FFF09E046F678118A4203D2C821FCF723
:1054200037FF00E043830224204689E7080000207C
:1054300014ECFFFFFCEFFFFF2DE9F0414A490500A6
:105440004FF00004086A2346B0F90060486AB0F9DA
:105450000020C86AB0F90070486BB0F900C0084677
:10546000406E1FD0497800297CD0032195FBF1F1D3
:1054700009B24FF4AF6E002D2ADA42F6186C6FF0C5
:10548000C706674515DA40F6C417BA426ADC40F62B
:105490003405AA4256DCB2F5FA6F07DD3146FCF757
:1054A000F7FE04E043831846BDE8F08143830124FE
:1054B00056E0724556DCB2F57A7F43DCB2F5617F87
:1054C00003DD3146FCF7E4FE00E04383022447E0BD
:1054D00040F6AC57BE4216DA764502DA438303241F
:1054E0003EE0B2F57A6F3DDB41F23015AA4229DB8E
:1054F00041F294118A4203DAC821FCF7C9FE00E0A8
:10550000438304242CE040F24C46B44512DA44F2C2
:105510005C46B24226DB44F28855AA4212DB44F2D2
:10552000EC518A4203DAC821FCF7B2FE00E0438363
:10553000052415E043F2F436B24213DB43F28455FE
:10554000AA4203DAFCF7A4FE0AE00BE043F2E851BA
:105550008A4203DAC821FCF79BFE00E0438306245D
:105560002046A1E72946EDE7080000202DE9FF4F7E
:1055700097B00F4626A91D46B1E8000F1646242114
:1055800004A8FAF79BFE24210DA8FAF797FE724CA7
:1055900048F69862A069B0F90000381A0490E069F2
:1055A000B0F90000301A0590206AB0F90000281AFE
:1055B0000690606AB0F900102498401A0790A06A1B
:1055C000B0F900102598401A0890E06AB0F9001070
:1055D000A8EB01000990206BB0F90010A9EB0100C5
:1055E000CDE90A0A606BB0F90010ABEB01000C903A
:1055F0000498C0EBC001C1EBC010C11700EB1170E3
:1056000000110D90059948F69860414341F2ED7004
:1056100091FBF0F10E910699514391FBF0F10F913E
:105620000799514391FBF0F01090089940F27550A2
:105630004143C82091FBF0F11191099940F2755254
:1056400051434FF4967291FBF2F112910A9940F690
:10565000DF2251434FF47A7291FBF2F11391002152
:1056600014910C9940F27552514391FBF0F0159052
:105670000DA9179801F072FD054600220B991798A5
:10568000FFF78CFB60784042054261D01398EE171B
:10569000C117CDE90256CDE900010A9A206FD31750
:1056A000FCF73BFDCDE902561298099AC117CDE9E6
:1056B0000001D3172949E06EFCF79FFCCDE90256A3
:1056C0001198089AC117CDE90001D317A06EFCF715
:1056D00024FDCDE902561098079AC117CDE90001C3
:1056E000D3171F49606EFCF788FC0F98CDE902566E
:1056F000C117CDE90001069A1A49D317206EFCF7AD
:105700007CFC0E98CDE90256C117CDE90001059A3F
:105710001549D317E06DFCF770FCCDE902560D98E2
:10572000049AC117CDE90001D3171049A06DFCF709
:1057300064FCCDE9025615980C9AC117CDE9000119
:10574000D3170B49606FFCF758FC1798FFF742F925
:105750001BB0BDE8F08F00000800002009610008C0
:105760003954000831600008415D0008E95E000816
:10577000616C000810B5006EFCF732FF00EB001002
:105780004821B0FBF1F0722802DA00F28D3000E01F
:1057900072380249C96B088010BD00000800002063
:1057A0002DE9F0410446C06C00234FF0010C8269E2
:1057B0005078302802D0502837D054E09078AA286A
:1057C00004D0112815D0552821D04CE0D078BB2822
:1057D00049D11079CC2846D15079DD2843D184F8BD
:1057E00020C0A068FDF721F8E068BDE8F041FDF7B2
:1057F0001CB8D078222836D11079332833D150798B
:10580000442830D12046BDE8F041FEF7BBBFD07838
:10581000662828D11079772825D15079882822D177
:105820002046BDE8F041FDF7B1BA9078AA281AD118
:10583000D078BB2817D11079CC2814D15079DD2825
:1058400011D19079EE280ED1D079FF280BD1107AA2
:10585000112808D1507A222805D1907A332802D114
:10586000D07A442817D084F82030507A0D250607C6
:105870005B49002E13D073DA937903F00703012BF1
:105880000FD0022B12D00327032B14D0042B1ED0D1
:10589000052B21D093E084F82830BDE8F0810B700F
:1058A00095E0107940070DD106208FE01079400770
:1058B00008D107208AE013795E0704D003F00703BC
:1058C000032B49D07BE0082080E00F707FE0107947
:1058D00040077CD1092079E013795E0704D003F0FA
:1058E0000706012E02D006E00A206FE0430702D52A
:1058F00081F800C06BE040F25623022E13D15FEA1C
:10590000407C10D5C869B0F90000A0F22B156D429B
:105910009D4201D802254D72324D281A984200D876
:105920004F72487A52E00527042E13D15FEA407C7B
:1059300010D5886946F6A325B0F900002D1A9D42BE
:1059400001D804258D72284D281A984200D88F72EC
:10595000887A3BE0052E32D14007B6D42FE0FFE72E
:10596000C0F38103012B06D000F0030002282AD0E7
:1059700001282AD02BE01079C3435B0704D000F044
:10598000070006281DD01AE05079430705D000070C
:1059900001D412201AE0132018E0D079430705D073
:1059A000000701D4102011E011200FE010F0700F5B
:1059B00005D0000601D40F2008E00E2006E00D708F
:1059C00005E0142002E00B2000E00C20087000200D
:1059D000E36A115C1954401C0D28F9DB5DE70000F7
:1059E00008000020DBBAFFFFB397FFFF70B52D4E14
:1059F00000243146706B8A6EB0F90050B06AB0F97D
:105A0000000000280FDDB0F57A7F01DD264918E09F
:105A1000C82801DD254914E0642801DD244910E08F
:105A20000020508310E010F57A7F02DA42F6E06140
:105A300007E010F1C80F02DA41F2707101E04FF493
:105A4000C8711046FCF724FC41F2BA3141F27C5097
:105A50008D420CDD854201DD164C1AE041F21E40FC
:105A6000854201DD144C14E0114C643411E041F224
:105A700088318D4202DA42F228340AE041F2B44120
:105A80008D4202DA41F2941403E0854201DA4FF4C8
:105A9000967420B201F0E4F80146706FBDE87040E2
:105AA000FCF71EBA0800002020D1FFFF90E8FFFF9E
:105AB00070FEFFFFD8DCFFFF6CEEFFFF90F82410B4
:105AC000002912D1C16991F900304D4A0A2B05DA3B
:105AD0000878401C08700C21906D7CE091F9003032
