:020000040800F2
:10000000980E0020659D0008E5010008F101000838
:10001000030200081F02000833020008000000006D
:10002000000000000000000000000000470200087F
:1000300053020008000000005F0200086B02000885
:100040007F9D00087F9D00087F9D00087F9D000820
:100050007F9D00087F9D00087F9D00087F9D000810
:100060007F9D00087F9D00087F9D00087F9D000800
:100070007F9D00087F9D00087F9D00087F9D0008F0
:100080007F9D00087F9D00087F9D00087F9D0008E0
:100090007F9D00087F9D00087F9D00087F9D0008D0
:1000A0007F9D00087F9D00087F9D00087F9D0008C0
:1000B0006B01000899010008BF0100087F9D00083E
:1000C0007F9D00087F9D00087F9D00087F9D0008A0
:1000D0007F9D0008037A0008517A00089F7A000883
:1000E0007F9D00087F9D00087F9D0008DFF810D0ED
:1000F0000AF046FA09F048FF0048004705010008E9
:10010000980E0020012080F3108800BF4FF4A060FB
:1001100008F02AF908F0C6F84FF47A7008F00DF9E3
:1001200008200AF09DFA04464FF48042514907F036
:1001300035FB04465048046006680121304607F04C
:1001400081FB00BF48200AF08BFA054600F09CF8BE
:1001500005464A480560002080F3108800BF4748E4
:10016000006802F049FD00BFFEE710B54FF0804087
:1001700007F0E4FF78B14FF0804007F0E7FF4FF061
:10018000804007F0D3FF3D48006800F0B6F94FF01B
:10019000804007F0C3FF10BD10B5394807F0CEFF0F
:1001A00060B1374807F0D2FF354807F0BFFF33484A
:1001B000006802F071FC324807F0B0FF10BD10B5C6
:1001C000304807F0BBFF60B12E4807F0BFFF2D4855
:1001D00007F0ACFF2948006802F0EEFC294807F060
:1001E0009DFF10BD10B5244800680AF021FA10BD2B
:1001F00006E0642008F0A1F81F48006807F011FB32
:10020000F7E71D4800680AF013FA07E04FF4FA70A8
:1002100008F093F81848006807F003FBF6E707E0DA
:100220004FF47A7008F089F81348006807F0F9FA7B
:10023000F6E707E04FF4FA6008F07FF80E48006830
:1002400007F0EFFAF6E710B50B4800680AF0F0F98E
:1002500010BD10B5084800680AF0EAF910BD10B5E5
:10026000054800680AF0E4F910BD10B508F04FF831
:1002700010BD0000000C0140040000200000002020
:1002800000040040000800402DE9F05F0446002013
:1002900084F83A0084F83B00FF2084F838000020FE
:1002A00084F83900FF2084F83C0004200AF0D3F9D8
:1002B00020640020216C0870216C4870216C8870CB
:1002C000216CC87084F8440084F84500012084F84B
:1002D0004700252084F8460008200AF0C1F980462E
:1002E0004FF40052F64907F059FA8046E0611020B9
:1002F0000AF0B6F907464FF49642012107F020FDB7
:100300000746A06010200AF0ABF907464FF41642EA
:10031000022107F015FD0746E06008200AF0A0F969
:1003200005460122E64907F035FF054660620820D0
:100330000AF096F905468022E24907F02BFF0546B0
:10034000A06208200AF08CF905464022DD4907F03A
:1003500021FF0546E06208200AF082F905462022C6
:10036000D84907F017FF0546206308200AF078F9FE
:1003700005461022D34907F00DFF05466063302083
:100380000AF06EF98146E16802F05EFC8146206069
:1003900014200AF065F98246A16807F027F9824621
:1003A0006060D4F81CB00121584607F04BFA00BF3A
:1003B00008200AF055F906464FF0804107F044FE48
:1003C0000646206108200AF04BF90646BE4907F0B0
:1003D0003BFE0646606108200AF042F90646BB492A
:1003E00007F032FE0646A0611421206907F0C5FD22
:1003F00001221146206907F0B2FD0221606907F071
:10040000BCFD03220121606907F0A9FD0A21A06952
:1004100007F0B3FD02220121A06907F0A0FD2046EC
:10042000BDE8F09F70B50446206907F091FD606952
:1004300007F08EFDA06907F08BFDA06807F0D2FBE6
:10044000E06807F0CFFBA06828B1A06807F083FC44
:1004500005460AF0FCF8E06828B1E06807F07BFC8C
:1004600005460AF0F4F8206928B1206907F045FE36
:1004700005460AF0ECF8606928B1606907F03DFEB6
:1004800005460AF0E4F8A06928B1A06907F035FE36
:1004900005460AF0DCF8E06928B1E06907F0C0F928
:1004A00005460AF0D4F8606A28B1606A07F0B4FE25
:1004B00005460AF0CCF8A06A28B1A06A07F0ACFEA5
:1004C00005460AF0C4F8E06A28B1E06A07F0A4FE25
:1004D00005460AF0BCF8206B28B1206B07F09CFEA3
:1004E00005460AF0B4F8606B28B1606B07F094FE23
:1004F00005460AF0ACF8204670BD2DE9F0470446E9
:10050000606A07F08CFE0546A06A07F088FE064682
:10051000E06A07F084FE0746206B07F080FE804605
:10052000606B07F07CFE8146280140EAC60040EA85
:10053000870040EA480040EA090084F8390064482E
:100540000078854204D00020624908806048057028
:1005500061480078864204D000205E4908805E48E9
:1005600006705E480078874204D000205949088010
:100570005A4807705A480078804505D000205549F0
:100580000880574880F8008056480078814505D09B
:10059000002050490880534880F80090ADB1A6B9BA
:1005A0009FB9B8F1000F10D1B9F1000F0DD1494832
:1005B0000088032803DD002084F838007EE04548E9
:1005C0000088401C4349088078E0ADB9A6B19FB9C6
:1005D000B8F1000F10D1B9F1000F0DD13D480088DE
:1005E000032803DD012084F8380067E039480088DB
:1005F000401C3849088061E0ADB9A6B99FB1B8F197
:10060000000F10D1B9F1000F0DD132480088032836
:1006100003DD022084F8380050E02E480088401C9A
:100620002C4908804AE0ADB9A6B99FB9B8F1000FCE
:1006300010D0B9F1000F0DD126480088032803DD42
:10064000032084F8380039E022480088401C214902
:10065000088033E0ADB9A6B99FB9B8F1000F10D149
:10066000B9F1000F0DD01B480088032803DD0420DA
:1006700084F8380022E017480088401C154908809B
:100680001CE0ADB9A6B19FB1B8F1000F10D1B9F11E
:10069000000F0DD00F480088962803DD052084F850
:1006A00038000BE00B480088401C0A49088005E030
:1006B000002008490880FF2084F83800BDE8F08752
:1006C000000C014000080140000400400008004008
:1006D0000A000020080000200B0000200C00002071
:1006E0000D0000200E0000207FB505460E4606EBEB
:1006F000460000EB06101F2101EB400401202E22D2
:100700002346CDE90204CDE9002195F846201032B8
:10071000D1B20122286806F0A8FC7FBD7FB505464E
:100720000E4606EB460000EB0610212101EB4004CB
:1007300001201F212E222346CDE90204CDE900210C
:1007400095F84620121DD1B20122286806F08DFCD2
:100750007FBD7FB504460E46154694F83C0005283B
:1007600000D07FBDFE48007848BB0120FC490870DE
:1007700094F84600C01D84F8450094F845102068A0
:1007800002F04EFB0121206802F037FF01212068B2
:1007900003F023F994F8470080B98520CE211D226B
:1007A0006B23CDE90032CDE9021094F846200E32D9
:1007B000D1B28523CE22206806F057FCD1E794F908
:1007C0003800401C06287DD2DFE800F0038C929FA1
:1007D000ACB32DB9002084F83C00E1490870C0E7B3
:1007E000012D04D101212046FFF798FF79E0022D69
:1007F00004D102212046FFF791FF72E0032D31D191
:1008000003212046FFF78AFF94F84700012814D1FE
:10081000002084F847008520CE211D226B23CDE9DE
:100820000032CDE9021094F846200E32D1B2852371
:10083000CE22206806F019FC53E08520CE211D222F
:100840006B23CDE90032CDE9021094F84620D21D89
:10085000D1B28523CE22206806F007FC012084F85F
:1008600047003EE0042D3CD104212046FFF756FF0F
:1008700094F8460018B9252084F8460002E00020CC
:1008800084F8460094F84620D21CD1B2206802F0C9
:10089000A4FA94F84600C01D84F8450094F8451069
:1008A000206802F0BDFA0121206802F0A6FE0121B5
:1008B000206803F092F894F8470090B98520CE2183
:1008C0001D2200E03CE06B23CDE90032CDE90210AF
:1008D00094F846200E32D1B28523CE22206806F04D
:1008E000C4FB2DE01DB100212046FFF7FDFE27E0EF
:1008F000012D03D001212046FFF7F6FE002084F8E9
:100900003A008A2084F83B001AE0022D03D002212D
:100910002046FFF7E9FE002084F83A008B2084F897
:100920003B000DE0032D03D003212046FFF7DCFE42
:1009300006E0042D03D004212046FFF7D5FE00BFBA
:1009400000BF0021206802F058FE0021206803F05B
:1009500044F800BF05E703B587B0089800287CD0AD
:10096000079890F83A00022831D107980068407D36
:10097000B0B92020382115227F23CDE90032CDE9FE
:100980000210079890F846000C30C0B20690079805
:10099000006820230A460590069906F066FB86E06B
:1009A0002020382115227F23CDE90032CDE9021025
:1009B000079890F846000D30C0B20690079800687E
:1009C00020230A460590069906F04FFB6FE0079832
:1009D00090F83A00012831D107980068407DB0B9FD
:1009E0002020B92115227F23CDE90032CDE9021064
:1009F000079890F846000C30C0B20690079800683F
:100A000020230A460590069906F02FFB4FE0202090
:100A1000B92115227F23CDE90032CDE902100798D4
:100A200090F846000D30C0B2069007980068202369
:100A30000A460590069906F018FB38E0079890F8EA
:100A40003A00B02818D16C20392117228F23CDE924
:100A50000032CDE90210079800E02EE090F8460041
:100A60000C30C0B20690079800686C230A460590C7
:100A7000069906F0FAFA1AE0079890F83A00B428B6
:100A800015D16C20CF2117226623CDE90032CDE9A4
:100A90000210079890F846000C30C0B206900798F4
:100AA00000686C230A460590069906F0DEFA07985E
:100AB00090F83A002B49087056E1079890F83A00F0
:100AC000284909788842F7D026480078022831D191
:100AD00007980068407DB0B92020382115227F2377
:100AE000CDE90032CDE90210079890F846000930B0
:100AF000C0B206900798006820230A460590069920
:100B000006F0B3FA86E02020382115227F23CDE9B4
:100B10000032CDE90210079890F84600801DC0B25F
:100B200006900798006820230A460590069906F06B
:100B30009CFA6FE00B480078012836D107980068CE
:100B4000407DD8B92020B92115227F23CDE900327C
:100B5000CDE90210079890F846000930C0B203E0D2
:100B6000290000201B000020069007980068202321
:100B70000A460590069906F078FA4BE02020B92144
:100B800015227F23CDE90032CDE90210079890F8B5
:100B90004600801DC0B206900798006820230A46D0
:100BA0000590069906F061FA34E0F7480078B0281D
:100BB00016D16C20392117228F23CDE90032CDE9DF
:100BC0000210079890F846000930C0B206900798C6
:100BD00000686C230A460590069906F046FA19E06B
:100BE000E9480078B42815D16C20CF21172266235C
:100BF000CDE90032CDE90210079890F8460009309F
:100C0000C0B20690079800686C230A4605900699C2
:100C100006F02BFA079890F83A00022831D107988D
:100C20000068407DB0B92020382115227F23CDE90E
:100C30000032CDE90210079890F846000C30C0B29F
:100C400006900798006820230A460590069906F04A
:100C50000CFA84E02020382115227F23CDE90032D0
:100C6000CDE90210079890F846000D30C0B206900A
:100C70000798006820230A460590069906F0F5F9C2
:100C80006DE0079890F83A00012831D10798006884
:100C9000407DB0B92020B92115227F23CDE9003253
:100CA000CDE90210079890F846000C30C0B20690CB
:100CB0000798006820230A460590069906F0D5F9A2
:100CC0004DE02020B92115227F23CDE90032CDE966
:100CD0000210079890F846000D30C0B206900798B1
:100CE000006820230A460590069906F0BEF936E012
:100CF000079890F83A00B02816D16C2039211722B5
:100D00008F23CDE90032CDE90210079890F8460014
:100D10000C30C0B20690079800686C230A46059014
:100D2000069906F0A2F91AE0079890F83A00B4285C
:100D300015D16C20CF2117226623CDE90032CDE9F1
:100D40000210079890F846000C30C0B20690079841
:100D500000686C230A460590069906F086F9079804
:100D600090F83A008849087009B000BD1FB50446E4
:100D70008648008810BB212070211C229E23CDE9CB
:100D80000032CDE9021094F846201132D1B221236D
:100D90007022206806F069F9C120AB21192288234E
:100DA000CDE90032CDE9021094F846201132D1B2DB
:100DB000C123AB22206806F058F925E0734800886B
:100DC000FF2821D1212070211C229E23CDE9003251
:100DD000CDE9021094F846201232D1B221237022BC
:100DE000206806F042F9C120AB2119228823CDE901
:100DF0000032CDE9021094F846201232D1B2C1235C
:100E0000AB22206806F031F960480088401C5F4939
:100E1000088008460088C0F3080008801FBD2DE93F
:100E2000FF4704460E4690469946B9F1000F01D19E
:100E3000BDE8FF8794F84600153000EB191047B263
:100E400009F00F05072D01DD24270125012E13D1FF
:100E5000692047211622EA23CDE90032CDE90210AC
:100E600005EBC50202EB420202F11303F9B247227D
:100E7000206806F0FAF84BE0022E16D1352108FB67
:100E800001F0583047211622EA23CDE90032CDE99E
:100E9000021005EBC50202EB420202F11303F9B2A4
:100EA0004722206806F0E1F832E0032E17D108EB64
:100EB000C80000EB4810493047211622EA23CDE94B
:100EC0000032CDE9021005EBC50202EB420202F14D
:100ED0001303F9B24722206806F0C7F818E0042E81
:100EE00016D108EBC80000EB40004930472116221C
:100EF000EA23CDE90032CDE9021005EBC50202EB91
:100F0000420202F11303F9B24722206806F0ADF85D
:100F100000BF8DE770B501460024002200200023A9
:100F20000D6C2B700D6C6B700D6CAB700D6CEB70F1
:100F300091F8473003B90AE0102306E00D682D69E7
:100F4000ED5C0DB1012402E05B1C202BF6DB002CD4
:100F500058D0102314E0032A00DD13E00D682D693A
:100F6000ED5C0A2D0BDDA3F110060D682D69ED5C1B
:100F7000AD1F66F31F150E6CB554551CEAB25B1C11
:100F8000202BE8DB102322E01B00002016000020AD
:100F9000032A00DD1DE00D682D69ED5C082D09D0E8
:100FA0000D682D69ED5C092D04D00D682D69ED5C8F
:100FB0000A2D0BD1A3F110060D682D69ED5CAD1F54
:100FC00066F31F150E6CB554551CEAB25B1C202B42
:100FD000DEDB102314E0032A00DD13E00D682D6929
:100FE000ED5C002D0BDD0D682D69ED5C082D06DA3A
:100FF000012606EB03150E6CB554551CEAB25B1CBA
:10100000202BE8DBF84B1B7843B93CB90023F74DA4
:101010002B706B70AB70EB70002062E0F24B1B78B2
:10102000012B0AD14CB90023EF4D2B70EF4D2B70E3
:101030006B70AB70EB70012053E0EB4B1B78BBB9CE
:10104000012C15D10123E84D2B700B6C1B78E74D5B
:101050002B700B6C5B786B700B6C9B78AB700B6CB4
:10106000DB78EB700220531E40EA8313D8B238E0DD
:10107000DD4B1B78012B34D1012C32D1DB4B1B789B
:101080000D6C2D78AB4201D040F02000D74B5B783F
:101090000D6C6D78AB4201D040F01000D34B9B78C3
:1010A0000D6CAD78AB4201D040F00800CF4BDB783F
:1010B0000D6CED78AB4201D040F0040040F003002D
:1010C000531E40EA8313D8B20B6C1B78C74D2B70AC
:1010D0000B6C5B786B700B6C9B78AB700B6CDB787C
:1010E000EB7070BD2DE9FF4104460F462046FFF727
:1010F00011FF84F84400002594F8440038B994F8AE
:101100004400BB490870002004B0BDE8F081002F06
:101110005AD094F84400B649087094F84400012865
:1011200050DD94F83C00012811D11B203E21C32240
:10113000FC23CDE90032CDE9021094F846201232AA
:10114000D1B21B233E22206805F08FFF27E094F8E0
:101150003C0090B91B203E21C32240F20113CDE98F
:101160000032CDE9021094F846201232D1B21B238E
:101170003E22206805F079FF11E01B203221C322B6
:101180004FF48673CDE90032CDE9021094F8462081
:101190001232D1B21B233222206805F066FF94F888
:1011A0004400012101EB9015002607E0206C835DCF
:1011B000F2B229462046FFF732FE761CAE42F5DB3E
:1011C0000120A1E700209FE794F8440001283DD1C9
:1011D00094F844008649087094F83C0001280FD127
:1011E0001B203E21C322FC23CDE90032CDE90210B1
:1011F00094F845101B233E22206805F036FF23E0BB
:1012000094F83C0080B91B203E21C32240F2011318
:10121000CDE90032CDE9021094F845101B233E229F
:10122000206805F022FF0FE01B203221C3224FF47B
:101230008673CDE90032CDE9021094F845101B23E6
:101240003222206805F011FF00205DE794F8440089
:1012500000F00300022857D194F844006449087054
:1012600094F83C00012811D11B203E21C322FC230D
:10127000CDE90032CDE9021094F846201232D1B205
:101280001B233E22206805F0F0FE27E094F83C0086
:1012900090B91B203E21C32240F20113CDE9003258
:1012A000CDE9021094F846201232D1B21B233E221F
:1012B000206805F0DAFE11E01B203221C3224FF432
:1012C0008673CDE90032CDE9021094F8462012323F
:1012D000D1B21B233222206805F0C7FE94F84400E7
:1012E000012101EB9015002607E0206C835DF2B22E
:1012F00029462046FFF793FD761CAE42F5DB2046DB
:10130000FFF734FD0120FFE694F8440000F0C00030
:101310003749097801F0C001884257D094F83C0061
:10132000012811D11B203E21C322FC23CDE900322C
:10133000CDE9021094F846201232D1B21B233E228E
:10134000206805F092FE27E094F83C0090B91B203D
:101350003E21C32240F20113CDE90032CDE9021053
:1013600094F846201232D1B21B233E22206805F0A9
:101370007CFE11E01B203221C3224FF48673CDE99D
:101380000032CDE9021094F846201232D1B21B236C
:101390003222206805F069FE94F84400012101EB37
:1013A0009015002607E0206C835DF2B229462046A6
:1013B000FFF735FD761CAE42F5DB2046FFF7D6FC85
:1013C00094F844000A49087001209DE694F844000E
:1013D0000749097888421DD094F84400012101EBA7
:1013E0009015002614E000001100002012000020DB
:1013F0001800002094F8441020203041014206D00B
:10140000206C835DF2B229462046FFF708FD761C6A
:10141000AE42EFDB2046FFF7A9FC94F84400F64902
:101420000870012070E67FB505460E4606EB4600C3
:1014300000EB0610212101EB400401201F212E2288
:101440002346CDE90204CDE9002195F846200A3271
:10145000D1B20122286805F008FE7FBD90F83A203D
:101460008A4203D1002280F83A2001E080F83A1045
:1014700070472DE9FF4104460F461546002694F8B3
:101480003C00042801D0BDE8FF81DC48007800283A
:1014900052D10120D94908702068407D28B994F8BC
:1014A0004600093084F8450004E094F84600801DA9
:1014B00084F8450094F84510206801F0B1FC94F8D8
:1014C0003A00022804D101212046FFF7ACFF19E0C1
:1014D00094F83A00012804D102212046FFF7A3FF27
:1014E00010E094F83A00B02804D103212046FFF719
:1014F0009AFF07E094F83A00B42803D1042120466B
:10150000FFF791FF01212046FFF7ECFDBC49087071
:101510000846007818B901212046FFF71CFA01217E
:10152000206802F06AF80121206802F056FA20686B
:10153000407DB4490870A6E794F93800401C06289D
:1015400079D2DFE800F003999FB1C3CA2DB900201A
:1015500084F83C00A949087095E7012D24D1472063
:1015600003218D222A23CDE90032CDE9021094F81F
:101570004620121DD1B247230322206805F075FDD5
:101580002068407D60B902212046FFF767FF94F88C
:101590003A0002286FD101212046FFF744FF6AE09C
:1015A000002084F83A0066E0022D24D14720032170
:1015B0008D222A23CDE90032CDE9021094F846208D
:1015C000121DD1B247230322206805F04EFD20688A
:1015D000407D60B901212046FFF740FF94F83A00B2
:1015E000012848D102212046FFF71DFF43E00020DB
:1015F00084F83A003FE0032D1ED1472003218D22BD
:101600002A23CDE90032CDE9021094F84620121DBC
:10161000D1B247230322206805F027FDB0212046E0
:10162000FFF71CFF94F83A00B02824D1032120468C
:10163000FFF7F9FE1FE057E0042D1CD147200321DE
:101640008D222A23CDE90032CDE9021094F84620FC
:10165000121DD1B247230322206805F006FDB421F4
:101660002046FFF7FBFE94F83A00B42803D104218A
:101670002046FFF7D8FE37E01DB100212046FFF7D6
:1016800033F831E0012D0ED02068407D20B90121D2
:101690002046FFF729F806E001212046FFF7C3FEA8
:1016A000022084F83A001FE0022D0ED02068407D11
:1016B00020B902212046FFF717F806E00221204654
:1016C000FFF7B1FE012084F83A000DE0032D03D0AE
:1016D00003212046FFF708F806E0042D03D004217B
:1016E0002046FFF701F800BF00BF2068407DA0BB87
:1016F0004448007888B394F84600093084F84500DF
:1017000094F84510206801F08BFB01212046FFF77B
:10171000E9FC3B4908700846007818B901212046C9
:10172000FFF719F994F83A00022804D10121204664
:10173000FFF779FE1AE094F83A00012804D102215B
:101740002046FFF770FE11E094F83A00B02805D16A
:1017500003212046FFF767FE08E014E094F83A0002
:10176000B42803D104212046FFF75DFE0121206843
:1017700001F043FF0121206802F02FF92068407D2D
:10178000204908706AE02068407DA0B31D480078B9
:1017900088BB94F84600801D84F8450094F84510F5
:1017A000206801F03DFB01212046FFF79BFC144916
:1017B00008700846007818B901212046FFF7CBF8D9
:1017C00094F83A00022804D101212046FFF72BFEAD
:1017D00022E094F83A00012804D102212046FFF7C4
:1017E00022FE19E094F83A00B0280DD103212046DA
:1017F000FFF719FE10E01CE0180000202600002072
:10180000270000202800002094F83A00B42803D1D3
:1018100004212046FFF707FE0121206801F0EDFEBC
:101820000121206802F0D9F82068407DFE49087047
:1018300014E000212046FFF755FC064626B9FB4878
:1018400001782046FFF787F8F848067000212068E5
:1018500001F0D3FE0021206802F0BFF800BF12E6BD
:101860007FB504460D46002D5BD094F83A00A428BD
:1018700011D12020382115227F23CDE90032CDE976
:10188000021094F846200B32D1B22023382220686F
:1018900005F0EBFB40E094F83A00A82811D1202095
:1018A000B92115227F23CDE90032CDE9021094F849
:1018B00046200B32D1B22023B922206805F0D5FB97
:1018C0002AE094F83A006C2811D18320382115229F
:1018D0007F23CDE90032CDE9021094F846200B3287
:1018E000D1B283233822206805F0BFFB14E094F8BE
:1018F0003A00182810D18320B92115227F23CDE981
:101900000032CDE9021094F846200B32D1B2832385
:10191000B922206805F0A9FB94F83A00C449087080
:10192000B7E094F83A00C24909788842F8D0C04834
:101930000078A42811D12020382115227F23CDE959
:101940000032CDE9021094F84620521DD1B2202376
:101950003822206805F089FB40E0B5480078A828C7
:1019600011D12020B92115227F23CDE90032CDE904
:10197000021094F84620521DD1B22023B9222068CB
:1019800005F073FB2AE0AA4800786C2811D1832067
:10199000382115227F23CDE90032CDE9021094F8D9
:1019A0004620521DD1B283233822206805F05DFB0A
:1019B00014E09F480078182810D18320B9211522FF
:1019C0007F23CDE90032CDE9021094F84620521D64
:1019D000D1B28323B922206805F047FB94F83A007E
:1019E000A42811D12020382115227F23CDE90032EF
:1019F000CDE9021094F846200B32D1B220233822D0
:101A0000206805F032FB40E094F83A00A82811D194
:101A10002020B92115227F23CDE90032CDE9021023
:101A200094F846200B32D1B22023B922206805F069
:101A30001CFB2AE094F83A006C2811D1832038214D
:101A400015227F23CDE90032CDE9021094F846201B
:101A50000B32D1B283233822206805F006FB14E054
:101A600094F83A00182810D18320B92115227F2339
:101A7000CDE90032CDE9021094F846200B32D1B204
:101A80008323B922206805F0F0FA94F83A006849F7
:101A900008707FBD2DE9FF4104460F46154600261C
:101AA00094F83C00032801D0BDE8FF81614800782C
:101AB000002847D101205F49087004F12704E07F26
:101AC00000F10500A077A17F54F8270C01F0A8F9D8
:101AD000E07CA4F12704A42804D101212046FFF7CB
:101AE000A2FC19E094F83A00A82804D1022120466B
:101AF000FFF799FC10E094F83A006C2804D1032118
:101B00002046FFF790FC07E094F83A00182803D12C
:101B100004212046FFF787FC01212046FFF7E2FA67
:101B2000454908700846007818B901212046FFF79A
:101B300097FE0121206801F060FD0121206801F07D
:101B40004CFFB1E794F93800401C06286BD2DFE85F
:101B500000F003959BA2A9B02DB9002084F83C00A9
:101B600034490870A0E7012D1DD1472003218D22A3
:101B70002A23CDE90032CDE9021094F84620521D07
:101B8000D1B247230322206805F06FFAA421204632
:101B9000FFF764FC94F83A00A4286ED10121204696
:101BA000FFF741FC69E0022D1DD1472003218D2262
:101BB0002A23CDE90032CDE9021094F84620521DC7
:101BC000D1B247230322206805F04FFAA82120460E
:101BD000FFF744FC94F83A00A8284ED10221204691
:101BE000FFF721FC49E0032D28D1472003218D2256
:101BF0002A23CDE90032CDE9021094F84620521D87
:101C0000D1B247230322206805F02FFA6C21204629
:101C1000FFF724FC94F83A006C282ED103212046CB
:101C2000FFF701FC29E04BE02800002027000020FE
:101C30001A0000202400002025000020042D1CD1C3
:101C4000472003218D222A23CDE90032CDE902105D
:101C500094F84620521DD1B247230322206805F094
:101C600004FA18212046FFF7F9FB94F83A001828E7
:101C700003D104212046FFF7D6FB21E01DB100214E
:101C80002046FEF731FD1BE0012D03D00121204647
:101C9000FEF72AFD14E0022D03D002212046FEF7B4
:101CA00023FD0DE0032D03D003212046FEF71CFD8C
:101CB00006E0042D03D004212046FEF715FD00BFE9
:101CC00000BF00212046FFF70DFA064626B9FA4864
:101CD00001782046FFF7C4FDF74806700021206810
:101CE00001F08BFC0021206801F077FE00BFDBE6ED
:101CF0007FB504460D46002D5BD094F83A002028AD
:101D000011D121203E2126227423CDE90032CDE9D4
:101D1000021094F846200A32D1B221233E222068D4
:101D200005F0A3F940E094F83A00402811D12120B1
:101D3000BF2126227423CDE90032CDE9021094F8A8
:101D400046200A32D1B22123BF22206805F08DF946
:101D50002AE094F83A00602811D182203E21262200
:101D60007423CDE90032CDE9021094F846200A32FE
:101D7000D1B282233E22206805F077F914E094F86E
:101D80003A00802810D18220BF2126227423CDE979
:101D90000032CDE9021094F846200A32D1B28223F3
:101DA000BF22206805F061F994F83A00C349087031
:101DB000B7E094F83A00C14909788842F8D0BF48A2
:101DC0000078202811D121203E2126227423CDE93C
:101DD0000032CDE9021094F84620121DD1B2212321
:101DE0003E22206805F041F940E0B44800784028E0
:101DF00011D12120BF2126227423CDE90032CDE963
:101E0000021094F84620121DD1B22123BF2220686F
:101E100005F02BF92AE0A9480078602811D182202A
:101E20003E2126227423CDE90032CDE9021094F838
:101E30004620121DD1B282233E22206805F015F9FA
:101E400014E09E480078802810D18220BF212622ED
:101E50007423CDE90032CDE9021094F84620121D1A
:101E6000D1B28223BF22206805F0FFF894F83A002F
:101E7000202811D121203E2126227423CDE90032D1
:101E8000CDE9021094F846200A32D1B221233E2235
:101E9000206805F0EAF840E094F83A00402811D1B3
:101EA0002120BF2126227423CDE90032CDE9021082
:101EB00094F846200A32D1B22123BF22206805F0CF
:101EC000D4F82AE094F83A00602811D182203E210B
:101ED00026227423CDE90032CDE9021094F8462081
:101EE0000A32D1B282233E22206805F0BEF814E007
:101EF00094F83A00802810D18220BF212622742332
:101F0000CDE90032CDE9021094F846200A32D1B270
:101F10008223BF22206805F0A8F894F83A006749A8
:101F200008707FBD2DE9FF4104460F461546002687
:101F300094F83C00022801D0BDE8FF816048007899
:101F4000002847D101205E49087004F12704E07F92
:101F500000F10400A077A17F54F8270C00F060FF87
:101F6000E07CA4F12704202804D101212046FFF7BA
:101F70005AFA19E094F83A00402804D10221204688
:101F8000FFF751FA10E094F83A00602804D10321D9
:101F90002046FFF748FA07E094F83A00802803D17A
:101FA00004212046FFF73FFA01212046FFF79AF867
:101FB000444908700846007818B901212046FFF707
:101FC00097FE0121206801F018FB0121206801F033
:101FD00004FDB1E794F93800401C06286BD2DFE815
:101FE00000F0039399A0A7AE2DB9002084F83C001F
:101FF00033490870A0E7012D1DD145200121912210
:102000002E23CDE90032CDE9021094F84620121DAE
:10201000D1B245230122206805F027F8202120466F
:10202000FFF71CFA94F83A0020286CD101212046D1
:10203000FFF7F9F967E0022D1DD14520012191221A
:102040002E23CDE90032CDE9021094F84620121D6E
:10205000D1B245230122206805F007F8402120462F
:10206000FFF7FCF994F83A0040284CD102212046B1
:10207000FFF7D9F947E0032D26D145200121912210
:102080002E23CDE90032CDE9021094F84620121D2E
:10209000D1B245230122206804F0E7FF60212046E9
:1020A000FFF7DCF994F83A0060282CD10321204690
:1020B000FFF7B9F927E049E02500002019000020CA
:1020C0002200002023000020042D1CD145200121E6
:1020D00091222E23CDE90032CDE9021094F846205A
:1020E000121DD1B245230122206804F0BEFF8021D9
:1020F0002046FFF7B3F994F83A00802803D1042171
:102100002046FFF790F921E01DB100212046FEF79F
:10211000EBFA1BE0012D03D001212046FEF7E4FA83
:1021200014E0022D03D002212046FEF7DDFA0DE077
:10213000032D03D003212046FEF7D6FA06E0042D36
:1021400003D004212046FEF7CFFA00BF00BF0021D4
:102150002046FEF7C7FF064626B9FB480178204611
:10216000FFF7C6FDF84806700021206801F045FA27
:102170000021206801F031FC00BFDDE62DE9F041CF
:102180000446884615461E46002794F83C00012860
:1021900001D0BDE8F081ED48007818BB0120EB4983
:1021A000087094F84600C01C84F8450094F8451067
:1021B000206800F035FE0121206801F01EFA01219F
:1021C000206801F00AFC01212046FEF78BFFE04960
:1021D00008700846007828B90123D022C32120685E
:1021E00002F0C6FB94F93800401C05D125B984F8EB
:1021F0003C00D6490870CCE70021206801F0FDF9C9
:102200000021206801F0E9FB00212046FEF76AFF6B
:10221000074697B9CE48007838B1CD490B78D0221F
:10222000C321206802F0A4FB07E036B1C8490B784F
:10223000D022C321206802F09BFBC548077000BF75
:10224000A7E77FB505460E4606EB460000EB0610F5
:10225000222101EB4004042019211E222346CDE94E
:102260000204CDE9002195F846200F32D1B20422B4
:10227000286804F0FAFE7FBD7FB505460E4606EBE2
:10228000460000EB0610222101EB40040420192136
:102290001E222346CDE90204CDE9002195F846200F
:1022A000921CD1B20422286804F0DFFE7FBD2DE924
:1022B000F04104460F4615461E4694F83C0008B10E
:1022C000BDE8F081A348007800283ED10120A14953
:1022D00008702068407DB0B994F84600801C84F8EE
:1022E000450094F84510206800F09AFD0121204631
:1022F000FEF7F8FEE8B9206800F0F7FD012120683C
:1023000001F024FC15E094F84600083084F84500FC
:1023100094F84510206800F083FD01212046FEF767
:10232000E1FE30B90121206801F052FF206800F081
:1023300068FF0121206801F060F90121206801F0A7
:102340004CFB2068407D8449087094F93800401C9B
:1023500007286DD2DFE800F0043B41484F565D008E
:102360003DB9002084F83A0000212046FFF784FFA1
:102370002CE0012D06D1012084F83C000020754995
:1023800008709DE7022D06D1022084F83C00002051
:102390007049087094E7032D06D1032084F83C00AF
:1023A00000206C4908708BE7042D06D1042084F8C6
:1023B0003C0000206749087082E7052D06D1052002
:1023C00084F83C0000206349087079E730E01DB1D3
:1023D00000212046FFF735FF2AE0012D03D001211F
:1023E0002046FFF72EFF23E0022D03D002212046D6
:1023F000FFF727FF1CE0032D03D003212046FFF742
:1024000020FF15E0042D03D004212046FFF719FF1B
:102410000EE0052D0BD001212046FFF712FF02210F
:102420002046FFF70EFF04212046FFF70AFF00BFFA
:1024300000BF2068407D28BB4748007810B394F85F
:102440004600801C84F8450094F84510206800F090
:10245000E7FC01212046FEF745FE30B9206800F078
:1024600044FD0121206801F071FB0121206801F089
:10247000C4F80121206801F0B0FA2068407D364997
:1024800008704EE02068407D28B33348007810BBC8
:1024900094F84600083084F8450094F84510206808
:1024A00000F0BEFC01212046FEF71CFE30B920687A
:1024B00000F0A7FE0121206801F08AFE01212068BA
:1024C00001F09BF80121206801F087FA2068407D27
:1024D0002149087025E02068407D68B90021204628
:1024E000FEF700FEA8B90021206801F02FFB86B19D
:1024F000206800F0FAFC0CE000212046FEF7F2FD17
:1025000038B90021206801F063FE16B1206800F0A0
:1025100078FE0021206801F070F80021206801F0A9
:102520005CFA00BFCCE63EB504462068007DB8B139
:102530000A480088B0F5487F12DA08480088401C35
:10254000064908803EBD0000230000202000002036
:10255000210000201E0000201F0000201C00002081
:10256000FE48008860B994F84620521CD1B2206819
:1025700000F056FCF9480088401CF84908802FE01C
:10258000F6480088B0F5FA7F12DAF4480088401C5B
:10259000F24908800120942140F21712CDE9002170
:1025A0000290902326226121206804F0A2FD17E00A
:1025B000EA480088B0F5487F05DAE8480088401C02
:1025C000E64908800CE0E5480088B0F5487F07D16F
:1025D000002084F83C00E1480088401CDF49088066
:1025E00000BFAFE71CB504462068007D01285ED11E
:1025F000DB48007800285AD1DA48007810BB012067
:10260000D8490870002084F83A0094F84620133224
:10261000D1B2206800F004FCD62040F23111CDE99F
:102620000010C72367225A21206800F0BCFF012157
:10263000206800F0E2FF0121206801F0CEF9C948CE
:1026400000781CBDC8480078401C40B2C6490870DC
:102650000846007800F0070008700846007830B996
:10266000206804F0BEFD0120C049087009E0BE48A2
:102670000078052805D1206804F0C0FD0020BB4982
:102680000870D62040F23111CDE90010C72367222F
:102690005A21206800F087FF0021206800F0ADFF7C
:1026A0000021206801F099F9AE480078C9E7206858
:1026B000007D02287ED1AB48007800287AD0AB4854
:1026C000007828B90120A9490870206804F089FD24
:1026D000A348007800286ED1206804F0D5FE45207C
:1026E000CB21CDE90010332375225B21206800F057
:1026F0005AFFBD20CB21CDE900104523BB225B2131
:10270000206800F050FF8120CB21CDE900106F231D
:1027100075225B21206800F046FFBD20CB21CDE96A
:102720000010AB2375225B21206800F03CFF4FF4C2
:10273000C87005F002FE206804F0A6FE4520CB21FB
:10274000CDE90010332375225B21206800F02BFFB8
:102750008120CB21CDE900104523BB225B212068DD
:1027600000F021FF8120CB21CDE900106F237522DD
:102770005B21206800F017FFAB208521CDE9001018
:102780006F2375225B21206800F00DFFBD20CB2157
:10279000CDE90010AB2375225B21206800F003FF18
:1027A0004FF4C87005F0C9FD206804F06DFEBD202F
:1027B000A82101E02AE01EE0CDE900103323982291
:1027C0005B21206800F0EFFE4FF4967005F0B5FD38
:1027D00001206349087094F846201432D1B2206871
:1027E00000F01EFB0121206800F007FF0121206896
:1027F00001F0F3F807E00021206800F0FEFE002160
:10280000206801F0EAF8574800781AE72068007D50
:10281000042828DD5348007828B35448007828B9A4
:10282000012052490870206804F0DBFC4C48007815
:1028300070B9D6212068007D001F672202EBC0001E
:1028400080B2CDE90001C7235B21206800F0ABFE18
:102850000021206800F0D1FE0021206801F0BDF8C1
:1028600040480078EDE62068007D012808DD3D48FD
:10287000007828B90020216808753A480078E0E619
:102880002068007D58BB0020354908703748007823
:1028900028B9012035490870206804F0A2FC3148AD
:1028A0000078C8B100202F49087094F845102068BE
:1028B00000F0B6FA94F83C00012805D10123D0229B
:1028C000C321206802F054F80121206800F095FE31
:1028D0000121206801F081F822480078B1E600204B
:1028E000AFE630B50146486804692346587800F0E1
:1028F0000302987840B20C68A060D87840B20C68A7
:10290000E06018790C68246904F8220058790C6892
:102910002469012505EB8205605598790C682469C6
:10292000022505EB82056055D8790C6824690325DA
:1029300005EB82056055187A00090C68246910259A
:1029400005EB82056055187A00F00F000C682469C9
:10295000112505EB82056055587A09E01C0000201E
:102960002C0000202A0000202D0000202B00002039
:1029700000090C682469122505EB82056055587A18
:1029800000F00F000C682469132505EB82056055E3
:1029900008680069C0787D2803DD0F200C68E075A9
:1029A0000EE008680069C0786E2806DD08680069D6
:1029B000C0786E380C68E07502E000200C68E075A5
:1029C00008680069C0797D2803DD0F200C68207637
:1029D0000EE008680069C0796E2806DD08680069A5
:1029E000C0796E380C68207602E000200C682076F2
:1029F00008680069C07A7D2803DD0F200C686076C6
:102A00000EE008680069C07A6E2806DD0868006973
:102A1000C07A6E380C68607602E000200C68607640
:102A200008680069C07B7D2803DD0F200C68A07654
:102A30000EE008680069C07B6E2806DD0868006942
:102A4000C07B6E380C68A07602E000200C68A0768F
:102A50001AB9987A0C68607515E0012A05D1987A40
:102A600000F007000C68A0750DE0022A04D1987AE6
:102A700040B20C68206006E0032A04D1987A40B284
:102A800040420C686060D87A0C682075032A01D136
:102A9000012030BD0020FCE770B5044600256068C9
:102AA00004F010FEE8B1E06904F0BBFE2046FFF739
:102AB00018FF054694F8393094F83B2094F83A1002
:102AC000606804F0DFFD606804F0F4FD94F83B00FA
:102AD00010B1002084F83B002046FFF783FD00B1D1
:102AE00070BD2046FFF71FFD2068007D00B1F7E7AD
:102AF00094F9380010F1020F5CDD94F938000628D3
:102B000058DA4F48007810B92068407D28B94C4801
:102B1000007890B12068407D78B994F83A00022896
:102B200003D094F83A00012802D1002084F83A003A
:102B30002068407D40B24249087094F938102B4615
:102B4000404890F900202046FFF7B1FB94F9381077
:102B50002B463C4890F900202046FFF70FFB94F9E4
:102B60003810384890F900202046FFF7DBF994F937
:102B70003810344890F900202046FEF78BFF94F976
:102B80003810304890F900202046FEF772FC94F986
:102B900038102C4890F900202046FDF7DAFD94F912
:102BA0003800284991F90010884203D094F8380081
:102BB0002449087000BF93E770B50446206804F00C
:102BC00036FB0546022D0AD1002084F8460094F811
:102BD0004620D21CD1B2206800F0FFF80BE0012D96
:102BE00009D1252084F8460094F84620D21CD1B2A1
:102BF000206800F0F2F870BD10B50446E06805F0FA
:102C000003F900224FF4FC61206800F055F95020D0
:102C100005F093FB0021206800F002F9502005F038
:102C20008CFBA06805F0F0F840F2DC5005F085FB65
:102C3000206905F06CFA606905F069FA10BD0000C2
:102C4000100000200F0000202DE9F04104460E4640
:102C50002662472007F004FD0746472107F089F95F
:102C6000E761AA20E16908700020E1694870CC2082
:102C7000E16981F842003321E06980F84310C32103
:102C8000E06980F844103C21E06980F8451000209C
:102C9000E16981F8460000BF04E00022E169891C77
:102CA0000A54401C4028F8DB002020606060A060CF
:102CB000E060202007F0CFFC20615A2021690870D5
:102CC0002169487014202169887000202169C8702A
:102CD0006420216908715A2021694871216988712D
:102CE00000202169C8714B202169087200202169E8
:102CF0004872216988722169C8720F20216908739E
:102D00005020216948730020216988732169C873A4
:102D1000102003E0002122691154401C2028F9DB17
:102D2000002020756075A075E07520766076A0762D
:102D30000A2007F090FC6062002003E00021626A34
:102D40001154401C0A28F9DB142007F084FCA0620F
:102D5000002004E00021A26A22F81010401C0A287A
:102D6000F8DBA82007F077FCE06200250FE00420E4
:102D700007F071FCE16A41F825000020E16A51F892
:102D800025100880E16A51F8251048806D1C2A2D15
:102D9000EDDB0320E0762046BDE8F08170B5044607
:102DA00000202062E06907F052FC206907F04FFC28
:102DB000A06A07F04CFC606A07F049FC002505E0BA
:102DC000E16A51F8250007F042FC6D1C2A2DF7DB63
:102DD000E06A07F038FC204670BDC176704710B538
:102DE000044600BFE2691178206A04F0CCFF002895
:102DF000F8D000BFE2695178206A04F0C4FF0028CF
:102E0000F8D0E36993F84620991C206A04F0C7FFC4
:102E1000E26902F142010422206A04F0C0FF10BD01
:102E200070B504460D467020E1694870E069857010
:102E30000120E16981F846002046FFF7D0FF70BD10
:102E40002DE9F0470446884616461F46DDE9089AF4
:102E50000025E06980F801803312E169891C2A4667
:102E60006D1C8B54E169891C2A466D1C8E543B12E3
:102E7000E169891C2A466D1C8B54E169891C2A462C
:102E80006D1C8F5409E099F80030E069801C2946D8
:102E90006A1CD5B2435409F101095FEA0A00AAF19C
:102EA000010101F0FF0AEED1E06980F846502046AA
:102EB000FFF795FFBDE8F08770B504460D4616464E
:102EC0004020E16948702812E1698870E069C570A6
:102ED0003112E0690171E06946710420E16981F80D
:102EE00046002046FFF77BFF70BD70B586B00646F2
:102EF0000025002003900490059000243069807B19
:102F000045002DB930222146641C03A8425427E015
:102F1000642D08DB642095FBF0F03030C2B221460E
:102F2000641C03A84254642095FBF0F100FB11508F
:102F30000A2190FBF1F03030C2B22146641C03A894
:102F400042542E222146641C42540A2095FBF0F183
:102F500000FB11503030C2B22146641C03A8425419
:102F600056222146641C03A8425405E02022204634
:102F7000611CCCB203A90A54052CF7DBEE2D15DA3F
:102F800000224FF478413046FFF796FF03A83B2319
:102F9000EC225421CDE900043046FFF751FF002216
:102FA0004FF4FC613046FFF787FF08E003A83B239E
:102FB000EC225421CDE900043046FFF741FF002404
:102FC0003069807A45002DB930222146641C03A85F
:102FD000425427E0642D08DB642095FBF0F030308C
:102FE000C2B22146641C03A84254642095FBF0F150
:102FF00000FB11500A2190FBF1F03030C2B22146A3
:10300000641C03A842542E222146641C42540A2008
:1030100095FBF0F100FB11503030C2B22146641C28
:1030200003A8425456222146641C03A8425405E0DA
:1030300020222046611CCCB203A90A54052CF7DBE0
:10304000702D15DA00224FF478413046FFF734FF37
:1030500003A85D23EC225421CDE900043046FFF79C
:10306000EFFE00224FF4FC613046FFF725FF08E039
:1030700003A85D23EC225421CDE900043046FFF77C
:10308000DFFE0024306845002DB930222146641C43
:1030900003A8425433E0002D06DA2D222146641C99
:1030A00003A842546D4204E02B222146641C03A86D
:1030B0004254642095FBF0F03030C2B22146641CCB
:1030C00003A842542E222146641C4254642095FBDE
:1030D000F0F100FB11500A2190FBF1F03030C2B248
:1030E0002146641C03A842540A2095FBF0F100FB22
:1030F00011503030C2B22146641C03A842546D22E4
:103100002146641C03A842542F222146641C4254C9
:1031100073222046611CCCB203A90A5405E0202288
:103120002046611CCCB203A90A54082CF7DB03A883
:103130007F23EC225421CDE900043046FFF780FEC6
:103140000024706845002DB930222146641C03A874
:10315000425433E0002D06DA2D222146641C03A8D8
:1031600042546D4204E02B222146641C03A84254C1
:10317000642095FBF0F03030C2B22146641C03A8F5
:1031800042542E222146641C4254642095FBF0F1E7
:1031900000FB11500A2190FBF1F03030C2B2214601
:1031A000641C03A842540A2095FBF0F100FB115067
:1031B0003030C2B22146641C03A842546D2221461D
:1031C000641C03A842542F222146641C42547322DB
:1031D0002046611CCCB203A90A5405E020222046F7
:1031E000611CCCB203A90A54082CF7DB03A8A9235D
:1031F000EC225421CDE900043046FFF721FE06B051
:1032000070BD70B586B0064600250020039004907E
:1032100005900024757D2DB930222146641C03A839
:10322000425425E0642D08DB642095FBF0F030303B
:10323000C2B22146641C03A842540A2D0DDD64204D
:1032400095FBF0F100FB11500A2190FBF1F03030BA
:10325000C2B22146641C03A842540A2095FBF0F137
:1032600000FB11503030C2B22146641C03A8425406
:103270004D222146641C03A8425405E0202220462A
:10328000611CCCB203A90A54052CF7DB03A8342334
:10329000EC225421CDE900043046FFF7D1FD002493
:1032A0003069807B45002DB930222146641C03A87B
:1032B000425427E0642D08DB642095FBF0F03030A9
:1032C000C2B22146641C03A84254642095FBF0F16D
:1032D00000FB11500A2190FBF1F03030C2B22146C0
:1032E000641C03A842542E222146641C42540A2026
:1032F00095FBF0F100FB11503030C2B22146641C46
:1033000003A8425456222146641C03A8425405E0F7
:1033100020222046611CCCB203A90A54052CF7DBFD
:10332000EE2D15DA00224FF478413046FFF7C4FD48
:1033300003A85023EC225421CDE900043046FFF7C6
:103340007FFD00224FF4FC613046FFF7B5FD08E039
:1033500003A85023EC225421CDE900043046FFF7A6
:103360006FFD00243069807A45002DB93022214656
:10337000641C03A8425427E0642D08DB642095FBFD
:10338000F0F03030C2B22146641C03A842546420DD
:1033900095FBF0F100FB11500A2190FBF1F0303069
:1033A000C2B22146641C03A842542E222146641C4A
:1033B00042540A2095FBF0F100FB11503030C2B2AC
:1033C0002146641C03A8425456222146641C03A8CB
:1033D000425405E020222046611CCCB203A90A54C5
:1033E000052CF7DB03A86C23EC225421CDE9000463
:1033F0003046FFF725FD0024306845002DB9302206
:103400002146641C03A8425433E0002D06DA2D2225
:103410002146641C03A842546D4204E02B2221463D
:10342000641C03A84254642095FBF0F03030C2B213
:103430002146641C03A842542E222146641C425497
:10344000642095FBF0F100FB11500A2190FBF1F094
:103450003030C2B22146641C03A842540A2095FBB6
:10346000F0F100FB11503030C2B22146641C03A8B9
:1034700042546D222146641C03A842542F22214647
:10348000641C425473222046611CCCB203A90A5426
:1034900005E020222046611CCCB203A90A54082C66
:1034A000F7DB702D15DA00224FF478413046FFF734
:1034B00003FD03A88823EC225421CDE90004304603
:1034C000FFF7BEFC00224FF4FC613046FFF7F4FC2E
:1034D00008E003A88823EC225421CDE900043046FB
:1034E000FFF7AEFC0024706845002DB9302221465C
:1034F000641C03A8425433E0002D06DA2D22214635
:10350000641C03A842546D4204E02B222146641C33
:1035100003A84254642095FBF0F03030C2B221463B
:10352000641C03A842542E222146641C4254642089
:1035300095FBF0F100FB11500A2190FBF1F03030C7
:10354000C2B22146641C03A842540A2095FBF0F144
:1035500000FB11503030C2B22146641C03A8425413
:103560006D222146641C03A842542F222146641C6C
:10357000425473222046611CCCB203A90A5405E0D0
:1035800020222046611CCCB203A90A54082CF7DB88
:1035900003A8AE23EC225421CDE900043046FFF706
:1035A0004FFC06B070BD2DE9F0470446894615462C
:1035B0001E46DDE90878E06980F801902812E1698B
:1035C0008870E069C5703112E0690171E069467187
:1035D0003912E0698171E069C7714FEA2821E06919
:1035E0000172E06980F809800820E16981F84600ED
:1035F0002046FFF7F4FBBDE8F0877CB504460D4696
:10360000002D72D000224FF6FF712046FFF754FCC8
:10361000E07D28B3E07D062817DA00224FF47841D8
:103620002046FFF749FC0D21E07D89300A238922DD
:10363000CDE900015B212046FFF7B5FF00224FF6E0
:10364000FF712046FFF738FC0AE00D21E07D89304C
:103650000A238922CDE900015B212046FFF7A3FF61
:10366000207E28B3207E062817DA00224FF4784106
:103670002046FFF721FC0D21207EA3300A23A32240
:10368000CDE900015B212046FFF78DFF00224FF6B8
:10369000FF712046FFF710FC0AE00D21207EA330C9
:1036A0000A23A322CDE900015B212046FFF77BFF1F
:1036B000607E30B3607E062818DA00224FF478412D
:1036C0002046FFF7F9FB0D21607EBC300A23BC22A7
:1036D000CDE900015B212046FFF765FF00224FF690
:1036E000FF712046FFF7E8FB0BE045E00D21607E0F
:1036F000BC300A23BC22CDE900015B212046FFF744
:1037000052FFA07E28B3A07E062817DA00224FF4CD
:1037100078412046FFF7D0FB0D21A07ED5300A234B
:10372000D522CDE900015B212046FFF73CFF0022B6
:103730004FF6FF712046FFF7BFFB0AE00D21A07E88
:10374000D5300A23D522CDE900015B212046FFF7C1
:103750002AFFE07DF8490870207EF8490870607EF5
:10376000F7490870A07EF749087000224FF4FC6109
:103770002046FFF7A1FB2FE1E07DEF490978884261
:103780000ED1207EED490978884209D1607EEC494E
:103790000978884204D1A07EEA4909788842EAD0B3
:1037A00000224FF6FF712046FFF786FBE07DE249DD
:1037B000097888423ED0E07D062817DA00224FF4CF
:1037C00078412046FFF778FB0D21E07D89300A2300
:1037D0008922CDE900015B212046FFF7E4FE0022AB
:1037E0004FF6FF712046FFF767FB0AE00D21E07DF1
:1037F00089300A238922CDE900015B212046FFF7A9
:10380000D2FEE07DCC490978884210DA0D21CA4801
:1038100000788930CDE90001E07D00F189020A23BA
:103820005A212046FFF7BFFEE07DC3490870E07DC6
:10383000C1490870207EC149097888423ED0207E67
:10384000062817DA00224FF478412046FFF734FBB0
:103850000D21207EA3300A23A322CDE900015B21A4
:103860002046FFF7A0FE00224FF6FF712046FFF72B
:1038700023FB0AE00D21207EA3300A23A322CDE9F9
:1038800000015B212046FFF78EFE207EAB490978C0
:10389000884210DA0D21A9480078A330CDE9000153
:1038A000207E00F1A3020A235A212046FFF77BFE67
:1038B000207EA2490870207EA0490870607EA04941
:1038C000097888423ED0607E062817DA00224FF43D
:1038D00078412046FFF7F0FA0D21607EBC300A23C4
:1038E000BC22CDE900015B212046FFF75CFE0022EF
:1038F0004FF6FF712046FFF7DFFA0AE00D21607EE8
:10390000BC300A23BC22CDE900015B212046FFF731
:103910004AFE607E8A490978884210DA0D2188487B
:103920000078BC30CDE90001607E00F1BC020A23C2
:103930005A212046FFF737FE607E81490870607E7D
:103940007F490870A07E7F49097888423ED0A07EDA
:10395000062817DA00224FF478412046FFF7ACFA28
:103960000D21A07ED5300A23D522CDE900015B21AF
:103970002046FFF718FE00224FF6FF712046FFF7A2
:103980009BFA0AE00D21A07ED5300A23D522CDE98D
:1039900000015B212046FFF706FEA07E69490978F9
:1039A000884210DA0D2167480078D530CDE9000152
:1039B000A07E00F1D5020A235A212046FFF7F3FD2D
:1039C000A07E60490870A07E5E49087000224FF416
:1039D000FC612046FFF770FA7CBD7CB504460E46BC
:1039E000002E48D000224FF6FF712046FFF764FA00
:1039F000002514E0102105EB450000F58F7080B222
:103A0000CDE90001C5F10F0083B205EB450000F2DE
:103A10001D1082B25B212046FFF7C5FD6D1CA07D05
:103A2000A842E7DC002244F208212046FFF744FACE
:103A3000A57D14E0102105EB450000F58F7080B2E4
:103A4000CDE90001C5F10F0083B205EB450000F29E
:103A50001D1082B25B212046FFF7A5FD6D1C072DCE
:103A6000E8DB00224FF4FC612046FFF725FAA07D39
:103A7000354908705EE0A07D3349097888422ADD27
:103A800000224FF6FF712046FFF716FA2E48057800
:103A900014E0102105EB450000F58F7080B2CDE9F0
:103AA0000001C5F10F0083B205EB450000F21D10C7
:103AB00082B25B212046FFF776FD6D1CA07DA842F7
:103AC000E7DC00224FF4FC612046FFF7F5F9A07D0A
:103AD0001D4908702EE0A07D1B490978884229DA2B
:103AE000002244F208212046FFF7E6F9A57D14E004
:103AF000102105EB450000F58F7080B2CDE9000183
:103B0000C5F10F0083B205EB450000F21D1082B233
:103B10005B212046FFF747FD6D1C0B48007885426E
:103B2000E6DB00224FF4FC612046FFF7C5F9A07DDB
:103B3000054908707CBD00003000002031000020E5
:103B40003200002033000020340000207CB5044601
:103B50000D46002D7ED0A068002844DDA0683128E5
:103B600018DD00224FF478412046FFF7A5F999218E
:103B70002089DB3080B29723DB22CDE900015B2175
:103B80002046FFF710FD00224FF4FC612046FFF7AE
:103B900093F973E0A068182818DD00224FF6E07151
:103BA0002046FFF789F999212089DB3080B29723DD
:103BB000DB22CDE900015B212046FFF7F4FC002267
:103BC0004FF4FC612046FFF777F957E099212089EF
:103BD000DB3080B29723DB22CDE900015B21204658
:103BE000FFF7E1FC4AE0A068002847DAA06810F17E
:103BF000310F18DA00224FF478412046FFF75CF9C4
:103C00009920DA21CDE900102089DA3082B2972399
:103C10005B212046FFF7C7FC00224FF4FC612046E1
:103C2000FFF74AF92AE0A06810F1180F1ADA00220B
:103C30004FF6E0712046FFF73FF99920DA21CDE9F0
:103C400000102089DA3082B297235B212046FFF7EB
:103C5000AAFC00E0A4E000224FF4FC612046FFF73C
:103C60002BF90BE09920DA21CDE900102089DA3018
:103C700082B297235B212046FFF795FCE06800287D
:103C800044DDE068312818DD00224FF478412046F9
:103C9000FFF712F9C321A089DB3080B2C123DB22F8
:103CA000CDE900015B212046FFF77DFC00224FF4A7
:103CB000FC612046FFF700F983E2E068182818DD70
:103CC00000224FF6E0712046FFF7F6F8C321A089E5
:103CD000DB3080B2C123DB22CDE900015B2120462D
:103CE000FFF761FC00224FF4FC612046FFF7E4F887
:103CF00067E2C321A089DB3080B2C123DB22CDE99A
:103D000000015B212046FFF74EFC5AE2E0680028E4
:103D1000D2DAE06810F1310F18DA00224FF478415E
:103D20002046FFF7C9F8C320DA21CDE90010A089A9
:103D3000DA3082B2C1235B212046FFF734FC002237
:103D40004FF4FC612046FFF7B7F83AE2E06810F163
:103D5000180F18DA00224FF6E0712046FFF7ACF892
:103D6000C320DA21CDE90010A089DA3082B2C12364
:103D70005B212046FFF717FC00224FF4FC61204630
:103D8000FFF79AF81DE2C320DA21CDE90010A089DF
:103D9000DA3082B2C1235B212046FFF704FC10E237
:103DA000FD49A0680968884257D0A06800286ADDEC
:103DB000A068312818DD00224FF478412046FFF733
:103DC0007BF899212089DB3080B29723DB22CDE973
:103DD00000015B212046FFF7E6FB00224FF4FC6167
:103DE0002046FFF769F827E0A068182818DD0022B0
:103DF0004FF6E0712046FFF75FF899212089DB300C
:103E000080B29723DB22CDE900015B212046FFF73A
:103E1000CAFB00224FF4FC612046FFF74DF80BE08F
:103E200099212089DB3080B29723DB22CDE9000184
:103E30005B212046FFF7B7FBD748006800280DDA62
:103E40009920DA21CDE90010D3480088DA3082B217
:103E500097235A212046FFF7A6FBA7E0CE49A0688A
:103E600009688842F9DA9921CB480088DB3080B2B2
:103E7000CDE900012089DB3082B297235A21204608
:103E8000FFF791FB92E0A06800286CDAA06810F1BF
:103E9000310F18DA00224FF478412046FFF70CF872
:103EA0009920DA21CDE900102089DA3082B29723F7
:103EB0005B212046FFF777FB00224FF4FC61204690
:103EC000FEF7FAFF28E0A06810F1180F18DA0022B8
:103ED0004FF6E0712046FEF7EFFF9920DA21CDE999
:103EE00000102089DA3082B297235B212046FFF749
:103EF0005AFB00224FF4FC612046FEF7DDFF0BE089
:103F00009920DA21CDE900102089DA3082B2972396
:103F10005B212046FFF747FB9F48006800280DDD26
:103F200099219D480088DB3080B29723DB22CDE9C0
:103F300000015A212046FFF736FB37E09649A0687A
:103F40000968884232DD99212089DA3080B2CDE9D2
:103F5000000191480088DA3082B297235A21204626
:103F6000FFF721FB22E08C48006800280DDD992135
:103F700089480088DB3080B29723DB22CDE900013D
:103F80005A212046FFF70FFB10E083480068002805
:103F90000CDA9920DA21CDE900107F480088DA3068
:103FA00082B297235A212046FFF7FDFA7B49E06849
:103FB0000968884257D0E06800286ADDE068312847
:103FC00018DD00224FF478412046FEF775FFC3212B
:103FD000A089DB3080B2C123DB22CDE900015B2167
:103FE0002046FFF7E0FA00224FF4FC612046FEF77E
:103FF00063FF27E0E068182818DD00224FF6E07123
:104000002046FEF759FFC321A089DB3080B2C123CF
:10401000DB22CDE900015B212046FFF7C4FA002234
:104020004FF4FC612046FEF747FF0BE0C321A08957
:10403000DB3080B2C123DB22CDE900015B212046C9
:10404000FFF7B1FA5548006800280DDAC320DA21DD
:10405000CDE9001051480088DA3082B2C1235A21DC
:104060002046FFF7A0FAACE04C49E06809688842B6
:104070000EDAC32149480088DB3080B2CDE9000167
:10408000A089DB3082B2C1235A212046FFF78BFA88
:1040900097E0E06800286CDAE06810F1310F18DA78
:1040A00000224FF478412046FEF706FFC320DA21B4
:1040B000CDE90010A089DA3082B2C1235B2120460D
:1040C000FFF771FA00224FF4FC612046FEF7F4FE80
:1040D00028E0E06810F1180F18DA00224FF6E071BE
:1040E0002046FEF7E9FEC320DA21CDE90010A089C1
:1040F000DA3082B2C1235B212046FFF754FA002256
:104100004FF4FC612046FEF7D7FE0BE0C320DA2116
:10411000CDE90010A089DA3082B2C1235B212046AC
:10412000FFF741FA1D48006800280DDDC3211B4838
:104130000088DB3080B2C123DB22CDE900015A21A7
:104140002046FFF730FA3CE01449E06809688842ED
:1041500037DDC321A089DA3080B2CDE900010F48F4
:104160000088DA3082B2C1235A212046FFF71BFAB9
:1041700027E00A480068002812DDC32107480088AC
:10418000DB3080B2C123DB22CDE900015A21204679
:10419000FFF709FA15E00000380000203C0000207D
:1041A000F848006800280CDAC320DA21CDE90010B5
:1041B000F4480088DA3082B2C1235A212046FFF742
:1041C000F2F9F149A0680860EE49E06808607CBD3A
:1041D0007CB504460D46002D7ED0A068002844DD45
:1041E000A068312818DD00224FF478412046FEF700
:1041F00063FEA2212089DB3080B2A023DB22CDE93F
:1042000000015B212046FFF7CEF900224FF4FC614C
:104210002046FEF751FE73E0A068182818DD002242
:104220004FF6E0712046FEF747FEA2212089DB30E1
:1042300080B2A023DB22CDE900015B212046FFF7FD
:10424000B2F900224FF4FC612046FEF735FE57E03C
:10425000A2212089DB3080B2A023DB22CDE900013E
:104260005B212046FFF79FF94AE0A068002847DA63
:10427000A06810F1310F18DA00224FF4784120467F
:10428000FEF71AFEA220DA21CDE900102089DA30EB
:1042900082B2A0235B212046FFF785F900224FF46C
:1042A000FC612046FEF708FE2AE0A06810F1180F16
:1042B0001ADA00224FF6E0712046FEF7FDFDA2203B
:1042C000DA21CDE900102089DA3082B2A0235B2107
:1042D0002046FFF768F900E0A4E000224FF4FC61FB
:1042E0002046FEF7E9FD0BE0A220DA21CDE900101F
:1042F0002089DA3082B2A0235B212046FFF753F9F0
:10430000E068002844DDE068312818DD00224FF421
:1043100078412046FEF7D0FDC821A089DB3080B26D
:10432000C623DB22CDE900015B212046FFF73BF9E4
:1043300000224FF4FC612046FEF7BEFD85E2E068F6
:10434000182818DD00224FF6E0712046FEF7B4FD74
:10435000C821A089DB3080B2C623DB22CDE9000171
:104360005B212046FFF71FF900224FF4FC61204635
:10437000FEF7A2FD69E2C821A089DB3080B2C62326
:10438000DB22CDE900015B212046FFF70CF95CE25E
:10439000E0680028D2DAE06810F1310F18DA002264
:1043A0004FF478412046FEF787FDC820DA21CDE999
:1043B0000010A089DA3082B2C6235B212046FFF7C5
:1043C000F2F800224FF4FC612046FEF775FD3CE256
:1043D000E06810F1180F18DA00224FF6E07120465D
:1043E000FEF76AFDC820DA21CDE90010A089DA3095
:1043F00082B2C6235B212046FFF7D5F800224FF496
:10440000FC612046FEF758FD1FE2C820DA21CDE905
:104410000010A089DA3082B2C6235B212046FFF764
:10442000C2F812E25949A0680968884257D0A068CA
:1044300000286ADDA068312818DD00224FF4784199
:104440002046FEF739FDA2212089DB3080B2A0236F
:10445000DB22CDE900015B212046FFF7A4F8002212
:104460004FF4FC612046FEF727FD27E0A0681828DE
:1044700018DD00224FF6E0712046FEF71DFDA22157
:104480002089DB3080B2A023DB22CDE900015B2153
:104490002046FFF788F800224FF4FC612046FEF723
:1044A0000BFD0BE0A2212089DB3080B2A023DB22B0
:1044B000CDE900015B212046FFF775F8334800681D
:1044C00000280DDAA220DA21CDE900102F4800885B
:1044D000DA3082B2A0235A212046FFF764F8AEE01A
:1044E0002A49A06809688842F9DAA2212748008889
:1044F000DB3080B2CDE900012089DB3082B2A0231D
:104500005A212046FFF74FF899E0A068002873DA97
:10451000A06810F1310F18DA00224FF478412046DC
:10452000FEF7CAFCA220DA21CDE900102089DA309A
:1045300082B2A0235B212046FFF735F800224FF41A
:10454000FC612046FEF7B8FC2EE0A06810F1180FC1
:104550001EDA00224FF6E0712046FEF7ADFCA220E5
:10456000DA21CDE900102089DA3082B2A0235B2164
:104570002046FFF718F800224FF4FC612046FEF7B2
:104580009BFC11E03C00002038000020400000208F
:10459000A220DA21CDE900102089DA3082B2A023EE
:1045A0005B212046FEF7FFFFFE48006800280DDD76
:1045B000A221FC480088DB3080B2A023DB22CDE9B9
:1045C00000015A212046FEF7EEFF38E0F549A068C9
:1045D0000968884233DDA2212089DA3080B2CDE932
:1045E0000001F0480088DA3082B2A0235A21204628
:1045F000FEF7D9FF23E0FFE7EA48006800280DDD59
:10460000A221E8480088DB3080B2A023DB22CDE97C
:1046100000015A212046FEF7C6FF10E0E14800687D
:1046200000280CDAA220DA21CDE90010DD4800884C
:10463000DA3082B2A0235A212046FEF7B4FFDA49CD
:10464000E0680968884257D0E06800286ADDE068C1
:10465000312818DD00224FF478412046FEF72CFC6B
:10466000C821A089DB3080B2C623DB22CDE900015E
:104670005B212046FEF797FF00224FF4FC612046A5
:10468000FEF71AFC27E0E068182818DD00224FF634
:10469000E0712046FEF710FCC821A089DB3080B213
:1046A000C623DB22CDE900015B212046FEF77BFF1C
:1046B00000224FF4FC612046FEF7FEFB0BE0C82110
:1046C000A089DB3080B2C623DB22CDE900015B216B
:1046D0002046FEF768FFB448006800280DDAC820BD
:1046E000DA21CDE90010B0480088DA3082B2C62362
:1046F0005A212046FEF757FFA7E0AB49E06809685A
:1047000088420EDAC821A8480088DB3080B2CDE9A3
:104710000001A089DB3082B2C6235A212046FEF771
:1047200042FF92E0E06800286CDAE06810F1310F97
:1047300018DA00224FF478412046FEF7BDFBC8206E
:10474000DA21CDE90010A089DA3082B2C6235B21DC
:104750002046FEF728FF00224FF4FC612046FEF7BA
:10476000ABFB28E0E06810F1180F18DA00224FF6D2
:10477000E0712046FEF7A0FBC820DA21CDE9001049
:10478000A089DA3082B2C6235B212046FEF70BFFF8
:1047900000224FF4FC612046FEF78EFB0BE0C820A0
:1047A000DA21CDE90010A089DA3082B2C6235B217C
:1047B0002046FEF7F8FE7C48006800280DDDC82181
:1047C00079480088DB3080B2C623DB22CDE90001C6
:1047D0005A212046FEF7E7FE37E07349E068096892
:1047E000884232DDC821A089DA3080B2CDE90001EB
:1047F0006D480088DA3082B2C6235A212046FEF77F
:10480000D2FE22E06848006800280DDDC821664815
:104810000088DB3080B2C623DB22CDE900015A21BB
:104820002046FEF7C0FE10E05F48006800280CDA62
:10483000C820DA21CDE900105B480088DA3082B266
:10484000C6235A212046FEF7AEFE5649A0680860EE
:104850005549E06808607CBD2DE9F047044689466B
:1048600015461E46DDE90878E06980F801902812B7
:10487000E1698870E069C5703112E0690171E06931
:1048800046713912E0698171E069C7714FEA2821E8
:10489000E0690172E06980F809800820E16981F827
:1048A00046002046FEF79BFABDE8F0872DE9F04769
:1048B00004460F4616461D46DDE90889E069477043
:1048C000E1698E702912E069C170E06905714FEAF3
:1048D0002821E0694171E06980F80680E06980F88C
:1048E00007900620E16981F846002046FEF777FA36
:1048F000BDE8F0872DE9F05F04460F4615461E46D9
:10490000DDE90CABDDE90A897120E1694870E069F5
:1049100087702912E069C170E06905713112E069A0
:104920004171E06986714FEA2821E069C171E0694F
:1049300080F808804FEA2921E0694172E06980F837
:104940000A904FEA2A21E069C172E06980F80CA060
:104950004FEA2B21E0694173E06980F80EB00D2029
:10496000E16981F846002046FEF739FABDE8F09F7C
:104970000FB591B0002010900F900E900D900A90FE
:104980000B900C901198406A01781198006900789A
:10499000814202D1149800287ED0002010901198F6
:1049A000006903E0400000204400002001781198D5
:1049B000406A01701198806A0088FE49498808445D
:1049C00000F5B4704FF4B47190FBF1F201FB1200EA
:1049D000F94951F8200001460590F84805F03CFBE4
:1049E000F749069005F035FB079005F09FFC80B273
:1049F00009901198806A0088EE494988084400F5BA
:104A0000B4704FF4B47190FBF1F201FB1200ED4968
:104A100051F8200001460590E84805F01DFBEA49E1
:104A2000069005F0C1FA079005F080FC80B208906E
:104A3000DDE908016D231922CDE900015D211198FE
:104A4000FFF70AFF11980069007841001198806A09
:104A500001801198806A0088642821DB1198806A9F
:104A60000088642190FBF1F03030C2B21099481CEC
:104A700010900AA842541198806A0088642190FB23
:104A8000F1F201FB12000A2190FBF1F03030C2B2CA
:104A90001099481C109000E080E00AA8425411E0F0
:104AA0001198806A00880A280CDB1198806A0088B7
:104AB0000A2190FBF1F03030C2B21099481C1090DE
:104AC0000AA842541198806A00880A2190FBF1F2EA
:104AD00001FB12003030C2B21099481C10900AA895
:104AE000425406E020221098411CC9B210910AA934
:104AF0000A5410980328F5DB0AA9109828230D22E0
:104B0000CDE900106E211198FEF79AF91198806A8C
:104B10000088A8494988084400F5B4704FF4B4717E
:104B200090FBF1F201FB1200A34951F8200001466D
:104B30000590A24805F090FAA149069005F089FA7F
:104B4000079005F0F3FB80B209901198806A008805
:104B500098494988084400F5B4704FF4B47190FB4B
:104B6000F1F201FB1200974951F82000014605902F
:104B7000924805F071FA9449069005F015FA0790ED
:104B800005F0D4FB80B20890DDE908016D231922FD
:104B9000CDE9000156211198FFF75EFE1198406A99
:104BA0000179119800694078814202D11498002857
:104BB0007BD0002010901198006941781198406ACC
:104BC00001711198806A00897A494988084400F582
:104BD000B4704FF4B47190FBF1F201FB120076490E
:104BE00051F8200001460590744805F035FA7749E0
:104BF000069005F02EFA079005F098FB80B2099018
:104C00001198806A01896B484088084400F5B470A7
:104C10004FF4B47190FBF1F201FB1200694951F8B5
:104C2000200001460590654805F016FA6649069091
:104C300005F0BAF9079005F079FB80B20890DDE93C
:104C40000801A1231922CDE900015D211198FFF788
:104C500003FE11980069407841001198806A018133
:104C60001198806A0089642820DB1198806A008985
:104C7000642190FBF1F03030C2B21099481C1090C2
:104C80000AA842541198806A0089642190FBF1F2CD
:104C900001FB12000A2190FBF1F03030C2B21099F2
:104CA000481C10900AA8425412E07EE01198806AD5
:104CB00000890A280CDB1198806A00890A2190FB80
:104CC000F1F03030C2B21099481C10900AA842543A
:104CD0001198806A00890A2190FBF1F201FB120011
:104CE0003030C2B21099481C10900AA8425406E015
:104CF00020221098411CC9B210910AA90A54109898
:104D00000328F5DB0AA91098282340F21112CDE9F7
:104D100000106E211198FEF793F81198806A0089AF
:104D200024494988084400F5B4704FF4B47190FBED
:104D3000F1F201FB1200204951F8200001460590D4
:104D40001E4805F089F92149069005F082F907907F
:104D500005F0ECFA80B209901198806A0089154933
:104D60004988084400F5B4704FF4B47190FBF1F237
:104D700001FB1200134951F82000014605900F482D
:104D800005F06AF91049069005F00EF9079005F054
:104D9000CDFA80B20890DDE90801A1231922CDE9FE
:104DA000000156211198FFF757FD1198406A81794B
:104DB00011980DE064A7000878A700080000904152
:104DC0000000DA4218AD00080000C841000021438D
:104DD0000069407A814202D1149800287BD00020DB
:104DE000109011980069417A1198406A8171119868
:104DF000806A8089FE494988084400F5B4704FF400
:104E0000B47190FBF1F201FB1200FA4951F8200055
:104E100001460590F84805F01FF9F849069005F09D
:104E200018F9079005F082FA80B209901198806A0B
:104E30008089EF494988084400F5B4704FF4B47292
:104E400090FBF2F102FB1101ED4850F82100014600
:104E50000590E94805F000F9EA49069005F0A4F844
:104E6000079005F063FA80B20890DDE90801D523C8
:104E70001922CDE900015D211198FFF7EDFC119891
:104E80000069407A41001198806A81811198806A96
:104E90008089642820DB1198806A8089642190FBD6
:104EA000F1F03030C2B21099481C10900AA8425458
:104EB0001198806A8089642190FBF1F201FB120055
:104EC0000A2190FBF1F03030C2B21099481C1090CA
:104ED0000AA8425412E07DE01198806A80890A286D
:104EE0000CDB1198806A80890A2190FBF1F0303048
:104EF000C2B21099481C10900AA842541198806AB6
:104F000080890A2190FBF1F201FB12003030C2B21D
:104F10001099481C10900AA8425406E020221098CC
:104F2000411CC9B210910AA90A5410980328F5DB54
:104F30000AA9109845234E22CDE900106E21119840
:104F4000FDF77EFF1198806A8089A9494988084445
:104F500000F5B4704FF4B47190FBF1F201FB120054
:104F6000A44951F8200001460590A34805F074F8C3
:104F7000A249069005F06DF8079005F0D7F980B2C8
:104F800009901198806A808999494988084400F5F8
:104F9000B4704FF4B47290FBF2F102FB1100984927
:104FA00051F8200001460590934805F055F89549C1
:104FB000069004F0F9FF079005F0B8F980B2089068
:104FC000DDE90801D5231922CDE900015621119808
:104FD000FFF742FC00201090BAE01098C11709902A
:104FE00000EB917081101098C217089000EB92703E
:104FF00082100898A0EB820001EB8000C0B20F90F5
:10500000119801690F98085C41001198826A109804
:1050100022F810101198416A1098095C11980269E1
:105020000F98105C814202D1149800287ED011980C
:1050300001690F98095C1198426A10981154002078
:105040000D901198816A109831F81000642823DBC4
:105050001198816A109831F81000642190FBF1F0EA
:105060003030C2B20D99481C0D900AA842541198D4
:10507000816A109831F81000642190FBF1F201FB75
:1050800012000A2190FBF1F03030C2B20D99481C99
:105090000D900AA8425415E01198816A109831F8D1
:1050A00010000A280EDB1198816A109831F8100060
:1050B0000A2190FBF1F03030C2B20D99481C0D90DE
:1050C0000AA842541198816A109831F810000A21F8
:1050D00090FBF1F201FB12003030C2B20D99481C76
:1050E0000D900AA8425406E020220D98411CC9B236
:1050F0000D910AA90A540D980328F5DB0521109893
:1051000090FBF1F000EB4001C1EB4010283080B281
:1051100009900521109890FBF1F201FB120000EBC1
:1051200080100D3080B208900AA900E00CE00D98C4
:10513000CDE900106E21DDE908231198FDF780FE0E
:105140000E98401CC0B20E901098401CC0B2109037
:1051500010980A28FFF641AF0E9818B9149808B9AC
:1051600015B000BD1198806A4088B62803DAB621D0
:105170001198806A41801198806A8088A82803DD90
:10518000A8211198806A81801198806AC0880A28B5
:1051900003DA0A211198806AC1801198806A4088D8
:1051A00000F507704FF4B47190FBF1F201FB1200AF
:1051B00081B21198806A41801198806A4188119863
:1051C000806A8088084400F5B4704FF4B47190FB95
:1051D000F1F201FB120081B21198806A818011986E
:1051E000806A81881198806AC08808440CE00000B9
:1051F00064A7000878A7000800009041000055430C
:1052000018AD00080000C84100F507704FF4B471F4
:1052100090FBF1F201FB120081B21198806AC1800B
:105220001198806AC1881198806A4089084400F208
:1052300076204FF4B47190FBF1F201FB120081B2C1
:105240001198806A41811198806A408A00F5B47093
:105250004FF4B47190FBF1F201FB120081B211988E
:10526000806A4182DDE91110C96A096808801199D4
:105270001398C96A096848801298123881B2119847
:10528000C06A406801801398801D81B21198C06A7D
:10529000406841801298203081B21198C06A8068BD
:1052A00001801398801D81B21198C06A8068418086
:1052B0001198806A408AFE4951F820000146069004
:1052C000FC4804F0C9FE089012981238069005F0C8
:1052D00012F80790089904F067FE099005F026F887
:1052E00081B21198C06AC06801801198806A408AB2
:1052F000F14951F8200001460690EE4804F0ACFE5A
:1053000008901398801D04F0F6FF0790089904F0A8
:105310009DFE099005F00AF881B21198C06AC06834
:1053200041801198806A4088E14951F82000014687
:105330000690E24804F090FE0890129804F0E4FF12
:105340000790089904F030FE099004F0EFFF81B255
:105350001198C06A006901801198806A4088D64916
:1053600051F8200001460690D44804F075FE0890DC
:10537000139804F0C9FF0790089904F067FE09909C
:1053800004F0D4FF81B21198C06A0069418011987D
:10539000806A8088C64951F8200001460690C748B7
:1053A00004F05AFE08901198C06A006900880690BF
:1053B00004F0AAFF0790089904F0F6FD099004F0A4
:1053C000B5FF81B21198C06A406901801198806A66
:1053D0008088B94951F8200001460690B74804F08A
:1053E0003BFE08901198C06A00694088069004F05E
:1053F0008BFF0790089904F029FE099004F096FFAE
:1054000081B21198C06A406941801198806AC08851
:10541000A74951F8200001460690A94804F01CFE57
:1054200008901198C06A40690088069004F06CFFEB
:105430000790089904F0B8FD099004F077FF81B255
:105440001198C06A806901801198806AC0889A4961
:1054500051F8200001460690994804F0FDFD08909F
:105460001198C06A40694088069004F04DFF07908B
:10547000089904F0EBFD099004F058FF81B21198EF
:10548000C06A806941801298123881B21198C06A4E
:10549000C069018011991398C96AC9694880129836
:1054A000401F81B21198C06AD0F89800018011990C
:1054B0001398C96AD1F8981048801298401D81B29B
:1054C0001198C06AD0F89C00018011991398C96A9C
:1054D000D1F89C1048801298203081B21198C06A8F
:1054E000006A018011991398C96A096A4880129864
:1054F000123881B21198C06A406A018013980C304A
:1055000081B21198C06A406A41801298203081B2FD
:105510001198C06A806A018013980C3081B211988A
:10552000C06A806A41801198806A408A65494988CA
:10553000401A00F5B4704FF4B47190FBF1F201FB26
:1055400012005B4951F82000014606905E4804F0C5
:1055500083FD08901198C06A40680088069004F0A6
:10556000D3FE0790089904F01FFD099004F0DEFEB9
:1055700081B21198C06AC06A01801198806A408A1D
:1055800050494988401A00F5B4704FF4B47190FB4B
:10559000F1F201FB1200484951F820000146069043
:1055A000494804F059FD08901198C06A4068408845
:1055B000069004F0A9FE0790089904F047FD0990B1
:1055C00004F0B4FE81B21198C06AC06A418011989B
:1055D000806A408A3B490988401A00F5B4704FF44C
:1055E000B47190FBF1F201FB1200314951F8200037
:1055F000019004F0C8FE4FF06632344BCDE9020151
:1056000004F007FECDE906011198C06A40680088E1
:10561000039004F07EFECDE90401DDE9062304F0E9
:1056200051FDCDE9080104F095FE81B21198C06AE0
:10563000006B01801198806A408A22490988401ACB
:1056400000F5B4704FF4B47190FBF1F201FB12005D
:10565000194951F82000019004F095FE4FF0663290
:105660001A4BCDE9020104F0D4FDCDE906011198F1
:10567000C06A40684088039004F04BFECDE9040105
:10568000DDE9062304F0BFFDCDE9080104F062FE68
:1056900081B21198C06A006B41801198806A408A7B
:1056A0000849498808444FF4B47190FBF1F20FE0C7
:1056B00018AD00080000A04178A7000800002042B3
:1056C0000000E04164A700080000C0406666344066
:1056D00001FB1200FE4951F8200001460690FD48EA
:1056E00004F0BAFC08901198C06A406800880690DF
:1056F00004F00AFE0790089904F056FC099004F0A3
:1057000015FE81B21198C06A406B01801198806AC1
:10571000408AF149498808444FF4B47190FBF1F292
:1057200001FB1200ED4951F8200001460690E948BE
:1057300004F092FC08901198C06A40684088069076
:1057400004F0E2FD0790089904F080FC099004F051
:10575000EDFD81B21198C06A406B41801198806A5A
:10576000408ADD49098808444FF4B47190FBF1F296
:1057700001FB1200D64951F82000019004F003FE0D
:105780004FF06632D64BCDE9020104F042FDCDE97F
:1057900006011198C06A40680088039004F0B9FDC2
:1057A000CDE90401DDE9062304F08CFCCDE9080114
:1057B00004F0D0FD81B21198C06A806B018011980D
:1057C000806A408AC449098808444FF4B47190FB48
:1057D000F1F201FB1200C14951F82000019004F0E0
:1057E000D2FD4FF06632BE4BCDE9020104F011FD4F
:1057F000CDE906011198C06A40684088039004F022
:1058000088FDCDE90401DDE9062304F0FCFCCDE9C7
:10581000080104F09FFD81B21198C06A806B41803D
:105820001198806A4088AC498988401A00F5B470A4
:105830004FF4B47190FBF1F201FB1200A44951F84E
:10584000200001460690A74804F006FC0890129834
:1058500004F05AFD0790089904F0A6FB099004F0A3
:1058600065FD81B21198C06AC06B01801198806A91
:10587000408899498988401A00F5B4704FF4B47192
:1058800090FBF1F201FB1200944951F8200001460F
:105890000690944804F0E0FB0890139804F034FD5F
:1058A0000790089904F0D2FB099004F03FFD81B203
:1058B0001198C06AC06B41801198806A40888649FF
:1058C000C988401A00F5B4704FF4B47190FBF1F23E
:1058D00001FB12007E4951F82000014606908248E3
:1058E00004F0BAFB0890129804F00EFD0790089996
:1058F00004F05AFB099004F019FD81B21198C06AB6
:10590000006C01801198806A40887349C988401AE8
:1059100000F5B4704FF4B47190FBF1F201FB12008A
:105920006E4951F82000014606906F4804F094FB40
:105930000890139804F0E8FC0790089904F086FB9F
:10594000099004F0F3FC81B21198C06A006C4180A8
:105950001198806A408860498988084400F5B470CD
:105960004FF4B47190FBF1F201FB1200584951F869
:105970002000014606905B4804F06EFB08901298E8
:1059800004F0C2FC0790089904F00EFB099004F0A3
:10599000CDFC81B21198C06A406C01801198806A78
:1059A00040884D498988084400F5B4704FF4B471BB
:1059B00090FBF1F201FB1200484951F8200001462A
:1059C0000690484804F048FB0890139804F09CFCAB
:1059D0000790089904F03AFB099004F0A7FC81B203
:1059E0001198C06A406C41801198806A40883A4999
:1059F000C988084400F5B4704FF4B47190FBF1F21B
:105A000001FB1200324951F8200001460690364849
:105A100004F022FB0890129804F076FC0790089995
:105A200004F0C2FA099004F081FC81B21198C06AB6
:105A3000806C01801198806A40882749C988084491
:105A400000F5B4704FF4B47190FBF1F201FB120059
:105A5000224951F8200001460690234804F0FCFA40
:105A60000890139804F050FC0790089904F0EEFA9F
:105A7000099004F05BFC81B21198C06A806C41808F
:105A80001198806A808814490989401A00F5B47019
:105A90004FF4B47190FBF1F201FB12000C4951F884
:105AA0002000014606904FF0814004F0D5FA08909E
:105AB0001198C06A00690088069004F025FC0790E0
:105AC000089904F071FA099004F030FC81B20DE0FD
:105AD00018AD00080000C04064A7000878A70008BF
