:020000040800F2
:10000000F00C0020F541000881020008830200087E
:10001000870200088B0200088F0200080000000021
:100020000000000000000000000000009302000833
:1000300095020008000000009702000899020008DD
:100040000F4200080F4200080F4200080F4200084C
:100050000F4200080F4200080F4200080F4200083C
:100060000F4200080F4200080F4200080F4200082C
:100070000F4200080F4200080F4200080F4200081C
:100080000F4200080F4200080F4200080F4200080C
:100090000F4200080F4200080F4200080F420008FC
:1000A0000F4200080F4200080F4200080F420008EC
:1000B000A1020008CD020008F70200080F42000864
:1000C0000F4200080F4200080F4200080F420008CC
:1000D0000F420008C71C0008191D0008751D000804
:1000E0000F4200080F4200080F4200080F420008AC
:1000F0000F4200080F4200080F4200080F4200089C
:100100000F4200080F4200080F4200080F4200088B
:10011000D11D0008691E00080F4200080F420008A8
:100120000F4200080F4200080F4200080F4200086B
:1001300000F002F800F040F80AA090E8000C8244B9
:100140008344AAF10107DA4501D100F035F8AFF296
:10015000090EBAE80F0013F0010F18BFFB1A43F0A5
:10016000010318477C4300009C430000103A24BF61
:1001700078C878C1FAD8520724BF30C830C144BF0C
:1001800004680C607047000000230024002500264E
:10019000103A28BF78C1FBD8520728BF30C148BFEA
:1001A0000B6070471FB5AFF300809DE8030004F0BB
:1001B000BBF81FBD10B510BD04F012F91146FFF7D2
:1001C000F1FF00F007F804F030F9FFF7F3FF04F057
:1001D0005DF9000010B503F08DFF4FF4806002F070
:1001E0004DFD002002F052FD4FF4A06001F046FFEB
:1001F0000121084602F002FE01F01AFA00F0D8F9D7
:1002000001F02AFA01F03CF900F002F901F00AFFCE
:1002100001F05CFE01F08DFE01F0BDFE4FF4964052
:1002200001F0F7FB4FF4964001F03FFC4FF496408D
:1002300001F082FC4FF4964001F0C1FC4FF4804184
:100240000C4802F0DBFB4FF400410A4802F0D4FBFB
:10025000642001F02DFA0121880703F02CFA012116
:10026000054803F028FA0121044803F024FA00BFEE
:10027000FEE70000000C01400004004000080040C0
:10028000704700BFFEE700BFFEE700BFFEE700BF0C
:10029000FEE770477047704710B501F011FA10BDC6
:1002A00010B50121880703F0A8FC70B1012188076F
:1002B00003F0B4FC00214FF0804003F0FCF900F0A3
:1002C00040FF0121880703F0F6F910BD10B50121A8
:1002D000144803F092FC68B10121124803F09EFC1F
:1002E0000021104803F0E7F900F0D4FB01210D488C
:1002F00003F0E1F910BD10B501210B4803F07DFCBE
:1003000078B10121084803F089FC0021064803F078
:10031000D2F90649064800F0FCFD0121024803F02D
:10032000CAF910BD000400400008004098020020F7
:100330002805002070B500240025324800781E28CA
:100340000EDA32220121304801F054F92D490A78A1
:100350000978491C2B4B19702C4921F8120002E036
:10036000002028490870002505E0284830F81500CD
:100370000444681CC5B21E2DF7DB1E20B4FBF0F44C
:10038000C4EB0424A40AFF2C01D9FF2401E004B922
:100390000124E0B270BD70B500241A48401C0078FA
:1003A0001E2811DA32220221174801F023F91549DB
:1003B000491C0A780978491C124B5B1C19701349B7
:1003C0003C3121F8120003E000200E49491C08705E
:1003D000002506E00D483C3030F815000444681C48
:1003E000C5B21E2DF6DB1E20B4FBF0F4C4EB0424D2
:1003F000A40AFF2C01D9FF2401E004B90124E0B2D2
:1004000070BD000000000020D0020020400000204D
:100410002DE9F0410024002500260027A046642095
:1004200001F046F900BF5DE032220221534801F09D
:10043000E1F85349088032220321504801F0DAF8EC
:1004400050490880322205214C4801F0D3F84E492A
:10045000088032220421494801F0CCF840F6FF71AF
:10046000081A4A49088046480088044445480088DC
:10047000054445480088064408460088074440482B
:100480000088B0F50B6F05DD3D480088B0F5F66FCC
:1004900000DA2AE03B480088B0F50B6F05DD3848EC
:1004A0000088B0F5F66F00DA1FE037480088B0F535
:1004B0000B6F05DD32480088B0F5F66F00DA14E006
:1004C00032480088B0F50B6F05DD2D480088B0F587
:1004D000F66F00DA09E00A2001F0EAF808F10100FD
:1004E00000F0FF08B8F1640F9EDB00BFB8F1640FA5
:1004F00016D16420B4FBF0F0214908806420B5FBDC
:10050000F0F0204908806420B6FBF0F01E49088016
:100510006420B7FBF0F01D4908800120BDE8F081A0
:100520004FF4036016490880164908801649088070
:10053000164908800020F1E710B5024613461A4616
:1005400001F50070834201DD1B1A06E0A1F5007081
:10055000984201DD1B1A00E00023DB011846DC177E
:1005600003EB5454E3127F2B01DD7F2304E013F1EE
:10057000800F01DA6FF07F0358B210BDD002002067
:1005800002000020040000200600002008000020D7
:10059000F8B504460D4616461F46ADF800408DF8E6
:1005A00003608DF802506946384602F07DF9F8BDC7
:1005B00010B500240121042002F020FC01210820B4
:1005C00002F01CFCFF4B482202210802FFF7E0FF6B
:1005D000FC4B48220221C801FFF7DAFFF94B482201
:1005E00002218020FFF7D4FFF64B48220221402051
:1005F000FFF7CEFFF34B482202212020FFF7C8FF70
:10060000F14B482202218020FFF7C2FFEE4B482227
:1006100002211020FFF7BCFFEB4B482202210820EB
:10062000FFF7B6FFE94B482202214802FFF7B0FF6F
:10063000E64B482202218802FFF7AAFFE34B48223B
:100640000221C802FFF7A4FFE04B48220221080361
:10065000FFF79EFFDD4B482202214803FFF798FF7A
:10066000DA4B482202218803FFF792FFD54B48223C
:1006700002214802FFF78CFFD24B48220221880258
:10068000FFF786FFD24B482202212020FFF780FF90
:10069000CC4B482202210120FFF77AFFC94B4822A8
:1006A00002210846FFF774FFC84B48220221802030
:1006B000FFF76EFFC54B48220221C801FFF768FF14
:1006C000C24B482202210120FFF762FFBF4B4822A4
:1006D00002210846FFF75CFFBC4B482202210420A0
:1006E000FFF756FFB94B482202210820FFF750FFC1
:1006F000B64B482202211020FFF74AFFB34B482295
:1007000002212020FFF744FFB04B48220221402065
:10071000FFF73EFFAE4B482202214020FFF738FF93
:10072000AB4B482202218020FFF732FFA64B482224
:1007300002210846FFF72CFFA34B48220221480361
:10074000FFF726FFA04B482202210803FFF720FFF6
:100750009D4B482202210120FFF71AFF9A4B4822A5
:1007600002218803FFF714FF9A4B48220221102030
:10077000FFF70EFF964B482202211020FFF708FFDB
:10078000944B482202218020FFF702FF914B482220
:1007900002212020FFF7FCFE8E4B48220221402040
:1007A000FFF7F6FE00BF13E0002004EB44018A4A85
:1007B00002EB8101087204EB440102EB81014872F3
:1007C0000A2004EB440102EB8101C872601CC4B230
:1007D000282CE9DB4FF400707F4908807948486095
:1007E0008015888177497C48016180207A49088397
:1007F00074497948C16140207749888471497648B5
:1008000081622020744908866E49734841638020C4
:10081000714988876C497048016410206E49A1F8BD
:10082000480069496C48C16408206B49A1F854002C
:1008300065496948816508156749A1F86000634901
:1008400065484166C8146449A1F86C005F49624874
:10085000016788146049A1F878005C495E48C16767
:1008600048145D49A1F8840058495B48C0F88810D5
:100870004FF480405849A1F8900054495648C0F8B8
:1008800094104FF400405449A1F89C004F4952483D
:10089000C0F8A01008155049A1F8A80049494E48D1
:1008A000C0F8AC10C8144C49A1F8B40045494A48F6
:1008B000C0F8B81020204849A1F8C0004449464873
:1008C000C0F8C41001204449A1F8CC003D49424879
:1008D000C0F8D01002204049A1F8D80039493E485C
:1008E000C0F8DC1080203C49A1F8E40037493A48C0
:1008F000C0F8E81088153849A1F8F00033493648A7
:10090000C0F8F41001203449A1F82C012F493248D5
:10091000C0F8301102203049A1F838012B492E4887
:10092000C0F83C1104202C49A1F8440127492A4869
:10093000C0F8481108202849A1F8FC00234926489E
:10094000C0F8001110202449A1F808011F492248CD
:10095000C0F80C1120202049A1F814011B491E48A1
:10096000C0F8181140201C49A1F8200117491A4865
:10097000C0F8241140201849A1F850011449164824
:10098000C0F8541180201449A1F85C0110491248A4
:10099000C0F8601102201049A1F868010A490E4808
:1009A000C0F86C114FF480400B49A1F8740106495E
:1009B0000948C0F8781148140749A1F88001024994
:1009C00005480BE0000C01400014014000180140F4
:1009D0000010014000080140B8000020C0F8841158
:1009E00001203449A1F88C0133493248C0F89011F4
:1009F0004FF400402F49A1F898012F492D48C0F825
:100A00009C1110202B49A1F8A4012C492948C0F8B9
:100A1000A81110202749A1F8B00129492548C0F89C
:100A2000B41180202349A1F8BC0124492148C0F811
:100A3000C01120201F49A1F8C80120491D48C0F855
:100A4000CC1140201B49A1F8D4011C491948C0F819
:100A5000D81110BD70B504462188606801F0B2FF5E
:100A60000546607AA84212D0207AE17A88420ADDEF
:100A70006572607A10B90120A07201E00220A072B4
:100A80000020207205E0207A401C207201E0002046
:100A9000207270BD10B5002400BF08E004EB4401D3
:100AA000044A02EB8100FFF7D5FF601CC4B2282C7A
:100AB000F4DB10BDB8000020001401400008014024
:100AC00000100140704710B532220221FF4800F0AB
:100AD00091FD0446FE4801882046FFF72DFDFD49A3
:100AE000087232220321F94800F084FD0446FA48D6
:100AF00001882046FFF720FDF64948723222052181
:100B0000F24800F077FD0446F44801882046FFF7DC
:100B100013FDF049887232220421EC4800F06AFD8E
:100B200040F6FF71081A84B2ED4801882046FFF7AD
:100B300003FDE849C872FFF7FDFBE6490873FFF7BC
:100B40002AFCE449487310BD0020E249C871E54819
:100B500090F80601012804D10846C07940F0010050
:100B6000C871E04890F81201012805D1D948C07930
:100B700040F00200D749C871DA4890F81E010128F8
:100B800005D1D448C07940F00400D249C871D54895
:100B900090F82A01012805D1CE48C07940F008001C
:100BA000CC49C871CF4890F85A01012805D1C948ED
:100BB000C07940F01000C749C871CA4890F8660172
:100BC000012805D1C348C07940F02000C149C8714F
:100BD00070470020BF498871C24890F8CA000128B8
:100BE00004D10846807940F001008871BD4890F832
:100BF000D600012805D1B748807940F00200B549F8
:100C00008871B84890F8E200012805D1B148807990
:100C100040F00400AF498871B24890F8EE00012816
:100C200005D1AC48807940F00800AA498871AD48E8
:100C300090F8FA00012805D1A648807940F010000C
:100C4000A4498871A74890F83601012805D1A14828
:100C5000807940F020009F498871A24890F84201B5
:100C6000012805D19B48807940F04000994988715E
:100C70009C4890F84E01012805D19648807940F0B3
:100C800080009449887170470020924948719548C6
:100C900090F8AE01012804D10846407940F00100E7
:100CA0004871904890F8BA01012805D189484079E7
:100CB00040F00200874948718A4890F8C60101282F
:100CC00005D18448407940F0040082494871854844
:100CD00090F8D201012805D17E48407940F0080003
:100CE0007C4948717F4890F8DE01012805D1794898
:100CF000407940F0100077494871704700207549ED
:100D00000871784890F87201012804D108460079EA
:100D100040F001000871734890F87E01012805D168
:100D20006C48007940F002006A4908716D4890F8FB
:100D30008A01012805D16748007940F0040065491F
:100D40000871684890F89601012805D1614800793A
:100D500040F008005F490871624890F8A20101283C
:100D600005D15C48007940F010005A49087170477D
:100D700000205849C8705B4890F86A00012804D1E7
:100D80000846C07840F00100C870564890F87600D8
:100D9000012805D14F48C07840F002004D49C87085
:100DA000504890F88200012805D14A48C07840F0A8
:100DB00004004849C8704B4890F88E00012805D1BE
:100DC0004448C07840F008004249C870454890F84F
:100DD0009A00012805D13F48C07840F010003D49F5
:100DE000C870404890F8A600012805D13948C0785D
:100DF00040F020003749C8703A4890F8B200012806
:100E000005D13448C07840F040003249C8703548B8
:100E100090F8BE00012805D12E48C07840F080002F
:100E20002C49C870704700202A4988702D48807A64
:100E3000012804D10846807840F0010088702948D4
:100E4000807D012805D12348807840F002002149A7
:100E50008870244890F82200012805D11D48807828
:100E600040F004001B4988701E4890F82E000128AD
:100E700005D11848807840F0080016498870194854
:100E800090F83A00012805D11248807840F010000F
:100E900010498870134890F84600012805D10D4884
:100EA000807840F020000B4988700E4890F852007E
:100EB000012805D10748807840F040000549887036
:100EC000084890F85E00012814D10DE0D0020020FF
:100ED00002000020980200200400002006000020EC
:100EE00008000020B8000020FE48807840F0800014
:100EF000FC498870704710B5FFF795FFFFF738FF82
:100F0000FFF7FCFEFFF7C0FEFFF763FEFFF71CFED6
:100F100010BD70B506460C460025A5202070302077
:100F20006070FFF7E8FFFFF7CEFD0020A07300BF61
:100F300005E0A07B615D0844A073681CC5B20E2D5E
:100F4000F7DB002508E000BF615DE74800F00DFC1D
:100F50000028F9D0681CC5B20F2DF4DB70BD30B588
:100F600000220023A5240C7010244C7066244C73BE
:100F7000012203E0855C541C0D55E2B20C2AF9DB1A
:100F8000002204E08C5C1C44E3B2541CE2B20E2A42
:100F9000F8DB8B7330BD2DE9F04704460D464FF06A
:100FA0000008C14646E0204600F00BFC0646CF484C
:100FB000007870B9A52E03D00020CC49087039E024
:100FC000CA4800782E54C9480078401CC7490870A8
:100FD00030E0C64800780C2808DAC44800782E545F
:100FE000C2480078401CC149087023E0BF4800781F
:100FF0000C281CD1BD4800782E54BC480078401CF9
:10100000BA4908704FF00008002705E0E85D404449
:1010100000F0FF08781CC7B20C2FF7DB287B404597
:1010200001D14FF001090020B049087002E0002012
:10103000AE490870204600F0B8FB0028B3D14846FE
:10104000BDE8F08710B500220023A5240C70012212
:1010500004E0541C045D8C54541CE2B20C2AF8DBEE
:10106000002204E08C5C1C44E3B2541CE2B20C2A63
:10107000F8DB0B7310BD2DE9F04704460D464FF029
:101080000008C14655E0204600F09BFB0646974805
:10109000401E007890B9A52E04D000209349491E27
:1010A000087046E09148401E00782E548F48401E3C
:1010B0000078401C8D49491E08703AE08B48401E5C
:1010C00000780E280BDA8948401E00782E54874895
:1010D000401E0078401C8549491E087029E083485D
:1010E000401E00780E2820D18048401E00782E54E3
:1010F0007E48401E0078401C7C49491E08704FF015
:101100000008002705E0E85D404400F0FF08781C77
:10111000C7B20E2FF7DBA87B404501D14FF0010984
:1011200000207249491E087003E000206F49491EE3
:101130000870204600F039FB0028A4D14846BDE8DD
:10114000F08710B500246A496748FFF794FF01282B
:1011500033D16748407B00F08000802804D1002014
:101160006249891E087003E001206049891E0870E9
:1011700060495F48FFF766FF5C48801E007870B9E1
:10118000002409E000BF5B48015D5B4800F0EDFA18
:101190000028F8D0601CC4B20D2CF3DB0DE0002455
:1011A00009E000BF5348015D544800F0DEFA002812
:1011B000F8D0601CC4B20D2CF3DB4C48801E0078C4
:1011C000C0B94F494C48FFF7E6FE01282AD14549EE
:1011D0004B48FFF7C4FE002409E000BF4148015D11
:1011E000414800F0C2FA0028F8D0601CC4B20F2CAD
:1011F000F3DB17E042494148FFF7CDFE012811D14A
:1012000038493F48FFF7ABFE002409E000BF3548EE
:10121000015D354800F0A9FA0028F8D0601CC4B27E
:101220000F2CF3DB10BD70472DE9F04104460D464D
:101230000026B04600272D48401C007840B90D20FC
:1012400000F0E2F82949891C08600120491E087055
:1012500073E0204600F0B5FA2449891C096808703B
:101260002248801C006880682049891C0860084664
:1012700000680078A52860D108460068806808608A
:1012800006F10D00C6B208460068007880280ED02E
:10129000084600680078812809D008460068007870
:1012A000822804D008460068007883283FD10027B0
:1012B0000EE00E48801C006800783044C6B20B482F
:1012C000801C006880680949891C0860781CC7B2C6
:1012D0000B2FEEDB0548801C00680078B04220D15F
:1012E00000271AE098020020280500200E000020A8
:1012F000A7020020B6020020B805002070050020DB
:10130000C302002011480068806810490860084640
:1013100000680078E855781CC7B20D2FF2DB4FF05B
:1013200001080A48006880680849086004E0074826
:1013300000684068054908600026204600F035FA3C
:10134000002886D14046BDE8F08100001000002052
:1013500070B504460E4656B10C2002F06BFF0546F0
:101360002C70B168A960B1684D606E60B56070BDE9
:1013700070B504460E4656B10C2002F05BFF0546E0
:101380002C70AE607168696071688D60756070BD49
:1013900070B504460E46B068A04209D0B568A8688A
:1013A000B060A8684660284602F075FF012070BD55
:1013B0000020FCE770B504460E46B068A04209D094
:1013C00075686868706068688660284602F063FF28
:1013D000012070BD0020FCE770B504460E4625468E
:1013E0000EB9002070BD00E0AD68A868B04202D020
:1013F000A868A042F8D1B068A860B06845603046DF
:1014000002F049FF0120EDE72DE9F04104464FF0DD
:101410000008012C02DA0020BDE8F0810C2002F067
:1014200009FF064635463746002035463070B6601F
:10143000766080460EE00C2002F0FCFE064600209E
:101440003070B56077606E60BE60374608F10100AD
:101450001FFA80F8601E4045EDDC2846DCE770B5D9
:101460000446A66804E0B568304602F014FF2E4634
:10147000A642F8D1204602F00EFF002470BD000005
:1014800000B591B04FF4804001F01CFC0121032015
:1014900001F0A7FC012140F2146001F0AFFC5F4BAA
:1014A00000220321012000F0ADFD5C4B002203214E
:1014B000022000F0A7FD594B00220321042000F078
:1014C000A1FD564B00220321082000F09BFD544B48
:1014D00000220321022000F095FD514B0022032140
:1014E000042000F08FFD4F4801F050F84E48019065
:1014F0004E480290002003904FF496700490002014
:1015000005908020069040000790800008902020E1
:10151000099000020A9000200B9001A9414801F0B7
:10152000DDF800200C9001208DF834008DF8350096
:101530004FF460200E9000200F9006208DF84000A0
:101540000CA939484C3800F030FE07230122002155
:1015500035484C3800F0BFFE0723022201213248F3
:101560004C3800F0B8FE072303220B212E484C38DC
:1015700000F0B1FE072304220C212B484C3800F068
:10158000AAFE07230522032127484C3800F0A3FEBA
:1015900007230622022124484C3800F09CFE01213A
:1015A00021484C3800F037FE01211F484C3800F02C
:1015B00027FE1D484C3800F045FE00BF1A484C3845
:1015C00000F045FE0028F9D117484C3800F049FEDC
:1015D00000BF15484C3800F049FE0028F9D1012120
:1015E000104801F0A6F801210F484C3800F048FEE1
:1015F00011B000BD30B503460025002408E004EB1F
:10160000440003EB800030F811000544601CC4B2B4
:101610009442F4DBB5FBF2F5A8B230BD00080140FE
:1016200000100140080002404C240140D00200207C
:1016300010B50121082001F0E1FB064B1022022128
:10164000480300F0DFFC034B10220221880300F066
:10165000D9FC10BD000C01402B4909684FF47A7287
:10166000B1FBF2F0B0F1807F01D301211CE020F04A
:101670007F41491E4FF0E022516100BF5117002900
:1016800005DA0F210901214A0B23D15404E00F216F
:1016900009011F4A5317D15400BF00214FF0E02227
:1016A000916107211161002109B100BFFEE7704778
:1016B0001849086000BF174909680029FBD1704725
:1016C0001448006820B113480068401E11490860A2
:1016D0007047002105E00A2100BF0A00A1F10101C5
:1016E000FBD10200A0F10100F5D17047002106E016
:1016F00042F6E06100BF0A00A1F10101FBD1020046
:10170000A0F10100F4D170472C00002018ED00E09A
:1017100000E400E0140000200160002380F8453060
:1017200080F8443080F8473080F8463070470146F2
:1017300091F84600401C00F01F0291F847309A4291
:1017400001D0012000E00020C0B27047014691F8AE
:101750004600401E00F01F0291F847309A4201D027
:10176000012000E00020C0B270472DE9F04304469C
:101770000D4604F104092046FFF7D9FF8046B8F171
:10178000000F0FD099F8427009F12000C555781C60
:1017900000F01F0089F842002068868946F0800624
:1017A000206886814046BDE8F083014691F84420D8
:1017B00091F845309A4201D0012000E00020C0B2EB
:1017C000704701460A1D92F84130D05C92F84130D2
:1017D0005B1C03F01F0382F841307047F0B50146EF
:1017E0000A1D92F84060761C06F01F0492F84150E2
:1017F0000E68B688F3B2AC4201D1002006E00120A9
:1018000091F844700E1DF35581F84440F0BD30B599
:10181000011D90F8472091F84230934206D10468A8
:10182000A38923F080030468A3810EE090F8475059
:1018300001F12004635D0468A38091F84340641CB7
:1018400004F01F0481F8434000BF30BD70B5011D96
:1018500090F8473091F842509D4206D10568AC8916
:1018600024F080040568AC810DE090F8476001F138
:101870002005AA5D0568AA8091F843506D1C05F00B
:101880001F0581F8435070BD2DE9F0410446251D28
:1018900094F8476095F84200B04206D120688789E5
:1018A00027F080072068878114E04FF48071414859
:1018B00001F0A2F894F8471005F1200010F801801B
:1018C0002068A0F8048095F84300401C00F01F0039
:1018D00085F84300BDE8F0812DE9F0410446251D5F
:1018E00094F8476095F84200B04206D12068878995
:1018F00027F080072068878114E04FF480612E482C
:1019000001F07AF894F8471005F1200010F80180F2
:101910002068A0F8048095F84300401C00F01F00E8
:1019200085F84300BDE8F0812DE9F0410446251D0E
:1019300094F8476095F84200B04206D12068878944
:1019400027F080072068878114E04FF480511B48FE
:1019500001F052F894F8471005F1200010F80180CA
:101960002068A0F8048095F84300401C00F01F0098
:1019700085F84300BDE8F08170B5011D90F847304F
:1019800091F842509D4206D10568AC8924F080044C
:101990000568AC810DE090F8476001F12005AA5D73
:1019A0000568AA8091F843506D1C05F01F0581F869
:1019B000435070BD00080140001401400010014078
:1019C000F8B504460D4616468DF800408DF80150D6
:1019D0008DF8026001208DF80300684600F053FB8B
:1019E000F8BD7FB504460D461646684602F0C6F9B6
:1019F00000950020ADF80400ADF80600ADF8080031
:101A0000ADF80C00ADF80A606946204602F04DF9C9
:101A10007FBD1FB50446FF49FF48FFF77DFE00214B
:101A2000FC4802F0CDF90121052001F0E7F9012180
:101A3000880301F0E3F90021042001F000F8F74BDE
:101A400004220321100200F0DDFAF44B18220321D6
:101A5000581500F0D7FA684602F090F9009400207B
:101A6000ADF80400ADF80600ADF80800ADF80C00C4
:101A70000C20ADF80A006946E64802F016F900228B
:101A800011462520FFF79CFF012240F22551E14835
:101A900002F0A2F9012240F22661DE4802F09CF930
:101AA0000121DC4802F08CF91FBD10B50446DC4969
:101AB000DC48FFF731FE0021D94802F081F901210D
:101AC000212001F09BF90121042001F097F9012167
:101AD000480401F0A0F90121082000F0B0FFD24B2A
:101AE00004220321402000F08DFACF4B182203215D
:101AF000202000F087FAC94B10220321100100F0CA
:101B000081FA0C222146C648FFF76BFF00221146DE
:101B10002620FFF755FF012240F22551C04802F070
:101B20005BF9012240F22661BD4802F055F901211E
:101B3000BB4802F045F910BD10B50446BB49BC488E
:101B4000FFF7EAFD0021B94802F03AF9012121200E
:101B500001F054F90121880401F05DF90121B54833
:101B600000F06DFFB04B04220321D00100F04AFACF
:101B7000AD4B18220321981500F044FAAA4B10220D
:101B80000321900100F03EFA0C222146A748FFF7FE
:101B900028FF002211462720FFF712FF012240F202
:101BA0002551A24802F018F9012240F226619F480F
:101BB00002F012F901219D4802F002F910BD10B5A2
:101BC00004469D499D48FFF7A7FD00219A4802F071
:101BD000F7F80121112001F011F90121C80401F0E9
:101BE0001AF90121082000F02AFF954B0422032155
:101BF000500200F007FA924B18220321181500F04A
:101C000001FA8F4B10220321100200F0FBF90C2285
:101C100021468948FFF7E5FE002211463420FFF7F0
:101C2000CFFE012240F22551834802F0D5F801226F
:101C300040F22661804802F0CFF801217E4802F090
:101C4000BFF810BD10B504467E497F48FFF764FD1C
:101C500000217C4802F0B4F80121112001F0CEF8F7
:101C60000121202001F0CAF80121080501F0D3F874
:101C70000121082000F0E3FE6B4B042203211046F3
:101C800000F0C0F96E4B18220321981400F0BAF945
:101C90000C2221466B48FFF7A4FE00221146352096
:101CA000FFF78EFE012240F22551664802F094F8BB
:101CB000012240F22661634802F08EF8012161485A
:101CC00002F07EF810BD10B540F22551514802F0E7
:101CD0006AF938B140F225514E4802F08EF94E486B
:101CE000FFF77CFD40F227714A4802F05CF938B1F9
:101CF00040F22771474802F080F94748FFF7A6FDF8
:101D000040F22661434802F04EF920B140F22661CC
:101D1000404802F072F910BD10B540F2255140481C
:101D200002F041F938B140F225513D4802F065F921
:101D30003C48FFF753FD40F22771394802F033F970
:101D400038B140F22771364802F057F93548FFF7AD
:101D50009BFD40F22661324802F025F948B140F27D
:101D600026612F4802F049F94FF480712B4800F0AA
:101D700045FE10BD10B540F225512C4802F013F974
:101D800038B140F22551294802F037F92848FFF7C9
:101D900025FD40F22771254802F005F938B140F2DF
:101DA0002771224802F029F92148FFF795FD40F2FA
:101DB00026611E4802F0F7F848B140F226611B4840
:101DC00002F01BF94FF48061174800F017FE10BDB8
:101DD00010B540F22551184802F0E5F838B140F24C
:101DE0002551154802F009F91448FFF7F7FC40F2B5
:101DF0002771114802F0D7F838B140F227710E4828
:101E000002F0FBF80D48FFF78FFD40F226610A480B
:101E10001CE00000003801402805002000080140B7
:101E200000440040700500200014014000480040BC
:101E3000B805002030001400004C004000060020CF
:101E400000100140005000404806002002F0ABF8AE
:101E500048B140F22661194802F0CFF84FF48051A2
:101E6000174800F0CBFD10BD10B540F225511548C4
:101E700002F099F838B140F22551124802F0BDF84D
:101E80001148FFF7ABFC40F227710E4802F08BF8C7
:101E900038B140F227710B4802F0AFF80A48FFF75B
:101EA0006BFD40F22661074802F07DF820B140F258
:101EB0002661044802F0A1F810BD0000004C00406B
:101EC0000010014000500040480600201FB50121CD
:101ED000084600F0A0FF1C208DF80C0002208DF8B1
:101EE0000D008DF80E0001208DF80F0003A800F002
:101EF000CAF86420ADF8040040F2CF20ADF800002D
:101F00000020ADF80600ADF8020069464FF08040B1
:101F100001F0AAF80121880701F06CFE01221146A8
:101F2000900701F0EDFB00214FF0804001F0C3FB72
:101F30001FBD1FB50121022000F06DFF1D208DF88F
:101F40000C0002208DF80D008DF80E0001208DF898
:101F50000F0003A800F097F84FF47A70ADF8040072
:101F600040F2CF20ADF800000020ADF80600ADF83B
:101F700002006946214801F077F801211F4801F06D
:101F800039FE012211461D4801F0BAFB00211B4811
:101F900001F091FB1FBD1FB50121042000F03BFFA4
:101FA0001E208DF80C0002208DF80D008DF80E001B
:101FB00001208DF80F0003A800F065F84FF47A7047
:101FC000ADF8040041F61F40ADF800000020ADF868
:101FD0000600ADF802006946094801F045F8012104
:101FE000074801F007FE01221146054801F088FB71
:101FF0000021034801F05FFB1FBD0000000400400A
:1020000000080040F8B504460D4616461F46ADF8D8
:1020100000408DF803608DF802506946384600F0A4
:1020200043FCF8BD10B50121102000F0E7FE0121AE
:10203000202000F0E3FE0121402000F0DFFE0C4BE9
:1020400010220221C801FFF7DDFF094B10220221F7
:102050000802FFF7D7FF074B102202210802FFF703
:10206000D1FF054B102202210420FFF7CBFF10BD4A
:1020700000100140001801400014014032490143A2
:10208000324A1160704770B5002100230F22C478D6
:102090000CB32E4C246804F4E064C4F5E064210A17
:1020A000C1F10403CA40447804FA03F1847814406F
:1020B00021430901264C0678A155047804F01F0538
:1020C0000124AC4005786D114FF0E02606EB850544
:1020D000C5F8004109E0047804F01F040125A5407B
:1020E0001C4C0678761144F8265070BD1A4A0A40F6
:1020F0000243164B1B1F1A60704741B1134A121D51
:10210000126802434FF0E023C3F8102D07E00F4A96
:10211000121D126882434FF0E023C3F8102D704760
:10212000042808D14FF0E021096941F004014FF083
:10213000E022116107E04FF0E021096921F004017C
:102140004FF0E022116170470000FA050CED00E04D
:1021500000E400E080E100E080FFFF1F10B50446CE
:10216000F748844208D10121401500F061FE0021AA
:10217000601500F05DFE17E0F248844208D10121AD
:10218000001500F055FE0021201500F051FE0BE077
:10219000ED48844208D10121C80300F049FE002126
:1021A0004FF4004000F044FE10BD30B50022002383
:1021B0004268E64C22400D790C6844EA052422432B
:1021C00042608268E24C2240D1E902542C434D79AE
:1021D00044EA450422438260C26A22F470020C7C05
:1021E000641EE4B2234342EA0352C26230BD0021BE
:1021F0000160017141718160C1600121017470470A
:1022000021B1826842F00102826003E0826822F01C
:1022100001028260704721B1826842F4807282605C
:1022200003E0826822F480728260704710B5002358
:10223000CBB21AB144681C43446002E044689C433A
:10224000446010BD816841F008018160704701461B
:1022500000208A6812F0080F01D0012000E0002061
:102260007047816841F00401816070470146002099
:102270008A6812F0040F01D0012000E000207047AE
:1022800021B1826842F4A002826003E0826822F4F5
:10229000A00282607047014600208A6812F4800F15
:1022A00001D0012000E00020704710B5002200237B
:1022B000426822F460424B1E42EA4332426010BD43
:1022C00021B1426842F40062426003E0426822F4B5
:1022D000006242607047F0B500240025092911DD35
:1022E000C468A1F10A0606EB4607072606FA07F5B9
:1022F000AC43A1F10A0606EB460603FA06F52C43A9
:10230000C4600CE0046901EB4107072606FA07F5F3
:10231000AC4301EB410603FA06F52C430461072A9E
:102320000FDA446B561E06EB86071F2606FA07F5E2
:10233000AC43561E06EB860601FA06F52C434463B1
:1023400022E00D2A0FDA046BD61F06EB86071F2644
:1023500006FA07F5AC43D61F06EB860601FA06F52A
:102360002C43046310E0C46AA2F10D0606EB860755
:102370001F2606FA07F5AC43A2F10D0606EB86060A
:1023800001FA06F52C43C462F0BD21B1826842F423
:102390008012826003E0826822F4801282607047BB
:1023A0000146C86C80B2704765484C300068704781
:1023B00021B1426842F48062426003E0426822F444
:1023C00080624260704721B1426842F480524260AC
:1023D00003E0426822F48052426070470022826823
:1023E00022F4E0420A438260704721B1826842F4DD
:1023F0000042826003E0826822F4004282607047FB
:1024000021B1826842F40212826003E0826822F401
:10241000021282607047014600208A6812F4001F91
:1024200001D0012000E000207047F0B50024002515
:102430000026092911DDC468A1F10A0707EB470C42
:10244000072707FA0CF5AC43A1F10A0707EB47078A
:1024500003FA07F52C43C4600CE0046901EB410C5E
:10246000072707FA0CF5AC4301EB410703FA07F520
:102470002C430461846BC4F30156D71C06F1010C94
:10248000A7EB0C0707EB870C1F2707FA0CF5AC43EB
:10249000D71C06F1010CA7EB0C0707EB870701FA25
:1024A00007F52C438463F0BD10B500220023826B36
:1024B00022F440124B1E42EA0352826310BD10B553
:1024C0000023034618460B441A6010BD0246002341
:1024D00013461A4601F128000344186880B2704779
:1024E000002242681B4B1A400A4342607047416217
:1024F000826270470022426822F01F020A43426053
:10250000704740B10E490831096841F40001124A90
:10251000C2F8081407E00A490831096821F40001EB
:102520000D4AC2F8081470470246002013680B4297
:1025300001D0012000E000207047CA4302607047CC
:102540000024014000280140003C0140FFFEF0FF54
:10255000FDF7F1FFFFFD3FFF0020014070B502468F
:102560000020002300240B125568CEB205EA0604B1
:1025700015681D4202D00CB1012000E0002070BDA2
:1025800000220A12D34303607047000001684FF62F
:10259000FE72114001600021016041608160C160F4
:1025A0008F49884208D18E490839496841F00F01A6
:1025B0008B4A083A516090E089491431884208D129
:1025C00087490839496841F0F001854A083A516065
:1025D00083E083492831884208D181490839496814
:1025E00041F470617E4A083A516076E07C493C31A2
:1025F000884208D17A490839496841F47041784ADB
:10260000083A516069E076495031884208D17449EE
:102610000839496841F47021714A083A51605CE018
:102620006F496431884208D16D490839496841F4DD
:1026300070016B4A083A51604FE06949783188422D
:1026400008D167490839496841F07061644A083A1D
:10265000516042E06349884208D1011F096841F096
:102660000F015F4A083AC2F8041436E05D4914319C
:10267000884209D15B49091F096841F0F001584AB5
:10268000083AC2F8041428E056492831884209D192
:102690005449091F096841F47061514A083AC2F867
:1026A00004141AE04F493C31884209D14D49091FB1
:1026B000096841F470414A4A083AC2F804140CE02F
:1026C00048495031884208D14649091F096841F4F8
:1026D0007021434A083AC2F80414704710B500222A
:1026E000026847F6F0739A430C6A8B6823430C69BF
:1026F00023434C6923438C692343CC6923434C6AAD
:1027000023438C6A23431A430260CB6843600B68FF
:1027100083604B68C36010BD00210160416081602F
:10272000C160016141618161C16101624162816297
:10273000704721B1026842F00102026004E00268C1
:102740004FF6FE731A40026070471AB103680B43DC
:10275000036002E003688B43036070474160704789
:102760000146486880B2704702460020002112F0FE
:10277000805F03D01B4B083B196802E0184B083BF5
:102780001968114201D0012000E00020704710F0CC
:10279000805F03D01349091F086002E0104908391F
:1027A0004860704702460020002112F0805F03D08D
:1027B0000C4B083B196802E0094B083B19681142B1
:1027C00001D0012000E00020704710F0805F03D0AE
:1027D0000449091F086002E0014908394860704750
:1027E000080002400804024010B50446C74884426D
:1027F00008D10121042000F01BFB0021042000F07F
:1028000017FB46E0C248844208D10121082000F0AD
:102810000FFB0021082000F00BFB3AE0BD4884428A
:1028200008D10121102000F003FB0021102000F04E
:10283000FFFA2EE0B848844208D10121202000F0A0
:10284000F7FA0021202000F0F3FA22E0B348844296
:1028500008D10121402000F0EBFA0021402000F0D7
:10286000E7FA16E0AE48844208D10121802000F04A
:10287000DFFA0021802000F0DBFA0AE0A948844258
:1028800007D10121801500F0D3FA0021A01500F036
:10289000CFFA10BD10B50121084600F0C9FA002199
:1028A000012000F0C5FA10BDF0B50022002300247D
:1028B00000250026002791F803C00CF00F0291F8C4
:1028C00003C01CF0100F03D091F802C04CEA0202C2
:1028D000B1F800C01CF0FF0F31D0066800242BE0D7
:1028E0004FF0010C0CFA04F5B1F800C00CEA050336
:1028F000AB4220D1A5004FF00F0C0CFA05F7BE43F8
:1029000002FA05FC4CEA060691F803C0BCF1280F58
:1029100006D14FF0010C0CFA04FCC0F814C00AE018
:1029200091F803C0BCF1480F05D14FF0010C0CFA2F
:1029300004FCC0F810C0641C082CD1D30660B1F8A8
:1029400000C0BCF1FF0F34DD466800242EE004F126
:10295000080C4FF0010E0EFA0CF5B1F800C00CEAAD
:102960000503AB4221D1A5004FF00F0C0CFA05F77F
:10297000BE4302FA05FC4CEA060691F803C0BCF11E
:10298000280F05D104F1080C0EFA0CFEC0F814E073
:1029900091F803C0BCF1480F07D104F1080C4FF0C7
:1029A000010E0EFA0CFEC0F810E0641C082CCED309
:1029B0004660F0BD4FF6FF71018002218170042155
:1029C000C17070470246002093680B4201D001207D
:1029D00000E0002070470146886880B270470246D8
:1029E0000020D3680B4201D0012000E00020704796
:1029F0000146C86880B27047016170474161704705
:102A00000AB1016100E041617047C16070474FF455
:102A100080320A4382618161826182698269704782
:102A20000022414B1A684FF680731A4042EA0012A6
:102A30000A433D4B1A6070473C49C8617047F0B586
:102A4000002200230024002500F00046B6F1004FCC
:102A500002D1354EF46901E0334E7468C0F303458A
:102A600082B200F44016B6F5401F08D124F070641D
:102A70002D4E766826F070662B4F7E6012E000F4D3
:102A80008016B6F5801F06D1032606FA05F39C438F
:102A900044F0706406E0460D360102FA06F6B443CF
:102AA00044F0706421B1460D360102FA06F6344353
:102AB00000F00046B6F1004F02D11B4EF46101E078
:102AC000194E7460F0BD30B500228B071C0F0F2328
:102AD00003FA04F2144B08338C1053F82440944347
:102AE0008D1043F825408C1053F824308C07240FA8
:102AF00000FA04F423430C4C08348D1044F82530BC
:102B000030BD0A49DC310860704700000008014010
:102B1000000C014000100140001401400018014069
:102B2000001C014000200140000001400000204244
:102B3000DB48006840F00100D94908600846406859
:102B4000D8490840D649486008460068D649084038
:102B5000D34908600846006820F4802008600846D1
:102B6000406820F4FE0048604FF41F008860704702
:102B7000CB49096821F48031C94A116011460968BE
:102B800021F480211160B0F5803F03D0B0F5802F93
:102B90000ED106E0C249096841F48031C04A116093
:102BA00007E0BF49096841F4A021BD4A116000E077
:102BB00000BF00BF704710B501460022002300206F
:102BC0004A11012A02D1B64C236806E0022A02D13A
:102BD000B34C236A01E0B24C636A01F01F02012486
:102BE00094401C4201D0012000E0002010BD70B5CF
:102BF00000240025002600BF3120FFF7DCFF064639
:102C0000641CB4F5A06F01D0002EF5D03120FFF781
:102C1000D2FF08B1012500E00025284670BD002143
:102C20009F4A116821F0F80141EAC0011160704724
:102C30009E49086070470022994B5A6822F47C1222
:102C400040EA01031A43964B5A6070479749086659
:102C500070470021924A516821F0030101435160FD
:102C600070478F48406800F00C00704700218C4A84
:102C7000516821F0F0010143516070470021884AFA
:102C8000516821F4E0610143516070470021844A9A
:102C9000516821F4605141EAC0015160704729B187
:102CA0007F4A527A02437E4B5A7206E07C4A527A3D
:102CB000C343DBB21A407A4B5A7270477B49D83112
:102CC000086070470021764A516821F44041014371
:102CD000516070470021724A20321170704A82F8A8
:102CE0002010012802D004280AD104E001216C4AF6
:102CF0002032117005E00521694A2032117000E090
:102D000000BF00BF70476A49086070476449096A9C
:102D10000143634A1162704765494439086070474E
:102D200030B500210022002300245D4D6D6805F0C0
:102D30000C0121B1042905D0082923D105E05D4DFE
:102D4000056022E05B4D05601FE0554D6D6805F4A0
:102D50007012534D6D6805F48033022505EB9242E5
:102D60001BB9554D554305600BE04D4D6D6815F48D
:102D7000003F03D0504D5543056002E04D4D554393
:102D8000056002E04B4D056000BF00BF444D6D681B
:102D900005F0F0010909494D6C5C0568E5404560A6
:102DA0003F4D6D6805F4E061090A444D6C5C45686F
:102DB000E54085603A4D6D6805F46051C90A3F4DA4
:102DC0006C5C4568E540C560354D6D6805F4404173
:102DD000890B3A4D10356C5CC568B5FBF4F505619F
:102DE00030BD29B12E4A526902432D4B5A6104E08D
:102DF0002B4A526982432A4B5A61704729B1284AAB
:102E000092690243264B9A6104E0254A9269824303
:102E1000234B9A61704729B1214AD2690243204B62
:102E2000DA6104E01E4AD26982431D4BDA617047C1
:102E300029B11B4AD2680243194BDA6004E0184AF0
:102E4000D2688243164BDA60704729B1144A12697E
:102E50000243134B1A6104E0114A12698243104B7A
:102E60001A61704712494039086070470F49C864B9
:102E700070470B49C87170470948406A40F080703C
:102E800007494862704701460020054A92680A4295
:102E900001D0012000E0002070470149887270478E
:102EA000001002400000FFF8FFFFF6FE0000424263
:102EB0008004424200127A0000093D001800002000
:102EC00010B50446FF48844208D10121C014FFF721
:102ED000AFFF0021E014FFF7ABFFC4E0B4F1804F77
:102EE00008D101210846FFF7B0FF00210120FFF7BC
:102EF000ACFFB8E0F448844208D101210220FFF77A
:102F0000A4FF00210220FFF7A0FFACE0EF488442BD
:102F100008D101210420FFF798FF00210420FFF7CA
:102F200094FFA0E0EA48844208D101210820FFF77D
:102F30008CFF00210820FFF788FF94E0E5488442D9
:102F400008D101211020FFF780FF00211020FFF79A
:102F50007CFF88E0E048844208D101212020FFF76F
:102F600074FF00212020FFF770FF7CE0DB488442E3
:102F700008D101214014FFF75BFF00216014FFF727
:102F800057FF70E0D648844209D10121C804FFF7F9
:102F90004FFF00214FF40020FFF74AFF63E0D148C4
:102FA000844209D101210805FFF742FF00214FF4B7
:102FB0008010FFF73DFF56E0CB48844209D1012144
:102FC0004805FFF735FF00214FF40010FFF730FFF1
:102FD00049E0C648844208D101214020FFF735FF6F
:102FE00000214020FFF731FF3DE0C148844208D175
:102FF00001218020FFF729FF00218020FFF725FF16
:1030000031E0BC48844208D101218015FFF71DFF43
:103010000021A015FFF719FF25E0B748844209D128
:1030200001210804FFF704FF00214FF48030FFF76F
:10303000FFFE18E0B148844209D101214804FFF79E
:10304000F7FE00214FF40030FFF7F2FE0BE0AC4832
:10305000844208D101218804FFF7EAFE00214FF4E1
:103060008020FFF7E5FE10BD00220288954B9842B4
:103070000ED09A4B98420BD0B0F1804F08D0924BB3
:10308000984205D0914B984202D0914B984204D17E
:103090004FF68F731A404B881A438E4B984207D0D5
:1030A0008D4B984204D04FF6FF431A40CB881A4309
:1030B00002808B8883850B880385824B98420BD0D6
:1030C000864B984208D08C4B984205D08B4B984247
:1030D00002D08B4B984201D10B7A03860123838265
:1030E000704770B5002200230024058C4FF6FE7651
:1030F00035400584038C8488028B4FF68F752A40F7
:10310000B51E2A400D882A43751E2B400D892B437E
:103110004D882B436B4DA8420BD0704DA84208D070
:10312000754DA84205D0754DA84202D0744DA842F5
:1031300013D14FF6F7752B404D892B434FF6FB7596
:103140002B408D882B434FF6FF652C404FF6FF55E3
:103150002C408D892C43CD892C4384800283CD88DB
:103160008586038470BD70B5002200230024058C81
:103170004FF6EF7635400584038C8488028B48F641
:10318000FF752A404FF6FF452A400D882D0642EA7A
:1031900015424FF6DF752B400D892D0543EA154387
:1031A0004D882D0543EA1543464DA84202D04B4DAC
:1031B000A8421BD14FF67F752B404D892D0543EA60
:1031C00015434FF6BF752B408D882D0543EA1543F7
:1031D0004FF6FF352C404FF2FF752C408D89AD0422
:1031E00044EA1544CD89AD0444EA15448480028341
:1031F000CD880587038470BD70B5002200230024AC
:10320000058C4FF6FF6635400584038C8488828BDD
:103210004FF68F752A404FF6FC752A400D882A43D9
:103220004FF6FF552B400D892D0643EA15434D8877
:103230002D0643EA1543234DA84202D0274DA8424C
:103240001BD14FF2FF752B404D892D0643EA1543E4
:103250004FF6FF352B408D882D0643EA15434EF679
:10326000FF752C404DF6FF752C408D892D0544EAE5
:103270001544CD892D0544EA154484808283CD8888
:103280008587038470BD70B5002200230024058C5F
:103290004EF6FF7635400584038C8488828B48F691
:1032A000FF752A404FF6FF452A400D882D0642EA59
:1032B00015424DF6FF752B400D892D0743EA154346
:1032C0004D881FE0002C0140000400400008004031
:1032D000000C004000100040001400400034014089
:1032E000004C0140005001400054014000180040D3
:1032F000001C00400020004000400140004401400C
:10330000004801402D0743EA1543F84DA84202D07A
:10331000F74DA84206D14BF6FF752C408D89AD05BF
:1033200044EA154484808283CD88A0F84050038409
:1033300070BD828B4FF2FF331A408283828B0B0663
:1033400042EA134282837047F0B50024002500262C
:10335000078C4EF6FF7C07EA0C070784848B058CEC
:103360000F073E0C40F6FF473C40170644EA17445F
:103370001F0744EA1744DD4FB8420ED0DC4FB84275
:103380000BD0B0F1804F08D0DA4FB84205D0DA4FF9
:10339000B84202D0D94FB84206D14DF6FF773D4032
:1033A00046F480573D4305E047F6FF573D4041F462
:1033B00080573D4384830584F0BD828B4FF6F373C1
:1033C0001A408283828B0A4382837047F0B50024BF
:1033D00000250026078C4FF6FF6C07EA0C070784D0
:1033E000848B058C0F063E0C4FF60C773C401F0576
:1033F00042EA17473C43BD4FB8420ED0BC4FB842DB
:103400000BD0B0F1804F08D0BA4FB84205D0BA4FB8
:10341000B84202D0B94FB84206D14FF6FF573D40EF
:1034200046F480773D4305E04FF2FF573D4041F4BD
:1034300080773D4384830584F0BD028B4FF2FF33D8
:103440001A400283028B0B0642EA13420283704742
:10345000F0B5002400250026078C4FF6EF7C07EA24
:103460000C070784048B058C0F053E0C40F6FF47C4
:103470003C401F0744EA1744170644EA17449B4F91
:10348000B8420ED09A4FB8420BD0B0F1804F08D05E
:10349000984FB84205D0984FB84202D0974FB842E3
:1034A00006D14FF6DF773D4046F010073D4305E07B
:1034B0004FF65F773D4041F010073D43048305849C
:1034C000F0BD028B4FF6F3731A400283028B0A435E
:1034D00002837047F0B500240025068C4FF6FE7776
:1034E0003E400684048B058C4FF60C7634401E0556
:1034F00042EA164634437D4EB0420ED07C4EB04276
:103500000BD0B0F1804F08D07A4EB04205D07A4E41
:10351000B04202D0794EB04206D14FF6FD7635402A
:1035200041F00106354305E04FF6F576354041F0B0
:103530000106354304830584F0BD70B504460D468D
:103540006A4884420ED06A4884420BD0B4F1804F5E
:1035500008D06848844205D06748844202D0674852
:10356000844200D100E000BF288850B92B89AA8886
:1035700069882046FFF7AEFFE9882046FFF7A1FFE4
:1035800025E0288804280AD12B89AA886988204642
:10359000FFF75EFFE9882046FFF74FFF17E0288816
:1035A00008280AD12B89AA8869882046FFF70EFFD0
:1035B000E9882046FFF701FF09E02B89AA8869887E
:1035C0002046FFF7C1FEE9882046FFF7B2FE70BD36
:1035D0002DE9F04104460D4600260127688808B908
:1035E000022600E00026A888012801D1022700E079
:1035F00001272888A0B92B89AA8869882046FFF767
:1036000069FFE9882046FFF75CFF2B893A4631467F
:103610002046FFF71DFFE9882046FFF70EFF13E065
:103620002B89AA8869882046FFF712FFE98820467F
:10363000FFF703FF2B893A4631462046FFF74AFF42
:10364000E9882046FFF73DFFBDE8F0810A884B88F6
:103650001A438B881A43CB881A430B891A434B8928
:103660001A438B891A43A0F8442070474FF6FF7124
:10367000818000210180C18041800172704700215A
:10368000018041808180C180018141818181C1812E
:103690007047002101804180012181800021C1808B
:1036A000018170470021018041808180C1800181BA
:1036B00041818181704721B1028842F0010202807C
:1036C00004E002884FF6FE731A400280704731B161
:1036D000B0F8442042F40042A0F8442005E0B0F8DD
:1036E0004420C2F30E02A0F844207047002C014091
:1036F000003401400004004000080040000C00407D
:1037000010B51AB183890B43838104E08389CC43CC
:10371000A4B22340838110BD8182704741EA020335
:10372000A0F84830704710B51AB183890B438381E4
:1037300004E08389CC43A4B22340838110BD018976
:103740004FF6F872114001817047002202894FF64E
:103750008F731A400A430281704730B504460D4604
:1037600029462046FFF7F1FF208940F0070020811D
:1037700030BD2DE9F04104460D4616461F46602D2A
:1037800006D13B46012231462046FFF761FE05E0A7
:103790003B46012231462046FFF79CFE2946204643
:1037A000FFF7D3FF208940F007002081BDE8F081BA
:1037B00030B500240489E4B21D0642EA15450D43E4
:1037C0002C43048130BD2DE9F04104460D461646D8
:1037D000984600274346324629462046FFF7E8FF31
:1037E00027894FF6F870074047F007074FF68F70AC
:1037F000074047F070072781BDE8F081F0B5044627
:103800000D4616461F463B46324629462046FFF7E0
:10381000CFFF208940F480402081F0BD0185828265
:103820007047002202884FF68F731A400A430280C5
:103830007047F0B50024002500260489058B068C0E
:103840004FF6F8773C400C434FF6FC473D4040F2C2
:1038500001173D434FF6DD773E401F0542EA17470B
:103860003E43048105830684F0BD0022028B4FF69F
:103870008F731A400A43028370470022028B48F676
:10388000FF731A400B0642EA13420283704700227C
:10389000828B4FF68F731A400A438283704700224F
:1038A000828B48F6FF731A400B0642EA134282836A
:1038B000704721B1028842F08002028004E0028851
:1038C0004FF67F731A400280704721B1828842F020
:1038D0000402828004E082884FF6FB731A408280E3
:1038E000704721B1828842F00802828004E0828819
:1038F0004FF6F7731A408280704721B1828842F0F8
:103900000102828004E082884FF6FE731A408280B2
:1039100070470022028B4FF6F7731A400A43028366
:1039200070470022028B4FF2FF731A400B0642EAE7
:103930001342028370470022828B4FF6F7731A40BE
:103940000A43828370470022828B4FF2FF731A4032
:103950000B0642EA1342828370470022028B4FF625
:10396000FB731A400A43028370470022028B4FF612
:10397000FF331A400B0642EA1342028370470022CB
:10398000828B4FF6FB731A400A43828370470022F2
:10399000828B4FF6FF331A400B0642EA13428283B2
:1039A00070470022028B4FF67F731A400A4302834E
:1039B00070470022028BC2F30E020B0642EA13424A
:1039C000028370470022828B4FF67F731A400A43AE
:1039D000828370470022828BC2F30E020B0642EAFA
:1039E0001342828370470022028C4FF6FD731A4007
:1039F0000A43028470470022028C4FF6F7731A4084
:103A00000A43028470470022028C4FF6DF731A408B
:103A10000B0542EA1342028470470022028C4FF6E3
:103A20007F731A400B0542EA13420284704700225A
:103A3000028C4FF6FF531A400B0642EA13420284EF
:103A400070470022028C4FF2FF731A400B0642EAC5
:103A50001342028470470022028C4DF6FF731A4015
:103A60000B0742EA13420284704730B50023012459
:103A70008C40A3B2048CDD43ADB22C400484048C92
:103A800002FA01F5ADB22C43048430BD30B50023F9
:103A900004248C40A3B2048CDD43ADB22C400484DA
:103AA000048C02FA01F5ADB22C43048430BD70B52C
:103AB0000023002403461846183301258D40ACB27C
:103AC000058CE643B6B23540058409B1082909D111
:103AD00003EB61031D6825F070051D601D6815432B
:103AE0001D600CE00D1FADB203EB65031D6825F4EE
:103AF000E0451D601D68160645EA16451D6070BD4F
:103B000021B1028842F00202028004E002884FF6EE
:103B1000FD731A400280704721B1028842F004020E
:103B2000028004E002884FF6FB731A40028070475F
:103B300021B1828842F08002828004E082884FF6C0
:103B40007F731A408280704702884FF6F7731A40DD
:103B5000028002880A430280704782884FF68F7382
:103B60001A40828082880A438280704702894FF619
:103B7000F8731A40028102890A4302817047028960
:103B80004FF67F731A40028102890A43028170470F
:103B900081847047818570478186704701877047AF
:103BA00081877047A0F84010704702884FF6FF43A6
:103BB0001A40028002880A43028070470146888EBC
:103BC00070470146088F70470146888F704701464D
:103BD000B1F8400070470146888C70470146088D57
:103BE000704702460020138A0B4201D0012000E0FA
:103BF00000207047CA430282704730B50246002059
:103C000000230024158A05EA0103958905EA0104C9
:103C100013B10CB1012000E0002030BDCA43028284
:103C20007047000010B50446FB48844209D10121C9
:103C30008803FFF7FDF800214FF48040FFF7F8F804
:103C400032E0F648844209D101214804FFF7FDF82B
:103C500000214FF40030FFF7F8F825E0F0488442E7
:103C600009D101218804FFF7F0F800214FF48020EA
:103C7000FFF7EBF818E0EB48844209D10121C804B2
:103C8000FFF7E3F800214FF40020FFF7DEF80BE028
:103C9000E548844208D101210805FFF7D6F8002144
:103CA0004FF48010FFF7D1F810BD2DE9F04786B032
:103CB00004460D460026002700BFB146B246A8893B
:103CC00000B100BFA246268A4CF6FF700640E88885
:103CD00006432682A6894EF6F3100640A888298955
:103CE0000843698908430643A681A68A4FF6FF4028
:103CF0000640A8890643A68201A8FFF711F854469A
:103D0000C548824501D1049F00E0039FA08910F4BB
:103D1000004F08D007EBC70000EB071029684900E7
:103D2000B0FBF1F807E007EBC70000EB07102968CC
:103D30008900B0FBF1F86420B8FBF0F0060130090F
:103D4000642101FB1089A08910F4004F09D03221B1
:103D500001EBC9006421B0FBF1F000F0070006435D
:103D600008E0322101EB09106421B0FBF1F000F012
:103D70000F000643268106B0BDE8F0874FF41651C8
:103D8000016000218180C18001810C2141810021DD
:103D90008181704710B50022028A4FF2FF031A405A
:103DA0000B884C8823438C882343CC8823431A43B5
:103DB000028210BD0021018041808180C180704756
:103DC00021B1828942F40052828104E082894DF659
:103DD000FF731A4082817047F0B500240025002649
:103DE0000023A1F510676A3F00D100BF0346C1F36D
:103DF000421401F01F05012707FA05F6012C01D135
:103E00000C3304E0022C01D1103300E014331AB15A
:103E10001F6837431F6002E01F68B7431F60F0BD93
:103E200010B51AB1838A0B43838204E0838ACC43A2
:103E3000A4B22340838210BD028A4FF6F0731A4069
:103E40000282028A0A430282704782894FF2FF731C
:103E50001A40828182890A438281704721B1828916
:103E600042F00202828104E082894FF6FD731A401B
:103E700082817047028A4FF6DF731A400282028AFB
:103E80000A430282704721B1028A42F480420282D0
:103E900004E0028A4BF6FF731A4002827047C1F3B6
:103EA00008028280704701468888C0F30800704786
:103EB000818941F0010181817047028BD2B2028376
:103EC000028B42EA012202837047028B02F47F4296
:103ED0000283028B0A430283704721B1828A42F037
:103EE0002002828204E0828A4FF6DF731A408282C7
:103EF000704721B1828A42F01002828204E0828AF5
:103F00004FF6EF731A408282704721B1828A42F0E5
:103F10000802828204E0828A4FF6F7731A40828296
:103F2000704721B1828942F40042828103E0828994
:103F3000C2F30E028281704721B1828A42F400628C
:103F4000828204E0828A4FF2FF731A4082827047B5
:103F5000828A4FF6FB731A408282828A0A438282E7
:103F6000704721B1828A42F00202828204E0828A92
:103F70004FF6FD731A408282704702460020B1F569
:103F8000007F00D100BF13880B4201D0012000E068
:103F90000020704701F40072B2F5007F00D100BF2D
:103FA000CA430280704770B50246002300240025F2
:103FB0000020A1F510666A3E00D100BFC1F3421592
:103FC00001F01F04012606FA04F4012D02D196899E
:103FD000344006E0022D02D1168A344001E0968A70
:103FE00034400B12012606FA03F31688334014B14D
:103FF0000BB1012000E0002070BD10B500220023AD
:10400000A1F510646A3C00D100BF0A12012494405B
:10401000A3B2DC43048010BD0038014000440040DE
:1040200000480040004C00400050004000200021AB
:10403000674A126842F48032654B1A6000BF644AD6
:10404000126802F40031401C11B9B0F5A06FF6D12E
:104050005F4A126812F4003F01D0012100E0002104
:10406000012942D15B4A126842F01002594B1A6092
:104070001A46126822F003021A601A46126842F0C9
:1040800002021A60524A5268514B5A601A465268EC
:104090005A601A46526842F480625A601A46526860
:1040A00022F47C125A601A46526842F4E8125A60AE
:1040B0001A46126842F080721A6000BF444A1268C1
:1040C00012F0007FFAD0424A526822F00302404BBD
:1040D0005A601A46526842F002025A6000BF3C4AD7
:1040E000526802F00C02082AF9D1704710B5FFF7A8
:1040F0009DFF10BD10B53648006840F001003449FE
:10410000086008464068344908403149486008461C
:104110000068324908402E4908600846006820F4CB
:10412000802008600846406820F4FE0048604FF494
:104130001F008860FFF7DAFF4FF000602849086031
:1041400010BD10B5002000210022214B5B6803F058
:104150000C0020B1042806D0082828D107E0214B04
:10416000214C236027E01F4B1F4C236023E0184B9A
:104170005B6803F47011164B5B6803F48032022312
:1041800003EB914122B9194B4B43174C23600DE0CF
:104190000F4B5B6813F4003F04D0144B4B43124C9D
:1041A000236003E00F4B4B430F4C236003E00D4BA8
:1041B0000D4C236000BF00BF054B5B68C3F30313C6
:1041C0000B4CE05C084B1B68C340074C236010BDE0
:1041D00000100240002002400000FFF8FFFFF6FE42
:1041E00008ED00E000127A002C00002000093D00DC
:1041F000300000200948804709480047FEE7FEE7F5
:10420000FEE7FEE7FEE7FEE7FEE7FEE7FEE7FEE786
:1042100004480549054A064B70470000F540000870
:1042200031010008F0060020F00C0020F00800200A
:10423000F008002070B5064600F058F80568301DFB
:10424000082838BF0820C01D20F00704B44220D938
:1042500029466868B8B10268A24210D304F1080385
:104260009A423CBF42684A6007D3436802195360D0
:1042700003681B1B13604A600460001D70BD01468B
:1042800040680028E7D12146284600F039F8002888
:10429000DED1002070BD70B50546041F00F026F881
:1042A0000168002D08BF70BD486801E00146406804
:1042B000002818BFA042F9D30A685318A34218BFB8
:1042C0004C6003D123680C461A440A6021680A191D
:1042D00082421CBF606070BD426862600068084432
:1042E000206070BD704770477047000001487047FC
:1042F000704700009806002070477047704770476D
:1043000038B504460A4600206946AFF3008000280D
:1043100008BF38BD02460099204600F03FF8012052
:1043200038BD012000F054B8F8B5AFF30080054661
:1043300000200C46102000BF06462844A0420DD99C
:10434000324669460020AFF30080070008BF00F046
:104350003FF80098A04218BF0546C419FFF7C6FFF2
:10436000F11D074621F007014E190560284600F0AF
:104370000AF8B44208BFF8BDA21B31463868BDE850
:10438000F84000F00BB80021016041608060704788
:104390001020704700487047900600208C4600E0CF
:1043A00018464368002B18BF6345F9D303681844C7
:1043B000604507D0C81C20F0070000F1040CACEBEE
:1043C0000100121A0CF10400CCF80020FFF763BFC3
:1043D00010B500F035F8BDE8104000F02CB870477B
:1043E0007546FFF7D7FFAE4605006946534620F0F5
:1043F0000700854618B020B5FFF70AFFBDE820404A
:104400004FF000064FF000074FF000084FF0000B90
:1044100021F00701AC46ACE8C009ACE8C009ACE843
:10442000C009ACE8C0098D4670470446AFF3008070
:104430002046FBF7CAFE002801D000F027B87047DD
:10444000002110B5012800D102A108A000F028F831
:10445000012010BD3A2048656170206D656D6F7256
:104460007920636F727275707465640053494752A6
:10447000544D454D3A204F7574206F662068656134
:1044800070206D656D6F72790000000003494FF078
:104490001800ABBE7047000047FFFFFF2600020078
:1044A00070B504460D460A2000E0641C00F011F8C7
:1044B00034B120780028F8D102E06D1C00F009F832
:1044C00015B128780028F8D1BDE870400A20AFF374
:1044D000008008B5694600900320ABBE08BD00000F
:1044E0000045000800000020400000006C010008AA
:1044F0004045000840000020B00C00008801000882
:1045000000000000000000000000000001000000AA
:104510000000000000000000000000000102030491
:1045200001020304060708090204060800A24A045F
:104530000000000000000000010203040607080953
:0400000508000131BD
:00000001FF
