:100000000C94F4000C9413010C9413010C94130140
:100010000C9413010C9413010C9413010C94130110
:100020000C9413010C9413010C9413010C94130100
:100030000C9413010C9413010C9413010C941301F0
:100040000C9413010C9413010C9413010C941301E0
:100050000C9413010C9413010C9413010C941301D0
:100060000C9413010C9488090C94BA090C94130194
:100070000C94EC090C941E0A0C9413010C941301BB
:100080000C9413010C9413010C9413010C941301A0
:100090000C9413010C9413010C9413010C94130190
:1000A0000C9413010C9413010C9443030C9413014E
:1000B0000C9413010C9413010C9413010C94130170
:1000C0000C9413010C9413010C9413010C94130160
:1000D0000C9413010C9413010C9413010C94130150
:1000E0000C9413010C9413010C94980B0C94CA0BF0
:1000F0000C9413010C94FC0B0C942E0C0C94130117
:100100000C9413010C9413010C9413010C9413011F
:100110000C9413010C9413010C9413010C9413010F
:100120000C9413010C9413010C9458020C941301B9
:100130000C9413010C942B040C9413010C941301D4
:100140000C9413010C9413010C9413010C948E0461
:100150000C9413010C9413010C9413010C941301CF
:100160000C94B00A0C94E20A0C94140B0C94340B0B
:100170000C94660B0C9413010C9413010C94130152
:100180000C9413010C9413010C9413010C9413019F
:100190000C9413010C9413010C9413010C9413018F
:1001A0000C9413010C9413010C9413010C9413017F
:1001B0000C9413010C9413010C9413010C9413016F
:1001C0000C9413010C9413010C9413010C9413015F
:1001D0000C9413010C9413010C9413010C94240936
:1001E0000C9456090C94130111241FBECFEFDFE2CB
:1001F000DEBFCDBF10E2A0E0B0E2E4EAFCE500E043
:100200000BBF02C007900D92AE35B107D9F712E2CD
:10021000AEE5B0E201C01D92AF3CB107E1F70E942C
:10022000AC030C94502E0C940000DF93CF93CDB709
:10023000DEB780E092E00E94600CA0E0B2E0E0E077
:10024000F2E08181897E11968C93A0E0B2E0E0E03B
:10025000F2E08481876014968C93A0E0B2E0E0E045
:10026000F2E082818F7C806112968C93A0E2B2E0F2
:10027000E0E2F2E08081807E82608C93E0E2F2E056
:1002800089E08183A0E0B2E0E0E0F2E0808181607B
:100290008C9380E092E00E94E40D80E092E060E2C6
:1002A00072E040E00E941A0F80930820A0E0B2E0C4
:1002B000E0E0F2E080818E7F8C93A0E2B2E0E0E2A9
:1002C000F2E08081807E81608C93A8E2B2E0E8E277
:1002D000F2E08081807E81608C93A0E3B2E0E0E375
:1002E000F2E08081807E81608C93A8E3B2E0E8E355
:1002F000F2E08081807E81608C93A0E2B2E0E0E257
:10030000F2E08081807E81608C93E0E2F2E01182F5
:10031000E8E2F2E088E08183E0E3F2E080E18183DB
:10032000E8E3F2E088E18183A0E0B2E0E0E0F2E01F
:100330008381806C13968C93A8E3B2E0E8E3F2E04B
:100340008281807F826012968C931297CF91DF9189
:100350000895DF93CF93CDB7DEB780E492E00E949B
:10036000600CA0E4B2E0E0E4F2E08181897E1196C5
:100370008C93A0E4B2E0E0E4F2E08481876014961C
:100380008C93A0E4B2E0E0E4F2E082818F7C8061B3
:1003900012968C93A0E6B2E0E0E6F2E08081807EE7
:1003A00082608C93E0E6F2E089E08183A0E4B2E031
:1003B000E0E4F2E0808181608C9380E492E00E942E
:1003C000E40D80E492E060E672E040E00E941A0FE3
:1003D00080930920A0E4B2E0E0E4F2E080818E7F27
:1003E0008C93A0E6B2E0E0E6F2E08081807E81605E
:1003F0008C93A8E6B2E0E8E6F2E08081807E81603E
:100400008C93A0E7B2E0E0E7F2E08081807E81603B
:100410008C93A8E7B2E0E8E7F2E08081807E81601B
:100420008C93A0E6B2E0E0E6F2E08081807E81601D
:100430008C93E0E6F2E01182E8E6F2E088E0818366
:10044000E0E7F2E080E18183E8E7F2E088E18183A0
:10045000A0E4B2E0E0E4F2E08381806C13968C9338
:10046000A8E7B2E0E8E7F2E08281807F826012963E
:100470008C931297CF91DF910895DF93CF93CDB7EF
:10048000DEB7A0E0B2E0E0E0F2E0808181608C9332
:1004900080E092E00E94E40DA0E0B2E0E0E0F2E053
:1004A0008181886011968C931197CF91DF91089587
:1004B0001F920F920FB60F9200903B000F921124E3
:1004C0002F933F934F935F936F937F938F939F935C
:1004D000AF93BF93EF93FF93DF93CF93CDB7DEB787
:1004E000A0E0B2E0E0E0F2E08181877F11968C939A
:1004F000A0E0B2E0E0E0F2E080818E7F8C9380911A
:100500000A20882309F054C02091082080E292E05C
:10051000622F0E94AE0C80930B2090930C202091B0
:10052000082088E292E0622F0E94AE0C80930D209A
:1005300090930E202091082080E392E0622F0E9489
:10054000AE0C80930F20909310202091082088E318
:1005500092E0622F0E94AE0C8093112090931220A3
:10056000E0E2F2E080E28183E8E2F2E088E2818387
:10057000E0E3F2E080E38183E8E3F2E088E3818373
:1005800081E080930A20A0E0B2E0E0E0F2E0808128
:1005900081608C9380E092E00E94E40DA0E0B2E0E4
:1005A000E0E0F2E08181886011968C93119755C04C
:1005B00080910A20813009F050C02091082080E20B
:1005C00092E0622F0E94AE0C80931320909314202F
:1005D0002091082088E292E0622F0E94AE0C809366
:1005E0001520909316202091082080E392E0622F3E
:1005F0000E94AE0C80931720909318202091082021
:1006000088E392E0622F0E94AE0C809319209093B1
:100610001A20E0E2F2E01182E8E2F2E088E0818371
:10062000E0E3F2E080E18183E8E3F2E088E18183C6
:1006300010920A20A0E4B2E0E0E4F2E08081816060
:100640008C9380E492E00E94E40DA0E4B2E0E0E448
:10065000F2E08181886011968C93CF91DF91FF91B8
:10066000EF91BF91AF919F918F917F916F915F912A
:100670004F913F912F910F9000923B000F900FBE32
:100680000F901F9018951F920F920FB60F92009027
:100690003B000F9211242F933F934F935F936F93DF
:1006A0007F938F939F93AF93BF93EF93FF93DF93CA
:1006B000CF93CDB7DEB7A0E4B2E0E0E4F2E0818111
:1006C000877F11968C93A0E4B2E0E0E4F2E08081B1
:1006D0008E7F8C932091092080E692E0622F0E9409
:1006E000AE0C80931B2090931C202091092088E65B
:1006F00092E0622F0E94AE0C80931D2090931E20EA
:100700002091092080E792E0622F0E94AE0C809336
:100710001F20909320202091092088E792E0622FEB
:100720000E94AE0C8093212090932220CF91DF91E4
:10073000FF91EF91BF91AF919F918F917F916F91B9
:100740005F914F913F912F910F9000923B000F903E
:100750000FBE0F901F901895DF93CF93CDB7DEB7E4
:100760002E97CDBFDEBFE0914520F0914620099540
:1007700080E090E0A8E4B3E48B879C87AD87BE87D8
:100780006B857C858D859E8520E030E04AEF53E4C3
:100790000E946629DC01CB018F839887A987BA87DD
:1007A0006F81788589859A8520E030E040E85FE3B5
:1007B0000E946C2B88232CF481E090E08D839E8333
:1007C0003FC06F81788589859A8520E03FEF4FE7AC
:1007D00057E40E940C2B18164CF56B857C858D8593
:1007E0009E8520E030E040E251E40E946629DC0171
:1007F000CB01BC01CD010E949027DC01CB018D8390
:100800009E830FC082E390E08B839C838B819C81CD
:100810000197F1F78B839C838D819E8101978D8356
:100820009E838D819E81009769F7A2CF6F81788525
:1008300089859A850E949027DC01CB018D839E8358
:100840008D819E8189839A8389819A810197F1F7AD
:1008500089839A838DCF1F920F920FB60F920090CB
:100860003B000F9211242F933F934F935F936F930D
:100870007F938F939F93AF93BF93EF93FF93DF93F8
:10088000CF93CDB7DEB780E099E060E00E94B81367
:10089000E0915320F091542085E291E22EEB30E27A
:1008A000B90109958091AA2080935E208091AA20A9
:1008B000813059F4E0914F20F091502083EB91E288
:1008C00020E830E2B90109950EC08091AA2082305B
:1008D00051F4E0914F20F091502088E892E220E816
:1008E00030E2B901099580E099E065E00E94B81313
:1008F000CF91DF91FF91EF91BF91AF919F918F9138
:100900007F916F915F914F913F912F910F90009246
:100910003B000F900FBE0F901F9018951F920F92E3
:100920000FB60F9200903B000F9211242F933F932C
:100930004F935F936F937F938F939F93AF93BF93E7
:10094000EF93FF93DF93CF93CDB7DEB780E499E0C9
:1009500060E00E94D113E0914720F0914820099572
:1009600080E499E065E00E94D113CF91DF91FF917F
:10097000EF91BF91AF919F918F917F916F915F9117
:100980004F913F912F910F9000923B000F900FBE1F
:100990000F901F901895DF93CF93CDB7DEB780E40B
:1009A00060E040E00E94CF0FA0E5B0E0E0E5F0E0BD
:1009B000808188608C93E0E5F0E08181882F90E071
:1009C000887090700097B9F380EC68E00E94F20F95
:1009D000A0E5B0E0E0E5F0E0808180618C9380E00C
:1009E00061E00E942310E0E5F0E08181882F90E033
:1009F000807190700097B9F384E00E943A1088E00B
:100A00000E940710CF91DF910895DF93CF93CDB768
:100A1000DEB7F8940E94CB0460E07BE480E090E0D5
:100A20000E94000660EC72E180E090E00E94700697
:100A300060E07BE480E090E00E94E00660E07BE420
:100A400080E090E00E945C0760E07BE480E090E062
:100A50000E94CC0760E07BE480E090E00E943C08CC
:100A600060E07BE480E090E00E94B4080E94790599
:100A70000E948B050E94CB12A0EAB0E0E0EAF0E011
:100A80008281816012968C93A0EAB0E0E0EAF0E007
:100A90008281826012968C93A0EAB0E0E0EAF0E0F6
:100AA0008281846012968C931297E0E8F6E080E1F0
:100AB0008183E0E8F6E080E18683E0E8F6E080E22A
:100AC0008183E0E8F6E080E28683E0E4F6E082E01D
:100AD0008183E0E4F6E082E08683E0E8F6E082E00D
:100AE0008183E0E8F6E082E086837894CF91DF911D
:100AF0000895DF93CF93CDB7DEB7E0E0F9E083EF61
:100B000091E086A397A380E099E061E00E94BC1485
:100B1000CF91DF910895DF93CF93CDB7DEB7E0E4B7
:100B2000F9E08FEC97E086A397A380E499E061E079
:100B30000E94D514CF91DF910895DF93CF93CDB765
:100B4000DEB72897CDBFDEBF69837A838B839C8312
:100B500089819A81AB81BC818D839E83AF83B88765
:100B60008D819E81AF81B885803825E2920720E093
:100B7000A20720E0B20729F18D819E81AF81B8855F
:100B800080302BE4920720E0A20720E0B20731F189
:100B90008D819E81AF81B885803C22E1920720E063
:100BA000A20720E0B20731F58DEF9CE080935F2033
:100BB000909360208DEF9FEF80936120909362204F
:100BC00019C085EF9CE080935F20909360208CEFAC
:100BD0009FEF80936120909362200CC085EE9CE093
:100BE00080935F20909360208BEF9FEF8093612034
:100BF000909362202896CDBFDEBFCF91DF910895FC
:100C0000DF93CF9300D000D0CDB7DEB769837A836E
:100C10008B839C83E0E4F6E088E08183E0E4F6E007
:100C200084E0828383EB91E260EA78E042E00E9414
:100C3000E415E091B321F091B42183E08583A09184
:100C4000B321B091B421E091B321F091B42183811B
:100C50008F7C806213968C9389819A81AB81BC8151
:100C6000BC01CD010E949D05E0EAF8E080915F2083
:100C7000909160208683E0EAF8E080916120909175
:100C8000622082959295907F9827807F9827282FC1
:100C900080915F2090916020892F990F990B822B72
:100CA0008783A091B321B091B421E091B321F09159
:100CB000B4218481806114968C93A091B321B0916A
:100CC000B421E091B321F091B4218481886014961D
:100CD0008C9314972496CDBFDEBFCF91DF910895FA
:100CE000DF93CF9300D000D0CDB7DEB769837A838E
:100CF0008B839C83E0E4F6E080E88183E0E4F6E027
:100D000080E4828385E291E260EB78E042E00E9439
:100D1000E415E0912521F091262183E08583A091BF
:100D20002521B0912621E0912521F0912621838172
:100D30008F7C806213968C9389819A81AB81BC8170
:100D4000BC01CD010E949D05E0EBF8E080915F20A1
:100D5000909160208683E0EBF8E080916120909193
:100D6000622082959295907F9827807F9827282FE0
:100D700080915F2090916020892F990F990B822B91
:100D80008783A0912521B0912621E0912521F09122
:100D900026218481806114968C93A0912521B091A5
:100DA0002621E0912521F0912621848188601496E6
:100DB0008C9314972496CDBFDEBFCF91DF91089519
:100DC000DF93CF9300D000D0CDB7DEB769837A83AD
:100DD0008B839C83E0E6F6E088E08183E0E6F6E042
:100DE00084E0828388E892E260EA79E042E00E944F
:100DF000E415E0918822F091892283E08583A09117
:100E00008822B0918922E0918822F0918922838101
:100E10008F7C806213968C93A0918822B091892256
:100E2000E0918822F091892283818C6013968C93C3
:100E300089819A81AB81BC81BC01CD010E949D0555
:100E4000E0EAF9E080915F20909160208683E0EAFB
:100E5000F9E0809161209091622082959295907F37
:100E60009827807F9827282F80915F20909160207D
:100E7000892F990F990B822B8783A0918822B0919B
:100E80008922E0918822F0918922848180611496E0
:100E90008C93A0918822B0918922E0918822F091D0
:100EA00089228481886014968C9314972496CDBFF0
:100EB000DEBFCF91DF910895DF93CF9300D000D0B4
:100EC000CDB7DEB769837A838B839C83E0E6F6E057
:100ED00080E88183E0E6F6E080E482838CE691E2BC
:100EE00060EB79E042E00E94E415E0916C21F09122
:100EF0006D2183E08583A0916C21B0916D21E091FB
:100F00006C21F0916D2183818F7C806213968C938C
:100F100089819A81AB81BC81BC01CD010E949D0574
:100F2000E0EBF9E080915F20909160208683E0EB18
:100F3000F9E0809161209091622082959295907F56
:100F40009827807F9827282F80915F20909160209C
:100F5000892F990F990B822B8783A0916C21B091D7
:100F60006D21E0916C21F0916D2184818061149656
:100F70008C93A0916C21B0916D21E0916C21F09146
:100F80006D218481886014968C9314972496CDBF2C
:100F9000DEBFCF91DF910895DF93CF9300D000D0D3
:100FA000CDB7DEB769837A838B839C83E0E8F6E074
:100FB00088E08183E0E8F6E084E082838EED90E2D1
:100FC00060EA7AE042E00E94E415E091DE20F091D0
:100FD000DF2083E08583A091DE20B091DF20E091C7
:100FE000DE20F091DF2083818F7C806213968C93CA
:100FF00089819A81AB81BC81BC01CD010E949D0594
:10100000E0EAFAE080915F20909160208683E0EA38
:10101000FAE0809161209091622082959295907F74
:101020009827807F9827282F80915F2090916020BB
:10103000892F990F990B822B8783A091DE20B09185
:10104000DF20E091DE20F091DF2084818061149622
:101050008C93A091DE20B091DF20E091DE20F09112
:10106000DF208481886014968C9314972496CDBFDA
:10107000DEBFCF91DF910895DF93CF9300D000D0F2
:10108000CDB7DEB769837A838B839C83E0E8F6E093
:1010900082E08183E0E8F6E082E08583E0E8F6E044
:1010A00080E88183E0E8F6E080E482838AEF91E2E1
:1010B00060EB7AE042E00E94E415E091FA21F091C1
:1010C000FB2183E08583A091FA21B091FB21E0917F
:1010D000FA21F091FB2183818F7C806213968C939F
:1010E00089819A81AB81BC81BC01CD010E949D05A3
:1010F000E0EBFAE080915F20909160208683E0EB46
:10110000FAE0809161209091622082959295907F83
:101110009827807F9827282F80915F2090916020CA
:10112000892F990F990B822B8783A091FA21B09177
:10113000FB21E091FA21F091FB21848180611496DA
:101140008C93A091FA21B091FB21E091FA21F091CA
:10115000FB218481886014968C9314972496CDBFCC
:10116000DEBFCF91DF910895DF93CF9300D000D001
:10117000CDB7DEB769837A838B839C83E0EAF6E0A0
:1011800088E08183E0EAF6E084E0828381E492E211
:1011900060EA7BE042E00E94E415E0914122F09198
:1011A000422283E08583A0914122B0914222E091C6
:1011B0004122F091422283818F7C806213968C932E
:1011C00089819A81AB81BC81BC01CD010E949D05C2
:1011D000E0EAFBE080915F20909160208683E0EA66
:1011E000FBE0809161209091622082959295907FA2
:1011F0009827807F9827282F80915F2090916020EA
:10120000892F990F990B822B8783A0914122B0914E
:101210004222E0914122F091422284818061149621
:101220008C93A0914122B0914222E0914122F09111
:1012300042228481886014968C9314972496CDBFA3
:10124000DEBFCF91DF9108951F920F920FB60F92DC
:1012500000903B000F9211242F933F934F935F9385
:101260006F937F938F939F93AF93BF93EF93FF936E
:10127000DF93CF93CDB7DEB781E492E20E942117CE
:10128000CF91DF91FF91EF91BF91AF919F918F919E
:101290007F916F915F914F913F912F910F900092AD
:1012A0003B000F900FBE0F901F9018951F920F924A
:1012B0000FB60F9200903B000F9211242F933F9393
:1012C0004F935F936F937F938F939F93AF93BF934E
:1012D000EF93FF93DF93CF93CDB7DEB781E492E234
:1012E0000E946C17CF91DF91FF91EF91BF91AF9169
:1012F0009F918F917F916F915F914F913F912F912E
:101300000F9000923B000F900FBE0F901F9018950A
:101310001F920F920FB60F9200903B000F92112474
:101320002F933F934F935F936F937F938F939F93ED
:10133000AF93BF93EF93FF93DF93CF93CDB7DEB718
:1013400083EB91E20E942117CF91DF91FF91EF9102
:10135000BF91AF919F918F917F916F915F914F91CD
:101360003F912F910F9000923B000F900FBE0F9076
:101370001F9018951F920F920FB60F9200903B008E
:101380000F9211242F933F934F935F936F937F930B
:101390008F939F93AF93BF93EF93FF93DF93CF937D
:1013A000CDB7DEB783EB91E20E946C17CF91DF914E
:1013B000FF91EF91BF91AF919F918F917F916F912D
:1013C0005F914F913F912F910F9000923B000F90B2
:1013D0000FBE0F901F9018951F920F920FB60F928D
:1013E00000903B000F9211242F933F934F935F93F4
:1013F0006F937F938F939F93AF93BF93EF93FF93DD
:10140000DF93CF93CDB7DEB785E291E20E9421173B
:10141000CF91DF91FF91EF91BF91AF919F918F910C
:101420007F916F915F914F913F912F910F9000921B
:101430003B000F900FBE0F901F9018951F920F92B8
:101440000FB60F9200903B000F9211242F933F9301
:101450004F935F936F937F938F939F93AF93BF93BC
:10146000EF93FF93DF93CF93CDB7DEB785E291E2A1
:101470000E946C17CF91DF91FF91EF91BF91AF91D7
:101480009F918F917F916F915F914F913F912F919C
:101490000F9000923B000F900FBE0F901F90189579
:1014A000DF93CF93CDB7DEB72797CDBFDEBF8E8357
:1014B0009F838E819F8103968C839D838E819F81E4
:1014C000FC01EA5BFF4F80818B838C819D81FC0155
:1014D000EE5BFF4F90818B81981791F4EE81FF8135
:1014E0000190F081E02D83818A838A818C7F8A83B9
:1014F000EE81FF810190F081E02D8A8183832AC0F3
:10150000E0E6F6E082E085838E819F81FC01EA5B64
:10151000FF4F8081282F30E08C819D81820F931FA7
:10152000FC01B09680818983EE81FF810190F0817A
:10153000E02D898180838C819D81FC01ED5BFF4FD3
:1015400080818F5F282F2F718C819D81FC01ED5B45
:10155000FF4F20832796CDBFDEBFCF91DF91089547
:101560001F920F920FB60F9200903B000F92112422
:101570002F933F934F935F936F937F938F939F939B
:10158000AF93BF93EF93FF93DF93CF93CDB7DEB7C6
:1015900088E892E20E942117CF91DF91FF91EF91AD
:1015A000BF91AF919F918F917F916F915F914F917B
:1015B0003F912F910F9000923B000F900FBE0F9024
:1015C0001F9018951F920F920FB60F9200903B003C
:1015D0000F9211242F933F934F935F936F937F93B9
:1015E0008F939F93AF93BF93EF93FF93DF93CF932B
:1015F000CDB7DEB788E892E20E94500ACF91DF9122
:10160000FF91EF91BF91AF919F918F917F916F91DA
:101610005F914F913F912F910F9000923B000F905F
:101620000FBE0F901F9018951F920F920FB60F923A
:1016300000903B000F9211248F93EF93FF93DF9361
:10164000CF93CDB7DEB7E0E6F6E082E08683CF91B8
:10165000DF91FF91EF918F910F9000923B000F90DF
:101660000FBE0F901F9018951F920F920FB60F92FA
:1016700000903B000F9211242F933F934F935F9361
:101680006F937F938F939F93AF93BF93EF93FF934A
:10169000DF93CF93CDB7DEB78CE691E20E9421179E
:1016A000CF91DF91FF91EF91BF91AF919F918F917A
:1016B0007F916F915F914F913F912F910F90009289
:1016C0003B000F900FBE0F901F9018951F920F9226
:1016D0000FB60F9200903B000F9211242F933F936F
:1016E0004F935F936F937F938F939F93AF93BF932A
:1016F000EF93FF93DF93CF93CDB7DEB78CE691E204
:101700000E946C17CF91DF91FF91EF91BF91AF9144
:101710009F918F917F916F915F914F913F912F9109
:101720000F9000923B000F900FBE0F901F901895E6
:101730001F920F920FB60F9200903B000F92112450
:101740002F933F934F935F936F937F938F939F93C9
:10175000AF93BF93EF93FF93DF93CF93CDB7DEB7F4
:101760008EED90E20E942117CF91DF91FF91EF91D2
:10177000BF91AF919F918F917F916F915F914F91A9
:101780003F912F910F9000923B000F900FBE0F9052
:101790001F9018951F920F920FB60F9200903B006A
:1017A0000F9211242F933F934F935F936F937F93E7
:1017B0008F939F93AF93BF93EF93FF93DF93CF9359
:1017C000CDB7DEB78EED90E20E946C17CF91DF911E
:1017D000FF91EF91BF91AF919F918F917F916F9109
:1017E0005F914F913F912F910F9000923B000F908E
:1017F0000FBE0F901F9018951F920F920FB60F9269
:1018000000903B000F9211242F933F934F935F93CF
:101810006F937F938F939F93AF93BF93EF93FF93B8
:10182000DF93CF93CDB7DEB78AEF91E20E94211705
:10183000CF91DF91FF91EF91BF91AF919F918F91E8
:101840007F916F915F914F913F912F910F900092F7
:101850003B000F900FBE0F901F9018951F920F9294
:101860000FB60F9200903B000F9211242F933F93DD
:101870004F935F936F937F938F939F93AF93BF9398
:10188000EF93FF93DF93CF93CDB7DEB78AEF91E26B
:101890000E946C17CF91DF91FF91EF91BF91AF91B3
:1018A0009F918F917F916F915F914F913F912F9178
:1018B0000F9000923B000F900FBE0F901F90189555
:1018C000DF93CF9300D0CDB7DEB789839A83898128
:1018D0009A8122E08030920769F480E20E94850FAD
:1018E000E981FA81848781E20E94850FE981FA818A
:1018F00085870CC084E20E94850FE981FA81848784
:1019000085E20E94850FE981FA8185870F900F900B
:10191000CF91DF910895DF93CF93CDB7DEB72597B1
:10192000CDBFDEBF8B839C836D83EB81FC8181E027
:101930008383EB81FC81248135818D81882F90E028
:10194000A901481B590BCA0189839A8389819A810D
:101950002596CDBFDEBFCF91DF910895DF93CF9362
:10196000CDB7DEB72597CDBFDEBF8B839C836D835C
:10197000EB81FC8181E08383EB81FC8124813581D3
:101980008D81992787FD9095A901481B590BCA01A4
:1019900089839A8389819A812596CDBFDEBFCF91B5
:1019A000DF910895DF93CF9300D0CDB7DEB7898361
:1019B0009A83E981FA8181E08383E981FA818481D4
:1019C00095810F900F90CF91DF910895DF93CF9382
:1019D00000D0CDB7DEB789839A83E981FA8181E0AF
:1019E0008383E981FA8184810F900F90CF91DF91F9
:1019F0000895DF93CF9300D0CDB7DEB789839A8364
:101A0000E981FA8181E08383E981FA8185810F9000
:101A10000F90CF91DF910895DF93CF93CDB7DEB7CD
:101A20006B97CDBFDEBF8A8F9B8FEA8DFB8D848144
:101A3000898FEA8DFB8D148280E090E0A0E8B2E40B
:101A40008D8B9E8BAF8BB88F6D897E898F89988D9A
:101A50002BEA3AEA4AE25FE30E946629DC01CB0105
:101A6000898B9A8BAB8BBC8B69897A898B899C8992
:101A700020E030E040E85FE30E946C2B88231CF4F8
:101A800081E0888B91C069897A898B899C8920E063
:101A900030E04FE753E40E940C2B18160CF07BC08B
:101AA0006D897E898F89988D20E030E04AE754E483
:101AB0000E94602ADC01CB018C879D87AE87BF879F
:101AC0006C857D858E859F8520E030E04AEF53E46C
:101AD0000E946629DC01CB0188879987AA87BB878A
:101AE000688579858A859B8520E030E040E85FE362
:101AF0000E946C2B88232CF481E090E08E839F83DE
:101B00003FC0688579858A859B8520E03FEF4FE758
:101B100057E40E940C2B18164CF56C857D858E853C
:101B20009F8520E030E040E251E40E946629DC011C
:101B3000CB01BC01CD010E949027DC01CB018E833B
:101B40009F830FC082E390E08C839D838C819D8175
:101B50000197F1F78C839D838E819F8101978E83FE
:101B60009F838E819F81009769F724C0688579855E
:101B70008A859B850E949027DC01CB018E839F8301
:101B80008E819F818A839B838A819B810197F1F754
:101B90008A839B830FC069897A898B899C890E947B
:101BA0009027DC01CB01888B8889898389818A957C
:101BB000F1F78983EA8DFB8D898D84836B96CDBF88
:101BC000DEBFCF91DF910895DF93CF93CDB7DEB71E
:101BD0006B97CDBFDEBF8A8F9B8FEA8DFB8D848193
:101BE000898FEA8DFB8D81E0848380E090E0A0E026
:101BF000B3E48D8B9E8BAF8BB88F6D897E898F8977
:101C0000988D2BEA3AEA4AE25FE30E946629DC01FA
:101C1000CB01898B9A8BAB8BBC8B69897A898B8939
:101C20009C8920E030E040E85FE30E946C2B882331
:101C30001CF481E0888B91C069897A898B899C89A1
:101C400020E030E04FE753E40E940C2B18160CF014
:101C50007BC06D897E898F89988D20E030E04AE7CE
:101C600054E40E94602ADC01CB018C879D87AE87FB
:101C7000BF876C857D858E859F8520E030E04AEFAB
:101C800053E40E946629DC01CB0188879987AA87E3
:101C9000BB87688579858A859B8520E030E040E8B0
:101CA0005FE30E946C2B88232CF481E090E08E830C
:101CB0009F833FC0688579858A859B8520E03FEFBB
:101CC0004FE757E40E940C2B18164CF56C857D8568
:101CD0008E859F8520E030E040E251E40E94662935
:101CE000DC01CB01BC01CD010E949027DC01CB01BE
:101CF0008E839F830FC082E390E08C839D838C81D1
:101D00009D810197F1F78C839D838E819F8101973F
:101D10008E839F838E819F81009769F724C0688599
:101D200079858A859B850E949027DC01CB018E8373
:101D30009F838E819F818A839B838A819B81019768
:101D4000F1F78A839B830FC069897A898B899C8983
:101D50000E949027DC01CB01888B88898983898147
:101D60008A95F1F78983EA8DFB8D898D84836B9643
:101D7000CDBFDEBFCF91DF910895DF93CF93CDB775
:101D8000DEB72A97CDBFDEBF8D839E836F837887B2
:101D900049878985882379F11B821C821A821A82DD
:101DA0001FC0EF81F88580818068EF81F88580838E
:101DB000EF81F8858381882F90E081709070009783
:101DC000B9F38F81988560E00E948B0C9C018B8118
:101DD0009C81820F931F8B839C838A818F5F8A8370
:101DE0008A818430F0F28B819C81969587959695B7
:101DF00087958A8718C01982EF81F885808180686D
:101E0000EF81F8858083EF81F8858381882F90E0CA
:101E1000817090700097B9F38F8198850E94D20CE1
:101E2000898389818A878A852A96CDBFDEBFCF9133
:101E3000DF910895DF93CF93CDB7DEB72C97CDBF59
:101E4000DEBF8D839E836F8378874987898588234A
:101E5000E1F11B821C821A821A821FC0EF81F88571
:101E600080818068EF81F8858083EF81F8858381A8
:101E7000882F90E0817090700097B9F38F819885DA
:101E800060E00E94AE0C9C018B819C81820F931FAD
:101E90008B839C838A818F5F8A838A818430F0F26E
:101EA0008B819C818B879C878B859C8599232CF4C7
:101EB0008B859C8503968B879C878B859C859595C8
:101EC0008795959587958A8719C01982EF81F8853E
:101ED00080818068EF81F8858083EF81F885838138
:101EE000882F90E0817090700097B9F38F8198856A
:101EF00060E00E94AE0C898399819A878A852C962E
:101F0000CDBFDEBFCF91DF910895DF93CF93CDB7E3
:101F1000DEB72597CDBFDEBF8D83EAECF1E082E02E
:101F200080838D81882F90E08A839B83EA81FB8167
:101F30008491898389818C83EAECF1E010828C8121
:101F40002596CDBFDEBFCF91DF9108950F93DF932C
:101F5000CF93CDB7DEB72697CDBFDEBF8C839D83F1
:101F60006E83EFE3F0E080818B83F8948C819D8118
:101F700089839A83EBE3F0E0108289819A812E8134
:101F8000FC0108ED04BF2083EFE3F0E08B81808348
:101F90002696CDBFDEBFCF91DF910F910895DF93DD
:101FA000CF93CDB7DEB72697CDBFDEBF89836A83D7
:101FB0004B8380E590E08D839E838A81882319F08E
:101FC00090E29C8301C01C8289819C81982B8B812B
:101FD000892BED81FE8182832696CDBFDEBFCF9116
:101FE000DF910895DF93CF9300D0CDB7DEB789831B
:101FF0006A838A818F718A83E0E5F0E099818A8122
:10200000892B85830F900F90CF91DF910895DF93F7
:10201000CF9300D0CDB7DEB78A83A0E5B0E0E0E58E
:10202000F0E08081982F8A81809589238C93E0E568
:10203000F0E090818A818923898389810F900F90B4
:10204000CF91DF910895DF93CF9300D00F92CDB75A
:10205000DEB78A836B838A819B81892B898381E4A4
:1020600090E069810E94A60F2396CDBFDEBFCF917D
:10207000DF910895DF93CF9300D0CDB7DEB78A8389
:10208000E0E4F0E08081982F987F8A81892B898312
:1020900080E490E069810E94A60FE0E4F0E0908186
:1020A0008A818923898389810F900F90CF91DF9155
:1020B0000895DF93CF930F92CDB7DEB78983A0E465
:1020C000B0E0E0E4F0E08381982F917F8981892B53
:1020D000816013968C9313970F90CF91DF910895A1
:1020E000DF93CF93CDB7DEB72697CDBFDEBF898311
:1020F0006A8380E590E08D839E83E0E5F0E0868151
:10210000982F89818095E92FE823EC838A818823A1
:1021100019F0F981FB8301C01B828C812B81822BFA
:10212000ED81FE8186838981813041F4A8E6B0E0AB
:10213000E8E6F0E0808181608C930AC0898182307A
:1021400039F4A0E6B0E0E0E6F0E0808181608C93B5
:102150002696CDBFDEBFCF91DF910895DF93CF9359
:10216000CDB7DEB783E590E063E00E94A60FCF9184
:10217000DF910895DF93CF93CDB7DEB782E490E08F
:1021800061E00E94A60FCF91DF910895DF93CF9376
:10219000CDB7DEB72597CDBFDEBF8B836C834D8374
:1021A0000E946B11E0ECF1E083E382878B81882F42
:1021B00090E0880F991F82959295907F9827807F55
:1021C00098279C018C81882F90E08F719070822BD2
:1021D000932B89839A83E0ECF1E089818083E0ECA2
:1021E000F1E089819A81892F99278F718183E0ECB1
:1021F000F1E01282E0ECF1E08D818483E0ECF1E02B
:1022000085E38287EF93FF930F932F93EBECF1E03D
:1022100008ED21E004BF20832F910F91FF91EF91F2
:102220002596CDBFDEBFCF91DF910895DF93CF9389
:1022300000D000D0CDB7DEB78B836C830E945F11D6
:102240008B81882F90E0880F991F82959295907FBF
:102250009827807F98279C018C81882F90E08F7130
:102260009070822B932B89839A83E0ECF1E0898133
:102270008083E0ECF1E089819A81892F99278F7121
:102280008183E0ECF1E01282E0ECF1E086E082870D
:10229000EF93FF930F932F93EBECF1E008ED21E028
:1022A00004BF20832F910F91FF91EF91E0ECF1E0BB
:1022B00084812496CDBFDEBFCF91DF910895DF9357
:1022C000CF93CDB7DEB7E0ECF1E087858823DCF370
:1022D000CF91DF910895DF93CF93CDB7DEB70E9402
:1022E0005F11E0ECF1E08785882F90E082709070BC
:1022F000009791F0E0ECF1E086E38287EF93FF93A3
:102300000F932F93EBECF1E008ED21E004BF208365
:102310002F910F91FF91EF91CF91DF910895DF936E
:10232000CF9300D0CDB7DEB789836A830E945F1157
:10233000E0ECF1E083E38287E0ECF1E089818083E7
:10234000E0ECF1E01182E0ECF1E01282E0ECF1E08F
:102350008A8184830F900F90CF91DF910895DF934E
:10236000CF9300D00F92CDB7DEB78A839B831982BB
:102370000E945F11E0ECF1E083E38287E0ECF1E0A2
:102380001182E0ECF1E01282198214C0E0ECF1E07D
:1023900089818083A0ECB1E0EA81FB818081149681
:1023A0008C9314978A819B8101968A839B83898170
:1023B0008F5F89838981803248F32396CDBFDEBF4A
:1023C000CF91DF910895DF93CF9300D00F92CDB7D7
:1023D000DEB78B830E945F118B81882F90E0880F7E
:1023E000991F82959295907F9827807F982789835F
:1023F0009A83E0ECF1E089818083E0ECF1E089816F
:102400009A81892F99278F718183E0ECF1E0128204
:10241000E0ECF1E085E38287EF93FF930F932F9336
:10242000EBECF1E008ED21E004BF20832F910F9148
:10243000FF91EF912396CDBFDEBFCF91DF9108953D
:10244000DF93CF9300D00F92CDB7DEB78B830E947E
:102450005F118B81882F90E0880F991F829592954C
:10246000907F9827807F982789839A83E0ECF1E01A
:1024700089818083E0ECF1E089819A81892F992715
:102480008F718183E0ECF1E01282E0ECF1E082E315
:102490008287EF93FF930F932F93EBECF1E008ED1E
:1024A00021E004BF20832F910F91FF91EF9123969C
:1024B000CDBFDEBFCF91DF910895DF93CF9300D0E2
:1024C0000F92CDB7DEB78B830E945F118B81882F6F
:1024D00090E0880F991F82959295907F9827807F32
:1024E000982789839A83E0ECF1E089818083E0EC8E
:1024F000F1E089819A81892F99278F718183E0EC9E
:10250000F1E01282E0ECF1E084E38287EF93FF9345
:102510000F932F93EBECF1E008ED21E004BF208353
:102520002F910F91FF91EF912396CDBFDEBFCF91F9
:10253000DF910895DF93CF93CDB7DEB70E945F118F
:10254000E0ECF1E080E38287EF93FF930F932F930A
:10255000EBECF1E008ED21E004BF20832F910F9117
:10256000FF91EF91CF91DF910895DF93CF930F9279
:10257000CDB7DEB7E0EAF0E0828180648983E4E3EE
:10258000F0E088ED8083E0EAF0E0898182830F90BB
:10259000CF91DF910895DF93CF930F92CDB7DEB740
:1025A000E0EAF0E082818F7B8983E4E3F0E088ED6C
:1025B0008083E0EAF0E0898182830F90CF91DF9100
:1025C0000895DF93CF9300D000D0CDB7DEB78983D5
:1025D0009A836B834C83E981FA818185982F9C7F54
:1025E0008B81892BE981FA818187E981FA818C814C
:1025F00082872496CDBFDEBFCF91DF910895DF9310
:10260000CF9300D000D0CDB7DEB789839A836B8398
:102610004C83E981FA818185982F937F8B81892B67
:10262000E981FA818187E981FA818C818387249607
:10263000CDBFDEBFCF91DF910895EF920F93DF936F
:10264000CF93CDB7DEB72D97CDBFDEBF8B839C83F5
:102650006D834E832F830887E98698858985892B2A
:102660008D878E81882319F080E88C8701C01C86B5
:102670009D858C85982B9B878F81882319F090E40A
:102680009A8701C01A868B859A85892B8A83EFE306
:10269000F0E080818983F894E0EBF0E08D81808325
:1026A000EB81FC818A81808BEFE3F0E0898180837C
:1026B0002D96CDBFDEBFCF91DF910F91EF900895A2
:1026C000DF93CF930F92CDB7DEB78983A0EBB0E055
:1026D000E0EBF0E08281982F907F8981892B129620
:1026E0008C9312970F90CF91DF910895DF93CF9342
:1026F0000F92CDB7DEB78983A0EBB0E0E0EBF0E05E
:102700008281982F9F708981892B12968C931297C2
:102710000F90CF91DF910895DF93CF930F92CDB7B4
:10272000DEB78983A0EBB0E0E0EBF0E08381982F87
:10273000907F8981892B13968C9313970F90CF915B
:10274000DF910895DF93CF930F92CDB7DEB78983E2
:10275000A0EBB0E0E0EBF0E08381982F9F708981DF
:10276000892B13968C9313970F90CF91DF91089537
:10277000DF93CF9300D00F92CDB7DEB789839A83D2
:102780006B83E981FA818081982F907F8B81892BDF
:10279000E981FA8180832396CDBFDEBFCF91DF919F
:1027A0000895DF93CF9300D00F92CDB7DEB7898322
:1027B0009A836B83E981FA818081982F907F8B8146
:1027C000892BE981FA8180832396CDBFDEBFCF912B
:1027D000DF910895DF93CF9300D00F92CDB7DEB78E
:1027E00089839A836B83E981FA818181982F987F0D
:1027F0008B81892BE981FA8181832396CDBFDEBF4E
:10280000CF91DF910895DF93CF9300D00F92CDB792
:10281000DEB789839A836B83E981FA818181982F5E
:10282000987F8B81892BE981FA8181832396CDBFA3
:10283000DEBFCF91DF910895DF93CF9300D00F9249
:10284000CDB7DEB789839A836B83E981FA8183816F
:10285000982F90718B81892B8062E981FA81838323
:102860002396CDBFDEBFCF91DF910895DF93CF9345
:1028700000D00F92CDB7DEB789839A836B83E9814D
:10288000FA818381982F90718B81892B8062E981F5
:10289000FA8183832396CDBFDEBFCF91DF91089568
:1028A000DF93CF9300D00F92CDB7DEB789839A83A1
:1028B0006B838B81807F8B83E981FA8191818B810E
:1028C000892BE981FA8181832396CDBFDEBFCF9129
:1028D000DF910895DF93CF9300D00F92CDB7DEB78D
:1028E00089839A836B838B8180738B83E981FA81DF
:1028F00091818B81892BE981FA8181832396CDBFD8
:10290000DEBFCF91DF910895DF93CF9300D00F9278
:10291000CDB7DEB789839A836B838B81807F8B836E
:10292000E981FA818181982F8B8180958923E981C2
:10293000FA8181832396CDBFDEBFCF91DF910895C9
:10294000DF93CF9300D00F92CDB7DEB789839A8300
:102950006B838B8180738B83E981FA818181982FCE
:102960008B8180958923E981FA8181832396CDBF6C
:10297000DEBFCF91DF910895DF93CF9300D00F9208
:10298000CDB7DEB789839A836B83E981FA8186812B
:10299000982F9C7F8B81892BE981FA8186832396EE
:1029A000CDBFDEBFCF91DF910895DF93CF9300D0ED
:1029B0000F92CDB7DEB789839A836B83E981FA8161
:1029C0008681982F9C7F8B81892BE981FA81868370
:1029D0002396CDBFDEBFCF91DF910895DF93CF93D4
:1029E00000D00F92CDB7DEB789839A836B83E981DC
:1029F000FA818681982F937F8B81892BE981FA81D7
:102A000086832396CDBFDEBFCF91DF910895DF93FC
:102A1000CF9300D00F92CDB7DEB789839A836B83B3
:102A2000E981FA818681982F937F8B81892BE981B7
:102A3000FA8186832396CDBFDEBFCF91DF910895C3
:102A4000DF93CF9300D00F92CDB7DEB789839A83FF
:102A50006B83E981FA818781982F9C7F8B81892BF9
:102A6000E981FA8187832396CDBFDEBFCF91DF91C5
:102A70000895DF93CF9300D00F92CDB7DEB789834F
:102A80009A836B83E981FA818781982F9C7F8B8160
:102A9000892BE981FA8187832396CDBFDEBFCF9151
:102AA000DF910895DF93CF9300D00F92CDB7DEB7BB
:102AB00089839A836B83E981FA818781982F937F39
:102AC0008B81892BE981FA8187832396CDBFDEBF75
:102AD000CF91DF910895DF93CF9300D00F92CDB7C0
:102AE000DEB789839A836B83E981FA818781982F86
:102AF000937F8B81892BE981FA8187832396CDBFD0
:102B0000DEBFCF91DF910895DF93CF9300D00F9276
:102B1000CDB7DEB789839A836B83E981FA81878198
:102B2000982F9F7C8B81892BE981FA81878323965B
:102B3000CDBFDEBFCF91DF910895DF93CF9300D05B
:102B40000F92CDB7DEB789839A836B83E981FA81CF
:102B50008781982F9F738B81892BE981FA818783E5
:102B60002396CDBFDEBFCF91DF910895DF93CF9342
:102B700000D0CDB7DEB789839A83E981FA8180815D
:102B8000807FE981FA818083E981FA818CE0818705
:102B90000F900F90CF91DF910895DF93CF9300D0E6
:102BA000CDB7DEB789839A83E981FA818081807FFE
:102BB000E981FA818083E981FA818CE081870F9035
:102BC0000F90CF91DF910895DF93CF93CDB7DEB70C
:102BD0002597CDBFDEBF89839A836B837C834D832A
:102BE000E981FA818B819C8180839183E981FA81DB
:102BF0008D81828389819A81FC01EC5BFF4F108279
:102C000089819A81FC01ED5BFF4F108289819A8155
:102C1000FC01EA5BFF4F108289819A81FC01EB5B2A
:102C2000FF4F10822596CDBFDEBFCF91DF91089573
:102C3000DF93CF9300D00F92CDB7DEB789839A830D
:102C40006B83E981FA818B8182832396CDBFDEBFBE
:102C5000CF91DF910895DF93CF93CDB7DEB725975E
:102C6000CDBFDEBF8B839C838B819C81FC01EB5BA2
:102C7000FF4F80818F5F8F718A838B819C81FC01E4
:102C8000EA5BFF4F808189831D829A818981981731
:102C900011F081E08D838D812596CDBFDEBFCF9170
:102CA000DF910895DF93CF93CDB7DEB72597CDBFE2
:102CB000DEBF8B839C838B819C81FC01EB5BFF4F90
:102CC000808181508F718A838B819C81FC01EA5BBA
:102CD000FF4F808189831D829A818981981711F025
:102CE00081E08D838D812596CDBFDEBFCF91DF91B1
:102CF0000895DF93CF93CDB7DEB72897CDBFDEBF62
:102D00008E839F8368878E819F81039689839A83B0
:102D10008E819F810E942B168B838B81882391F15A
:102D200089819A81FC01EE5BFF4F80818C838C81CD
:102D3000282F30E089819A81820F931FFC01B09681
:102D4000888580838C818F5F282F2F7189819A815C
:102D5000FC01EE5BFF4F2083EE81FF810190F0814B
:102D6000E02D83818D838D81982F9C7FEE81FF8163
:102D70008281892B8D83EE81FF810190F081E02D8E
:102D80008D8183838B812896CDBFDEBFCF91DF916C
:102D90000895DF93CF93CDB7DEB72597CDBFDEBFC4
:102DA0008B839C838B819C81FC01ED5BFF4F808139
:102DB0008A838B819C81FC01EC5BFF4F808189833E
:102DC0001D829A818981981711F081E08D838D8110
:102DD0002596CDBFDEBFCF91DF910895DF93CF93CE
:102DE000CDB7DEB72597CDBFDEBF8C839D838C81A9
:102DF0009D8103968A839B838A819B81FC01EF5B83
:102E0000FF4F8081282F30E08A819B81FC01E20FF7
:102E1000F31F808189838A819B81FC01EF5BFF4FD7
:102E200080818F5F282F2F718A819B81FC01EF5B4E
:102E3000FF4F208389812596CDBFDEBFCF91DF91E3
:102E40000895DF93CF93CDB7DEB72897CDBFDEBF10
:102E50008F8398878F81988503968D839E838D813C
:102E60009E81FC01E05CFF4F80818F5F8F718B83BF
:102E70008D819E81FC01EF5BFF4F80818A83EF8112
:102E8000F8850190F081E02D808189839B818A8182
:102E9000981711F41C8219C081E08C838F8198856A
:102EA000FC01ED5BFF4F8081282F30E08F819885FA
:102EB000820F931FFC013396898180838F819885CF
:102EC000FC01ED5BFF4F8B8180838C812896CDBF09
:102ED000DEBFCF91DF910895DF93CF93CDB7DEB7FB
:102EE0002797CDBFDEBF8E839F838E819F81039600
:102EF0008C839D838E819F81FC01EA5BFF4F8081E3
:102F00008B838C819D81FC01EE5BFF4F90818B81D7
:102F1000981791F4EE81FF810190F081E02D83817B
:102F20008A838A818C7F8A83EE81FF810190F08180
:102F3000E02D8A81838326C08E819F81FC01EA5B1C
:102F4000FF4F8081282F30E08C819D81820F931F5D
:102F5000FC01B09680818983EE81FF810190F08130
:102F6000E02D898180838C819D81FC01ED5BFF4F89
:102F700080818F5F282F2F718C819D81FC01ED5BFB
:102F8000FF4F20832796CDBFDEBFCF91DF910895FD
:102F9000DF93CF9300D000D0CDB7DEB789839A837B
:102FA0006B837C838B819C8180709170009741F052
:102FB000E981FA8184818160E981FA81848307C093
:102FC000E981FA8184818E7FE981FA8184838B8112
:102FD000E981FA8180832496CDBFDEBFCF91DF9156
:102FE0000895DF93CF9300D000D0CDB7DEB78983AB
:102FF0009A83E981FA818481882F90E081709070B2
:10300000882349F0E981FA818081882F90E09160DE
:103010008B839C8307C0E981FA818081282F30E06F
:103020002B833C838B819C812496CDBFDEBFCF91C7
:10303000DF910895DF93CF93CDB7DEB7F8940E9468
:10304000CB0460E07BE480E090E00E94700660E0EA
:103050007BE480E090E00E94000660E07BE480E09A
:1030600090E00E94E0060E9479050E948B050E9474
:10307000CB12A0EAB0E0E0EAF0E082818160129633
:103080008C93A0EAB0E0E0EAF0E0828182601296E0
:103090008C93A0EAB0E0E0EAF0E0828184601296CE
:1030A0008C931297E0E4F6E083E38283E0E4F6E0B9
:1030B00083E38583E0E6F6E080EE8283E0E6F6E0F7
:1030C00080EE8583E0E8F6E088EF8283E0E8F6E0D2
:1030D00088EF8583E0EAF6E08FEF8283E0EAF6E0AE
:1030E0008FEF8583E0E6F6E081E08183E0E6F6E0BD
:1030F00081E08683E0E8F6E087E08183E0E8F6E0BF
:1031000087E08583E0E6F6E082E08183E0E6F6E0B2
:1031100082E086837894CF91DF910895DF93CF93F7
:10312000CDB7DEB72E97CDBFDEBF0E941A180E9422
:1031300015010E94A90180E090E0AAE7B4E48B8722
:103140009C87AD87BE876B857C858D859E8520E0BD
:1031500030E04AEF53E40E946629DC01CB018F8303
:103160009887A987BA876F81788589859A8520E0B5
:1031700030E040E85FE30E946C2B88232CF481E070
:1031800090E08D839E833FC06F81788589859A8585
:1031900020E03FEF4FE757E40E940C2B18164CF548
:1031A0006B857C858D859E8520E030E040E251E492
:1031B0000E946629DC01CB01BC01CD010E94902751
:1031C000DC01CB018D839E830FC082E390E08B8373
:1031D0009C838B819C810197F1F78B839C838D81EC
:1031E0009E8101978D839E838D819E81009769F7D3
:1031F00014C06F81788589859A850E949027DC01AB
:10320000CB018D839E838D819E8189839A83898161
:103210009A810197F1F789839A8380E499E065E0C8
:103220000E94D11380E099E065E00E94B8132E96C9
:10323000CDBFDEBFCF91DF910895DF93CF930F9283
:10324000CDB7DEB78983898188232CF080E6998108
:10325000891B898303C08981805A898389818695E6
:1032600086958695898389818F5F89838981883056
:1032700018F087E0898305C08981823010F482E0EC
:10328000898389810F90CF91DF910895DF93CF9348
:10329000CDB7DEB76197CDBFDEBFE0E8F6E0808551
:1032A0008983E0EAF6E080858A838A818370898B4E
:1032B0008A81869586958370888B8A8182958F70A6
:1032C00083708F878A8182958695869583708E8795
:1032D0001092A9201092A1201092A2201092A32057
:1032E0001092A4201092A52080910B2090910C2088
:1032F0008B879C878B859C85892F992786958B87C3
:103300009C878B859C8501968B879C878B859C856C
:103310008830910528F087E090E08B879C8709C072
:103320008B859C858230910520F482E090E08B872C
:103330009C878B858093A9208989823091F4809124
:10334000A120282F8091A920882F90E08295929526
:10335000907F9827807F98278068822B8093A12078
:1033600018C08989813089F48091A120282F80910B
:10337000A920882F90E082959295907F9827807F52
:103380009827822B8093A12004C08091A120809354
:10339000A1208889823041F48091A1209091A920B8
:1033A000892B8093A12010C08889813049F49091A5
:1033B000A1208091A920892B88608093A12004C03E
:1033C0008091A1208093A1208F85823089F4809103
:1033D000A220282F8091A920882F90E08295929595
:1033E000907F9827807F9827822B8093A22019C0F6
:1033F0008F85813091F48091A220282F8091A9207F
:10340000882F90E082959295907F9827807F9827CB
:103410008068822B8093A22004C08091A220809398
:10342000A2208091172090911820959587959595C9
:10343000879595958795959587958C838C810E9426
:103440001D198B838C81803640F49091A2208B8152
:10345000892B88608093A2200EC08C81803A28F44A
:103460008091A2208093A22006C08091A2209B81FF
:10347000892B8093A22080911520909116209595FC
:1034800087959595879595958795959587958E833D
:103490008E810E941D198B838E81803680F48091ED
:1034A000A420282F8B81882F90E082959295907F81
:1034B0009827807F9827822B8093A42018C08E8124
:1034C000803A28F48091A4208093A42010C0809199
:1034D000A420282F8B81882F90E082959295907F51
:1034E0009827807F98278068822B8093A4208091E2
:1034F000132090911420959587959595879595958E
:103500008795959587958D838D810E941D198B8355
:103510008D81803640F49091A4208B81892B886026
:103520008093A4200EC08D81803A28F48091A4203D
:103530008093A42006C08091A4209B81892B809336
:10354000A4208E85823089F48091A320282F809139
:10355000A920882F90E082959295907F9827807F70
:103560009827822B8093A32019C08E85813091F4F7
:103570008091A320282F8091A920882F90E0829508
:103580009295907F9827807F98278068822B8093E0
:10359000A32004C08091A3208093A32080911D20AC
:1035A00090911E20959587959595879595958795EA
:1035B000959587958F8398878F810E941D198B839E
:1035C0008F8198858036910538F48091A3209B8166
:1035D000892B8093A32011C08F819885803A910513
:1035E00028F48091A3208093A32007C09091A3206A
:1035F0008B81892B88608093A32089818295869511
:10360000877083708D878D85823091F48091A5209D
:10361000282F8091A920882F90E082959295907F05
:103620009827807F98278068822B8093A52018C0D8
:103630008D85813089F48091A520282F8091A92043
:10364000882F90E082959295907F9827807F982789
:10365000822B8093A52004C08091A5208093A52073
:103660008FE090E089879A879091A52089858F7057
:10367000892B8093A5206196CDBFDEBFCF91DF91CE
:103680000895DF93CF93CDB7DEB72C97CDBFDEBFC4
:103690008D839E836F83788749875A872B873C87E2
:1036A00089859A85AA2797FDA095BA2F89839A8341
:1036B000AB83BC832D813E818F819885820F931FC0
:1036C000AA2797FDA095BA2F89839A83AB83BC83E1
:1036D0008B859C859C01442737FD4095542F89811B
:1036E0009A81AB81BC81BC01CD010E94962DDC0189
:1036F000CB0189839A83AB83BC8389819A81AB8117
:10370000BC812CE231E040E050E0BC01CD010E94E0
:10371000FE2DDA01C90189839A83AB83BC83898139
:103720009A81AB81BC81833D9105A105B1054CF027
:1037300082ED90E0A0E0B0E089839A83AB83BC8304
:1037400014C089819A81AB81BC818E322FEF9207A0
:103750002FEFA2072FEFB20744F48EE29FEFAFEFF7
:10376000BFEF89839A83AB83BC8389819A812C962E
:10377000CDBFDEBFCF91DF910895DF93CF9300D00F
:1037800000D0CDB7DEB789839A836B837C83898130
:103790009A81009799F5EB81FC8180819181992331
:1037A000BCF4EB81FC81808191812FEF843C9207F6
:1037B00054F4EB81FC8180819181CC96EB81FC817A
:1037C00080839183F4C0EB81FC8110821182EFC071
:1037D000EB81FC81808191818D33910554F0EB81E7
:1037E000FC8180819181CC97EB81FC8180839183E6
:1037F000DEC0EB81FC8110821182D9C089819A815F
:10380000181619060CF04AC0EB81FC818081918169
:1038100099230CF443C0EB81FC81208131818981A3
:103820009A8128173907E4F4EB81FC8120813181EA
:1038300089819A81821B930B8F31910554F0EB8122
:10384000FC81808191814E96EB81FC818083918304
:10385000AEC0EB81FC8189819A8180839183A7C06E
:10386000EB81FC812081318189819A81A901481BEA
:10387000590BCA018D33910554F0EB81FC81808195
:103880009181CC97EB81FC818083918390C0EB8107
:10389000FC8189819A818083918389C089819A8101
:1038A00099230CF04AC0EB81FC818081918199239E
:1038B0000CF043C0EB81FC812081318189819A81A8
:1038C00082179307F4F4EB81FC8120813181898197
:1038D0009A81A901481B590BCA018F31910554F0F7
:1038E000EB81FC81808191814E97EB81FC8180830B
:1038F00091835DC0EB81FC8189819A818083918372
:1039000056C0EB81FC812081318189819A81821BA3
:10391000930B8D33910554F0EB81FC818081918173
:10392000CC96EB81FC818083918341C0EB81FC814B
:1039300089819A81808391833AC0EB81FC812081C7
:10394000318189819A81821B930B8E3191059CF480
:10395000EB81FC812081318189819A81821B930BCB
:103960005FEF833E95073CF0EB81FC8189819A8172
:10397000808391831CC0EB81FC812081318189810E
:103980009A812817390754F4EB81FC818081918159
:103990004E96EB81FC818083918309C0EB81FC8191
:1039A000808191814E97EB81FC8180839183249665
:1039B000CDBFDEBFCF91DF910895DF93CF93CDB719
:1039C000DEB76097CDBFDEBF1B821C8219821A82D0
:1039D00080911B2090911C209595879595958795B2
:1039E0008B879C878091192090911A2095958795B7
:1039F0009595879589879A8780911D2090911E20A3
:103A000095958795959587958D839E8380911F20A9
:103A10009091202095958795959587959595879573
:103A2000959587958F8398878B859C8521E0803C31
:103A300092073CF48B859C85805C91408B879C87AA
:103A40000FC08B859C8522E0803492071CF41B8676
:103A50001C8606C08B859C85805492408B879C87F2
:103A600089859A8521E0803C92073CF489859A8576
:103A7000805C914089879A870FC089859A8522E06A
:103A8000803492071CF419861A8606C089859A85A7
:103A90008054924089879A878D819E8121E080346D
:103AA00092073CF48D819E81805491408D839E834A
:103AB0000FC08D819E8122E0803C92071CF41D8204
:103AC0001E8206C08D819E81805C92408D839E8384
:103AD0008B859C858D879E878D859E8599232CF46B
:103AE0008D859E8503968D879E878D859E85959570
:103AF00087959595879544275527481B590B8985A8
:103B00009A852D813E81EF81F885BA01A9019F0137
:103B10000E94411B8B839C838B859C858F87988B10
:103B20008F85988999232CF48F85988903968F87A0
:103B3000988B8F8598899595879595958795BC01E4
:103B40008D819E8144275527481B590B89859A856D
:103B50002F8138850E94411B89839A838B819C81A8
:103B600025E630E2B9010E94BD1B89819A8123E6D6
:103B700030E2B9010E94BD1B8091652090916620C2
:103B80008B839C83809163209091642089839A83A6
:103B90008B819C81009729F410929D2010929F2088
:103BA00013C08B819C81181619063CF481E0809328
:103BB0009D208B8180939F2007C082E080939D2071
:103BC0008B81819580939F2089819A81009729F428
:103BD00010929E201092A02013C089819A811816FD
:103BE00019063CF481E080939E2089818093A02077
:103BF00007C082E080939E20898181958093A020D8
:103C00006096CDBFDEBFCF91DF910895DF93CF9354
:103C100000D0CDB7DEB71092A820E0E6F6E08085B0
:103C200080936B2080916B2082958695877080931E
:103C30006B2080916B20282F30E029833A834981C3
:103C40005A814430510531F189819A81853091053D
:103C50005CF429813A8122303105A9F049815A81E9
:103C60004330510529F12AC089819A818530910517
:103C7000C1F029813A812630310501F51092672083
:103C800010926A201BC081E08093672081E08093BE
:103C90006A2014C082E08093672084E080936A20C9
:103CA0000DC083E08093672083E080936A2006C084
:103CB00084E08093672082E080936A20E0E8F6E069
:103CC00087E08683E0E8F6E080916A208583809132
:103CD000A820282F80916720882F90E0880F991FB7
:103CE00082959295907F9827807F9827822B80934A
:103CF000A82080910D2090910E20809368209093B1
:103D000069208091682090916920880F892F881FF1
:103D1000990B8093682090936920809168209091FE
:103D200069208F7190708093682090936920209112
:103D30006820309169208FE190E0AC01249FC001A0
:103D4000259F900D349F900D1124CE972DE130E0EA
:103D5000B9010E94C92DCB018093682090936920FE
:103D6000809168209091692099232CF4109268200A
:103D7000109269200DC08091682090916920803256
:103D8000910534F08FE190E0809368209093692052
:103D90008091A820282F8091682090916920822B03
:103DA0008093A8200F900F90CF91DF910895DF931B
:103DB000CF93CDB7DEB7E0E4F6E0808580936E2048
:103DC00080916E20817080936E20E0E8F6E080851F
:103DD00080936D2080916D20869586958695809341
:103DE0006D2080916D20837080936D20E0E8F6E077
:103DF000808582958695877080936C201092A6208E
:103E00001092A72080916E20813031F48091A720FC
:103E10008F7E8093A72005C08091A720806180932A
:103E2000A72080916C20882F90E08470907000977C
:103E300031F48091A720806E8093A72005C08091E7
:103E4000A7208F718093A72080916D20813031F45D
:103E50008091A62080688093A6200EC080916D205E
:103E6000823031F48091A62080648093A62004C023
:103E70008091A6208093A620CF91DF910895DF93B3
:103E8000CF93CDB7DEB7E0E4F6E08085869581700C
:103E900080937120E0E4F6E0808582958F708170D8
:103EA0008093702080917120813029F41092AB2092
:103EB00010926F2017C080917020813031F481E022
:103EC0008093AB2010926F200DC080916F208630C0
:103ED00020F082E08093AB2005C080916F208F5F3F
:103EE00080936F20CF91DF910895DF93CF93CDB76B
:103EF000DEB7E0E4F6E08085809372208091722046
:103F0000829586958770809372208091722081704F
:103F10008093722080917220813041F4E0E6F6E0D7
:103F200081E0868381E08093AA2007C0E0E6F6E086
:103F300081E0858382E08093AA20CF91DF9108956C
:103F4000DF93CF930F92CDB7DEB719828091AB206C
:103F5000882309F0F5C085EA8093802010929C2088
:103F600080919C208295807F809381208091812008
:103F7000282F80919D20882F90E0880F991F880F0F
:103F8000991F982F80919E20892B822B80938120CE
:103F900080919F20809382208091A0208093832015
:103FA000109289208091BB20882351F18091892033
:103FB00084608093892080918420807F80938420F6
:103FC00080918420982F8091BB208770892B8093CB
:103FD00084208091A22080938520809186208F70FC
:103FE0008093862080918620982F8091A320807FC7
:103FF000892B809386208091A4208093872032C0D3
:10400000809189208B7F809389208091A12080934B
:1040100084208091A22080938520809186208F70BB
:104020008093862080918620982F8091A320807F86
:10403000892B809386208091BC20882351F0809129
:1040400089208260809389208091BC208093872082
:1040500009C0809189208D7F809389208091A42040
:10406000809387208091BA208823A1F080918920B5
:1040700088608093892080918620807F809386202D
:1040800080918620982F8091BA208770892B809309
:10409000862013C080918920877F8093892080911A
:1040A0008620807F8093862080918620982F809123
:1040B000A3208F70892B809386208091A5208093E8
:1040C0008820809189208F70809389208091892019
:1040D000982F8091A620807F892B809389208091C2
:1040E000A72080938A208091A82080938B208091A4
:1040F000BD20813081F480E38093812081E1809331
:10410000822082E28093832083E38093842084E46E
:10411000809385204AC08091BD20813009F045C040
:1041200080E38093812085E58093822086E68093DA
:10413000832087E78093842088E88093852035C09A
:104140008091AB208130B9F4198211C08981282F68
:1041500030E08981882F90E0FC01EA5CFF4D80818E
:10416000F901E058FF4D808389818F5F89838981C0
:104170008C3060F31AC08091AB208230B1F4198288
:1041800011C08981282F30E08981882F90E0FC01BF
:10419000E75DFF4D8081F901E058FF4D8083898103
:1041A0008F5F898389818C3060F310928C20198213
:1041B0000FC020918C208981882F90E0FC01E0586D
:1041C000FF4D8081820F80938C2089818F5F89834E
:1041D00089818C3070F30F90CF91DF910895DF9338
:1041E000CF93CDB7DEB7809143208B3088F180919B
:1041F000732090917420A0917520B09176202BE0CF
:1042000030E040E050E0BC01CD010E94DC2DDA013D
:10421000C9018093772090937820A0937920B09360
:104220007A201092732010927420109275201092B0
:104230007620109243208091772090917820A09151
:104240007920B0917A200E9457218093B82022C013
:10425000809143208F5F8093432080911120909123
:1042600012209C01442737FD4095542F80917320E4
:1042700090917420A0917520B0917620820F931FA9
:10428000A41FB51F8093732090937420A093752072
:10429000B0937620E0915120F091522085E291E296
:1042A00020E830E2B9010995CF91DF910895DF93BD
:1042B000CF9300D000D0CDB7DEB78B839C838B81AA
:1042C0009C8125E0833E920718F419821A825CC013
:1042D0008B819C8127E080359207D8F48B819C816B
:1042E0009C01220F331F220F331FC901880F991F12
:1042F000880F991F820F931F8C5B95472DE631E045
:10430000B9010E94B52DCB01805B9F4F89839A83B1
:104310003BC08B819C8128E0853C9207D8F48B813F
:104320009C819C01220F331F220F331FC901880F6C
:10433000991F880F991F820F931F8054924925E778
:1043400031E0B9010E94B52DCB018C599F4F898373
:104350009A831AC08B819C819C01220F331F220FEC
:10436000331FC901880F991F880F991F820F931F50
:1043700084569F4A2DE631E0B9010E94B52DCB014C
:1043800088589F4F89839A8389819A812496CDBFCB
:10439000DEBFCF91DF910895DF93CF9300D000D09F
:1043A000CDB7DEB780910B2090910C20AA2797FD06
:1043B000A095BA2F89839A83AB83BC8389819A8124
:1043C000AB81BC8124E438E440E050E0BC01CD0185
:1043D0000E94962DDC01CB0120E137E240E050E065
:1043E000BC01CD010E94DC2DDA01C90189839A83C9
:1043F000AB83BC8389819A8180930B2090930C209E
:1044000080910D2090910E20AA2797FDA095BA2F9C
:1044100089839A83AB83BC8389819A81AB81BC8178
:1044200024E438E440E050E0BC01CD010E94962D28
:10443000DC01CB0120E137E240E050E0BC01CD01DE
:104440000E94DC2DDA01C90189839A83AB83BC8386
:1044500089819A8180930D2090930E2080910F2066
:1044600090911020AA2797FDA095BA2F89839A834F
:10447000AB83BC8389819A81AB81BC8124E438E41D
:1044800040E050E0BC01CD010E94962DDC01CB0143
:1044900020E137E240E050E0BC01CD010E94DC2D7C
:1044A000DA01C90189839A83AB83BC8389819A81AC
:1044B00080930F20909310208091112090911220D2
:1044C000AA2797FDA095BA2F89839A83AB83BC83D3
:1044D00089819A81AB81BC8124E438E440E050E0DA
:1044E000BC01CD010E94962DDC01CB0120E137E219
:1044F00040E050E0BC01CD010E94DC2DDA01C90191
:1045000089839A83AB83BC8389819A8180931120AC
:10451000909312208091132090911420AA2797FD48
:10452000A095BA2F89839A83AB83BC8389819A81B2
:10453000AB81BC8124E438E440E050E0BC01CD0113
:104540000E94962DDC01CB0120E137E240E050E0F3
:10455000BC01CD010E94DC2DDA01C90189839A8357
:10456000AB83BC8389819A8180931320909314201C
:104570008091152090911620AA2797FDA095BA2F1B
:1045800089839A83AB83BC8389819A81AB81BC8107
:1045900024E438E440E050E0BC01CD010E94962DB7
:1045A000DC01CB0120E137E240E050E0BC01CD016D
:1045B0000E94DC2DDA01C90189839A83AB83BC8315
:1045C00089819A81809315209093162080911720DD
:1045D00090911820AA2797FDA095BA2F89839A83D6
:1045E000AB83BC8389819A81AB81BC8124E438E4AC
:1045F00040E050E0BC01CD010E94962DDC01CB01D2
:1046000020E137E240E050E0BC01CD010E94DC2D0A
:10461000DA01C90189839A83AB83BC8389819A813A
:1046200080931720909318208091192090911A2040
:10463000AA2797FDA095BA2F89839A83AB83BC8361
:1046400089819A81AB81BC8124E438E440E050E068
:10465000BC01CD010E94962DDC01CB0120E137E2A7
:1046600040E050E0BC01CD010E94DC2DDA01C9011F
:1046700089839A83AB83BC8389819A818093192033
:1046800090931A2080911B2090911C20AA2797FDBF
:10469000A095BA2F89839A83AB83BC8389819A8141
:1046A000AB81BC8124E438E440E050E0BC01CD01A2
:1046B0000E94962DDC01CB0120E137E240E050E082
:1046C000BC01CD010E94DC2DDA01C90189839A83E6
:1046D000AB83BC8389819A8180931B2090931C209B
:1046E00080911D2090911E20AA2797FDA095BA2F9A
:1046F00089839A83AB83BC8389819A81AB81BC8196
:1047000024E438E440E050E0BC01CD010E94962D45
:10471000DC01CB0120E137E240E050E0BC01CD01FB
:104720000E94DC2DDA01C90189839A83AB83BC83A3
:1047300089819A8180931D2090931E2080911F2053
:1047400090912020AA2797FDA095BA2F89839A835C
:10475000AB83BC8389819A81AB81BC8124E438E43A
:1047600040E050E0BC01CD010E94962DDC01CB0160
:1047700020E137E240E050E0BC01CD010E94DC2D99
:10478000DA01C90189839A83AB83BC8389819A81C9
:1047900080931F20909320208091212090912220AF
:1047A000AA2797FDA095BA2F89839A83AB83BC83F0
:1047B00089819A81AB81BC8124E438E440E050E0F7
:1047C000BC01CD010E94962DDC01CB0120E137E236
:1047D00040E050E0BC01CD010E94DC2DDA01C901AE
:1047E00089839A83AB83BC8389819A8180932120BA
:1047F000909322202496CDBFDEBFCF91DF91089504
:10480000DF93CF9300D0CDB7DEB780917D2090911C
:104810007E208831910508F46CC080917D209091B4
:104820007E208831910531F4E0912720F0912820F5
:1048300009955FC080917D2090917E2089319105FE
:1048400008F457C00E94CC210E94751F0E9446198F
:104850000E94DD1C0E94061E0E94D71E0E943F1F60
:104860000E94A01F0E94EF2010927B2010927C20BB
:1048700010927D2010927E208091AA208130D9F460
:104880001A821A8214C08A81882F90E0FC01E058B5
:10489000FF4D208183EB91E2622F0E947916982FC1
:1048A00081E08927882379F78A818F5F8A838A81CB
:1048B0008D3048F31EC08091AA208230D1F4198235
:1048C000198214C08981882F90E0FC01E058FF4DC7
:1048D000208188E892E2622F0E947916982F81E069
:1048E0008927882379F789818F5F898389818D3032
:1048F00048F380917D2090917E20019680937D20C9
:1049000090937E200F900F90CF91DF910895DF93C9
:10491000CF93CDB7DEB72697CDBFDEBF8B839C8309
:104920006D837E8379C08B819C810E94EE168A8381
:1049300080917F208823C1F48A81853A19F01092F2
:104940007F206AC080917F20282F30E08D819E815A
:10495000820F931FFC013D968A81808380917F2086
:104960008F5F80937F2058C080917F208C3090F49F
:1049700080917F20282F30E08D819E81820F931FB0
:10498000FC013D968A81808380917F208F5F809398
:104990007F2042C080917F208C30E1F580917F2084
:1049A000282F30E08D819E81820F931FFC013D9660
:1049B0008A81808380917F208F5F80937F20ED812B
:1049C000FE81138E198214C0ED81FE81438D898191
:1049D000282F30E08D819E81820F931FFC013D9630
:1049E0008081840FED81FE81838F89818F5F898330
:1049F00089818C3048F3ED81FE81918DED81FE81BE
:104A0000838D981721F48D819E810E941925109223
:104A10007F2002C010927F208B819C810E94C9164A
:104A2000882309F080CF2696CDBFDEBFCF91DF91DE
:104A30000895DF93CF9300D00F92CDB7DEB78A836E
:104A40009B83EA81FB81868588230CF053C0EA8131
:104A5000FB818685837089838981882399F4EA8123
:104A6000FB818189EA81FB8185A7EA81FB818289BB
:104A7000EA81FB8181ABEA81FB818389EA81FB8149
:104A800084AB38C08981813099F4EA81FB818189C6
:104A9000EA81FB8186A7EA81FB818289EA81FB8129
:104AA00082ABEA81FB818389EA81FB8184A722C0F2
:104AB0008981823069F4EA81FB818189EA81FB8105
:104AC00087A7EA81FB818289EA81FB8183AB12C0DF
:104AD000EA81FB818189EA81FB8180ABEA81FB81EC
:104AE0008289EA81FB8185ABEA81FB818389EA8146
:104AF000FB8181AF2396CDBFDEBFCF91DF910895BB
:104B0000DF93CF93CDB7DEB76197CDBFDEBF8E8782
:104B10009F87688B798B8091DC208F5F8093DC206E
:104B20008091DC2083708093DC2085EA89838091EA
:104B3000DC208A83E889F989858DE889F989978D50
:104B4000692F0E9461268B83E889F989868DE8891F
:104B5000F98990A1692F0E9461268C838091DC20C5
:104B6000882379F4E889F98985A58D83E889F9890D
:104B700081A98E83E889F98984A98F8384E688874F
:104B800039C08091DC20813079F4E889F98986A5E3
:104B90008D83E889F98982A98E83E889F98984A5BA
:104BA0008F8384E6888726C08091DC20823081F460
:104BB000E889F98987A58D83E889F98983A98E8396
:104BC000E889F98980AD86958F838CEC888712C03F
:104BD0008091DC20833071F4E889F98980A98D8384
:104BE000E889F98985A98E83E889F98981AD8F8360
:104BF0008CEC8887E889F98982AD882F90E0880F4E
:104C0000991F82959295907F9827807F9827282FCB
:104C1000E889F98983AD882F90E087709070880FBC
:104C2000991F880F991F922F982BE889F98983ADD6
:104C30008370892B89878CEC8A878CEC8B878CEC32
:104C40008C871D861092DB2012C04D858091DB2061
:104C5000282F30E0CE010196FC01E20FF31F808186
:104C6000840F8D878091DB208F5F8093DB20809184
:104C7000DB208C3050F31092DB2019C08091DB20B8
:104C8000282F30E0CE010196FC01E20FF31F2081B6
:104C90008E859F85622F0E947916982F81E0892743
:104CA000882361F78091DB208F5F8093DB208091E8
:104CB000DB208D3018F36196CDBFDEBFCF91DF9141
:104CC0000895DF93CF93CDB7DEB72897CDBFDEBF72
:104CD0008B836C838B818130C9F48C81882F90E029
:104CE00089839A8389819A818D839E838D819E8118
:104CF00099232CF48D819E8101968D839E838D81D5
:104D00009E819595879589839A8321C08B81823076
:104D1000E1F48C81882F90E0909581959F4F898355
:104D20009A8389819A818F8398878F819885992327
:104D30002CF48F81988501968F8398878F81988531
:104D40009595879589839A8302C019821A828981F1
:104D50002896CDBFDEBFCF91DF910895DF93CF932B
:104D6000CDB7DEB72697CDBFDEBF8B839C836D8327
:104D70007E837DC08B819C810E94EE168A83809108
:104D8000DD208823C1F48A81853A19F01092DD2054
:104D90006EC08091DD20282F30E08D819E81820FB2
:104DA000931FFC013D968A8180838091DD208F5F77
:104DB0008093DD205CC08091DD208C3090F4809168
:104DC000DD20282F30E08D819E81820F931FFC0112
:104DD0003D968A8180838091DD208F5F8093DD20E6
:104DE00046C08091DD208C3009F03FC08091DD20ED
:104DF000282F30E08D819E81820F931FFC013D960C
:104E00008A8180838091DD208F5F8093DD20ED811A
:104E1000FE81148E198214C0ED81FE81448D89813A
:104E2000282F30E08D819E81820F931FFC013D96DB
:104E30008081840FED81FE81848F89818F5F8983DA
:104E400089818C3048F3ED81FE81918DED81FE8169
:104E5000848D981739F48D819E8120E830E2B90164
:104E60000E9444271092DD2002C01092DD208B8129
:104E70009C810E94C916882309F07CCF2696CDBF5D
:104E8000DEBFCF91DF910895DF93CF9300D000D0A4
:104E9000CDB7DEB789839A836B837C83E981FA81FE
:104EA00086858823BCF1E981FA81868582958F7099
:104EB0008823C9F4E981FA81878582958695877070
:104EC000EB81FC8182AFE981FA81878586958695A1
:104ED0008770EB81FC8183AFE981FA8187858370DC
:104EE000EB81FC8184AFE981FA8180898A3829F4D9
:104EF000EB81FC8181E085AF0DC0E981FA81808979
:104F00008B3829F4EB81FC8181E085AF03C0EB8114
:104F1000FC8115AE2496CDBFDEBFCF91DF91089501
:104F2000EF92FF920F931F937B018C0120E030E002
:104F300040E05FE40E943C2B88238CF0C801B7015D
:104F400020E030E040E05FE40E9408290E949C2BB2
:104F50009B01AC01205030404040504806C0C80181
:104F6000B7010E949C2B9B01AC01B901CA011F91A2
:104F70000F91FF90EF900895A0E0B0E0E2ECF7E22F
:104F80000C94192EDC012B01FA019C91923008F44B
:104F900039C1EB018881823008F433C1943069F45F
:104FA000843009F02FC111969C911197898198172F
:104FB00009F428C1A5E5B0E225C1843009F421C176
:104FC0008230A9F4923009F01DC19A01AD0188E048
:104FD000EA010990AE01E90109929E018150C1F7F1
:104FE000E201898111969C918923818308C19230C5
:104FF00009F407C112962D903C901397EB018A811A
:105000009B811496AD90BD90CD90DC901797EC806D
:10501000FD800E811F819101281B390BB90137FFDB
:1050200004C066277727621B730B603271050CF092
:1050300061C0121613066CF537014801062E04C034
:1050400096948794779467940A94D2F721E030E09D
:1050500040E050E004C0220F331F441F551F6A95E3
:10506000D2F721503040404050402E213F21402374
:105070005123211531054105510521F021E030E092
:1050800040E050E079018A01E628F728082919292B
:105090003CC0232BD1F1260E371E35014601062ECA
:1050A00004C096948794779467940A94D2F721E089
:1050B00030E040E050E004C0220F331F441F551F72
:1050C0006A95D2F721503040404050402A213B2180
:1050D0004C215D21211531054105510521F021E0CB
:1050E00030E040E050E059016A01A628B728C828FE
:1050F000D9280BC0821593052CF01C01AA24BB24CF
:10510000650103C0EE24FF24870111969C91D20112
:1051100011968C91981709F445C0992339F0A8018C
:1051200097012A193B094C095D0906C0A6019501A2
:105130002E193F09400B510B57FD08C011822282E6
:10514000338224833583468357831DC081E0818366
:105150002282338288279927DC01821B930BA40BC0
:10516000B50B84839583A683B7830DC0220F331FAD
:10517000441F551F2483358346835783828193813F
:105180000197828393832481358146815781DA0197
:10519000C9010197A109B1098F5F9F4FAF4FBF436D
:1051A00028F30BC0918322823382EA0CFB1C0C1D76
:1051B0001D1DE482F5820683178383E080832481AA
:1051C00035814681578157FF1AC0C901AA2797FD2B
:1051D000A095BA2F81709070A070B07056954795C9
:1051E00037952795822B932BA42BB52B84839583FE
:1051F000A683B78382819381019682839383DF01A3
:1052000001C0D201CD01CDB7DEB7E2E10C94352E5D
:10521000A0E2B0E0EEE0F9E20C94252E69837A83F7
:105220008B839C832D833E834F835887E9E0EE2E4A
:10523000F12CEC0EFD1ECE010196B7010E94C52C8B
:105240008E010F5E1F4FCE010596B8010E94C52C3E
:105250008A8991E089278A8BC701B801AE01475E30
:105260005F4F0E94BC270E94F02BA096E6E00C94B2
:10527000412EA0E2B0E0EFE3F9E20C94252E698321
:105280007A838B839C832D833E834F835887F9E0F9
:10529000EF2EF12CEC0EFD1ECE010196B7010E94FF
:1052A000C52C8E010F5E1F4FCE010596B8010E94DE
:1052B000C52CC701B801AE01475E5F4F0E94BC27F5
:1052C0000E94F02BA096E6E00C94412EA0E2B0E004
:1052D000ECE6F9E20C94192E69837A838B839C8324
:1052E0002D833E834F835887CE010196BE01675FB1
:1052F0007F4F0E94C52CCE010596BE016F5E7F4F89
:105300000E94C52C9985923088F089898230C8F036
:10531000943019F4823051F404C0843029F492306E
:1053200081F485E590E2C6C0923049F420E09A8588
:105330008A89981321E02A87CE010996BBC0823062
:1053400049F420E09A858A89981321E02A8BCE01BE
:105350004196B0C02D843E844F8458886D887E88E5
:105360008F88988CEE24FF248701AA24BB24650132
:1053700040E050E060E070E0E0E0F0E0C10181700A
:105380009070892BE9F0E60CF71C081D191D9A0195
:10539000AB012A0D3B1D4C1D5D1D80E090E0A0E09F
:1053A000B0E0E614F7040805190520F481E090E068
:1053B000A0E0B0E0BA01A901480F591F6A1F7B1F86
:1053C000AA0CBB1CCC1CDD1C97FE08C081E090E041
:1053D000A0E0B0E0A82AB92ACA2ADB2A3196E03236
:1053E000F10549F0660C771C881C991C569447946B
:1053F00037942794C3CFFA85EA892B893C898B851A
:105400009C85280F391F2E5F3F4F17C0CA0181703E
:105410009070892B61F016950795F794E79480E0DA
:1054200090E0A0E0B0E8E82AF92A0A2B1B2B769539
:105430006795579547952F5F3F4F77FDE7CF0CC096
:10544000440F551F661F771F17FD4160EE0CFF1CB0
:10545000001F111F21503040403090E0590790E06C
:10546000690790E4790760F32B8F3C8FDB01CA0159
:105470008F779070A070B07080349105A105B10550
:1054800061F447FD0AC0E114F1040105110529F09A
:10549000405C5F4F6F4F7F4F40781A8EFE1711F0C0
:1054A00081E08A8F4D8F5E8F6F8F78A383E0898F25
:1054B000CE0149960E94F02BA096E2E10C94352E85
:1054C000A8E1B0E0E6E6FAE20C94212E69837A8343
:1054D0008B839C832D833E834F835887B9E0EB2ECB
:1054E000F12CEC0EFD1ECE010196B7010E94C52CD9
:1054F0008E010F5E1F4FCE010596B8010E94C52C8C
:105500002985223008F47EC03989323010F4B80180
:105510007CC08A859A8989278A87243011F02230B5
:1055200031F4231709F06EC065E570E26EC03430C7
:1055300039F41D861E861F86188A1B861C8604C0A9
:10554000323021F484E08987B7015FC02B853C8528
:105550008B899C89281B390B2B873C87ED84FE8423
:105560000F851889AD88BE88CF88D88CEA14FB04D3
:105570000C051D0540F4EE0CFF1C001F111F2150EF
:1055800030402B873C8720E030E040E050E080E076
:1055900090E0A0E0B0E460E070E0EA14FB040C05E9
:1055A0001D0540F0282B392B4A2B5B2BEA18FB08F2
:1055B0000C091D09B695A79597958795EE0CFF1CCC
:1055C000001F111F6F5F7F4F6F31710531F7DA01D7
:1055D000C9018F779070A070B07080349105A105DB
:1055E000B10561F427FD0AC0E114F10401051105BC
:1055F00029F0205C3F4F4F4F5F4F20782D873E872B
:105600004F87588BBE01675F7F4FCB010E94F02B05
:105610006896EAE00C943D2EA8E1B0E0E2E1FBE2FE
:105620000C94252E69837A838B839C832D833E8300
:105630004F83588789E0E82EF12CEC0EFD1ECE0139
:105640000196B7010E94C52C8E010F5E1F4FCE013F
:105650000596B8010E94C52C8985823040F0898961
:10566000823028F0C701B8010E943D2D01C08FEFA4
:105670006896E6E00C94412EA8E1B0E0E2E4FBE29B
:105680000C94252E69837A838B839C832D833E83A0
:105690004F83588789E0E82EF12CEC0EFD1ECE01D9
:1056A0000196B7010E94C52C8E010F5E1F4FCE01DF
:1056B0000596B8010E94C52C8985823040F0898901
:1056C000823028F0C701B8010E943D2D01C08FEF44
:1056D0006896E6E00C94412EA8E1B0E0E2E7FBE238
:1056E0000C94252E69837A838B839C832D833E8340
:1056F0004F83588789E0E82EF12CEC0EFD1ECE0179
:105700000196B7010E94C52C8E010F5E1F4FCE017E
:105710000596B8010E94C52C8985823040F08989A0
:10572000823028F0C701B8010E943D2D01C081E000
:105730006896E6E00C94412EACE0B0E0E2EAFBE2D1
:105740000C94292E69837A838B839C83CE010196E6
:10575000BE016B5F7F4F0E94C52C8D81823061F14D
:10576000823050F1843021F48E81882351F12EC093
:105770002F81388537FD20C06E812F3131051CF017
:105780006623F9F023C08EE190E0821B930B2985FC
:105790003A854B855C8504C0569547953795279586
:1057A0008A95D2F76623B1F05095409530952195B2
:1057B0003F4F4F4F5F4F0EC020E030E040E050E0E1
:1057C00009C02FEF3FEF4FEF5FE704C020E030E06C
:1057D00040E050E8B901CA012C96E2E00C94452E55
:1057E000DF92EF92FF920F931F93FC01E480F5800C
:1057F00006811781D1808081823048F480E090E07A
:10580000A0E1B0E0E82AF92A0A2B1B2BA5C08430BE
:1058100009F49FC0823021F4EE24FF24870105C0E3
:10582000E114F1040105110519F4E0E0F0E096C07F
:10583000628173819FEF623879070CF05BC022E8C8
:105840003FEF261B370B2A3131052CF020E030E0EA
:1058500040E050E02AC0B801A701022E04C07695AE
:105860006795579547950A94D2F781E090E0A0E0BC
:10587000B0E004C0880F991FAA1FBB1F2A95D2F75A
:105880000197A109B1098E219F21A023B12300977F
:10589000A105B10521F081E090E0A0E0B0E09A011F
:1058A000AB01282B392B4A2B5B2BDA01C9018F77EF
:1058B0009070A070B07080349105A105B10539F4E5
:1058C00027FF09C0205C3F4F4F4F5F4F04C0215C52
:1058D0003F4F4F4F5F4FE0E0F0E02030A0E03A074D
:1058E000A0E04A07A0E45A0710F0E1E0F0E07901F7
:1058F0008A0127C06038710564F5FB01E158FF4F4C
:10590000D801C7018F779070A070B0708034910576
:10591000A105B10539F4E7FE0DC080E490E0A0E0F8
:10592000B0E004C08FE390E0A0E0B0E0E80EF91E24
:105930000A1F1B1F17FF05C016950795F794E794DC
:10594000319687E016950795F794E7948A95D1F7F5
:1059500005C0EE24FF248701EFEFF0E06E2F67957E
:1059600066276795902F9F77D794DD24D7948E2F45
:105970008695492F462B582F5D29B701CA011F91E3
:105980000F91FF90EF90DF900895FC01DB014081C3
:1059900051812281622F6F7770E0221F2227221F00
:1059A0009381892F880F822B282F30E0991F992708
:1059B000991F11969C93119721153105A9F5411551
:1059C00051056105710511F482E037C082E89FEF4F
:1059D00012968D939C9313979A01AB0167E0220F67
:1059E000331F441F551F6A95D1F783E08C930DC078
:1059F000220F331F441F551F12968D919C911397B0
:105A0000019712968D939C931397203080E038076E
:105A100080E0480780E4580758F314962D933D938F
:105A20004D935C93179708952F3F310579F44115F5
:105A300051056105710519F484E08C93089564FFA4
:105A400003C081E08C9312C01C9210C02F573040CD
:105A500012962D933C93139783E08C9387E0440F29
:105A6000551F661F771F8A95D1F7706414964D9362
:105A70005D936D937C93179708951F93DC01FB0151
:105A80009C91923008F447C08081823008F443C072
:105A9000943051F411961C91843099F58181682FCE
:105AA00070E0611B71093FC0843021F0923031F405
:105AB0008230B9F18181882389F12DC011961C9122
:105AC00011978230F1F081811817D9F412962D9137
:105AD0003C911397828193818217930794F0281742
