:020000040800F2
:1000000018170020350200083D0200083F020008D2
:1000100041020008430200084502000800000000F9
:10002000000000000000000000000000470200087F
:1000300049020008000000004B0200084D020008C1
:100040004F0200084F0200084F0200084F0200084C
:100050004F0200084F0200084F0200084F0200083C
:100060004F0200084F0200084F0200084F0200082C
:100070004F0200084F0200084F0200084F0200081C
:100080004F0200084F0200084F0200084F0200080C
:100090004F0200084F0200084F0200084F020008FC
:1000A0004F0200084F0200084F0200084F020008EC
:1000B00091130008C5130008FD1300084F02000843
:1000C0004F0200084F0200084F0200084F020008CC
:1000D0004F02000821160008D916000891170008E1
:1000E0004F0200084F0200084F0200084F020008AC
:1000F0004F0200084F0200084F0200084F0200089C
:100100004F0200084F0200084F0200084F0200088B
:10011000F9140008691500084F0200084F02000892
:100120004F0200084F0200084F0200084F0200086B
:100130004F0200084F0200084F0200084F0200085B
:100140004F0200084F0200084F0200084F0200084B
:100150004F0200084F0200084F020008D91800089B
:100160004F0200084F0200084F0200084F0200082B
:100170004F0200084F0200084F0200084F0200081B
:100180004F0200084F02000800F002F800F042F8A9
:100190000AA090E8000C82448344AAF10107DA45E2
:1001A00001D100F037F8AFF2090EBAE80F0013F0F2
:1001B000010F18BFFB1A43F0010318470C9700000A
:1001C0002C970000103A24BF78C878C1FAD852079B
:1001D00024BF30C830C144BF04680C6070470000C1
:1001E0000023002400250026103A28BF78C1FBD840
:1001F000520728BF30C148BF0B6070471FB509F0D8
:1002000017FA9DE8030000F097F900F081F81FBD90
:1002100010B510BD00F0D3F91146FFF7EFFF08F05D
:10022000FBFB00F00BFA03B4FFF7F2FF03BC00F096
:1002300043FA00000948804709480047FEE7FEE707
:10024000FEE7FEE7FEE7FEE7FEE7FEE7FEE7FEE786
:1002500004480549054A064B70470000351300085D
:100260008901000818030020181700201813002027
:100270001813002010B54C1084EA530404D54042F2
:10028000C1F1000138BF491E1B4204D55242C3F1DF
:10029000000338BF5B1E00F0A7F814F0804F04D0B5
:1002A0004042C1F1000138BF491E14F0004F04D094
:1002B0005242C3F1000338BF5B1E10BD4FF0000275
:1002C00000B5134694469646203922BFA0E80C504C
:1002D000A0E80C50B1F12001BFF4F7AF090728BF27
:1002E000A0E80C5048BF0CC05DF804EB890028BFA3
:1002F00040F8042B08BF704748BF20F8022B11F0CC
:10030000804F18BF00F8012B704770477047704747
:1003100070B5064C7C44064D7D4403E020682044C3
:100320008047241DAC42F9D170BD0000D09500007B
:10033000D495000000487047EC02002070B50646D6
:1003400000F0DAF8056806F10B0020F00704B4426B
:100350009CBF002070BD2B466A68BAB11068A042ED
:1003600010D304F1080188423CBF5068586007D39D
:100370005168101941601168091B016058601460D0
:10038000101D70BD13465268002AE7D12146284649
:1003900000F0BEF80028DED170BD70B50446051F20
:1003A00000F0AAF80068002C14BF446870BD002C4F
:1003B00018BFA54284BF20466468F8D801680A18AF
:1003C000AA4218BF456003D12A680546114401605E
:1003D00028684119A1421CBF6C6070BD61686960EA
:1003E00021680844286070BD53EA020C00F069805F
:1003F0002DE9F04B4FF00006002B1FBFB3FA83F539
:1004000003FA05F424FA05F65E4012BF1643B2FA69
:1004100082F502FA05F4C5F120051EBF22FA05FC9B
:1004200044EA0C04203556EA044C4FEA144418BF41
:10043000641C4FF000084FF00009904271EB030C70
:1004400039D3002919BFB1FA81F701FA07F6B0FADA
:1004500080F700FA07F6C7F120071EBF20FA07FC55
:1004600046EA0C062037B6FBF4FCA7EB0507103F65
:1004700007F01F0BCBF120060CFA0BFB2CFA06F64B
:1004800044BFB3460026202FA4BF5E464FF0000BAA
:100490005BEA060C08BF4FF0010B19EB0B09ABFB35
:1004A000027C48EB0608C01B06FB02CC0BFB03CC0E
:1004B00071EB0C01C1E70B46024641464846BDE8D8
:1004C000F08B13B54FF000004FF00001AFF3008048
:1004D000BDE81C40704710B500F012F8006810BD70
:1004E00010B5044600F00CF8046010BD00F05AB8D6
:1004F00000487047B802002000487047C002002042
:1005000000487047B8020020704770477047704736
:1005100038B504460A4600206946AFF3008000283B
:1005200008BF38BD02460099204600F06DF8012052
:1005300038BD012000F090B8F8B5AFF30080054653
:1005400000200C46102000BF0646A819A0420DD975
:10055000324669460020AFF30080070008BF00F074
:100560007BF80098A04218BF0546C419FFF7C4FFE6
:1005700005600746F01D20F007004619284600F0E8
:100580000AF8B44208BFF8BDA21B31463868BDE87E
:10059000F84000F039B800210160C0E9011070474F
:1005A0001020704710B500F062F8016919B10022FF
:1005B0000261884701E08068804700F045F8754691
:1005C000FFF796FFAE4605006946534620F0070048
:1005D000854618B020B5FFF73BFEBDE820404FF040
:1005E00000064FF000074FF000084FF0000B21F01D
:1005F0000701AC46ACE8C009ACE8C009ACE8C009EA
:10060000ACE8C0098D467047034640688C46002818
:1006100018BF814284BF03464068F8D81868184460
:10062000884207D00CF1030020F00700001D411A9A
:10063000521A0146081D0A60FFF7AFBE0446AFF329
:1006400000802046FFF7EFFD002000F046F8FFF79E
:10065000DFFD012000F030F810B500F045F8BDE8EE
:10066000104000F035B8000010B5FFF7EDFF70B591
:1006700000F02AF804680546A4B92020FFF75EFEC2
:10068000040011D0094900202C60C4E90001084988
:10069000A1602073206160610649A06109B100F08A
:1006A0004BF8E061204670BDFFF7CEFF0000000070
:1006B000690600080000000001491820ABBEFEE7F3
:1006C000260002007047000000487047F402002036
:1006D000002801D0FFF7F0BF704710B500F064F8B4
:1006E000BDE81040FFF7F4BF10B5012805D0002188
:1006F00003A000F03FF8012010BD09A1F8E70000B9
:1007000053494752544D454D3A204F7574206F66FA
:100710002068656170206D656D6F72790000000062
:100720003A2048656170206D656D6F727920636F46
:10073000727275707465640010B58820FFF7FEFD55
:10074000002801D00021017010BD802902D808B115
:10075000017809B100207047012100F8081B70479B
:1007600018B100F10802914201D000207047002129
:100770000170704770B505460C460A2000E06D1CFC
:1007800000F02AF835B128780028F8D102E0641C7E
:1007900000F022F814B120780028F8D1BDE87040AC
:1007A0000A2000F019B8000010B5002102A0FFF7E0
:1007B000E1FF012010BD0000534947414252543A25
:1007C0002041626E6F726D616C207465726D696E2E
:1007D0006174696F6E00000008B569468DF800000D
:1007E0000320ABBE08BD0029816802D041F00101A1
:1007F00001E021F00101816070470000074B10B556
:100800001A6807490A40D0E900142143D0E90240A0
:10081000044321431143196010BD0000042301402B
:10082000E030FCFF0029816802D041F4807101E0D2
:1008300021F48071816070470029816802D041F401
:10084000007101E021F400718160704730B54268A9
:100850000F4B0C791A400B6842EA042213434360A1
:1008600082680C4B4D791A40D1E9034323438C68CD
:1008700044EA4504234313438360C26A097D22F49A
:100880007002491EC9B242EA0151C16230BD000086
:10089000FFFEFFFCFDF7FFC070B5072409290AD948
:1008A000C568A1F10A0606EB4606B440A543B3406D
:1008B0001D43C56007E0056901EB4106B440A5434F
:1008C000B3401D4305611F23072A09D2446B521E02
:1008D00002EB820293409C4391400C43446370BD01
:1008E0000D2A09D2046BD21F02EB820293409C4373
:1008F00091400C43046370BDC46A0D3A02EB82025E
:1009000093409C4391400C43C46270BD816841F0A8
:10091000804181607047000010B50A4C0122072316
:1009200011462046FFF7B8FF01212046FFF784FF5C
:1009300001212046FFF776FF2046BDE81040012147
:10094000FFF751BF002001401FB500204FF4804148
:100950000090CDE9010103906846FFF74FFF1FBDEE
:1009600010B590B012490020CDE900011149CDE940
:1009700002100A21CDE904104FF48061069149006C
:10098000079189000891491109914902CDE90A109E
:100990000121CDE90C10084C0E906946204600F06C
:1009A00055F80121204600F047F810B010BD0000B6
:1009B0004C200140A4020020106402401CB502201B
:1009C000009003208DF8040000208DF80700694690
:1009D000014800F07BF81CBD0000024010B5012169
:1009E000094800F027F90121080200F03BF9FFF760
:1009F000B7FFFFF7E3FFFFF7A7FF00F007F8BDE839
:100A00001040FFF789BF00000100400000B587B02B
:100A10000020012100908DF804108DF8051002903F
:100A200004908DF8141069460248FFF70FFF07B0D5
:100A300000BD0000002001400029016802D041F003
:100A4000010101E021F001010160704730B5036848
:100A5000124ACC6813400A682243D1E905452C4369
:100A60002243CC6922430C6A22434C6A22438C6A9B
:100A700022434C6B22438C6B22431A43026042692F
:100A800022F00703D1E90B2422431A4342610A6989
:100A900042604A6882608968C16030BD3F801CF056
:100AA0000021084A084600BF32F91030401CC0B28D
:100AB00019440A28F8D30A2091FBF0F00249088073
:100AC00070470000A4020020A6000020F0B500231B
:100AD000012403270D6804FA03F21540954242D120
:100AE000D0F800C05E0007FA06F52CEA050CC0F845
:100AF00000C091F804C0D0F800E00CFA06FC4CEA03
:100B00000E0CC0F800C091F804C0BCF1010F02D077
:100B1000BCF1020F1FD1D0F808C02CEA050CC0F8B8
:100B200008C091F805C0D0F808E00CFA06FC4CEAC1
:100B30000E0CC0F808C0D0F804C02CEA020CC0F8B3
:100B400004C0426891F806C00CFA03FC1FFA8CFC42
:100B500042EA0C024260C268AA43C260CA79C56810
:100B6000B2402A43C2605B1C102BB3D3F0BD4B07CD
:100B7000DB0E9A40C90810B500EB8100016A0F2412
:100B80009C40A1430162016A1143016210BD02460B
:100B9000002012690A4200D001207047024600205E
:100BA00052690A4200D00120704741837047018397
:100BB00070470AB1018370474183704770B50F21B8
:100BC000C478027801234FF0E026E4B1124C246887
:100BD00004F4E064C4F5E064C4F30724C4F104053C
:100BE000E1404478AC4085780D4025430B4C290109
:100BF0001155007800F01F018B40400906EB800082
:100C0000C0F8003170BD02F01F008340500906EBB0
:100C10008000C0F8803170BD0CED00E000E400E021
:100C20000249084302490860704700000000FA05C5
:100C30000CED00E0044A0029116801D0014300E0F6
:100C4000814311607047000030380240044A002997
:100C5000116801D0014300E081431160704700003A
:100C600040380240044A0029116801D0014300E0E5
:100C700081431160704700004438024070B5204A3B
:100C80001168204C11F00C0104D06610042903D027
:100C9000082903D004601BE0066019E01849091F09
:100CA0000B68C3F380550B6803F03F0315B1B6FB27
:100CB000F3F301E0B4FBF3F30C680968C4F38814A0
:100CC0006343C1F30141491C4900B3FBF1F10160E9
:100CD00011680F2303EA11110B4B5C5C0168E140C2
:100CE00041601468072505EA94241C5D21FA04F488
:100CF0008460126805EA52329A5CD140C16070BDCE
:100D0000083802400024F400A80000207CB501212E
:100D10000846FFF78FFF01210220FFF78BFF01211B
:100D20000420FFF787FF01210820FFF783FF01213F
:100D30001020FFF77FFF01212020FFF77BFF01211B
:100D40004020FFF777FF264D002423460122022191
:100D50001020CDE9004500F049F8002301220221CE
:100D60002020CDE9004500F041F81E4E0221CDE9DA
:100D7000004600230122480200F038F8CDE9004681
:100D8000022100230122084600F030F8CDE9004698
:100D9000012200230221104600F028F8022100233E
:100DA0000122C801CDE9004500F020F80E4D0023D6
:100DB0001A4602210420CDE9004500F017F800236F
:100DC000012202211020CDE9004500F00FF8002398
:100DD0001A4602212020CDE9004500F007F87CBD2D
:100DE00000000240000C0240000802401CB5059BB8
:100DF0008DF8042000908DF8051069461846FFF71D
:100E000065FE1CBDF0B52D4D074687B029462C4820
:100E100000F03EFE0021284600F09CFD012110203C
:100E2000FFF720FF01210846FFF704FF254C0722AA
:100E300009212046FFF79BFE07220A212046FFF7E3
:100E400096FE01260222CDE900640023114610021D
:100E5000FFF7CCFF0222CDE90064002311465002C7
:100E6000FFF7C4FF01210846FFF7E4FE02A800F0E7
:100E700043FE0020ADF80C00ADF80E00ADF81000F8
:100E8000ADF814000C20ADF81200029702A9284614
:100E900000F0A2FD01220021252000F0D9F9012255
:100EA00040F22551284600F07EFD012240F22661E5
:100EB000284600F078FD07B0F0BD000000100140AA
:100EC000F4000020000002402DE9FC41254E0746B9
:100ED0003146254800F0DCFD0021304600F03AFDA7
:100EE00001214804FFF7B2FE01210846FFF7A2FEE8
:100EF0001E4C072202212046FFF739FE072203215C
:100F00002046FFF734FE0125CDE9005402220023DC
:100F100011460420FFF76AFFCDE9005402220023A6
:100F200011460820FFF762FF01210846FFF782FE05
:100F30000C223946304600F073F9022200212620A7
:100F400000F086F9012240F22551304600F02BFDD9
:100F500002B03046BDE8F041012240F2266100F0C7
:100F600022BD0000004400403C010020000002407F
:100F70002DE9FC41254E07463146254800F088FD05
:100F80000021304600F0E6FC01218804FFF75EFEF8
:100F900001210820FFF74EFE1E4C072208212046A3
:100FA000FFF7E5FD072209212046FFF7E0FD0125B7
:100FB0000222CDE9005400231146D001FFF716FFAD
:100FC0000222CDE90054002311461002FFF70EFF64
:100FD00001210820FFF72EFE0C223946304600F092
:100FE0001FF903220021272000F032F9012240F2EC
:100FF0002551304600F0D7FC02B03046BDE8F04144
:10100000012240F2266100F0CEBC00000048004002
:1010100084010020000C02402DE9FC41254E0746CA
:101020003146254800F034FD0021304600F092FCA6
:101030000121C804FFF70AFE01210420FFF7FAFD91
:101040001E4C08220A212046FFF791FD08220B21A1
:101050002046FFF78CFD00250222CDE900542B46E7
:1010600011465002FFF7C2FE0222CDE900540023D0
:1010700011469002FFF7BAFE01210820FFF7DAFDC2
:101080000C223946304600F0CBF8002211463420BD
:1010900000F0DEF8012240F22551304600F083FCDA
:1010A00002B03046BDE8F041012240F2266100F076
:1010B0007ABC0000004C0040CC0100200008024037
:1010C0002DE9FC41284D07462946284800F0E0FC60
:1010D0000021284600F03EFC01210805FFF7B6FD7F
:1010E00001210420FFF7A6FD01210820FFF7A2FD42
:1010F0001F4C08220C212046FFF739FD1D4E082207
:1011000002213046FFF733FD20460124CDE900409F
:10111000022200231146D002FFF768FECDE9004607
:101120000222002311460420FFF760FE012108205F
:10113000FFF780FD0C223946284600F071F80322A3
:101140000021352000F084F8012240F22551284684
:1011500000F029FC02B02846BDE8F041012240F22F
:10116000266100F020BC0000005000401402002066
:1011700000080240000C02402DE9FC41254E0746C4
:101180003146254800F084FC0021304600F0E2FBA7
:1011900001212020FFF766FD01210420FFF74AFD11
:1011A0001E4C082206212046FFF7E1FC08220721F9
:1011B0002046FFF7DCFC0125CDE900540222002384
:1011C00011464020FFF712FECDE900540222002311
:1011D00011468020FFF70AFE01210846FFF72AFD8D
:1011E0000C223946304600F01BF8002211464720F9
:1011F00000F02EF8012240F22551304600F0D3FBDA
:1012000002B03046BDE8F041012240F2266100F014
:10121000CABB0000001401405C020020000802402C
:101220007FB5064614460D46684600F065FC002171
:10123000ADF80410ADF80810ADF80610ADF80C10BC
:101240000095ADF80A406946304600F0C5FB7FBD09
:1012500008B58DF800008DF801108DF802200120EE
:101260008DF803006846FFF7A9FC08BD0CB5002007
:101270002749019000900A6842F480320A604FF4D6
:10128000A0630A6802F400320092019A521C019293
:10129000009A12B9019A9A42F3D10A68920334D59E
:1012A000012000901A484030026842F080520260EB
:1012B0001848026842F4804202601548083002680B
:1012C0000260026842F400420260026842F4A052E6
:1012D0000260031F104A1A600A6842F080720A60B6
:1012E0000A689201FCD50D4A40F20561116001685F
:1012F00021F003010160016841F002010160016811
:10130000C1F381010229FAD10CBD00900CBD00008F
:10131000003802400070004008544007003C024082
:1013200042F6DE6302E01946491EFDD2401EFAD2A3
:1013300070470000124810B5016841F47001016067
:101340001048016841F0010101600E4A0021083295
:10135000116002680C4B1A400260031D0B4A1A60B0
:10136000026822F48022026006480C300160FFF718
:101370007DFF03494FF000608039086010BD000018
:1013800088ED00E000380240FFFFF6FE1030002438
:1013900010B54FF08044204601F04AFA00280ED0E4
:1013A000204601F05AFA204601F05AFA0448006833
:1013B00001F0A8FA2046BDE8104001F058BA10BD6F
:1013C0000000002010B50B4C204601F031FA002837
:1013D0000ED0204601F041FA204601F041FA0648BD
:1013E000006801F009FB2046BDE8104001F03FBA5B
:1013F00010BD0000000400400000002010B50B4CA0
:10140000204601F015FA00280ED0204601F025FAFA
:10141000204601F025FA0648006801F091FB2046BD
:10142000BDE8104001F023BA10BD000000080040E4
:1014300000000020C94301827047C9430182704700
:101440000029018802D041F0010101E021F00101F1
:101450000180704702460020138A92890B4202EAFB
:10146000010202D0002A00D001207047002A8289A0
:1014700001D00A4300E08A438281704730B5028878
:10148000164B174C98420DD0A0420BD0B0F1804FB4
:1014900008D0144DA84205D0134DA84202D0134DD8
:1014A000A84203D122F070054A882A43104DA84271
:1014B00006D0104DA84203D022F440750A892A4371
:1014C00002804A68C2620A880285984201D0A0421E
:1014D00001D1897A01860121818230BD000001405D
:1014E000000401400004004000080040000C0040DF
:1014F000001000400014004070B5184C40F2255513
:101500002946204600F030FA30B12946204600F046
:101510001BFA134800F0D8FA40F2277529462046F6
:1015200000F022FA30B12946204600F00DFA0C48AE
:1015300000F066F940F226652946204600F014FACC
:10154000002809D02946204600F0FEF9BDE8704089
:1015500002210448FFF729BB70BD0000004C004089
:10156000CC010020000C024070B5184C40F225550B
:101570002946204600F0F8F930B12946204600F00F
:10158000E3F9134800F0A0FA40F2277529462046F7
:1015900000F0EAF930B12946204600F0D5F90C48B0
:1015A00000F052F940F226652946204600F0DCF9A9
:1015B000002809D02946204600F0C6F9BDE8704051
:1015C00001210448FFF7F1BA70BD0000005000404F
:1015D00014020020000C024070B50446051D90F86E
:1015E000470095F94210814205D12068818921F098
:1015F0008001818170BD10210848FFF7D8FA94F965
:10160000471005F12000085C2168888015F8430F19
:10161000401C00F01F00287070BD00000000024058
:1016200070B5184C40F225552946204600F09CF92B
:1016300030B12946204600F087F9134800F044FAFB
:1016400040F227752946204600F08EF930B1294630
:10165000204600F079F90C48FFF7BEFF40F22665FE
:101660002946204600F080F9002809D02946204666
:1016700000F06AF9BDE8704010210448FFF795BA00
:1016800070BD000000100140F40000200000024086
:1016900070B50446051D90F8470095F94210814247
:1016A00005D12068818921F08001818170BD2021D0
:1016B0000848FFF77CFA94F9471005F12000085C10
:1016C0002168888015F8430F401C00F01F00287027
:1016D00070BD00000000024070B5184C40F2255566
:1016E0002946204600F040F930B12946204600F056
:1016F0002BF9134800F0E8F940F2277529462046F7
:1017000000F032F930B12946204600F01DF90C48AE
:10171000FFF7BEFF40F226652946204600F024F977
:10172000002809D02946204600F00EF9BDE8704097
:1017300020210448FFF739BA70BD00000044004082
:101740003C0100200000024070B50446051D90F8E1
:10175000470095F94210814205D12068818921F026
:101760008001818170BD4FF480610848FFF71FFA46
:1017700094F9471005F12000085C2168888015F86D
:10178000430F401C00F01F00287070BD000C024089
:1017900070B5184C40F225552946204600F0E4F873
:1017A00030B12946204600F0CFF8134800F08CF9FC
:1017B00040F227752946204600F0D6F830B1294678
:1017C000204600F0C1F80C48FFF7BEFF40F2266546
:1017D0002946204600F0C8F800280AD029462046AD
:1017E00000F0B2F8BDE870404FF480610348FFF7A5
:1017F000DCB970BD0048004084010020000C0240AC
:1018000070B50446051D90F8470095F942108142D5
:1018100005D12068818921F08001818170BD02217C
:101820000848FFF7C4F994F9471005F12000085C57
:101830002168888015F8430F401C00F01F002870B5
:1018400070BD0000000C024070B50446051D90F804
:10185000470095F94210814205D12068818921F025
:101860008001818170BD01210848FFF7A0F994F93A
:10187000471005F12000085C2168888015F8430FA7
:10188000401C00F01F00287070BD0000000C0240DA
:1018900070B50446051D90F8470095F94210814245
:1018A00005D12068818921F08001818170BD4FF4CC
:1018B00080710848FFF77BF994F9471005F1200083
:1018C000085C2168888015F8430F401C00F01F0059
:1018D000287070BD0000024070B5184C40F22555CC
:1018E0002946204600F040F830B12946204600F055
:1018F0002BF8134800F0E8F840F2277529462046F7
:1019000000F032F830B12946204600F01DF80C48AE
:10191000FFF7BEFF40F226652946204600F024F876
:1019200000280AD02946204600F00EF8BDE8704095
:101930004FF480710348FFF738B970BD00140140BF
:101940005C020020000002400A0A01219140C943C4
:10195000018070470029818902D041F4005101E0E3
:1019600021F400518181704730B501F01F0201243C
:101970000025C1F3421304FA02F2012B0FD0022B0F
:101980000FD0838A4FEA11210088134204FA01F430
:1019900000EA040001D000B10125284630BD83894A
:1019A000F0E7038AEEE710B5C1F3421301F01F041C
:1019B0000121A140012B07D0022B07D01430002AAF
:1019C000026805D00A4304E00C30F8E71030F6E76F
:1019D0008A43026010BD00007FB50446008A0D46B0
:1019E00020F44051E88808432082A08941F20C612C
:1019F0008843A9882A8911436A8902431143A18136
:101A0000A08A20F44071A8890843A0826846FFF7A5
:101A100035F91D48844202D01C48844201D1039804
:101A200000E00298A1890904002900EBC00101EB44
:101A30000010296802DA4FEA410101E04FEA810112
:101A4000B0FBF1F26420B2FBF0F14FEA01114FEA72
:101A500011136FF018056B4302EB8302A3891D0479
:101A60004FF0320306D503EBC202B2FBF0F000F0F8
:101A7000070005E003EB0212B2FBF0F000F00F00EC
:101A8000084320817FBD0000001001400014014088
:101A900040F8281B002141770177C1778177704793
:101AA00010F8441F4078814201D001207047002087
:101AB0007047011D90F94500085C11F8412F521C38
:101AC00002F01F020A70704730B500F1440211782D
:101AD0005278491C01F01F0103689B889142DBB2D8
:101AE00001D1002206E090F944500122041D2B553B
:101AF00080F84410104630BD4FF4165101600021AB
:101B00008180C18001810C2242818181704710F85F
:101B1000461F491C407801F01F01814201D001207D
:101B200070470020704730B50C460346021DFFF792
:101B3000EEFF01000ED092F84200151885F8204003
:101B4000401C00F01F0082F842001868828942F0B1
:101B500080028281084630BD7CB5017A05460124A9
:101B600004FA01F02146FFF765F828680023CDE963
:101B70000040A888012280B21946FFF737F97CBDE2
:101B8000002100F011B810B50446808881B22068A9
:101B9000FFF704F8C0F10100C2B2A08881B220684A
:101BA000BDE81040FFF705B805C8002991B201D083
:101BB000FEF7FBBFFEF7FBBF10B504461948C4E9AA
:101BC0000012814201D1002026E01748814201D154
:101BD000012021E01548814201D102201CE0144877
:101BE000814201D1032017E01248814201D1042033
:101BF00012E01148814201D105200DE00F488142D9
:101C000001D1062008E00E48814201D1072003E0FF
:101C10000C48814201D10820A0602046FFF79CFFBC
:101C2000204610BD000002400004024000080240AF
:101C3000000C024000100240001402400018024054
:101C4000001C024000200240406801280ED00228FB
:101C50000FD0032810D0042811D0052812D0062850
:101C600013D10A48012100BFFFF774BE01210848C3
:101C7000FAE701210748F7E701210748F4E70121C6
:101C80000648F1E701210648EEE7704700140140DD
:101C9000001001400044004000480040004C00405B
:101CA000005000402DE9F04116460D46074600243D
:101CB00006E0295D384600F00CF80028F9D0641CD5
:101CC000B442F6DBBDE8F0810068FFF7F2BE406881
:101CD000704710B50068FFF726FF002800D00120EC
:101CE00010BD10B50068FFF7DBFE002800D0012012
:101CF00010BD000010B504461046C4E901120129C8
:101D00000AD002290DD0032910D0042913D00529A7
:101D100016D0062919D01CE00F492160FFF772F890
:101D200017E00E492160FFF7CFF812E00C4921605F
:101D3000FFF71EF90DE00B492160FFF76DF908E090
:101D400009492160FFF7BCF903E008492160FFF76A
:101D500013FA204610BD0000F40000203C010020D2
:101D600084010020CC010020140200205C0200202D
:101D70002DE9F04700258146A846FFF7A8FF401E41
:101D8000C4B2354E5EE04846FFF79EFF014656F866
:101D9000240005F0AEFC56F8240005F0A3FC56F82C
:101DA000240005F0A3FCA4284CD1A43556F8240047
:101DB00005F098FC56F8240005F098FC2844C5B2BC
:101DC00056F8240005F08EFC56F8240005F08EFC31
:101DD00040062ED55FF0000756F8240005F086FC7B
:101DE0002844C5B256F8240005F07CFC7F1C032F64
:101DF000F2DB56F8240005F079FCA84214D116490C
:101E0000002504EB4400243901EB400756F8240078
:101E100005F068FC56F8240005F068FC78556D1C48
:101E2000062DF3DB4FF0010856F8240005F05AFCAC
:101E300007E056F8240005F05FFC56F8240005F092
:101E40005BFC00254846FFF74CFF414630EA08009E
:101E500099D10846BDE8F087DC00002010B50446A3
:101E6000217A6068FFF735FF0028F9D0617A606851
:101E7000FFF72FFF0028F9D0A17A6068FFF729FF4C
:101E80000028F9D0E06841786068FFF722FF002859
:101E9000F8D0E06801786068FFF71BFF0028F8D0F1
:101EA000207A617A0844A17A0844E1684A7809787E
:101EB00010440844C1B26068FFF70BFF0028EFD060
:101EC00010BD19B9427C0AB1082A00D34174704789
:101ED000024900EB400001EB40007047B8000020D1
:101EE000427C082A00D24174704700210174704777
:101EF00010B504460A48C4E90001022005F02EFC92
:101F0000014600200880A422E16022726072A07263
:101F10000870E168487020746074204610BD0000AD
:101F200050980008418370474A1E092A16D2C9B248
:101F3000002241F020038372012907D0062907D02F
:101F4000092907D0C1680A80FFF788BF818A02E0AB
:101F5000C18A00E0018BC2681180F5E7704710B5B7
:101F60000446481E0C282AD2C8B20021A0720D28AF
:101F70001AD2DFE800F0190707090D0F1113151722
:101F800017171700608B00E0A08BE16808800BE05A
:101F9000E08BFAE7208CF8E7608CF6E7A08CF4E79A
:101FA000E08CF2E7E06801802046FFF757FF207CD5
:101FB000401CC0B22074152801D91520207410BD12
:101FC000B0F91210B1F5FA7F01DA012100E0032126
:101FD000FFF7C5BF428B002112B181834182704758
:101FE000428A40F6AC53521C12B242829A42F6DD4B
:101FF0004FF4FA724282818370472DE9F05F8B467D
:102000000025DDE90A1CDDE90CAE2C46AD1A9C4129
:1020100002DA14461D4603E00025544265EB030531
:10202000322700263C1BAE4173DA00252C46AD1A40
:102030009C4102DA16461F4603E00027564267EB32
:1020400003074FF42F750024AD1BBC4109DAB0F92A
:102050002E20A2FB0104D31703FB014102FB0C114C
:102060004BE000252C46AD1A9C4102DA9046994679
:1020700005E04FF00009D2F1000869EB03094FF4C5
:10208000E1750024B5EB080574EB09040ADAB0F930
:102090003000A0FB0134C21702FB014100FB0C1110
:1020A000122218E000252C46AD1A9C4103DB0024C7
:1020B000524264EB0303C825AA1AB0F93000002489
:1020C0009C41A0FB01344FEAE07202FB01410ADAB5
:1020D00000FB0C110F22A3FB020501FB025100249F
:1020E00003FB041109E000FB0C140521A3FB01050F
:1020F00004FB0151002203FB021152467346FEF716
:10210000B9F8DC46BDE8F04F00B25DF804EB60477B
:10211000FFE700214183BDE8F09F2DE9F05F0AACA5
:102120008246B4E8031000252C46DDF834B0AD1A21
:102130009C4102DA14461D4603E00025544265EB3B
:102140000305322700263C1BAE4174DA00252C46DD
:10215000AD1A9C4102DA16461F4603E0002756429C
:1021600067EB03074FF42F750024AD1BBC410CDA5D
:10217000BAF92E20A2FB0045D31703FB005002FB47
:10218000010162465B4620464DE000252C46AD1A13
:102190009C4102DA9046994605E04FF00009D2F1E1
:1021A000000869EB03094FF4E1750024B5EB08055D
:1021B00074EB09040ADABAF93020A2FB0045D31700
:1021C00003FB005002FB0101122318E000252C46FE
:1021D000AD1A9C4103DB0024524264EB0303C82583
:1021E000AA1A0024BAF930209C41A2FB00454FEA0C
:1021F000E27303FB00500ADA02FB01010F23A4FB88
:10220000030501FB0351002204FB021109E002FB5C
:1022100001020523A4FB030502FB0352002104FB7A
:10222000012162465B46FEF725F801B25046BDE843
:10223000F05F00F02DB80020AAF81A00BDE8F09F6A
:102240002DE9F0410025DDE90617DDE9086C2C4693
:10225000AD1A9C4103DB0025524265EB03030525C3
:102260000024AA1A9C4110DAB0F92E200446A2FBE1
:102270000105D31703FB015102FB071132466346E8
:10228000FDF7F8FF6083BDE8F08100214183FAE7A4
:102290004A1EC72A01D2C82104E011F1C70201D3A6
:1022A0006FF0C7014183704710B5FFF721FE0B495E
:1022B000016000214183C185018681838182C182C1
:1022C0000183C183018441848184C1840185418566
:1022D00081854FF4FA71418210BD000060980008BA
:1022E00010B5044604210C48FEF751FC0B490023AD
:1022F0004A7882420CD00A78642A06D9487008B11C
:10230000A37406E00120A07403E0521C0A7000E0F0
:102310000B70A07C10BD000000080240A00000204F
:10232000C17C044800294FF0100101D0FEF73DBCEC
:10233000FEF73DBC0008024010B50446807A00F06C
:10234000F00040F00200A072E26800201080E06817
:1023500001702046FFF782FD207C401CC0B2207433
:10236000142801D91420207410BD10B50446807AB9
:1023700000F0F00040F00300A072E268002010803E
:10238000E2681170E16848702046FFF767FD207C25
:10239000401CC0B22074142801D91420207410BD30
:1023A00010B5FFF7A5FD0649016003214172817A4E
:1023B00041F0300181720021C174817410BD0000B0
:1023C000709800081CB508A2D2E90012CDE90012ED
:1023D000817C8DF80410BC318DF805104068062210
:1023E0006946FFF75FFC1CBDA40117000000000058
:1023F000822901D9052102E07F2902D904218174B3
:1024000070477C2901D90321F9E7792901D90221F3
:10241000F5E7762901D90121F1E70021EFE7000076
:1024200010B5FFF765FD024901600121817410BDFF
:102430008098000810B50446807CA072E168A07DF9
:102440000870E168607D48702046FFF707FD207C3A
:10245000401CC0B22074142801D91420207410BD6F
:1024600010B5FFF745FD064901600A2141720021C0
:102470008172C174017541758175817410BD000050
:10248000909800082DE9F0410025884604462F4623
:102490003EE04046FFF718FC0146206905F029F9A7
:1024A000206905F01FF9206905F020F9A5282FD132
:1024B000A535EEB2206905F015F9206905F016F989
:1024C000000621D40025206905F010F93044C6B279
:1024D000206905F007F96D1C0B2DF4DB206905F070
:1024E00005F9B0420CD10025206905F0FBF8206900
:1024F00005F0FCF8A16948556D1C0D2DF4DB012792
:10250000206905F0EFF802E0206905F0F5F80025F4
:102510004046FFF7E6FBB843BBD13846BDE8F08143
:102520002DE9F0410546C168FFF7ACFF0F4C0026CE
:1025300010B1268001210FE021884FF4FA77B942CB
:1025400003D2491C2180BDE8F0812846A968FFF725
:1025500099FF18B1668002216960F4E76188B94289
:1025600002D2491C6180EEE76E60ECE7A200002019
:1025700042684169012A03D080680D22FFF792BBAF
:10258000C068FAE710B5002244698B5CA354521C62
:102590000D2AF9DB10BD000070B504461148002576
:1025A000C4E90005C4E90221082005F0D7F80D218F
:1025B00005F0A6F820610D2005F0CBF860610D2034
:1025C00005F0C7F8A061002061690D54401C0D287A
:1025D000FADB0020A1690D54401C0D28FADB2046CF
:1025E00070BD0000A098000810B5044606F00AFA75
:1025F000C0F30B00608210BD10B5FEF7EFF9BDE827
:1026000010400148FEF782B90020014070B5044631
:102610000848C4E90001022005F0A0F80025058063
:10262000A060022005F09AF80580E06065822046EF
:1026300070BD0000B0980008202900D2C175704715
:10264000C17470478174704741757047052900D285
:10265000817570471CB50AA10446D1E90001CDE996
:102660000001062269466068FFF71CFB207C401CC5
:10267000C0B22074142801D9142020741CBD00009D
:10268000A40932A5E569000010B504460020E16800
:102690000880207D0028E068417802D041F00101E7
:1026A00001E001F0FE014170607D0028E0684178A2
:1026B00002D041F0200101E001F0DF014170A07C77
:1026C0000028E068417802D041F0400101E001F0CB
:1026D000BF014170E07C0028E068417802D041F001
:1026E000800101E001F07F014170E168E27D08783E
:1026F00010430870A27DE16840EA4210087020464D
:10270000FFF7ACFB207C401CC0B22074142801D918
:102710001420207410BD00001CB50AA10446D1E9A4
:102720000001CDE90001062269466068FFF7BAFAA8
:10273000207C401CC0B22074142801D914202074BD
:102740001CBD0000A40932B5F589000010B5FFF7E3
:10275000CFFB0749016009214172817A41F03101C3
:10276000817200218174C1740175417510BD000032
:10277000C09800083EB50446012956DB481E0428CF
:1027800002D240F28F102EE0481F052802D240F2FC
:102790001F3028E0A1F10A00282802D240F2DB50C5
:1027A00021E0A1F13200322802D240F65F101AE097
:1027B000A1F16400B0F5C87F02D241F2670012E0D7
:1027C000A1F5FA7040F6C412904202D242F2CF0054
:1027D00009E0A1F6B830B0F5FA6F02D244F29F10CA
:1027E00001E04AF20F40A08110484143A089401CFB
:1027F00091FBF0F0401EA0600190A089ADF80000B0
:102800000020ADF80800ADF8020020798DF80A002C
:1028100069462069FEF732FE01212069FEF70AFEB3
:10282000012211462069FEF721FE3EBD204801002D
:102830000121FEF70FBE08B50175427502788DF8CB
:1028400000208DF80110407D8DF8020001208DF8E8
:1028500003006846FEF7B2F908BD0121FEF7EDBDA1
:102860000021FEF7EDBD00690021FEF7E9BD012161
:10287000FEF7E6BD00690121FEF7E2BD10B5044692
:102880000161B1F1804F07D01A48814209D11D2062
:102890000121206002201BE01C200121206008464D
:1028A00016E01548814204D11E2001212060042039
:1028B0000EE01248814204D132200121206008201C
:1028C00006E00F48814205D13720206001212020F9
:1028D000FEF7BCF9002211462046FFF7ACFF0020AE
:1028E000207101212046FFF745FF2046FFF7BBFF7F
:1028F000204610BD0004004000080040000C0040CD
:102900000014004070B50446C06C00792076A06DBC
:10291000FFF7E6FC30B194F82400012802D12046EC
:1029200004F046FD94F82000012803D0207E012504
:1029300028B109E02046BDE8704001F039BF2046CB
:1029400001F018FD84F82150204601F04DFD94F867
:10295000230000284DD0204601F030FE94F82500D9
:10296000002846D0204600F053F994F826000028AD
:102970003FD0204604F028FC94F82400002838D0EA
:10298000E06CFFF7CDFD68B184F82150204602F0DD
:102990003FFF204604F0F8F9204603F03FFCE06CCE
:1029A000FFF7E6FD204602F01DF9204602F0ECFCA0
:1029B000204602F017FF0F4CA06DFFF70BFBE06DF8
:1029C000FFF708FB206EFFF705FB606EFFF702FBC9
:1029D000A06EFFF7FFFAE06EFFF7FCFA206FFFF73B
:1029E000F9FA606FFFF7F6FAA06FBDE87040FFF7E5
:1029F000F1BA70BD0800002070B5044602F018FA64
:102A000094F8240000286FD0204603F079F894F859
:102A10002300002868D0204603F016F994F825001A
:102A2000002861D0204602F0EBFB94F82600002835
:102A30005AD0204602F000F800287ED0204602F04E
:102A40007DFC002879D094F82100002875D03B4DFA
:102A5000A8780B2867D2DFE800F0061218262E3C73
:102A600042484C525600A86DFFF7AAFA207E08B1E2
:102A7000206D16E0216D00208883206D0FE0E86D49
:102A8000FFF79EFA0021A06D12E0286EFFF798FA7A
:102A9000207E0028606D04D100218183606D0321B8
:102AA00010E002210EE0686EFFF78AFA0121A06DA6
:102AB000FFF75BFC37E0A86EFFF782FA207E20B1BB
:102AC0000221686DFFF74BFA2DE0686D00218183CC
:102AD000E5E7E86EFFF774FA0221A06DE8E7286FDA
:102AE000FFF76EFA206D08E027E0686FFFF768FADD
:102AF00019E0A86FFFF764FA606D0921E2E7E06D65
:102B0000FFF7C2FD0FE0207E012802D1A06EFFF783
:102B100091FCE978A06D49B2FFF70EFCE878401C03
:102B200000F00300E870A878401CC0B2A8700B2821
:102B300003D10020A87084F8210070BD0800002097
:102B400010B50446806DFFF7EBFB606EFFF73AFCB3
:102B5000207E02280AD0207E012809D02069FFF7B4
:102B60000FF86069BDE81040FFF70AB8206900E07F
:102B70006069BDE81040FFF706B800002DE9F0419C
:102B8000214C40F2DC57214E226A40F24C45B2F90A
:102B90000020BA4209DB626AB2F90020AA4204DBD3
:102BA000E269B2F90020B2422CDD002202F0FAF90B
:102BB000206A44F62062B0F900104FF4FA70B9426E
:102BC000216E01DA8A8301E000238B834882616AE7
:102BD000B1F90010A942616E02DA8A83488202E0EC
:102BE000488200228A83E169B1F90010B142E16DA7
:102BF00002DD4BF2E01200E000228A8348820020CE
:102C0000BDE8F0810120FBE708000020E0FCFFFFA9
:102C100070B5044690F82600002600281DD1E06912
:102C200090F9002075490B250B2AC96C16DA084665
:102C3000FFF79EF8002810D03046FFF749F9417899
:102C400009070AD18178662907D1C1784F2904D1B3
:102C500000794B2801D1E069057070BD90F9012021
:102C60000B2A18DA0846FFF783F80028F5D030461B
:102C7000FFF72EF9417801F00F010129EDD181789C
:102C80006629EAD1C1784F29E7D100794B28E4D1F0
:102C9000E069457070BD90F902200B2A18DA0846E9
:102CA000FFF766F80028F5D03046FFF711F94178B4
:102CB00001F00F010229EDD181786629EAD1C178AE
:102CC0004F29E7D100794B28E4D1E069857070BDC8
:102CD00090F903200B2A18DA0846FFF749F8002874
:102CE000F5D03046FFF7F4F8417801F00F010329E1
:102CF000EDD181786629EAD1C1784F29E7D10079F1
:102D00004B28E4D1E069C57070BD90F904200B2A0E
:102D100018DA0846FFF72CF80028F5D03046FFF700
:102D2000D7F8417801F00F010429EDD181786629A7
:102D3000EAD1C1784F29E7D100794B28E4D1E06985
:102D4000057170BD90F905200B2A18DA0846FFF7C7
:102D50000FF80028F5D03046FFF7BAF8417801F0B7
:102D60000F010529EDD181786629EAD1C1784F2973
:102D7000E7D100794B28E4D1E069457170BD90F945
:102D800006200B2A18DA0846FEF7F2FF0028F5D0D5
:102D90003046FFF79DF8417801F00F010629EDD18B
:102DA00081786629EAD1C1784F29E7D100794B288B
:102DB000E4D1E069857170BD90F907000B2818DA3D
:102DC0000846FEF7D5FF0028F5D03046FFF780F81B
:102DD000417801F00F010729EDD181786629EAD108
:102DE000C1784F29E7D100794B28E4D1E069C5715A
:102DF00070BD012084F8260070BD0000080000208E
:102E0000002280F826201146C3695A54491C0D2916
:102E1000FADB704770B53D4E0C462DED088B44F241
:102E20005061B069B0F90050F069B0F90000084491
:102E300006F0A1F89FED36AB53EC1A2B06F002F921
:102E40009FED359B53EC192B06F0FCF89FED34BB3E
:102E500053EC1B2B05F008FF41EC180B306AB0F95E
:102E6000000006F088F853EC1A2B06F0EBF853EC50
:102E7000192B06F0E7F853EC1B2B05F0F5FE41EC9F
:102E8000100B51EC190B53EC102B06F0E7FA53EC36
:102E9000182B06F0E3FA41EC100B04F0A9FF9FEDAC
:102EA000221B51EC100B53EC112B06F0CBF841EC2C
:102EB000190BB0EE480AF0EE680A04F099FF9FED96
:102EC0001C1B51EC100B53EC112B06F0BBF853EC10
:102ED000192B05F015FE9FED181B53EC112B06F076
:102EE000AFF906D2604200B2002C04DA14498D42D8
:102EF00005DC002003E043F20C018D42F9DABDEC61
:102F0000088BBDE8704003F011B8000008000020F5
:102F10000000000000000040E0864454FB2109400E
:102F2000000000000094E140000000008047EA40FB
:102F300000000000003FEB40000000000011E240F4
:102F4000F4CFFFFF2DE9F04F1E462DED108B83B01F
:102F500014460F4683469FEDFAFB90F822004FF08F
:102F6000000A9FEDF9AB9FEDFABBFB4D0028A5F1E0
:102F700080086ED104F1080090EC040B51EC100BAA
:102F800053EC112B05F0BCFD41EC100B04F030FFAD
:102F900053EC1A2B51EC100B06F054F841EC180BC3
:102FA00094ED020B04F024FF53EC1B2B51EC100B9F
:102FB00006F048F853EC182B06F050FA41EC180BC9
:102FC00094ED000B04F014FF53EC182B51EC100B94
:102FD00006F038F841EC100B85ED000B94ED000B7A
:102FE00004F072FF53EC182B51EC100B06F02AF88A
:102FF00041EC100B04F1080085ED020B90EC040B82
:1030000051EC100B53EC112B05F07AFD41EC100B39
:1030100004F05AFF53EC1A2B51EC100B06F012F887
:1030200041EC180B94ED020B04F04EFF53EC1B2BFC
:1030300051EC100B06F006F853EC182B06F00EFAC4
:1030400041EC100B012185ED040B88F80BA08BF8E7
:10305000221006EB46099FEDC1CB9FEDC2DB9FED31
:10306000C3EB9FEDC48B9FEDC59B012F06D0022FB4
:103070007ED0032F7DD0002F7CD002E304F1080026
:1030800090EC040B51EC100B53EC112B05F038FDB8
:1030900041EC100B04F0ACFE53EC1A2B51EC100B6E
:1030A00005F0D0FF41EC1F0B94ED020B04F0A0FEE5
:1030B00053EC1B2B51EC100B05F0C4FF53EC1F2BF2
:1030C00006F0CCF941EC1F0B98F90B00022802D056
:1030D00003280FD036E094ED000B04F089FE53EC8A
:1030E0001F2B51EC100B05F0ADFF41EC100B85EDE3
:1030F000000B27E004F1080090EC040B51EC100BDE
:1031000053EC112B05F0FCFC41EC100B04F0DCFE41
:1031100053EC1A2B51EC100B05F094FF41EC1A0BF9
:1031200094ED020B04F0D0FE53EC1B2B51EC100B72
:1031300005F088FF53EC1A2B06F090F941EC100BC8
:1031400085ED040B484605F016FF41EC1A0B94ED93
:10315000000B04F0B9FE53EC1F2B51EC100B05F0E3
:1031600071FF53EC1A2B05F0CBFC41EC100B02E085
:1031700018E187E2C7E385ED020B53EC102B05F055
:1031800061FF95ED000B41EC1A0B53EC102B51EC49
:10319000100B05F057FF53EC1A2B05F0B1FC95ED21
:1031A000040B41EC1B0B53EC102B51EC100B05F0F6
:1031B00049FF53EC1B2B05F0A3FC41EC1A0BB0EEBE
:1031C0004B0AF0EE6B0A04F0EBFEB0EE40BAF0EE04
:1031D00060BAB0EE4A0AF0EE6A0A04F0E1FEB0EE20
:1031E00040FAF0EE60FA9FED670B53EC102B95ED73
:1031F000000B51EC100B05F0E9FE0CD2D8F858206A
:10320000A2F81AA0D8F85C20A2F81AA0D8F860009A
:10321000A0F81AA031E295ED000B53EC102B95EDC0
:10322000020B51EC100B05F01FFD41EC100B04F0EC
:103230006BFC53EC182B51EC100B05F003FF53EC17
:10324000192B05F011FD41EC100B53EC1C2B8DEDEF
:10325000000B51EC1F0B05F0F5FE41EC1C0B53EC81
:103260001D2B51EC1A0B05F04BFC53EC1E2B06F0FA
:10327000F5F853EC1C2B05F0F7FC41EC100B04F0B7
:103280009BFAB0EE40CAF0EE60CA95ED040B53EC29
:103290001B2B51EC100B05F0E7FC41EC100B04F07C
:1032A00033FCB0EE401AF0EE601A53EC1C2B51ECDC
:1032B000110B05F025FC9FED351B53EC112B06F08F
:1032C000CDF853EC182B05F0BDFE53EC192B05F08F
:1032D000CBFC53EC182B06F0C1F89FED2E0B41EC04
:1032E0001B0B53EC1A2B51EC100B06F0B7F89FEDAB
:1032F0002B1B53EC112B05F0B7FC41EC100B04F029
:103300005BFA53EC182B51EC100B05F09BFE53ECC1
:10331000192B05F0A9FC05F0FFFD814651EC1B0BB4
:1033200005F0FAFD9DED000B044651EC100B05F085
:10333000F3FD014606EBD6704010009098E10000C6
:1033400000000000000000009A99999999D18040EE
:103350000000000000708140880000200000000094
:103360000070914000000000100113415C8FC2F515
:10337000ECAD1141000000000094D140E0864454BF
:10338000FB2109400000000000C07240C154336BB3
:1033900029209D3FAE47E17A7E57224166666666E8
:1033A0006E54224104F1080090EC040B51EC100B18
:1033B00053EC112B05F0A4FB41EC100B04F018FDAD
:1033C00053EC1A2B51EC100B05F03CFE41EC1F0B9B
:1033D00094ED020B04F00CFD53EC1B2B51EC100B85
:1033E00005F030FE53EC1F2B06F038F841EC1F0BB4
:1033F00098F90B00012802D003280FD036E094ED95
:10340000000B04F061FD53EC1F2B51EC100B05F089
:1034100019FE41EC100B85ED020B27E004F10800CA
:1034200090EC040B51EC100B53EC112B05F068FBE6
:1034300041EC100B04F048FD53EC1A2B51EC100B2F
:1034400005F000FE41EC1A0B94ED020B04F03CFD7C
:1034500053EC1B2B51EC100B05F0F4FD53EC1A2B25
:1034600005F0FCFF41EC100B85ED040B09EBD97066
:10347000401005F080FD41EC1A0B94ED000B04F0B8
:10348000B7FC53EC1F2B51EC100B05F0DBFD53EC9C
:103490001A2B05F035FB41EC1A0B85ED00AB95EDD1
:1034A000020B53EC102B51EC100B05F0CBFD41EC53
:1034B0001B0B53EC1A2B51EC1A0B05F0C3FD53EC0C
:1034C0001B2B05F01DFB95ED040B41EC1B0B53EC86
:1034D000102B51EC100B05F0B5FD53EC1B2B05F038
:1034E0000FFB41EC1A0BB0EE4B0AF0EE6B0A04F046
:1034F00057FDB0EE40BAF0EE60BAB0EE4A0AF0EE18
:103500006A0A04F04DFDB0EE40FAF0EE60FA95ED77
:10351000000B53EC102B95ED020B51EC100B05F04A
:10352000A3FB41EC100B04F0EFFA53EC182B51EC19
:10353000100B05F087FD53EC192B05F095FB41ECC2
:10354000100B53EC1C2B8DED000B51EC1F0B05F0F9
:1035500079FD41EC1C0B53EC1D2B51EC1A0B05F0C3
:10356000CFFA53EC1E2B05F079FF53EC1C2B05F022
:103570007BFB41EC100B04F01FF9B0EE40CAF0EEFB
:1035800060CA95ED040B53EC1B2B51EC100B05F0AE
:103590006BFB41EC100B04F0B7FAB0EE401AF0EE02
:1035A000601A53EC1C2B51EC110B05F0A9FA1FED1E
:1035B000891B53EC112B05F051FF53EC182B05F030
:1035C00041FD53EC192B05F04FFB53EC182B05F084
:1035D00045FF53EC1A2B41EC1B0B1FED920B51ECEA
:1035E000100B05F03BFF1FED931B53EC112B05F067
:1035F0003BFB41EC100B04F0DFF853EC182B51ECC3
:10360000100B05F01FFD53EC192B05F02DFB41ECC1
:10361000180B9FEDD70B53EC102B95ED000B51ECD5
:10362000100B05F0D3FC02D2002EFFF6E7AD9FEDA4
:10363000D20B53EC102B95ED000B51EC100B05F059
:10364000FFFD1AD27100032091FBF0F651EC180B2C
:1036500005F062FC814651EC1B0B05F05DFC9DED15
:10366000000B044651EC100B05F056FC0146009689
:103670004B462246584601F0FDFC88F80B7095ED4C
:1036800000FB49E104F1080090EC040B51EC100B35
:1036900053EC112B05F034FA41EC100B04F0A8FBAD
:1036A00053EC1A2B51EC100B05F0CCFC41EC1F0B2A
:1036B00094ED020B04F09CFB53EC1B2B51EC100B14
:1036C00005F0C0FC53EC1F2B05F0C8FE41EC1F0BAE
:1036D00098F90B00012802D002280FD01CE094EDCD
:1036E000000B04F0F1FB53EC1F2B51EC100B05F019
:1036F000A9FC41EC100B85ED020B0DE094ED000BE5
:1037000004F076FB53EC1F2B51EC100B05F09AFCE8
:1037100041EC100B85ED000B304605F02CFC41EC24
:103720001F0B04F1080090EC040B51EC100B53EC50
:10373000112B05F0E5F941EC100B04F0C5FB53EC3F
:103740001A2B51EC100B05F07DFC41EC1A0B94ED9B
:10375000020B04F0B9FB53EC1B2B51EC100B05F0E2
:1037600071FC53EC1A2B05F079FE53EC1F2B05F07E
:10377000C7F941EC1A0B85ED04AB95ED020B53EC48
:10378000102B51EC100B05F05DFC95ED000B41EC9E
:103790001B0B53EC102B51EC100B05F053FC53ECAE
:1037A0001B2B05F0ADF941EC1B0B53EC1A2B51EC24
:1037B0001A0B05F047FC53EC1B2B05F0A1F941EC6B
:1037C0001A0BB0EE4B0AF0EE6B0A04F0E9FBB0EE18
:1037D00040BAF0EE60BAB0EE4A0AF0EE6A0A04F0BF
:1037E000DFFB53EC1C2B51EC100B05F02BFC41ECD8
:1037F0001C0B53EC1D2B51EC1A0B05F081F953EC0B
:103800001E2B05F02BFE53EC1C2B05F02DFA41EC82
:10381000100B03F0D1FFB0EE40CAF0EE60CA95ED98
:10382000040B53EC1B2B51EC100B05F01DFA41EC73
:10383000100B04F069F9B0EE401AF0EE601A53EC88
:103840001C2B51EC110B05F05BF99FED4D1B53EC5C
:10385000112B05F003FE53EC182B05F0F3FB53EC92
:10386000192B05F001FA53EC182B05F0F7FD53EC7A
:103870001A2B41EC1B0B9FED440B51EC100B05F088
:10388000EDFD9FED431B53EC112B05F0EDF941ECE1
:10389000100B03F091FF53EC182B51EC100B05F0BB
:1038A000D1FB53EC192B05F0DFF99FED3B0B41ECFD
:1038B0001A0B53EC102B95ED000B51EC100B05F08F
:1038C00085FBFFF49BAC032096FBF0F651EC1A0B42
:1038D00005F022FB814651EC1B0B05F01DFB94ED1E
:1038E000000B824653EC182B51EC100B05F0AAFB91
:1038F00053EC192B05F0B8F905F00EFB01464B46C9
:1039000052460096B6E6002002F010FB002002F0BE
:1039100039FA002002F0AEFBD8F85C004446418B37
:10392000D8F86000408B084401B2D8F86400FEF774
:10393000F9FAA06DB0F91A0005F01DFB9FED181BF8
:1039400053EC112B05F07EFB05F0E6FA404201B284
:10395000A06EFEF7E7FA584601F0CAF803B0B0EEE1
:103960004F0AF0EE6F0ABDEC108BBDE8F08F00003F
:103970000000000000A074400000000000406F4004
:10398000C154336B29209D3FAE47E17A7E572241D7
:10399000666666666E5422410000000000C07240F8
:1039A00026E4839ECD2AF63F70B508462DED108B98
:1039B00082B09FEDFD8BFE4C05F0DDFA41EC190B5A
:1039C000E06944F25061B0EE48BAB0F90000F0EEA0
:1039D00068BAB0EE48AAF0EE68AA084405F0CBFA3F
:1039E0009FEDF4FB53EC1F2B05F02CFB9FEDF3DB5D
:1039F00053EC1D2B05F026FB9FEDF21B53EC112B16
:103A000005F032F941EC1C0B206AB0F9000005F01A
:103A1000B2FA53EC1F2B05F015FB53EC1D2B05F0F0
:103A200011FB9FEDE81B53EC112B05F01DF941EC48
:103A30001E0B606AB0F9000005F09DFA53EC1F2BD5
:103A400005F000FB53EC1D2B05F0FCFA9FEDDD1B90
:103A500053EC112B05F008F941EC1F0B53EC1E2B16
:103A600051EC1D0B05F0FAFC53EC1C2B05F0F6FC99
:103A700041EC100B53EC1C2B8DED000B9FEDD30B89
:103A800051EC100B05F0EAFC41EC1D0B53EC1E2B26
:103A900051EC1F0B05F0E2FC53EC1D2B05F030F848
:103AA00041EC1E0BB0EE4C0AF0EE6C0A04F0A0F9EB
:103AB0009FEDC81B51EC100B53EC112B05F0C2FA13
:103AC00041EC1C0B9DED000B04F092F99FEDC31B24
:103AD00051EC100B53EC112B05F0B4FA41EC1D0B1B
:103AE00051EC1C0B53EC1D2B05F00AF80E46054655
:103AF00046EC1C0BB0EE4E0AF0EE6E0A04F0E4F950
:103B00009FEDB81B51EC100B53EC112B05F09AFAFA
:103B100053EC1C2B05F0CAFB41EC1F0B9FEDB3EBE4
:103B200051EC1C0B53EC1E2B05F050FA06D353EC52
:103B30001E2B51EC1F0B05F049FA06D253EC182B43
:103B400051EC190B05F07CFB3AD353EC182B51ECDC
:103B5000190B05F03BFA08D29FEDA60B51EC1C0B9C
:103B600053EC102B05F032FA2AD3B0EE480AF0EEEF
:103B7000680A53EC102B51EC190B05F027FA0DD203
:103B8000206A43F2C821B0F90000884218DC606A5C
:103B900043F69821B0F90000884211DCB0EE49AA42
:103BA000F0EE69AA46EC1B5B53EC1D2B51EC190B94
:103BB00005F048FA53EC1B2B05F056F841EC1B0BB3
:103BC00051EC1A0B53EC1B2B05F048FC41EC1D0B80
:103BD00053EC182B51EC1A0B05F032FB04D2B0EE6B
:103BE0004AEAF0EE6AEA05E051EC1A0B04F07BFFBA
:103BF00041EC1E0BB0EE48CAF0EE68CA53EC1C2B29
:103C000051EC1B0B05F01CFB04D2B0EE4B0AF0EE9E
:103C10006B0A05E051EC1B0B04F065FF41EC100B47
:103C200053EC1E2B51EC100B05F00AFB53EC1C2B34
:103C30000CD251EC1B0B05F003FB04D2B0EE4B8A07
:103C4000F0EE6B8A12E051EC1B0B0BE051EC1A0BFF
:103C500005F0F6FA04D2B0EE4A8AF0EE6A8A05E080
:103C600051EC1A0B04F03FFF41EC180B53EC1C2BEA
:103C700051EC1D0B05F0E4FA04D2B0EE4DEAF0EE83
:103C80006DEA05E051EC1D0B04F02DFF41EC1E0B1D
:103C900053EC1C2B51EC180B05F0D2FA04D2B0EE09
:103CA000480AF0EE680A05E051EC180B04F01BFF1F
:103CB00041EC100B53EC1E2B51EC100B05F0C0FA2D
:103CC00053EC1C2B07D251EC180B05F0B9FA12D3A8
:103CD00051EC180B0BE051EC1D0B05F0B1FA04D2BE
:103CE000B0EE4D8AF0EE6D8A05E051EC1D0B04F04C
:103CF000FAFE41EC180B53EC1C2B51EC190B05F0A0
:103D00009FFA05D351EC190B04F0EDFE41EC190BB1
:103D100053EC182B51EC1B0B04F0A6FF53EC192BA2
:103D200005F090F941EC1B0B53EC182B51EC1A0BDE
:103D300004F09AFF53EC192B05F084F941EC1A0BAF
:103D400053EC182B51EC1D0B04F08EFF53EC192B88
:103D500005F078F941EC180B51EC1B0B05F0DCF881
:103D600000B202F00FF851EC1A0B04F0BCFE05F0A3
:103D7000D3F800B202F07EF951EC180B04F0B3FE58
:103D800005F0CAF800B201F093FCE06D408B30B151
:103D9000206E408B18B1606E408B002838D1002017
:103DA00001F0F0FF002029E000000000000000000A
:103DB000080000200000000000000040E08644549D
:103DC000FB210940000000000094E140E0864454DB
:103DD000FB21F93F00000000003FEB400000000025
:103DE0008047EA4000000000006AD8400000000060
:103DF0000088E340000000000046DE4002F03AF98F
:103E000002B00020BDEC108BBDE8704001F050BC4A
:103E100002B0BDEC108B70BD2DE9F34F8B462DED3C
:103E2000108B87B044F2506A9FEDFD8BFE498946A6
:103E30008A69B0EE489AF0EE689AB2F900600A6AB0
:103E4000B2F900504A6AC969B2F90040B1F90010EC
:103E500001EB0A0005F08FF89FEDF4EB53EC1E2BFD
:103E600005F0F0F89FEDF3CB53EC1C2B05F0EAF8CE
:103E70009FEDF2FB53EC1F2B04F0F6FE9FEDF1BB20
:103E800053EC1B2B04F03CFE41EC1A0B284605F0CA
:103E900072F853EC1E2B05F0D5F853EC1C2B05F0F3
:103EA000D1F853EC1F2B04F0DFFE41EC1D0B204634
:103EB00005F061F853EC1E2B05F0C4F853EC1C2BF5
:103EC00005F0C0F853EC1F2B04F0CEFE41EC1F0BA5
:103ED00053EC1D2B51EC1C0B05F0C0FA53EC1A2BC4
:103EE00005F0BCFA41EC1E0B53EC1A2B51EC1B0BEA
:103EF00005F0B4FA53EC1B2B04F002FE41EC1C0B52
:103F000053EC1D2B51EC1F0B05F0A8FA53EC1C2BA6
:103F100004F0F6FD41EC100B8DED040BB0EE4A0AF7
:103F2000F0EE6A0A03F064FF9FEDC8DB51EC100B62
:103F300053EC1D2B05F086F841EC100B8DED020BB8
:103F4000B0EE4E0AF0EE6E0A03F052FF9FEDC1FB99
:103F500051EC100B53EC1F2B05F074F841EC1C0BCB
:103F600053EC1B2B51EC1A0B05F078FA804641EC10
:103F7000100B019103F0A8FF53EC1D2B51EC100B1B
:103F800005F060F841EC1A0B53EC1B2B51EC1E0BA7
:103F900004F0B6FD074641EC100B009103F094FFCE
:103FA00053EC1F2B51EC100B05F04CF841EC1B0BA4
:103FB000009941EC107B03F01BFF53EC1F2B51ECDD
:103FC000100B05F03FF841EC1E0B019941EC108BF2
:103FD00003F00EFF53EC1D2B51EC100B05F032F8E3
:103FE00053EC1E2B04F08CFD41EC1D0B9DED040BDE
:103FF00003F06AFF9FED991B51EC100B53EC112B52
:1040000005F020F853EC1D2B05F050F941EC1E0B88
:104010009FED940B51EC1D0B53EC102B04F0D6FFCD
:1040200037D2002440F25227BBF1000F0DDD179864
:1040300000F0BEF9002827D042F22830CDE9014037
:1040400053464242CDF800A018E04FF4FA639D4277
:1040500076DB06F2077041F21751884206D244F22D
:104060006820CDE90140814A009307E043F66C10D7
:10407000CDE9014041F6C8137D4A0093CDE90347DD
:104080003146179800F0F0FB07B0BDEC108BBDE88F
:10409000FC8F9FED780B51EC1E0B53EC102B04F0B2
:1040A00095FF4DD353EC1B2B51EC1A0B05F0C8F8C0
:1040B000584604D204F05FFF04F015FD01E004F05F
:1040C0005AFFB0EE48DAF0EE68DA41EC1A0B53EC26
:1040D0001D2B04F07BFF05D243F2C82085421BDC78
:1040E000844219DC9DED020BB0EE4A8AF0EE6A8A3A
:1040F00053EC1C2B51EC100B04F002FD41EC190B9E
:1041000053EC1C2B51EC1A0B04F09CFF53EC192BB5
:1041100004F0AAFD41EC190B51EC180B53EC192BD0
:1041200005F09CF941EC1C0B53EC1D2B51EC180BCA
:1041300005F086F805D2B0EE48BAF0EE68BA06E0AF
:104140000AE151EC180B04F0CEFC41EC1B0B53ECD4
:104150001D2B51EC190B05F073F804D2B0EE490A8F
:10416000F0EE690A05E051EC190B04F0BCFC41ECDF
:10417000100B53EC1B2B51EC100B05F061F853ECBA
:104180001D2B0CD251EC190B05F05AF804D2B0EEED
:1041900049BAF0EE69BA12E051EC190B0BE051ECA0
:1041A000180B05F04DF804D2B0EE48BAF0EE68BA3C
:1041B00005E051EC180B04F096FC41EC1B0B53ECA2
:1041C0001D2B51EC1C0B05F03BF804D2B0EE4CEA71
:1041D000F0EE6CEA05E051EC1C0B04F084FC41ECC1
:1041E0001E0B53EC1D2B51EC1B0B05F029F804D2D0
:1041F000B0EE4B0AF0EE6B0A05E051EC1B0B04F03D
:1042000072FC41EC100B53EC1E2B51EC100B05F023
:1042100017F853EC1D2B37D251EC1B0B2EE000008E
:104220000000000000000000080000200000000066
:1042300000000040E0864454FB21094000000000DB
:104240000094E140E0864454FB21F93F0000000067
:10425000003FEB40000000008047EA400000000003
:10426000006AD84000000000004CDD4018FCFFFF51
:104270001CF3FFFF000000000011E24004F0E0FF2B
:1042800012D351EC1B0B0BE051EC1C0B04F0D8FFCC
:1042900004D2B0EE4CBAF0EE6CBA05E051EC1C0B57
:1042A00004F021FC41EC1B0B53EC1D2B51EC1A0BC1
:1042B00004F0C6FF05D351EC1A0B04F014FC41ECDA
:1042C0001A0B53EC1B2B51EC190B04F0CDFC53ECE7
:1042D0001A2B04F0B7FE41EC190B53EC1B2B51ECDD
:1042E000180B04F0C1FC53EC1A2B04F0ABFE41ECAC
:1042F000180B53EC1B2B51EC1C0B04F0B5FC53ECCE
:104300001A2B04F09FFE41EC1A0B51EC190B04F030
:1043100003FE00B201F036FD51EC180B04F0E3FB94
:1043200004F0FAFD00B201F0A5FE51EC1A0B04F006
:10433000DAFB04F0F1FD00B201F0BAF9D9F85C1033
:104340004846498B41B1016E498B29B1D9F86400C7
:10435000408B00287FF498AE002001F013FD002070
:1043600001F088FE07B00020BDEC108BBDE8FC4FCB
:1043700001F09EB9026D00215183406D41830B48CD
:10438000426D5183826D5183C26D5183026E5183A0
:10439000426E5183826E5183C26E5183026F51838C
:1043A000426F5183806F41837047000008000020F6
:1043B00070B540F2522405462146FEF7DFFB002887
:1043C0000DD00848C06BB0F90000A0F24E200928BB
:1043D00006D300222146284600F0E4FD002070BDEF
:1043E000012070BD080000202DE9F041044690F83E
:1043F0002300002700281BD1E16991F900206E4EAF
:104400000B250B2AF06C15DAFDF7B2FC00280FD053
:104410003846FDF75DFD4178090709D181784C29BF
:1044200006D1B169C2784A7000790870E0690570F8
:10443000BDE8F08191F901200B2A16DAFDF798FC0E
:104440000028F5D03846FDF743FD417801F00F0113
:104450000129EDD181784C29EAD1F169C2784A70FD
:1044600000790870E0694570E2E791F902200B2AB3
:1044700016DAFDF77DFC0028DAD03846FDF728FD76
:10448000417801F00F010229D2D181784C29CFD196
:10449000316AC2784A7000790870E0698570C7E7B0
:1044A00091F903200B2A16DAFDF762FC0028BFD031
:1044B0003846FDF70DFD417801F00F010329B7D112
:1044C00081784C29B4D1716AC2784A700079087039
:1044D000E069C570ACE791F904200B2A16DAFDF704
:1044E00047FC0028A4D03846FDF7F2FC417801F0E3
:1044F0000F0104299CD181784C2999D1B16AC278E5
:104500004A7000790870E069057191E791F905201A
:104510000B2A16DAFDF72CFC002889D03846FDF767
:10452000D7FC417801F00F01052981D181784C2910
:104530009AD1F16AC2784A7000790870E0694571D1
:1045400076E791F906200B2A16DAFDF711FC002810
:104550008AD03846FDF7BCFC417801F00F010629EE
:104560009DD181784C299AD1316BC2784A700079FB
:104570000870E06985715BE791F907100B2916DA7D
:10458000FDF7F6FB00288AD03846FDF7A1FC4178FC
:1045900001F00F0107299DD181784C299AD1716BC7
:1045A000C2784A7000790870E069C57140E701205F
:1045B00084F823003CE700000800002070B50446A2
:1045C00090F82500002600281DD1E06990F9003000
:1045D000764A0B250B2BD16C16DA0846FDF7C8FB83
:1045E000002810D03046FDF773FC417809070AD146
:1045F0008178622907D1C1784F2904D100794B28ED
:1046000001D1E069057070BD90F901300B2B18DA0B
:104610000846FDF7ADFB0028F5D03046FDF758FC05
:10462000417801F00F010129EDD181786229EAD1A9
:10463000C1784F29E7D100794B28E4D1E069457072
:1046400070BD90F902300B2B18DA0846FDF790FB8D
:104650000028F5D03046FDF73BFC417801F00F0112
:104660000229EDD181786229EAD1C1784F29E7D1B9
:1046700000794B28E4D1E069857070BD90F9033072
:104680000B2B18DA0846FDF773FB0028F5D03046EF
:10469000FDF71EFC417801F00F010329EDD181786F
:1046A0006229EAD1C1784F29E7D100794B28E4D1BA
:1046B000E069C57070BD90F904300B2B18DA08461C
:1046C000FDF756FB0028F5D03046FDF701FC417898
:1046D00001F00F010429EDD181786229EAD1C17876
:1046E0004F29E7D100794B28E4D1E069057170BD0D
:1046F00090F905300B2B18DA0846FDF739FB002836
:10470000F5D03046FDF7E4FB417801F00F010529B3
:10471000EDD181786229EAD1C1784F29E7D10079BA
:104720004B28E4D1E069457170BD90F906300B2B40
:1047300018DA0846FDF71CFB0028F5D03046FDF7D7
:10474000C7FB417801F00F010629EDD1817862297C
:10475000EAD1C1784F29E7D100794B28E4D1E0694B
:10476000857170BD90F907000B2818DA0846FDF72F
:10477000FFFA0028F5D03046FDF7AAFB417801F09A
:104780000F010729EDD181786229EAD1C1784F293B
:10479000E7D100794B28E4D1E069C57170BD0120F3
:1047A00084F825000020507070BD00000800002033
:1047B00010B590F91800214C01280BD0022827D001
:1047C00010BD606CFDF780FA0146E06CFDF781FAE0
:1047D0000028F6D0606CFDF784FA0028F1D108E0DB
:1047E000E06CFDF771FA0146606CFDF772FA002883
:1047F000F6D0E06CFDF775FA0028F1D110BD206C01
:10480000FDF762FA0146E06CFDF763FA0028F6D086
:10481000206CFDF766FA0028F1D108E0E06CFDF7A6
:1048200053FA0146206CFDF754FA0028F6D0E06CEC
:10483000FDF757FA0028F1D110BD00000800002054
:10484000002280F823201146C3695A54491C0D29BF
:10485000FADB7047002280F825201146C3695A54BC
:10486000491C0D29FADB70472DE9FF4F95B00F4623
:1048700023A91D46B1E8000F1646202104A8FBF726
:104880001DFD20210CA8FBF719FD654C48F6986228
:10489000A069B0F90000381A0490E069B0F900008E
:1048A000301A0590206AB0F90000281A0690606A54
:1048B000B0F900102298401A0790A06AB0F90010D1
:1048C000A8EB01000890E06AB0F90010A9EB010024
:1048D0000990206BB0F90010AAEB0100CDE90A0B9A
:1048E0000498C0EBC001C1EBC010C11700EB117000
:1048F00000110C90059948F69860414341F2ED7023
:1049000091FBF0F10D910699514391FBF0F10E915D
:104910000799514391FBF0F00F90089840F27551C0
:104920004843C82190FBF1F01090099840F275516E
:1049300048434FF4967190FBF1F011900A9840F6BD
:10494000DF2148434FF47A7190FBF1F01290002080
:1049500013900CA9159802F03FFB054600220B9915
:10496000159800F01FFB60784042054255D0EE17C5
:10497000CDE902561298C117CDE900010A9A206FBD
:10498000D317FDF7CAFBCDE902561198099AC11752
:10499000CDE90001D3172349E06EFDF72EFBCDE9E9
:1049A00002561098089AC117CDE90001D317A06EDE
:1049B000FDF7B3FBCDE902560F98079AC117CDE971
:1049C0000001D3171849606EFDF717FB0E98CDE96B
:1049D0000256C117CDE90001069A1449D317206E7B
:1049E000FDF70BFBCDE902560D98C117CDE900018B
:1049F000059A0F49D317E06DFDF7FFFACDE902568E
:104A00000C98049AC117CDE90001D3170949A06D8C
:104A1000FDF7F3FA159800F06BF819B0BDE8F08FC8
:104A2000080000204D610008B156000875600008BC
:104A3000855D00082D5F000870B590F82810104CB7
:104A4000002529B1A179022914D2E17951B114E0EC
:104A5000C06DFDF7FFFDA079022801D2401CA071B6
:104A6000E57105E0C06DFDF7F5FDA079401CA07172
:104A7000002070BDA5710120E071012070BD000013
:104A80000800002030B5C46B836B0022B4F90040ED
:104A9000B3F9003004EBD474C4F34705046C406CE4
:104AA00003EBD373B4F90040B0F90000C3F347033C
:104AB00004EBD47400EBD0701146C4F34704C0F388
:104AC0004700322B01D901221946322D01D9521C3F
:104AD0002944322C01D9521C2144322801D9521CBC
:104AE00001441AB1B1FBF2F0C0B230BD0020FBE7C7
:104AF0002DE9FE4F3A484FF00008C446416D474645
:104B00008B46497C464645464446434642460B2929
:104B100001D00C2901D14FF00108816D0291497C2F
:104B20000B2901D00C2901D14FF0010CC16D01916D
:104B3000497C0B2901D00C2900D10127016E00917D
:104B4000497C0B2901D00C2900D10126416E8E46EB
:104B5000497C0B2901D00C2900D10125816E8A46A0
:104B6000497C0B2901D00C2900D10124C16E894652
:104B7000497C0B2901D00C2900D10123016F487C0D
:104B80000B2801D00C2800D1012248EA0C00384340
:104B9000304328432043184310431ED00020B8F16F
:104BA000000F01D1ABF81A00BCF1000F03D1DDF802
:104BB00008C0ACF81A000FB9019F78830EB9009EA7
:104BC00070830DB9AEF81A000CB9AAF81A000BB927
:104BD000A9F81A0002B948830120BDE8FE8F000041
:104BE000080000202DE9F041904C0646A06D017CA4
:104BF0000A2902D90821FDF764F9E06D017C0A2930
:104C000002D90821FDF75DF9206E017C0A2902D93D
:104C10000821FDF756F9606E017C0A2902D90821A6
:104C2000FDF74FF9A06E017C0A2902D90821FDF792
:104C300048F9E06E017C0A2902D90821FDF741F903
:104C4000206F017C0A2902D90821FDF73AF9606F2B
:104C5000017C0A2902D90821FDF733F9A06F017CF4
:104C60000A2902D90821FDF72CF9F06D017C0A29E7
:104C700002D90821FDF725F9B06E007C0A2802D977
:104C8000002086F82900E06CFDF772F800287DD03E
:104C90000020FDF71DF9417805460F0900D00837BF
:104CA000A878412803D0682801D0432864D101F0B6
:104CB0000F00092860D2DFE800F0050F19232D3717
:104CC000414B5800A06DFDF710F93946A06DFDF776
:104CD000F8F8E978A06944E0E06DFDF706F9394697
:104CE000E06DFDF7EEF8E978E0693AE0206EFDF757
:104CF000FCF83946206EFDF7E4F8E978206A30E0E8
:104D0000606EFDF7F2F83946606EFDF7DAF8E97883
:104D1000606A26E0A06EFDF7E8F83946A06EFDF760
:104D2000D0F8E978A06A1CE0E06EFDF7DEF83946BD
:104D3000E06EFDF7C6F8E978E06A12E0206FFDF753
:104D4000D4F83946206FFDF7BCF8E978206B08E00D
:104D5000606FFDF7CAF83946606FFDF7B2F8E97881
:104D6000606B41702979017006E0A06FFDF7BDF816
:104D70003946A06FFDF7A5F82078032836D1E06901
:104D8000B0F90000A0F25720414200E04CE040F2B0
:104D9000AE48414508D8E06D417C0B2901D00C2973
:104DA00002D10021FDF78DF8206AB0F90000A0F2D1
:104DB000AF404142414508D8206E417C0B2901D0CB
:104DC0000C2902D10021FDF77CF8606AB0F90000DF
:104DD000A0F21F304142414508D8606E417C0B294A
:104DE00001D00C2902D10021FDF76BF8687800F0A2
:104DF0000F00092806D1F06DFDF777F83946F06D00
:104E0000FDF75FF8687800F00F000A280CD1B06E4B
:104E1000FDF76BF83946B06EFDF753F8B06E29799F
:104E2000C174012086F82900BDE8F0810800002047
:104E300070B5044690F8240000281ED1E16991F96C
:104E40000900032807DA487A401C4872BDE8704020
:104E50006420FCF765BA91F90000514A0A2805DA86
:104E60000878401C08700721906D7CE091F90000E3
:104E70000B2803DA0878401C087070BD91F9010016
:104E80000A2805DA4878401C48700721D06D6AE08E
:104E900091F901000B2803DA4878401C487070BD76
:104EA00091F902000A2805DA8878401C88700721E9
:104EB000106E58E091F902000B2803DA8878401C44
:104EC000887070BD91F903000A2805DAC878401C83
:104ED000C8700721506E46E091F903000B2803DAF1
:104EE000C878401CC87070BD91F904000A2805DA22
:104EF0000879401C08710721906E34E091F9040094
:104F00000B2803DA0879401C087170BD91F905007F
:104F10000A2805DA4879401C48710721D06E22E042
:104F200091F905000B2803DA4879401C487170BDDF
:104F300091F906000A2805DA8879401C8871072152
:104F4000106F10E091F906000B2803DA8879401CF5
:104F5000887170BD91F907000A2808DAC879401CE9
:104F6000C871506F0721BDE87040FCF7DDBF91F9B3
:104F700007000B2803DAC879401CC87170BD91F98D
:104F800008000128FADA01250D724FF4FA60FCF7E7
:104F9000C7F9A06DC574A06DBDE87040FDF7C0B93C
:104FA000080000202DE9F047DFF8C4909246A1F2F6
:104FB0003A33D9F83C00B0F900200020702B54D3CC
:104FC000A2F23A33702B50D34FF4FA6441F65833BF
:104FD000674240F23938A5105E424FEAA70C4145BE
:104FE00014D8A2F2AA38B8F1560F07D2891A01F5DF
:104FF000806112E00A2915DD204625E08A420BDB9C
:10500000511A19E00A291CDD38461DE040F2AA3881
:1050100042450BD38A4209DA891A09B21429E9DD1B
:10502000184611E004290FDD28460DE08A4202DB14
:10503000B2F5806FE4D3891A09B21429E2DD304653
:1050400002E0042900DD6046BAF1000F00B208D08A
:1050500000F084FA0146D9F85400BDE8F047FCF7A7
:105060003FBFBDE8F04700F079BABDE8F087000027
:10507000080000202DE9F04FDFF834C185B0DCF8DE
:1050800018000E9FB0F90000A1EB000BDCF81C002B
:10509000CBEBCB01B0F90000A2EB000ADCF820005A
:1050A000B0F900001A1AC1EBCB10C11700EB117058
:1050B000041148F698610AFB01F041F2ED7190FB92
:1050C000F1F548F69860504390FBF1F0002C01DDBB
:1050D000214600E06142002D01DD2B4600E06B42DD
:1050E000994205DD002C01DD264606E0664204E01B
:1050F000002D01DD2E4600E06E42002E01DD33461C
:1051000000E07342002801DD014600E041428B428D
:1051100003DD002E06DC764204E0002801DD0646B1
:1051200000E046429CF8011049420E423CD07942D0
:105130008946002F00DD394648434FF0070890FBB1
:10514000F8F0F317C117CDE90263CDE90001184863
:105150000493D317006EFDF773F8002F01DD384676
:1051600000E04846454395FBF8F0049A104DCDE920
:105170000262C117CDE9000152464FEAEA73E86DB9
:10518000FDF75EF8002F00DC4F467C4394FBF8F0FF
:10519000049AC117CDE90262CDE900015A464FEAEF
:1051A000EB73A86DFDF74CF805B0BDE8F08F00007B
:1051B0000800002070B50446006EFDF71DFA0F4D83
:1051C000286CFCF741FD686CFCF73EFDA86CFCF711
:1051D0003BFDE86CFCF738FD286DFCF735FD2068D9
:1051E000FCF732FD6068FDF745FBA068FDF742FB68
:1051F000E068BDE87040FDF73DBB000008000020FE
:1052000090F82610002912D1C16991F900304A4A5C
:105210000A2B05DA0878401C08700621906D7CE0A6
:1052200091F900300B2B03DA0878401C08707047A6
:1052300091F901300A2B05DA4878401C48700621A4
:10524000D06D6AE091F901300B2B03DA4878401CED
:105250004870704791F902300A2B05DA8878401CB3
:1052600088700621106E58E091F902300B2B03DA9A
:105270008878401C8870704791F903300A2B05DA52
:10528000C878401CC8700621506E46E091F9033082
:105290000B2B03DAC878401CC870704791F90430B2
:1052A0000A2B05DA0879401C08710621906E34E05B
:1052B00091F904300B2B03DA0879401C0871704710
:1052C00091F905300A2B05DA4879401C487106210E
:1052D000D06E22E091F905300B2B03DA4879401C9F
:1052E0004871704791F906300A2B05DA8879401C1D
:1052F00088710621106F10E091F906300B2B03DA4C
:105300008879401C8871704791F907300A2B06DABA
:10531000C879401CC8710621506FFCF705BE91F991
:1053200007200B2A03DAC879401CC8717047012195
:1053300080F82610704700000800002070B590F833
:105340002710104C002529B121790A2914D261793E
:1053500051B114E0C06DFDF7DFF920790A2801D2C0
:10536000401C2071657105E0C06DFDF7D5F920790D
:10537000401C2071002070BD25710120607101204A
:1053800070BD0000080000202DE9F041724E044677
:1053900041F28832B6F91210481C00B2914201DA8B
:1053A00070820CE004D17082A06DFCF79EFD06E0D7
:1053B000A06D017C0A2902D90821FCF782FD206D2D
:1053C000017C0A2902D90821FCF77BFD606D017C74
:1053D0000A2902D90821FCF774FD706D017C0A29A5
:1053E00002D90821FCF76DFD306DFCF7C1FC0028E7
:1053F00027D00120FCF76CFD05464078070900D056
:10540000083710F00F001ED0012836D002284FD0E8
:10541000032816D1A06DFCF768FD3946A06DFCF796
:1054200050FDA87801210222722853D0732808D198
:10543000E87883097ED0B1EB901F7CD1287984F87D
:105440004900BDE8F081206DFCF74FFD17B13946EA
:10545000206D07E094F948005A28206D01DD0921EC
:1054600000E00021FCF72DFDA8784928E9D1216B47
:10547000E87848702879216B18E0606DFCF735FDFD
:1054800017B13946606D07E094F949005A28606DFC
:1054900001DD092100E00021FCF713FDA87849286F
:1054A000CFD1616BE87848702879616B0870C8E7E4
:1054B000706DFCF71AFD0FB1394606E094F94A0009
:1054C0005A2801DD092100E00021706DBDE8F0419E
:1054D000FCF7F7BCE878830909D0B1EB901F0DD138
:1054E000E16B00F03F0048702879E16B1AE0A16B96
:1054F00000F03F0048702879A16B13E0B2EB901FD9
:1055000006D1216C00F03F0048702879216C09E039
:105510000321B1EB901F06D1616C00F03F00487091
:105520002879616C08702046FFF7ACFA6076617EDE
:10553000606E01E004E007E0BDE8F041FCF758BF11
:10554000287984F848007CE7B2EB901FAFD1287926
:1055500084F84A0075E70000080000202DE9F047B4
:105560004F4D01460024E86B40F26542008810FB75
:1055700002F0C21700EBD260C0F34F12E869234675
:10558000B0F90070A869B0F900602846406D69B1B3
:105590006D787DB1A2F5E445DC3D40F6644C65458F
:1055A0000BD2052143830846BDE8F0870146184623
:1055B0004B83F9E7FCF76CFE6FE03A4DDFF8E8C08B
:1055C00041F2EC38002937DA6FF0C709AF421BDD32
:1055D000664519DD464517DAA2F5E6453F3D41F23D
:1055E0008236B542E6D248F2F8518A4201D92F49B3
:1055F000E0E748F230518A4203D94946FCF748FEB9
:1056000000E04383032448E045F2EA35AA42D1D8BA
:1056100045F2BE25AA4204D9052291FBF2F109B256
:10562000C8E745F2F6118A4203D94946FCF730FE35
:1056300000E04383012430E04FF4FA69AF421ADD01
:10564000664518DD464516DAA2F5D6455C3DB5F54A
:105650009C5FAFD846F624418A4201D24946A9E769
:1056600046F6EC418A4203D2C821FCF711FE00E065
:105670004383042411E046F28475AA429AD346F685
:105680004C018A42EAD346F678118A4203D2C821F5
:10569000FCF7FEFD00E043830224204684E700007F
:1056A0000800002014ECFFFFFCEFFFFF30F8FFFFC5
:1056B0002DE9F0414A4905004FF00004086A2346ED
:1056C000B0F90060486AB0F90020C86AB0F900700B
:1056D000486BB0F900C00846406E1FD049780029D9
:1056E0007CD0032195FBF1F109B24FF4AF6E002D90
:1056F0002ADA42F6186C6FF0C706674515DA40F6ED
:10570000C417BA426ADC40F63405AA4256DCB2F548
:10571000FA6F07DD3146FCF7BBFD04E04383184612
:10572000BDE8F0814383012456E0724556DCB2F5B2
:105730007A7F43DCB2F5617F03DD3146FCF7A8FDDB
:1057400000E04383022447E040F6AC57BE4216DA3D
:10575000764502DA438303243EE0B2F57A6F3DDBFF
:1057600041F23015AA4229DB41F294118A4203DA50
:10577000C821FCF78DFD00E0438304242CE040F2B7
:105780004C46B44512DA44F25C46B24226DB44F29F
:105790008855AA4212DB44F2EC518A4203DAC8214E
:1057A000FCF776FD00E04383052415E043F2F43670
:1057B000B24213DB43F28455AA4203DAFCF768FDD8
:1057C0000AE00BE043F2E8518A4203DAC821FCF711
:1057D0005FFD00E0438306242046A1E72946EDE76C
:1057E0000800002010B5006EFCF7FEFE00EB001074
:1057F0004821B0FBF1F0722802DA00F28D3000E0AF
:1058000072380249C96B088010BD000008000020F2
:105810002DE9F0410126044680F8276080F82860D1
:10582000C06C002581694878302802D0502837D0D4
:1058300064E08878AA2804D0112815D0552821D0F2
:105840005CE0C878BB2859D10879CC2856D1487972
:10585000DD2853D184F82060A068FDF704F8E068E3
:10586000BDE8F041FCF7FFBFC878222846D108798F
:10587000332843D14879442840D12046BDE8F0413F
:10588000FEF7E8BFC878662838D10879772835D17F
:105890004879882832D12046BDE8F041FDF7B0BAFA
:1058A0008878AA282AD1C878BB2827D10879CC289B
:1058B00024D14879DD2821D18879EE281ED1C879F4
:1058C000FF281BD1087A112802D055280DD015E0E9
:1058D000487A222812D1887A33280FD1C87A4428EE
:1058E0000CD184F82750BDE8F081487A662805D1AC
:1058F000887A772802D1C87A882816D084F8205070
:10590000487A4A4A07070D23002F11D04FDA8D79C4
:1059100005F00705012D0DD0022D10D0032D13D059
:10592000042D1FD0052D22D070E084F82850DAE72E
:10593000157073E00879400768D106206DE008799A
:10594000400763D1072068E00D796E0704D005F0A9
:105950000705032D02D059E008205EE0400755D529
:1059600003205AE00879400758D1092055E00D7905
:105970006F0704D005F00705012D02D005E00A20CD
:105980004BE0470701D5167048E0022D03D14607CA
:1059900001D5022041E0042D03D1460701D50420A2
:1059A0003BE0052D32D1400730D5052035E0C0F36E
:1059B0008105012D06D000F0030002282AD001281D
:1059C0002AD02BE00879C5436D0704D000F007000A
:1059D00006281DD01AE04879450705D0000701D4F4
:1059E00012201AE0132018E0C879450705D00007F7
:1059F00001D4102011E011200FE010F0700F05D03D
:105A0000000601D40F2008E00E2006E0137005E028
:105A1000142002E00B2000E00C2010700020E36A4C
:105A20000A5C1A54401C0D28F9DB5CE708000020D2
:105A300070B52D4E00243146706B8A6EB0F900505F
:105A4000B06AB0F9000000280FDDB0F57A7F01DD03
:105A5000264918E0C82801DD254914E0642801DD45
:105A6000244910E00020508310E010F57A7F02DA1C
:105A700042F6E06107E010F1C80F02DA41F27071FE
:105A800001E04FF4C8711046FCF702FC41F2BA3154
:105A900041F27C508D420CDD854201DD164C1AE04E
:105AA00041F21E40854201DD144C14E0114C643477
:105AB00011E041F288318D4202DA42F228340AE0E4
:105AC00041F2B4418D4202DA41F2941403E085427E
:105AD00001DA4FF4967420B201F0FAF80146706FC3
