:020000040800F2
:1000000018170020350200083D0200083F020008D2
:1000100041020008430200084502000800000000F9
:10002000000000000000000000000000470200087F
:1000300049020008000000004B0200084D020008C1
:100040004F0200084F0200084F0200084F0200084C
:100050004F0200084F0200084F0200084F0200083C
:100060004F0200084F0200084F0200084F0200082C
:100070004F0200084F0200084F0200084F0200081C
:100080004F0200084F0200084F0200084F0200080C
:100090004F0200084F0200084F0200084F020008FC
:1000A0004F0200084F0200084F0200084F020008EC
:1000B00091130008C5130008FD1300084F02000843
:1000C0004F0200084F0200084F0200084F020008CC
:1000D0004F02000821160008D916000891170008E1
:1000E0004F0200084F0200084F0200084F020008AC
:1000F0004F0200084F0200084F0200084F0200089C
:100100004F0200084F0200084F0200084F0200088B
:10011000F9140008691500084F0200084F02000892
:100120004F0200084F0200084F0200084F0200086B
:100130004F0200084F0200084F0200084F0200085B
:100140004F0200084F0200084F0200084F0200084B
:100150004F0200084F0200084F020008D91800089B
:100160004F0200084F0200084F0200084F0200082B
:100170004F0200084F0200084F0200084F0200081B
:100180004F0200084F02000800F002F800F042F8A9
:100190000AA090E8000C82448344AAF10107DA45E2
:1001A00001D100F037F8AFF2090EBAE80F0013F0F2
:1001B000010F18BFFB1A43F0010318471C8600000B
:1001C0003C860000103A24BF78C878C1FAD852079C
:1001D00024BF30C830C144BF04680C6070470000C1
:1001E0000023002400250026103A28BF78C1FBD840
:1001F000520728BF30C148BF0B6070471FB508F0D9
:100200009FF99DE8030000F097F900F081F81FBD09
:1002100010B510BD00F0D3F91146FFF7EFFF07F05E
:1002200077FB00F00BFA03B4FFF7F2FF03BC00F01A
:1002300043FA00000948804709480047FEE7FEE707
:10024000FEE7FEE7FEE7FEE7FEE7FEE7FEE7FEE786
:1002500004480549054A064B70470000351300085D
:100260008901000818030020181700201813002027
:100270001813002010B54C1084EA530404D54042F2
:10028000C1F1000138BF491E1B4204D55242C3F1DF
:10029000000338BF5B1E00F0A7F814F0804F04D0B5
:1002A0004042C1F1000138BF491E14F0004F04D094
:1002B0005242C3F1000338BF5B1E10BD4FF0000275
:1002C00000B5134694469646203922BFA0E80C504C
:1002D000A0E80C50B1F12001BFF4F7AF090728BF27
:1002E000A0E80C5048BF0CC05DF804EB890028BFA3
:1002F00040F8042B08BF704748BF20F8022B11F0CC
:10030000804F18BF00F8012B704770477047704747
:1003100070B5064C7C44064D7D4403E020682044C3
:100320008047241DAC42F9D170BD0000E08400007C
:10033000E484000000487047EC02002070B50646D7
:1003400000F0DAF8056806F10B0020F00704B4426B
:100350009CBF002070BD2B466A68BAB11068A042ED
:1003600010D304F1080188423CBF5068586007D39D
:100370005168101941601168091B016058601460D0
:10038000101D70BD13465268002AE7D12146284649
:1003900000F0BEF80028DED170BD70B50446051F20
:1003A00000F0AAF80068002C14BF446870BD002C4F
:1003B00018BFA54284BF20466468F8D801680A18AF
:1003C000AA4218BF456003D12A680546114401605E
:1003D00028684119A1421CBF6C6070BD61686960EA
:1003E00021680844286070BD53EA020C00F069805F
:1003F0002DE9F04B4FF00006002B1FBFB3FA83F539
:1004000003FA05F424FA05F65E4012BF1643B2FA69
:1004100082F502FA05F4C5F120051EBF22FA05FC9B
:1004200044EA0C04203556EA044C4FEA144418BF41
:10043000641C4FF000084FF00009904271EB030C70
:1004400039D3002919BFB1FA81F701FA07F6B0FADA
:1004500080F700FA07F6C7F120071EBF20FA07FC55
:1004600046EA0C062037B6FBF4FCA7EB0507103F65
:1004700007F01F0BCBF120060CFA0BFB2CFA06F64B
:1004800044BFB3460026202FA4BF5E464FF0000BAA
:100490005BEA060C08BF4FF0010B19EB0B09ABFB35
:1004A000027C48EB0608C01B06FB02CC0BFB03CC0E
:1004B00071EB0C01C1E70B46024641464846BDE8D8
:1004C000F08B13B54FF000004FF00001AFF3008048
:1004D000BDE81C40704710B500F012F8006810BD70
:1004E00010B5044600F00CF8046010BD00F05AB8D6
:1004F00000487047B802002000487047C002002042
:1005000000487047B8020020704770477047704736
:1005100038B504460A4600206946AFF3008000283B
:1005200008BF38BD02460099204600F06DF8012052
:1005300038BD012000F090B8F8B5AFF30080054653
:1005400000200C46102000BF0646A819A0420DD975
:10055000324669460020AFF30080070008BF00F074
:100560007BF80098A04218BF0546C419FFF7C4FFE6
:1005700005600746F01D20F007004619284600F0E8
:100580000AF8B44208BFF8BDA21B31463868BDE87E
:10059000F84000F039B800210160C0E9011070474F
:1005A0001020704710B500F062F8016919B10022FF
:1005B0000261884701E08068804700F045F8754691
:1005C000FFF796FFAE4605006946534620F0070048
:1005D000854618B020B5FFF73BFEBDE820404FF040
:1005E00000064FF000074FF000084FF0000B21F01D
:1005F0000701AC46ACE8C009ACE8C009ACE8C009EA
:10060000ACE8C0098D467047034640688C46002818
:1006100018BF814284BF03464068F8D81868184460
:10062000884207D00CF1030020F00700001D411A9A
:10063000521A0146081D0A60FFF7AFBE0446AFF329
:1006400000802046FFF7EFFD002000F046F8FFF79E
:10065000DFFD012000F030F810B500F045F8BDE8EE
:10066000104000F035B8000010B5FFF7EDFF70B591
:1006700000F02AF804680546A4B92020FFF75EFEC2
:10068000040011D0094900202C60C4E90001084988
:10069000A1602073206160610649A06109B100F08A
:1006A0004BF8E061204670BDFFF7CEFF0000000070
:1006B000690600080000000001491820ABBEFEE7F3
:1006C000260002007047000000487047F402002036
:1006D000002801D0FFF7F0BF704710B500F064F8B4
:1006E000BDE81040FFF7F4BF10B5012805D0002188
:1006F00003A000F03FF8012010BD09A1F8E70000B9
:1007000053494752544D454D3A204F7574206F66FA
:100710002068656170206D656D6F72790000000062
:100720003A2048656170206D656D6F727920636F46
:10073000727275707465640010B58820FFF7FEFD55
:10074000002801D00021017010BD802902D808B115
:10075000017809B100207047012100F8081B70479B
:1007600018B100F10802914201D000207047002129
:100770000170704770B505460C460A2000E06D1CFC
:1007800000F02AF835B128780028F8D102E0641C7E
:1007900000F022F814B120780028F8D1BDE87040AC
:1007A0000A2000F019B8000010B5002102A0FFF7E0
:1007B000E1FF012010BD0000534947414252543A25
:1007C0002041626E6F726D616C207465726D696E2E
:1007D0006174696F6E00000008B569468DF800000D
:1007E0000320ABBE08BD0029816802D041F00101A1
:1007F00001E021F00101816070470000074B10B556
:100800001A6807490A40D0E900142143D0E90240A0
:10081000044321431143196010BD0000042301402B
:10082000E030FCFF0029816802D041F4807101E0D2
:1008300021F48071816070470029816802D041F401
:10084000007101E021F400718160704730B54268A9
:100850000F4B0C791A400B6842EA042213434360A1
:1008600082680C4B4D791A40D1E9034323438C68CD
:1008700044EA4504234313438360C26A097D22F49A
:100880007002491EC9B242EA0151C16230BD000086
:10089000FFFEFFFCFDF7FFC070B5072409290AD948
:1008A000C568A1F10A0606EB4606B440A543B3406D
:1008B0001D43C56007E0056901EB4106B440A5434F
:1008C000B3401D4305611F23072A09D2446B521E02
:1008D00002EB820293409C4391400C43446370BD01
:1008E0000D2A09D2046BD21F02EB820293409C4373
:1008F00091400C43046370BDC46A0D3A02EB82025E
:1009000093409C4391400C43C46270BD816841F0A8
:10091000804181607047000010B50A4C0122072316
:1009200011462046FFF7B8FF01212046FFF784FF5C
:1009300001212046FFF776FF2046BDE81040012147
:10094000FFF751BF002001401FB500204FF4804148
:100950000090CDE9010103906846FFF74FFF1FBDEE
:1009600010B590B012490020CDE900011149CDE940
:1009700002100A21CDE904104FF48061069149006C
:10098000079189000891491109914902CDE90A109E
:100990000121CDE90C10084C0E906946204600F06C
:1009A00055F80121204600F047F810B010BD0000B6
:1009B0004C200140A4020020106402401CB502201B
:1009C000009003208DF8040000208DF80700694690
:1009D000014800F07BF81CBD0000024010B5012169
:1009E000094800F027F90121080200F03BF9FFF760
:1009F000B7FFFFF7E3FFFFF7A7FF00F007F8BDE839
:100A00001040FFF789BF00000100400000B587B02B
:100A10000020012100908DF804108DF8051002903F
:100A200004908DF8141069460248FFF70FFF07B0D5
:100A300000BD0000002001400029016802D041F003
:100A4000010101E021F001010160704730B5036848
:100A5000124ACC6813400A682243D1E905452C4369
:100A60002243CC6922430C6A22434C6A22438C6A9B
:100A700022434C6B22438C6B22431A43026042692F
:100A800022F00703D1E90B2422431A4342610A6989
:100A900042604A6882608968C16030BD3F801CF056
:100AA0000021084A084600BF32F91030401CC0B28D
:100AB00019440A28F8D30A2091FBF0F00249088073
:100AC00070470000A4020020A6000020F0B500231B
:100AD000012403270D6804FA03F21540954242D120
:100AE000D0F800C05E0007FA06F52CEA050CC0F845
:100AF00000C091F804C0D0F800E00CFA06FC4CEA03
:100B00000E0CC0F800C091F804C0BCF1010F02D077
:100B1000BCF1020F1FD1D0F808C02CEA050CC0F8B8
:100B200008C091F805C0D0F808E00CFA06FC4CEAC1
:100B30000E0CC0F808C0D0F804C02CEA020CC0F8B3
:100B400004C0426891F806C00CFA03FC1FFA8CFC42
:100B500042EA0C024260C268AA43C260CA79C56810
:100B6000B2402A43C2605B1C102BB3D3F0BD4B07CD
:100B7000DB0E9A40C90810B500EB8100016A0F2412
:100B80009C40A1430162016A1143016210BD02460B
:100B9000002012690A4200D001207047024600205E
:100BA00052690A4200D00120704741837047018397
:100BB00070470AB1018370474183704770B50F21B8
:100BC000C478027801234FF0E026E4B1124C246887
:100BD00004F4E064C4F5E064C4F30724C4F104053C
:100BE000E1404478AC4085780D4025430B4C290109
:100BF0001155007800F01F018B40400906EB800082
:100C0000C0F8003170BD02F01F008340500906EBB0
:100C10008000C0F8803170BD0CED00E000E400E021
:100C20000249084302490860704700000000FA05C5
:100C30000CED00E0044A0029116801D0014300E0F6
:100C4000814311607047000030380240044A002997
:100C5000116801D0014300E081431160704700003A
:100C600040380240044A0029116801D0014300E0E5
:100C700081431160704700004438024070B5204A3B
:100C80001168204C11F00C0104D06610042903D027
:100C9000082903D004601BE0066019E01849091F09
:100CA0000B68C3F380550B6803F03F0315B1B6FB27
:100CB000F3F301E0B4FBF3F30C680968C4F38814A0
:100CC0006343C1F30141491C4900B3FBF1F10160E9
:100CD00011680F2303EA11110B4B5C5C0168E140C2
:100CE00041601468072505EA94241C5D21FA04F488
:100CF0008460126805EA52329A5CD140C16070BDCE
:100D0000083802400024F400A80000207CB501212E
:100D10000846FFF78FFF01210220FFF78BFF01211B
:100D20000420FFF787FF01210820FFF783FF01213F
:100D30001020FFF77FFF01212020FFF77BFF01211B
:100D40004020FFF777FF264D002423460122022191
:100D50001020CDE9004500F049F8002301220221CE
:100D60002020CDE9004500F041F81E4E0221CDE9DA
:100D7000004600230122480200F038F8CDE9004681
:100D8000022100230122084600F030F8CDE9004698
:100D9000012200230221104600F028F8022100233E
:100DA0000122C801CDE9004500F020F80E4D0023D6
:100DB0001A4602210420CDE9004500F017F800236F
:100DC000012202211020CDE9004500F00FF8002398
:100DD0001A4602212020CDE9004500F007F87CBD2D
:100DE00000000240000C0240000802401CB5059BB8
:100DF0008DF8042000908DF8051069461846FFF71D
:100E000065FE1CBDF0B52D4D074687B029462C4820
:100E100000F03EFE0021284600F09CFD012110203C
:100E2000FFF720FF01210846FFF704FF254C0722AA
:100E300009212046FFF79BFE07220A212046FFF7E3
:100E400096FE01260222CDE900640023114610021D
:100E5000FFF7CCFF0222CDE90064002311465002C7
:100E6000FFF7C4FF01210846FFF7E4FE02A800F0E7
:100E700043FE0020ADF80C00ADF80E00ADF81000F8
:100E8000ADF814000C20ADF81200029702A9284614
:100E900000F0A2FD01220021252000F0D9F9012255
:100EA00040F22551284600F07EFD012240F22661E5
:100EB000284600F078FD07B0F0BD000000100140AA
:100EC000F4000020000002402DE9FC41254E0746B9
:100ED0003146254800F0DCFD0021304600F03AFDA7
:100EE00001214804FFF7B2FE01210846FFF7A2FEE8
:100EF0001E4C072202212046FFF739FE072203215C
:100F00002046FFF734FE0125CDE9005402220023DC
:100F100011460420FFF76AFFCDE9005402220023A6
:100F200011460820FFF762FF01210846FFF782FE05
:100F30000C223946304600F073F9022200212620A7
:100F400000F086F9012240F22551304600F02BFDD9
:100F500002B03046BDE8F041012240F2266100F0C7
:100F600022BD0000004400403C010020000002407F
:100F70002DE9FC41254E07463146254800F088FD05
:100F80000021304600F0E6FC01218804FFF75EFEF8
:100F900001210820FFF74EFE1E4C072208212046A3
:100FA000FFF7E5FD072209212046FFF7E0FD0125B7
:100FB0000222CDE9005400231146D001FFF716FFAD
:100FC0000222CDE90054002311461002FFF70EFF64
:100FD00001210820FFF72EFE0C223946304600F092
:100FE0001FF903220021272000F032F9012240F2EC
:100FF0002551304600F0D7FC02B03046BDE8F04144
:10100000012240F2266100F0CEBC00000048004002
:1010100084010020000C02402DE9FC41254E0746CA
:101020003146254800F034FD0021304600F092FCA6
:101030000121C804FFF70AFE01210420FFF7FAFD91
:101040001E4C08220A212046FFF791FD08220B21A1
:101050002046FFF78CFD00250222CDE900542B46E7
:1010600011465002FFF7C2FE0222CDE900540023D0
:1010700011469002FFF7BAFE01210820FFF7DAFDC2
:101080000C223946304600F0CBF8002211463420BD
:1010900000F0DEF8012240F22551304600F083FCDA
:1010A00002B03046BDE8F041012240F2266100F076
:1010B0007ABC0000004C0040CC0100200008024037
:1010C0002DE9FC41284D07462946284800F0E0FC60
:1010D0000021284600F03EFC01210805FFF7B6FD7F
:1010E00001210420FFF7A6FD01210820FFF7A2FD42
:1010F0001F4C08220C212046FFF739FD1D4E082207
:1011000002213046FFF733FD20460124CDE900409F
:10111000022200231146D002FFF768FECDE9004607
:101120000222002311460420FFF760FE012108205F
:10113000FFF780FD0C223946284600F071F80322A3
:101140000021352000F084F8012240F22551284684
:1011500000F029FC02B02846BDE8F041012240F22F
:10116000266100F020BC0000005000401402002066
:1011700000080240000C02402DE9FC41254E0746C4
:101180003146254800F084FC0021304600F0E2FBA7
:1011900001212020FFF766FD01210420FFF74AFD11
:1011A0001E4C082206212046FFF7E1FC08220721F9
:1011B0002046FFF7DCFC0125CDE900540222002384
:1011C00011464020FFF712FECDE900540222002311
:1011D00011468020FFF70AFE01210846FFF72AFD8D
:1011E0000C223946304600F01BF8002211464720F9
:1011F00000F02EF8012240F22551304600F0D3FBDA
:1012000002B03046BDE8F041012240F2266100F014
:10121000CABB0000001401405C020020000802402C
:101220007FB5064614460D46684600F065FC002171
:10123000ADF80410ADF80810ADF80610ADF80C10BC
:101240000095ADF80A406946304600F0C5FB7FBD09
:1012500008B58DF800008DF801108DF802200120EE
:101260008DF803006846FFF7A9FC08BD0CB5002007
:101270002749019000900A6842F480320A604FF4D6
:10128000A0630A6802F400320092019A521C019293
:10129000009A12B9019A9A42F3D10A68920334D59E
:1012A000012000901A484030026842F080520260EB
:1012B0001848026842F4804202601548083002680B
:1012C0000260026842F400420260026842F4A052E6
:1012D0000260031F104A1A600A6842F080720A60B6
:1012E0000A689201FCD50D4A40F20561116001685F
:1012F00021F003010160016841F002010160016811
:10130000C1F381010229FAD10CBD00900CBD00008F
:10131000003802400070004008544007003C024082
:1013200042F6DE6302E01946491EFDD2401EFAD2A3
:1013300070470000124810B5016841F47001016067
:101340001048016841F0010101600E4A0021083295
:10135000116002680C4B1A400260031D0B4A1A60B0
:10136000026822F48022026006480C300160FFF718
:101370007DFF03494FF000608039086010BD000018
:1013800088ED00E000380240FFFFF6FE1030002438
:1013900010B54FF08044204601F0AEF900280ED081
:1013A000204601F0BEF9204601F0BEF9044800686D
:1013B00001F00CFA2046BDE8104001F0BCB910BDA8
:1013C0000000002010B50B4C204601F095F90028D4
:1013D0000ED0204601F0A5F9204601F0A5F90648F7
:1013E000006801F04DFA2046BDE8104001F0A3B9B5
:1013F00010BD0000000400400000002010B50B4CA0
:10140000204601F079F900280ED0204601F089F934
:10141000204601F089F90648006801F0A7FA204645
:10142000BDE8104001F087B910BD00000008004081
:1014300000000020C94301827047C9430182704700
:101440000029018802D041F0010101E021F00101F1
:101450000180704702460020138A92890B4202EAFB
:10146000010202D0002A00D001207047002A8289A0
:1014700001D00A4300E08A438281704730B5028878
:10148000164B174C98420DD0A0420BD0B0F1804FB4
:1014900008D0144DA84205D0134DA84202D0134DD8
:1014A000A84203D122F070054A882A43104DA84271
:1014B00006D0104DA84203D022F440750A892A4371
:1014C00002804A68C2620A880285984201D0A0421E
:1014D00001D1897A01860121818230BD000001405D
:1014E000000401400004004000080040000C0040DF
:1014F000001000400014004070B5184C40F2255513
:101500002946204600F030FA30B12946204600F046
:101510001BFA134800F0D8FA40F2277529462046F6
:1015200000F022FA30B12946204600F00DFA0C48AE
:1015300000F066F940F226652946204600F014FACC
:10154000002809D02946204600F0FEF9BDE8704089
:1015500002210448FFF729BB70BD0000004C004089
:10156000CC010020000C024070B5184C40F225550B
:101570002946204600F0F8F930B12946204600F00F
:10158000E3F9134800F0A0FA40F2277529462046F7
:1015900000F0EAF930B12946204600F0D5F90C48B0
:1015A00000F052F940F226652946204600F0DCF9A9
:1015B000002809D02946204600F0C6F9BDE8704051
:1015C00001210448FFF7F1BA70BD0000005000404F
:1015D00014020020000C024070B50446051D90F86E
:1015E000470095F94210814205D12068818921F098
:1015F0008001818170BD10210848FFF7D8FA94F965
:10160000471005F12000085C2168888015F8430F19
:10161000401C00F01F00287070BD00000000024058
:1016200070B5184C40F225552946204600F09CF92B
:1016300030B12946204600F087F9134800F044FAFB
:1016400040F227752946204600F08EF930B1294630
:10165000204600F079F90C48FFF7BEFF40F22665FE
:101660002946204600F080F9002809D02946204666
:1016700000F06AF9BDE8704010210448FFF795BA00
:1016800070BD000000100140F40000200000024086
:1016900070B50446051D90F8470095F94210814247
:1016A00005D12068818921F08001818170BD2021D0
:1016B0000848FFF77CFA94F9471005F12000085C10
:1016C0002168888015F8430F401C00F01F00287027
:1016D00070BD00000000024070B5184C40F2255566
:1016E0002946204600F040F930B12946204600F056
:1016F0002BF9134800F0E8F940F2277529462046F7
:1017000000F032F930B12946204600F01DF90C48AE
:10171000FFF7BEFF40F226652946204600F024F977
:10172000002809D02946204600F00EF9BDE8704097
:1017300020210448FFF739BA70BD00000044004082
:101740003C0100200000024070B50446051D90F8E1
:10175000470095F94210814205D12068818921F026
:101760008001818170BD4FF480610848FFF71FFA46
:1017700094F9471005F12000085C2168888015F86D
:10178000430F401C00F01F00287070BD000C024089
:1017900070B5184C40F225552946204600F0E4F873
:1017A00030B12946204600F0CFF8134800F08CF9FC
:1017B00040F227752946204600F0D6F830B1294678
:1017C000204600F0C1F80C48FFF7BEFF40F2266546
:1017D0002946204600F0C8F800280AD029462046AD
:1017E00000F0B2F8BDE870404FF480610348FFF7A5
:1017F000DCB970BD0048004084010020000C0240AC
:1018000070B50446051D90F8470095F942108142D5
:1018100005D12068818921F08001818170BD02217C
:101820000848FFF7C4F994F9471005F12000085C57
:101830002168888015F8430F401C00F01F002870B5
:1018400070BD0000000C024070B50446051D90F804
:10185000470095F94210814205D12068818921F025
:101860008001818170BD01210848FFF7A0F994F93A
:10187000471005F12000085C2168888015F8430FA7
:10188000401C00F01F00287070BD0000000C0240DA
:1018900070B50446051D90F8470095F94210814245
:1018A00005D12068818921F08001818170BD4FF4CC
:1018B00080710848FFF77BF994F9471005F1200083
:1018C000085C2168888015F8430F401C00F01F0059
:1018D000287070BD0000024070B5184C40F22555CC
:1018E0002946204600F040F830B12946204600F055
:1018F0002BF8134800F0E8F840F2277529462046F7
:1019000000F032F830B12946204600F01DF80C48AE
:10191000FFF7BEFF40F226652946204600F024F876
:1019200000280AD02946204600F00EF8BDE8704095
:101930004FF480710348FFF738B970BD00140140BF
:101940005C020020000002400A0A01219140C943C4
:10195000018070470029818902D041F4005101E0E3
:1019600021F400518181704730B501F01F0201243C
:101970000025C1F3421304FA02F2012B0FD0022B0F
:101980000FD0838A4FEA11210088134204FA01F430
:1019900000EA040001D000B10125284630BD83894A
:1019A000F0E7038AEEE710B5C1F3421301F01F041C
:1019B0000121A140012B07D0022B07D01430002AAF
:1019C000026805D00A4304E00C30F8E71030F6E76F
:1019D0008A43026010BD00007FB50446008A0D46B0
:1019E00020F44051E88808432082A08941F20C612C
:1019F0008843A9882A8911436A8902431143A18136
:101A0000A08A20F44071A8890843A0826846FFF7A5
:101A100035F91D48844202D01C48844201D1039804
:101A200000E00298A1890904002900EBC00101EB44
:101A30000010296802DA4FEA410101E04FEA810112
:101A4000B0FBF1F26420B2FBF0F14FEA01114FEA72
:101A500011136FF018056B4302EB8302A3891D0479
:101A60004FF0320306D503EBC202B2FBF0F000F0F8
:101A7000070005E003EB0212B2FBF0F000F00F00EC
:101A8000084320817FBD0000001001400014014088
:101A900040F8281B002141770177C1778177704793
:101AA00010F8441F4078814201D001207047002087
:101AB0007047011D90F94500085C11F8412F521C38
:101AC00002F01F020A70704730B500F1440211782D
:101AD0005278491C01F01F0103689B889142DBB2D8
:101AE00001D1002206E090F944500122041D2B553B
:101AF00080F84410104630BD4FF4165101600021AB
:101B00008180C18001810C2242818181704710F85F
:101B1000461F491C407801F01F01814201D001207D
:101B200070470020704730B50C460346021DFFF792
:101B3000EEFF01000ED092F84200151885F8204003
:101B4000401C00F01F0082F842001868828942F0B1
:101B500080028281084630BD7CB5017A05460124A9
:101B600004FA01F02146FFF765F828680023CDE963
:101B70000040A888012280B21946FFF737F97CBDE2
:101B8000002100F011B810B50446808881B22068A9
:101B9000FFF704F8C0F10100C2B2A08881B220684A
:101BA000BDE81040FFF705B805C8002991B201D083
:101BB000FEF7FBBFFEF7FBBF10B504461948C4E9AA
:101BC0000012814201D1002026E01748814201D154
:101BD000012021E01548814201D102201CE0144877
:101BE000814201D1032017E01248814201D1042033
:101BF00012E01148814201D105200DE00F488142D9
:101C000001D1062008E00E48814201D1072003E0FF
:101C10000C48814201D10820A0602046FFF79CFFBC
:101C2000204610BD000002400004024000080240AF
:101C3000000C024000100240001402400018024054
:101C4000001C024000200240406801280ED00228FB
:101C50000FD0032810D0042811D0052812D0062850
:101C600013D10A48012100BFFFF774BE01210848C3
:101C7000FAE701210748F7E701210748F4E70121C6
:101C80000648F1E701210648EEE7704700140140DD
:101C9000001001400044004000480040004C00405B
:101CA000005000402DE9F04116460D46074600243D
:101CB00006E0295D384600F00CF80028F9D0641CD5
:101CC000B442F6DBBDE8F0810068FFF7F2BE406881
:101CD000704710B50068FFF726FF002800D00120EC
:101CE00010BD10B50068FFF7DBFE002800D0012012
:101CF00010BD000010B504461046C4E901120129C8
:101D00000AD002290DD0032910D0042913D00529A7
:101D100016D0062919D01CE00F492160FFF772F890
:101D200017E00E492160FFF7CFF812E00C4921605F
:101D3000FFF71EF90DE00B492160FFF76DF908E090
:101D400009492160FFF7BCF903E008492160FFF76A
:101D500013FA204610BD0000F40000203C010020D2
:101D600084010020CC010020140200205C0200202D
:101D70002DE9F04700258146A846FFF7A8FF401E41
:101D8000C4B2354E5EE04846FFF79EFF014656F866
:101D9000240004F02CFC56F8240004F021FC56F832
:101DA000240004F021FCA4284CD1A43556F82400CA
:101DB00004F016FC56F8240004F016FC2844C5B2C2
:101DC00056F8240004F00CFC56F8240004F00CFC37
:101DD00040062ED55FF0000756F8240004F004FCFE
:101DE0002844C5B256F8240004F0FAFB7F1C032FE8
:101DF000F2DB56F8240004F0F7FBA84214D1164990
:101E0000002504EB4400243901EB400756F8240078
:101E100004F0E6FB56F8240004F0E6FB78556D1C50
:101E2000062DF3DB4FF0010856F8240004F0D8FB30
:101E300007E056F8240004F0DDFB56F8240004F017
:101E4000D9FB00254846FFF74CFF414630EA080021
:101E500099D10846BDE8F087DC00002010B50446A3
:101E6000217A6068FFF735FF0028F9D0617A606851
:101E7000FFF72FFF0028F9D0A17A6068FFF729FF4C
:101E80000028F9D0E06841786068FFF722FF002859
:101E9000F8D0E06801786068FFF71BFF0028F8D0F1
:101EA000207A617A0844A17A0844E1684A7809787E
:101EB00010440844C1B26068FFF70BFF0028EFD060
:101EC00010BD19B9427C0AB1082A00D34174704789
:101ED000024900EB400001EB40007047B8000020D1
:101EE000427C082A00D24174704700210174704777
:101EF00010B504460A48C4E90001022004F0ACFB16
:101F0000014600200880A422E16022726072A07263
:101F10000870E168487020746074204610BD0000AD
:101F200060870008418370474A1E092A16D2C9B249
:101F3000002241F020038372012907D0062907D02F
:101F4000092907D0C1680A80FFF788BF818A02E0AB
:101F5000C18A00E0018BC2681180F5E7704710B5B7
:101F60000446481E0C282AD2C8B20021A0720D28AF
:101F70001AD2DFE800F0190707090D0F1113151722
:101F800017171700608B00E0A08BE16808800BE05A
:101F9000E08BFAE7208CF8E7608CF6E7A08CF4E79A
:101FA000E08CF2E7E06801802046FFF757FF207CD5
:101FB000401CC0B22074152801D91520207410BD12
:101FC000428B002112B1818341827047428A40F6E0
:101FD000AC53521C12B242829A42F6DD4FF4FA72AE
:101FE0004282818370472DE9F05F8B460025DDE951
:101FF0000A1CDDE90CAE2C46AD1A9C4102DA1446EF
:102000001D4603E00025544265EB030532270026F8
:102010003C1BAE4173DA00252C46AD1A9C4102DA16
:1020200016461F4603E00027564267EB03074FF4AE
:102030002F750024AD1BBC4109DAB0F92E20A2FB9C
:102040000104D31703FB014102FB0C114BE00025F7
:102050002C46AD1A9C4102DA9046994605E04FF0B5
:102060000009D2F1000869EB03094FF4E17500247F
:10207000B5EB080574EB09040ADAB0F93000A0FBEF
:102080000134C21702FB014100FB0C11122218E0BF
:1020900000252C46AD1A9C4103DB0024524264EB20
:1020A0000303C825AA1AB0F9300000249C41A0FB04
:1020B00001344FEAE07202FB01410ADA00FB0C1125
:1020C0000F22A3FB020501FB0251002403FB0411B4
:1020D00009E000FB0C140A21A3FB010504FB0151DC
:1020E000002203FB021152467346FEF7C3F8DC469A
:1020F000BDE8F04F00B25DF804EB6047FFE7002158
:102100004183BDE8F09F2DE9F05F0AAC8246B4E858
:10211000031000252C46DDF834B0AD1A9C4102DADC
:1021200014461D4603E00025544265EB03053227A3
:1021300000263C1BAE4174DA00252C46AD1A9C41AA
:1021400002DA16461F4603E00027564267EB0307F4
:102150004FF42F750024AD1BBC410CDABAF92E20C8
:10216000A2FB0045D31703FB005002FB01016246AE
:102170005B4620464DE000252C46AD1A9C4102DA14
:102180009046994605E04FF00009D2F1000869EB4E
:1021900003094FF4E1750024B5EB080574EB09045D
:1021A0000ADABAF93020A2FB0045D31703FB00502E
:1021B00002FB0101122318E000252C46AD1A9C41B8
:1021C00003DB0024524264EB0303C825AA1A00244F
:1021D000BAF930209C41A2FB00454FEAE27303FBB1
:1021E00000500ADA02FB01010F23A4FB030501FBE7
:1021F0000351002204FB021109E002FB01020A2341
:10220000A4FB030502FB0352002104FB01216246EB
:102210005B46FEF72FF801B25046BDE8F05F00F0D4
:102220002DB80020AAF81A00BDE8F09F2DE9F04172
:102230000025DDE90617DDE9086C2C46AD1A9C4146
:1022400003DB0025524265EB030305250024AA1A8F
:102250009C4110DAB0F92E200446A2FB0105D317E9
:1022600003FB015102FB071132466346FEF702F8F9
:102270006083BDE8F08100214183FAE74A1EC72A46
:1022800001D2C82104E011F1C70201D36FF0C701E8
:102290004183704710B5FFF72BFE0B490160002109
:1022A0004183C185018681838182C1820183C1838B
:1022B000018441848184C1840185418581854FF4F5
:1022C000FA71418210BD00007087000810B5044605
:1022D00004210C48FEF75BFC0B4900234A7882423C
:1022E0000CD00A78642A06D9487008B1A37406E0B5
:1022F0000120A07403E0521C0A7000E00B70A07C67
:1023000010BD000000080240A0000020C17C04486D
:1023100000294FF0100101D0FEF747BCFEF747BC83
:102320000008024010B50446807A00F0F00040F04A
:102330000200A072E26800201080E0680170204670
:10234000FFF78CFD207C401CC0B22074142801D9FA
:102350001420207410BD10B50446807A00F0F000FF
:1023600040F00300A072E26800201080E268117063
:10237000E16848702046FFF771FD207C401CC0B228
:102380002074142801D91420207410BD10B5FFF753
:10239000AFFD0649016003214172817A41F03001AD
:1023A00081720021C174817410BD00008087000813
:1023B0001CB508A2D2E90012CDE90012817C8DF88B
:1023C0000410BC318DF80510406806226946FFF7FD
:1023D00069FC1CBDA401170000000000822901D97E
:1023E000052102E07F2902D90421817470477C29EC
:1023F00001D90321F9E7792901D90221F5E77629E5
:1024000001D90121F1E70021EFE7000010B5FFF746
:102410006FFD024901600121817410BD90870008A1
:1024200010B5FFF765FD064901600A2141720021E0
:1024300081720522C274017541758175817410BD68
:10244000A08700082DE9F0410025884604462F4664
:102450003EE04046FFF738FC0146206904F0C7F82B
:10246000206904F0BDF8206904F0BEF8A5282FD13A
:10247000A535EEB2206904F0B3F8206904F0B4F891
:10248000000621D40025206904F0AEF83044C6B21D
:10249000206904F0A5F86D1C0B2DF4DB206904F015
:1024A000A3F8B0420CD10025206904F099F8206906
:1024B00004F09AF8A16948556D1C0D2DF4DB012735
:1024C000206904F08DF802E0206904F093F80025FB
:1024D0004046FFF706FCB843BBD13846BDE8F08163
:1024E0002DE9F0410546C168FFF7ACFF0F4C00260F
:1024F00010B1268001210FE021884FF4FA77B9420C
:1025000003D2491C2180BDE8F0812846A968FFF765
:1025100099FF18B1668002216960F4E76188B942C9
:1025200002D2491C6180EEE76E60ECE7A200002059
:1025300042684169012A03D080680D22FFF7B2BBCF
:10254000C068FAE710B5002244698B5CA354521CA2
:102550000D2AF9DB10BD000070B5044611480025B6
:10256000C4E90005C4E90221082004F075F80D2132
:1025700004F044F820610D2004F069F860610D203A
:1025800004F065F8A061002061690D54401C0D281D
:10259000FADB0020A1690D54401C0D28FADB20460F
:1025A00070BD0000B087000810B5044605F0A6F91C
:1025B000C0F30B00608210BD10B5FEF70FFABDE846
:1025C00010400148FEF7A2B90020014070B5044652
:1025D0000848C4E90001022004F03EF80025058007
:1025E000A060022004F038F80580E0606582204693
:1025F00070BD0000C0870008202900D2C175704757
:10260000C17470478174704741757047052900D2C5
:102610008175704710B5FFF76BFC07490160092110
:102620004172817A41F03101817200218174C1745B
:102630000175417510BD0000D08700083EB5044605
:10264000012956DB481E042802D240F28F102EE0EA
:10265000481F052802D240F21F3028E0A1F10A00ED
:10266000282802D240F2DB5021E0A1F132003228CA
:1026700002D240F65F101AE0A1F16400B0F5C87F05
:1026800002D241F2670012E0A1F5FA7040F6C412DE
:10269000904202D242F2CF0009E0A1F6B830B0F584
:1026A000FA6F02D244F29F1001E04AF20F40A0817B
:1026B00010484143A089401C91FBF0F0401EA060EF
:1026C0000190A089ADF800000020ADF80800ADF839
:1026D000020020798DF80A0069462069FEF7CEFED7
:1026E00001212069FEF7A6FE012211462069FEF7AE
:1026F000BDFE3EBD204801000121FEF7ABBE08B57E
:102700000175427502788DF800208DF80110407D2A
:102710008DF8020001208DF803006846FEF74EFA9E
:1027200008BD0121FEF789BE0021FEF789BE0069C0
:102730000021FEF785BE0121FEF782BE006901215E
:10274000FEF77EBE10B504460161B1F1804F07D09F
:102750001A48814209D11D200121206002201BE07E
:102760001C2001212060084616E01548814204D152
:102770001E200121206004200EE01248814204D175
:10278000322001212060082006E00F48814205D157
:102790003720206001212020FEF758FA0022114640
:1027A0002046FFF7ACFF0020207101212046FFF7F3
:1027B00045FF2046FFF7BBFF204610BD0004004048
:1027C00000080040000C00400014004070B50446B2
:1027D000006D00792077E06DFFF778FD10B120469D
:1027E00003F070FD94F82400012803D0207F012518
:1027F00028B109E02046BDE8704001F001BC204648
:1028000001F0C4FB84F82550206DFFF769FE68B124
:1028100084F82550204602F085FA204603F052FB4A
:10282000204602F031FE206DFFF782FE204601F0C7
:10283000D1FD204602F03AF8204602F05DFA0F4C36
:10284000E06DFFF7BDFB206EFFF7BAFB606EFFF790
:10285000B7FBA06EFFF7B4FBE06EFFF7B1FB206F94
:10286000FFF7AEFB606FFFF7ABFBA06FFFF7A8FBB6
:10287000E06FBDE87040FFF7A3BB00000800002038
:102880002DE9F041044601F0C3FE94F82900002828
:1028900067D0354D4FF4FA5647F23051A889774248
:1028A0008842606D05D23146FFF7E8FC3946A06DDD
:1028B00004E03946FFF7E2FC3146A06DFFF7DEFC8D
:1028C000A8894EF66021401C80B20026A88188426B
:1028D00000D9AE8128794FF0010210B140F2C73122
:1028E00001E04FF44771204601F0DEFEA86D418BF8
:1028F00011B9297951B12E71A97809292AD2DFE8B5
:1029000001F0080A0D120E171A1C1F00012129716F
:10291000F2E7606D03E00021E06D06E0A06D0221AA
:10292000FFF71DFB16E00121E06DFFF714FD11E03C
:102930000221E06DF9E7606D00E0A06D0921EFE78D
:10294000E978E06D49B2FFF7EDFCE878401C00F053
:102950000300E870A878401CC0B2A870092800D114
:10296000AE70BDE8F08100000800002010B50446FC
:10297000C06DFFF7CBFCA06EFFF71AFD207F022889
:102980000AD0207F012809D02069FFF7F9F8606993
:10299000BDE81040FFF7F4B8206900E06069BDE8C9
:1029A0001040FFF7F0B800002DE9F041214C40F253
:1029B000DC57214E626A40F24C45B2F90020BA421F
:1029C00009DBA26AB2F90020AA4204DB226AB2F94A
:1029D0000020B2422CDD002201F066FE606A44F65F
:1029E0002062B0F900104FF4FA70B942616E01DA5A
:1029F0008A8301E000238B834882A16AB1F9001029
:102A0000A942A16E02DA8A83488202E0488200224B
:102A10008A83216AB1F90010B142216E02DD4BF2C6
:102A2000E01200E000228A8348820020BDE8F081A5
:102A30000120FBE708000020E0FCFFFF002280F8F7
:102A40002B201146036A5A54491C0D29FADB7047A2
:102A500070B53D4E0C462DED088B44F25061F06987
:102A6000B0F90050306AB0F90000084405F00BFAE4
:102A70009FED36AB53EC1A2B05F06CFA9FED359BAE
:102A800053EC192B05F066FA9FED34BB53EC1B2B6E
:102A900005F072F841EC180B706AB0F9000005F00F
:102AA000F2F953EC1A2B05F055FA53EC192B05F0FB
:102AB00051FA53EC1B2B05F05FF841EC100B51EC75
:102AC000190B53EC102B05F051FC53EC182B05F0AF
:102AD0004DFC41EC100B04F007F99FED221B51EC6B
:102AE000100B53EC112B05F035FA41EC190BB0EE3D
:102AF000480AF0EE680A04F0F7F89FED1C1B51EC51
:102B0000100B53EC112B05F025FA53EC192B04F0A4
:102B10007FFF9FED181B53EC112B05F019FB06D21C
:102B2000604200B2002C04DA14498D4205DC00201A
:102B300003E043F20C018D42F9DABDEC088BBDE8ED
:102B4000704002F029BB00000800002000000000D7
:102B500000000040E0864454FB21094000000000D2
:102B60000094E140000000008047EA4000000000BF
:102B7000003FEB40000000000011E240F4CFFFFFF7
:102B80002DE9F04F1F462DED108B83B014460E46F5
:102B900083469FEDFDCB90F826004FF0000A9FED95
:102BA000FCAB9FEDFDBBFE4D0028A5F180086ED16A
:102BB00004F1080090EC040B51EC100B53EC112BBA
:102BC00004F026FF41EC100B04F08EF853EC1A2BA6
:102BD00051EC100B05F0BEF941EC180B94ED020B13
:102BE00004F082F853EC1B2B51EC100B05F0B2F9FA
:102BF00053EC182B05F0BAFB41EC180B94ED000BCD
:102C000004F072F853EC182B51EC100B05F0A2F9FC
:102C100041EC100B85ED000B94ED000B04F0D0F8A7
:102C200053EC182B51EC100B05F094F941EC100B00
:102C300004F1080085ED020B90EC040B51EC100B35
:102C400053EC112B04F0E4FE41EC100B04F0B8F847
:102C500053EC1A2B51EC100B05F07CF941EC180BDE
:102C600094ED020B04F0ACF853EC1B2B51EC100B61
:102C700005F070F953EC182B05F078FB41EC100BC4
:102C8000012185ED040B88F80AA08BF8261007EBCC
:102C900047099FEDC4DB9FEDC5EB9FEDC6FB9FEDA4
:102CA000C78B9FEDC89B012E06D0022E7ED0032E2F
:102CB0007DD0002E7CD0F0E204F1080090EC040BF3
:102CC00051EC100B53EC112B04F0A2FE41EC100B55
:102CD00004F00AF853EC1A2B51EC100B05F03AF9FA
:102CE00041EC1C0B94ED020B03F0FEFF53EC1B2B8D
:102CF00051EC100B05F02EF953EC1C2B05F036FBB4
:102D000041EC1C0B98F90A00022802D003280FD0CE
:102D100036E094ED000B03F0E7FF53EC1C2B51EC75
:102D2000100B05F017F941EC100B85ED000B27E0B7
:102D300004F1080090EC040B51EC100B53EC112B38
:102D400004F066FE41EC100B04F03AF853EC1A2B39
:102D500051EC100B05F0FEF841EC1A0B94ED020B50
:102D600004F02EF853EC1B2B51EC100B05F0F2F88D
:102D700053EC1A2B05F0FAFA41EC100B85ED040B1D
:102D8000484605F080F841EC1A0B94ED000B04F076
:102D900017F853EC1C2B51EC100B05F0DBF853EC3F
:102DA0001A2B04F035FE41EC100B02E0D2E075E284
:102DB000B5E385ED020B53EC102B05F0CBF895ED48
:102DC000000B41EC1A0B53EC102B51EC100B05F0DF
:102DD000C1F853EC1A2B04F01BFE95ED040B41ECEB
:102DE0001B0B53EC102B51EC100B05F0B3F853EC0C
:102DF0001B2B04F00DFE41EC1A0BB0EE4B0AF0EE6B
:102E00006B0A04F049F8B0EE40BAF0EE60BAB0EEEA
:102E10004A0AF0EE6A0A04F03FF8B0EE40CAF0EE5B
:102E200060CA9FED6A0B53EC102B95ED000B51EC33
:102E3000100B05F053F80CD2D8F85C20A2F81AA0B9
:102E4000D8F86020A2F81AA0D8F86400A0F81AA058
:102E50001FE295ED000B53EC102B95ED020B51EC9E
:102E6000100B04F089FE41EC100B03F0C9FD53EC8C
:102E7000182B51EC100B05F06DF853EC192B04F0E6
:102E80007BFE41EC100B53EC1D2B8DED000B51EC38
:102E90001C0B05F05FF841EC1C0B53EC1E2B51ECA6
:102EA0001A0B04F0B5FD53EC1F2B05F05FFA53EC41
:102EB0001C2B04F061FE41EC100B03F0F9FBB0EEAB
:102EC00040CAF0EE60CA95ED040B53EC1B2B51EC9D
:102ED000100B04F051FE41EC100B03F091FDB0EE2D
:102EE000401AF0EE601A53EC1C2B51EC110B04F05D
:102EF0008FFD9FED381B53EC112B05F037FA53EC87
:102F0000182B05F027F853EC192B04F035FE53EC81
:102F1000182B05F02BFA9FED310B41EC1B0B53ECFA
:102F20001A2B51EC100B05F021FA9FED2E1B53ECE0
:102F3000112B04F021FE41EC100B03F0B9FB53EC14
:102F4000182B51EC100B05F005F853EC192B04F07D
:102F500013FE89E104F1080090EC040B51EC100B16
:102F600053EC112B04F054FD41EC100B03F0BCFEAC
:102F700053EC1A2B51EC100B04F0ECFF41EC1C0B42
:102F800094ED020B32E000000000000000000000A1
:102F90009A99999999D18040000000000070814071
:102FA0008800002000000000007091400000000038
:102FB000100113415C8FC2F5ECAD1141000000001F
:102FC0000094D140E0864454FB21094000000000F9
:102FD00000C07240844A5CC7B8E2923FAE47E17AD3
:102FE0007E572241666666666E54224103F07CFE7F
:102FF00053EC1B2B51EC100B04F0ACFF53EC1C2BCF
:1030000005F0B4F941EC1C0B98F90A00012802D034
:1030100003280FD036E094ED000B03F0D1FE53EC03
:103020001C2B51EC100B04F095FF41EC100B85EDBF
:10303000020B27E004F1080090EC040B51EC100B9C
:1030400053EC112B04F0E4FC41EC100B03F0B8FE40
:1030500053EC1A2B51EC100B04F07CFF41EC1A0BD3
:1030600094ED020B03F0ACFE53EC1B2B51EC100B58
:1030700004F070FF53EC1A2B05F078F941EC100BBB
:1030800085ED040B09EBD970401004F0FCFE41EC17
:103090001A0B94ED000B03F027FE53EC1C2B51ECA4
:1030A000100B04F057FF53EC1A2B04F0B1FC41EC69
:1030B0001A0B85ED00AB95ED020B53EC102B51EC88
:1030C000100B04F047FF41EC1B0B53EC1A2B51EC97
:1030D0001A0B04F03FFF53EC1B2B04F099FC95ED09
:1030E000040B41EC1B0B53EC102B51EC100B04F0B8
:1030F00031FF53EC1B2B04F08BFC41EC1A0BB0EEB0
:103100004B0AF0EE6B0A03F0C7FEB0EE40BAF0EEE9
:1031100060BAB0EE4A0AF0EE6A0A03F0BDFEB0EE05
:1031200040CAF0EE60CA95ED000B53EC102B95ED04
:10313000020B51EC100B04F01FFD41EC100B03F0DF
:103140005FFC53EC182B51EC100B04F003FF53EC15
:10315000192B04F011FD41EC100B53EC1D2B8DEDE0
:10316000000B51EC1C0B04F0F5FE41EC1C0B53EC76
:103170001E2B51EC1A0B04F04BFC53EC1F2B05F0EB
:10318000F5F853EC1C2B04F0F7FC41EC100B03F0AA
:103190008FFAB0EE40CAF0EE60CA95ED040B53EC26
:1031A0001B2B51EC100B04F0E7FC41EC100B03F06F
:1031B00027FCB0EE401AF0EE601A53EC1C2B51ECD9
:1031C000110B04F025FC1FED7D1B53EC112B05F0BA
:1031D000CDF853EC182B04F0BDFE53EC192B04F082
:1031E000CBFC53EC182B05F0C1F853EC1A2B41EC37
:1031F0001B0B1FED860B51EC100B05F0B7F81FED04
:10320000871B53EC112B04F0B7FC41EC100B03F0BF
:103210004FFA53EC182B51EC100B04F09BFE53ECBF
:10322000192B04F0A9FC41EC180B9FEDD70B53ECC4
:10323000102B95ED000B51EC100B04F04FFE02D259
:10324000002FFFF6F9AD9FEDD20B53EC102B95ED4F
:10325000000B51EC100B04F07BFF1AD27900032015
:1032600091FBF0F751EC180B04F0DEFD814651ECB8
:103270001B0B04F0D9FD9DED000B044651EC100B27
:1032800004F0D2FD01464B4622460097584601F015
:1032900069FA88F80A6095ED00CB49E104F108006D
:1032A00090EC040B51EC100B53EC112B04F0B0FB21
:1032B00041EC100B03F018FD53EC1A2B51EC100BE2
:1032C00004F048FE41EC1C0B94ED020B03F00CFDE6
:1032D00053EC1B2B51EC100B04F03CFE53EC1C2B5D
:1032E00005F044F841EC1C0B98F90A00012802D0C3
:1032F00002280FD01CE094ED000B03F061FD53ECAD
:103300001C2B51EC100B04F025FE41EC100B85ED4D
:10331000020B0DE094ED000B03F0E6FC53EC1C2BCC
:1033200051EC100B04F016FE41EC100B85ED000B78
:10333000384604F0A8FD41EC1C0B04F1080090ECA9
:10334000040B51EC100B53EC112B04F061FB41EC1E
:10335000100B03F035FD53EC1A2B51EC100B04F05D
:10336000F9FD41EC1A0B94ED020B03F029FD53EC2F
:103370001B2B51EC100B04F0EDFD53EC1A2B04F059
:10338000F5FF53EC1C2B04F043FB41EC1A0B85EDCD
:1033900004AB95ED020B53EC102B51EC100B04F029
:1033A000D9FD95ED000B41EC1B0B53EC102B51ECB0
:1033B000100B04F0CFFD53EC1B2B04F029FB41EC68
:1033C0001B0B53EC1A2B51EC1A0B04F0C3FD53ECFE
:1033D0001B2B04F01DFB41EC1A0BB0EE4B0AF0EE78
:1033E0006B0A03F059FDB0EE40BAF0EE60BAB0EEF1
:1033F0004A0AF0EE6A0A03F04FFD53EC1D2B51EC24
:10340000100B04F0A7FD41EC1C0B53EC1E2B51ECF0
:103410001A0B04F0FDFA53EC1F2B04F0A7FF53EC3A
:103420001C2B04F0A9FB41EC100B03F041F9B0EEAA
:1034300040CAF0EE60CA95ED040B53EC1B2B51EC27
:10344000100B04F099FB41EC100B03F0D9FAB0EE2D
:10345000401AF0EE601A53EC1C2B51EC110B04F0E7
:10346000D7FA9FED4D1B53EC112B04F07FFF53EC6B
:10347000182B04F06FFD53EC192B04F07DFB53EC7B
:10348000182B04F073FF53EC1A2B41EC1B0B9FED30
:10349000440B51EC100B04F069FF9FED431B53EC00
:1034A000112B04F069FB41EC100B03F001F953EC14
:1034B000182B51EC100B04F04DFD53EC192B04F0BC
:1034C0005BFB9FED3B0B41EC1A0B53EC102B95ED86
:1034D000000B51EC100B04F001FDFFF4ADAC032028
:1034E00097FBF0F751EC1A0B04F09EFC824651EC6E
:1034F0001B0B04F099FC94ED000B814653EC182B48
:1035000051EC100B04F026FD53EC192B04F034FBA6
:1035100004F08AFC014653464A460097B6E600206E
:1035200001F03AFE002001F063FD002001F0D8FE1A
:10353000D8F860004446418BD8F86400408B0844BA
:1035400001B2D8F86800FEF7EDFCE06DB0F91A00A2
:1035500004F099FC9FED181B53EC112B04F0FAFCBE
:1035600004F062FC404201B2E06EFEF7DBFC58461C
:1035700000F0B6FE03B0B0EE4C0AF0EE6C0ABDEC03
:10358000108BBDE8F08F00000000000000A0744028
:103590000000000000406F40844A5CC7B8E2923FE0
:1035A000AE47E17A7E572241666666666E542241D6
:1035B0000000000000C0724026E4839ECD2AF63F42
:1035C00070B508462DED108B82B09FEDFD8BFE4C43
:1035D00004F059FC41EC190B206A44F25061B0EE42
:1035E00048BAB0F90000F0EE68BAB0EE48AAF0EEC2
:1035F00068AA084404F047FC9FEDF4FB53EC1F2B32
:1036000004F0A8FC9FEDF3DB53EC1D2B04F0A2FCAF
:103610009FEDF21B53EC112B04F0AEFA41EC1C0BA6
:10362000606AB0F9000004F02EFC53EC1F2B04F08C
:1036300091FC53EC1D2B04F08DFC9FEDE81B53EC2B
:10364000112B04F099FA41EC1E0BA06AB0F90000AE
:1036500004F019FC53EC1F2B04F07CFC53EC1D2BE5
:1036600004F078FC9FEDDD1B53EC112B04F084FA81
:1036700041EC1F0B53EC1E2B51EC1D0B04F076FE9E
:1036800053EC1C2B04F072FE41EC100B53EC1C2B82
:103690008DED000B9FEDD30B51EC100B04F066FE8B
:1036A00041EC1D0B53EC1E2B51EC1F0B04F05EFE86
:1036B00053EC1D2B04F0ACF941EC1E0BB0EE4C0AA0
:1036C000F0EE6C0A03F010FB9FEDC81B51EC100BE1
:1036D00053EC112B04F03EFC41EC1C0B9DED000B58
:1036E00003F002FB9FEDC31B51EC100B53EC112BAD
:1036F00004F030FC41EC1D0B51EC1C0B53EC1D2B6A
:1037000004F086F90E46054646EC1C0BB0EE4E0A58
:10371000F0EE6E0A03F054FB9FEDB81B51EC100B5A
:1037200053EC112B04F016FC53EC1C2B04F046FD5B
:1037300041EC1F0B9FEDB3EB51EC1C0B53EC1E2B1C
:1037400004F0CCFB06D353EC1E2B51EC1F0B04F002
:10375000C5FB06D253EC182B51EC190B04F0F8FC06
:103760003AD353EC182B51EC190B04F0B7FB08D2E9
:103770009FEDA60B51EC1C0B53EC102B04F0AEFB91
:103780002AD3B0EE480AF0EE680A53EC102B51EC45
:10379000190B04F0A3FB0DD2606A43F2C821B0F903
:1037A0000000884218DCA06A43F69821B0F90000B6
:1037B000884211DCB0EE49AAF0EE69AA46EC1B5B28
:1037C00053EC1D2B51EC190B04F0C4FB53EC1B2BD9
:1037D00004F0D2F941EC1B0B51EC1A0B53EC1B2BF0
:1037E00004F0C4FD41EC1D0B53EC182B51EC1A0BEB
:1037F00004F0AEFC04D2B0EE4AEAF0EE6AEA05E06C
:1038000051EC1A0B04F0F7F841EC1E0BB0EE48CA6D
:10381000F0EE68CA53EC1C2B51EC1B0B04F098FC27
:1038200004D2B0EE4B0AF0EE6B0A05E051EC1B0B34
:1038300004F0E1F841EC100B53EC1E2B51EC100B93
:1038400004F086FC53EC1C2B0CD251EC1B0B04F047
:103850007FFC04D2B0EE4B8AF0EE6B8A12E051ECA2
:103860001B0B0BE051EC1A0B04F072FC04D2B0EE0F
:103870004A8AF0EE6A8A05E051EC1A0B04F0BBF8B4
:1038800041EC180B53EC1C2B51EC1D0B04F060FCAD
:1038900004D2B0EE4DEAF0EE6DEA05E051EC1D0BFE
:1038A00004F0A9F841EC1E0B53EC1C2B51EC180B47
:1038B00004F04EFC04D2B0EE480AF0EE680A05E0CF
:1038C00051EC180B04F097F841EC100B53EC1E2B45
:1038D00051EC100B04F03CFC53EC1C2B07D251ECC8
:1038E000180B04F035FC12D351EC180B0BE051EC23
:1038F0001D0B04F02DFC04D2B0EE4D8AF0EE6D8A63
:1039000005E051EC1D0B04F076F841EC180B53EC7C
:103910001C2B51EC190B04F01BFC05D351EC190BBB
:1039200004F069F841EC190B53EC182B51EC1B0B0C
:1039300004F022F953EC192B04F00CFB41EC1B0BA7
:1039400053EC182B51EC1A0B04F016F953EC192B0D
:1039500004F000FB41EC1A0B53EC182B51EC1D0B3F
:1039600004F00AF953EC192B04F0F4FA41EC180BAB
:1039700051EC1B0B04F058FA00B201F039FB51EC8A
:103980001A0B04F038F804F04FFA00B201F0A8FC6A
:1039900051EC180B04F02FF804F046FA00B201F0D5
:1039A00011F9206E408B30B1606E408B18B1A06E63
:1039B000408B002838D1002001F01AFB002029E0BC
:1039C00000000000000000000800002000000000CF
:1039D00000000040E0864454FB2109400000000044
:1039E0000094E140E0864454FB21F93F00000000D0
:1039F000003FEB40000000008047EA40000000006C
:103A0000006AD840000000000088E3400000000089
:103A10000046DE4001F064FC02B00020BDEC108BDB
:103A2000BDE8704001F0CEB802B0BDEC108B70BDA7
:103A30002DE9F34F8B462DED108B87B044F2506A81
:103A40009FEDFD8BFE498946CA69B0EE489AF0EEBB
:103A5000689AB2F900604A6AB2F900508A6A096A43
:103A6000B2F90040B1F9001001EB0A0004F00BFAC2
:103A70009FEDF4EB53EC1E2B04F06CFA9FEDF3CBAF
:103A800053EC1C2B04F066FA9FEDF2FB53EC1F2B5A
:103A900004F072F89FEDF1BB53EC1B2B03F0B8FF61
:103AA00041EC1A0B284604F0EEF953EC1E2B04F0FF
:103AB00051FA53EC1C2B04F04DFA53EC1F2B04F07D
:103AC0005BF841EC1D0B204604F0DDF953EC1E2B96
:103AD00004F040FA53EC1C2B04F03CFA53EC1F2B7F
:103AE00004F04AF841EC1F0B53EC1D2B51EC1C0B5E
:103AF00004F03CFC53EC1A2B04F038FC41EC1E0B98
:103B000053EC1A2B51EC1B0B04F030FC53EC1B2B29
:103B100003F07EFF41EC1C0B53EC1D2B51EC1F0BF3
:103B200004F024FC53EC1C2B03F072FF41EC100B4F
:103B30008DED040BB0EE4A0AF0EE6A0A03F0D4F8F9
:103B40009FEDC8DB51EC100B53EC1D2B04F002FA77
:103B500041EC100B8DED020BB0EE4E0AF0EE6E0A4A
:103B600003F0C2F89FEDC1FB51EC100B53EC1F2B7F
:103B700004F0F0F941EC1C0B53EC1B2B51EC1A0B2D
:103B800004F0F4FB804641EC100B019103F018F9AE
:103B900053EC1D2B51EC100B04F0DCF941EC1A0B2B
:103BA00053EC1B2B51EC1E0B03F032FF074641EC8C
:103BB000100B009103F004F953EC1F2B51EC100B88
:103BC00004F0C8F941EC1B0B009941EC107B03F0A9
:103BD0008BF853EC1F2B51EC100B04F0BBF941ECAC
:103BE0001E0B019941EC108B03F07EF853EC1D2B5A
:103BF00051EC100B04F0AEF953EC1E2B03F008FF50
:103C000041EC1D0B9DED040B03F0DAF89FED991BC1
:103C100051EC100B53EC112B04F09CF953EC1D2BC1
:103C200004F0CCFA41EC1E0B9FED940B51EC1D0BF4
:103C300053EC102B04F052F937D2002440F239270C
:103C4000BBF1000F0DDD179800F0BEF9002827D05A
:103C500042F22830CDE9014053464242CDF800A05F
:103C600018E04FF4FA639D4276DB06F2077041F2EA
:103C70001751884206D244F26820CDE90140814ABA
:103C8000009307E043F66C10CDE9014041F6C813FC
:103C90007D4A0093CDE903473146179800F002FAB8
:103CA00007B0BDEC108BBDE8FC8F9FED780B51EC9D
:103CB0001E0B53EC102B04F011F94DD353EC1B2BBE
:103CC00051EC1A0B04F044FA584604D204F0DBF825
:103CD00003F091FE01E004F0D6F8B0EE48DAF0EE21
:103CE00068DA41EC1A0B53EC1D2B04F0F7F805D2FF
:103CF00043F2C82085421BDC844219DC9DED020B97
:103D0000B0EE4A8AF0EE6A8A53EC1C2B51EC100B91
:103D100003F07EFE41EC190B53EC1C2B51EC1A0BFB
:103D200004F018F953EC192B03F026FF41EC190BA2
:103D300051EC180B53EC192B04F018FB41EC1C0B45
:103D400053EC1D2B51EC180B04F002FA05D2B0EE27
:103D500048BAF0EE68BA06E00AE151EC180B03F03D
:103D60004AFE41EC1B0B53EC1D2B51EC190B04F0DC
:103D7000EFF904D2B0EE490AF0EE690A05E051EC21
:103D8000190B03F038FE41EC100B53EC1B2B51ECDC
:103D9000100B04F0DDF953EC1D2B0CD251EC190B78
:103DA00004F0D6F904D2B0EE49BAF0EE69BA12E0E6
:103DB00051EC190B0BE051EC180B04F0C9F904D2CB
:103DC000B0EE48BAF0EE68BA05E051EC180B03F01B
:103DD00012FE41EC1B0B53EC1D2B51EC1C0B04F0A1
:103DE000B7F904D2B0EE4CEAF0EE6CEA05E051EC23
:103DF0001C0B03F000FE41EC1E0B53EC1D2B51EC91
:103E00001B0B04F0A5F904D2B0EE4B0AF0EE6B0ADE
:103E100005E051EC1B0B03F0EEFD41EC100B53ECF5
:103E20001E2B51EC100B04F093F953EC1D2B37D2E1
:103E300051EC1B0B2EE00000000000000000000011
:103E4000080000200000000000000040E08644540C
:103E5000FB210940000000000094E140E08644544A
:103E6000FB21F93F00000000003FEB400000000094
:103E70008047EA4000000000006AD84000000000CF
:103E8000004CDD4018FCFFFF1CF3FFFF00000000AA
:103E90000011E24004F05CF912D351EC1B0B0BE073
:103EA00051EC1C0B04F054F904D2B0EE4CBAF0EE15
:103EB0006CBA05E051EC1C0B03F09DFD41EC1B0BB3
:103EC00053EC1D2B51EC1A0B04F042F905D351ECC5
:103ED0001A0B03F090FD41EC1A0B53EC1B2B51EC29
:103EE000190B03F049FE53EC1A2B04F033F841ECA4
:103EF000190B53EC1B2B51EC180B03F03DFE53EC4C
:103F00001A2B04F027F841EC180B53EC1B2B51EC47
:103F10001C0B03F031FE53EC1A2B04F01BF841ECA0
:103F20001A0B51EC190B03F07FFF00B201F060F89F
:103F300051EC180B03F05FFD03F076FF00B201F0C7
:103F4000CFF951EC1A0B03F056FD03F06DFF00B2F0
:103F500000F038FED9F860104846498B41B1416EF7
:103F6000498B29B1D9F86800408B00287FF498AEBE
:103F7000002001F03DF8002001F0B2F907B0002068
:103F8000BDEC108BBDE8FC4F00F01CBE426D002163
:103F90005183806D41830B48826D5183C26D518383
:103FA000026E5183426E5183826E5183C26E518381
:103FB000026F5183426F5183826F5183C06F41837F
:103FC000704700000800002070B540F23924054613
:103FD0002146FEF7E9FC00280DD00848006CB0F936
:103FE0000000A0F23520092806D3002221462846E9
:103FF00000F05AFB002070BD012070BD08000020B9
:1040000010B590F91C00214C01280BD0022827D0B4
:1040100010BDA06CFDF758FE0146206DFDF759FE5E
:104020000028F6D0A06CFDF75CFE0028F1D108E076
:10403000206DFDF749FE0146A06CFDF74AFE002801
:10404000F6D0206DFDF74DFE0028F1D110BD606C5B
:10405000FDF73AFE0146206DFDF73BFE0028F6D045
:10406000606CFDF73EFE0028F1D108E0206DFDF701
:104070002BFE0146606CFDF72CFE0028F6D0206D6B
:10408000FDF72FFE0028F1D110BD00000800002030
:10409000002280F82A201146036A5A54491C0D292F
:1040A000FADB70472DE9FF4F95B00F4623A91D4657
:1040B000B1E8000F1646202104A8FCF7FFF82021E4
:1040C0000CA8FCF7FBF8654C48F69862E069B0F97B
:1040D0000000381A0490206AB0F90000301A0590E8
:1040E000606AB0F90000281A0690A06AB0F90010C2
:1040F0002298401A0790E06AB0F90010A8EB01007E
:104100000890206BB0F90010A9EB01000990606BDA
:10411000B0F90010AAEB0100CDE90A0B0498C0EB3E
:10412000C001C1EBC010C11700EB117000110C9061
:10413000059948F69860414341F2ED7091FBF0F12A
:104140000D910699514391FBF0F10E91079951435E
:1041500091FBF0F00F90089840F275514843C82148
:1041600090FBF1F01090099840F2755148434FF4DC
:10417000967190FBF1F011900A9840F6DF214843C8
:104180004FF47A7190FBF1F01290002013900CA97B
:10419000159801F09FFF054600220B99159800F035
:1041A00083FA60784042054255D0EE17CDE90256B9
:1041B0001298C117CDE900010A9A606FD317FDF775
:1041C000A2FFCDE902561198099AC117CDE9000165
:1041D000D3172349206FFDF706FFCDE9025610984B
:1041E000089AC117CDE90001D317E06EFDF78BFFE8
:1041F000CDE902560F98079AC117CDE90001D317F0
:104200001849A06EFDF7EFFE0E98CDE90256C117D2
:10421000CDE90001069A1449D317606EFDF7E3FE5D
:10422000CDE902560D98C117CDE90001059A0F4955
:10423000D317206EFDF7D7FECDE902560C98049AED
:10424000C117CDE90001D3170949E06DFDF7CBFE99
:10425000159800F045F819B0BDE8F08F080000206F
:10426000B9530008C54B0008E1520008F14F00089F
:104270009951000830B5046CC36B0022B4F90040BA
:10428000B3F9003004EBD474C4F34705446C806C7C
:1042900003EBD373B4F90040B0F90000C3F3470354
:1042A00004EBD47400EBD0701146C4F34704C0F3A0
:1042B0004700322B01D901221946322D01D9521C57
:1042C0002944322C01D9521C2144322801D9521CD4
:1042D00001441AB1B1FBF2F0C0B230BD0020FBE7DF
:1042E0002DE9FE4F3A484FF00008C446816D47461D
:1042F0008B46497C464645464446434642460B2942
:1043000001D00C2901D14FF00108C16D0291497C07
:104310000B2901D00C2901D14FF0010C016E019144
:10432000497C0B2901D00C2900D10127416E009155
:10433000497C0B2901D00C2900D10126816E8E46C3
:10434000497C0B2901D00C2900D10125C16E8A4678
:10435000497C0B2901D00C2900D10124016F894629
:10436000497C0B2901D00C2900D10123416F487CE5
:104370000B2801D00C2800D1012248EA0C00384358
:10438000304328432043184310431ED00020B8F187
:10439000000F01D1ABF81A00BCF1000F03D1DDF81A
:1043A00008C0ACF81A000FB9019F78830EB9009EBF
:1043B00070830DB9AEF81A000CB9AAF81A000BB93F
:1043C000A9F81A0002B948830120BDE8FE8F000059
:1043D000080000202DE9F0418C4C0646E06D017C80
:1043E0000A2902D90821FDF76CFD206E017C0A29FB
:1043F00002D90821FDF765FD606E017C0A2902D90A
:104400000821FDF75EFDA06E017C0A2902D9082172
:10441000FDF757FDE06E017C0A2902D90821FDF75E
:1044200050FD206F017C0A2902D90821FDF749FDC2
:10443000606F017C0A2902D90821FDF742FDA06FB7
:10444000017C0A2902D90821FDF73BFDE06F017CC0
:104450000A2902D90821FDF734FD306E017C0A29B2
:1044600002D90821FDF72DFD206DFDF781FC002804
:104470007DD00020FDF72CFD417805460F0900D0C6
:104480000837A878412803D0682801D0432864D190
:1044900001F00F00092860D2DFE800F0050F1923B2
:1044A0002D37414B5800E06DFDF71FFD3946E06D9B
:1044B000FDF707FDE978E06944E0206EFDF715FDA2
:1044C0003946206EFDF7FDFCE978206A3AE0606E1F
:1044D000FDF70BFD3946606EFDF7F3FCE978606A85
:1044E00030E0A06EFDF701FD3946A06EFDF7E9FC56
:1044F000E978A06A26E0E06EFDF7F7FC3946E06E49
:10450000FDF7DFFCE978E06A1CE0206FFDF7EDFCC9
:104510003946206FFDF7D5FCE978206B12E0606F1B
:10452000FDF7E3FC3946606FFDF7CBFCE978606B83
:1045300008E0A06FFDF7D9FC3946A06FFDF7C1FC7C
:10454000E978A06B41702979017006E0E06FFDF712
:10455000CCFC3946E06FFDF7B4FC2078032836D157
:10456000206AB0F90000A0F25720414200E04AE082
:1045700040F2AE48414508D8206E417C0B2901D05D
:104580000C2902D10021FDF79CFC606AB0F9000003
:10459000A0F2AF404142414508D8606E417C0B29F2
:1045A00001D00C2902D10021FDF78BFCA06AB0F9E3
:1045B0000000A0F21F304142414508D8A06E417C66
:1045C0000B2901D00C2902D10021FDF77AFC687873
:1045D00000F00F00092806D1306EFDF786FC394641
:1045E000306EFDF76EFC687800F00F000A280AD1E3
:1045F0003946F06EFDF765FCF06E2979C174F06EF6
:10460000C07C86F82700BDE8F0810000080000208B
:1046100070B5054690F82900002842D1214C6079F8
:10462000C8B1012824D0022825D0032826D0042888
:1046300027D0052828D0062829D007282AD04FF4CB
:104640007A60FCF76DFEE86D0121C174E86DBDE88C
:104650007040FDF75BBE6868FEF769F8E868FEF732
:1046600066F80521A868FDF7E9FF0721E06D13E072
:104670000721206E10E00721606E0DE00721A06E7B
:104680000AE00721E06E07E00721206F04E0072120
:10469000606F01E00721A06FFDF746FC6079401CC8
:1046A000607170BD080000202DE9F003DFF8B090C4
:1046B000A1F23A33D9F84000B0F900200020702B65
:1046C0004AD3A2F23A33702B46D34FF4FA6441F640
:1046D0005833674240F23938A5105E424FEAA70CC2
:1046E000414514D8A2F2AA38B8F1560F07D2891A58
:1046F00001F5806112E00A2915DD204625E08A4295
:104700000BDB511A19E00A291CDD38461DE040F286
:10471000AA3842450BD38A4209DA891A09B2142908
:10472000E9DD184611E004290FDD28460DE08A4234
:1047300002DBB2F5806FE4D3891A09B21429E2DDF5
:10474000304602E0042900DD604601B2D9F8580085
:10475000BDE8F003FDF792BDBDE8F003704700002F
:10476000080000202DE9F04F8DB00D468246984696
:104770001446202104A8169FFBF7A0FD374E48F6EB
:104780009862F069B0F90000A5EB0009306AB0F951
:104790000000251A706AB0F90010A8EB0108C9EBF7
:1047A000C901C1EBC910C11700EB117000110490D1
:1047B00048F69860684341F2ED7190FBF1F0059086
:1047C00008FB02F090FBF1F0069004A9504601F0BE
:1047D00081FC04467078404204423CD07E420698F8
:1047E000002F01DD394600E0314648434FF0070B0A
:1047F00090FBFBF0C1174FEAE47A42464FEAE873B8
:104800008DE81304DFF85480D8F86400FDF70EFD3E
:104810000598002F01DD394600E03146484390FB02
:10482000FBF0C1178DE813042A46EB174546D8F86C
:104830006000FDF7FBFC0498002F00DC374678434E
:1048400090FBFBF0C1178DE813044A464FEAE97369
:10485000E86DFDF7EBFC0DB0BDE8F08F080000201F
:1048600070B50446406EFDF7A7FE0F4D686CFDF76E
:10487000EBF9A86CFDF7E8F9E86CFDF7E5F9286DB0
:10488000FDF7E2F9686DFDF7DFF92068FDF7DCF967
:104890006068FDF753FFA068FDF750FFE068BDE8D2
:1048A0007040FDF74BBF0000080000202DE9F041EB
:1048B000724E044641F28832B6F91410481C00B218
:1048C000914201DAB0820CE004D1B082E06DFDF7D4
:1048D0000CFB06E0E06D017C0A2902D90821FDF7F6
:1048E000F0FA606D017C0A2902D90821FDF7E9FA86
:1048F000A06D017C0A2902D90821FDF7E2FAB06D0A
:10490000017C0A2902D90821FDF7DBFA706DFDF759
:104910002FFA002827D00120FDF7DAFA0546407863
:10492000070900D0083710F00F001ED0012836D03C
:1049300002284FD0032816D1E06DFDF7D6FA39468C
:10494000E06DFDF7BEFAA87801210222722853D04B
:10495000732808D1E87883097ED0B1EB901F7CD111
:10496000287984F84D00BDE8F081606DFDF7BDFA4F
:1049700017B13946606D07E094F94C005A28606D14
:1049800001DD092100E00021FDF79BFAA878492804
:10499000E9D1616BE87848702879616B18E0A06D07
:1049A000FDF7A3FA17B13946A06D07E094F94D0061
:1049B0005A28A06D01DD092100E00021FDF781FAF0
:1049C000A8784928CFD1A16BE87848702879A16BE5
:1049D0000870C8E7B06DFDF788FA0FB1394606E0F8
:1049E00094F94E005A2801DD092100E00021B06D44
:1049F000BDE8F041FDF765BAE878830909D0B1EB6D
:104A0000901F0DD1216C00F03F0048702879216C77
:104A10001AE0E16B00F03F0048702879E16B13E089
:104A2000B2EB901F06D1616C00F03F00487028790E
:104A3000616C09E00321B1EB901F06D1A16C00F07D
:104A40003F0048702879A16C08702046FFF712FCDF
:104A50006077617FA06E01E004E007E0BDE8F0410F
:104A6000FDF7BCBC287984F84C007CE7B2EB901FC2
:104A7000AFD1287984F84E0075E7000008000020C7
:104A80002DE9F0474C4905460024086C40F2654288
:104A9000008810FB02F0C21700EBD260C0F34F1287
:104AA000086A2346B0F90070C869B0F9006008468A
:104AB000806D6DB1497871B1A2F5E441DC3940F601
:104AC000644C614509D2052143830846BDE8F0875F
:104AD00043831846FAE729465FE0032195FBF1F18D
:104AE000DFF8D8C0DFF8D88041F2EC3909B2002DE8
:104AF00030DA6FF0C70A674519DD464517DD4E45C8
:104B000015DAA2F5E6463F3E41F28237BE42E2D2D6
:104B100048F29455AA4240D848F230518A4203D90B
:104B20005146FDF7ABFB00E04383032442E045F22E
:104B30001706B242CFD844F6EB65AA422DD844F608
:104B400023618A4203D95146FDF798FB00E0438375
:104B500001242FE0674518DD464516DD4E4514DA81
:104B6000A2F5D6465C3EB6F59C5FB4D846F68845BD
:104B7000AA4212D346F6EC418A4203D2C821FDF77D
:104B80007DFB00E04383042414E046F28476B242C5
:104B9000A1D346F6B005AA4202D2FDF76FFB09E0A9
:104BA00046F678118A4203D2C821FDF767FB00E080
:104BB00043830224204689E70800002014ECFFFF0D
:104BC000FCEFFFFF2DE9F0414A4905004FF00004DA
:104BD000486A2346B0F90060886AB0F90020086B83
:104BE000B0F90070886BB0F900C00846806E1FD025
:104BF000497800297CD0032195FBF1F109B24FF4EB
:104C0000AF6E002D2ADA42F6186C6FF0C7066745C2
:104C100015DA40F6C417BA426ADC40F63405AA42F7
:104C200056DCB2F5FA6F07DD3146FDF727FB04E0ED
:104C300043831846BDE8F0814383012456E0724562
:104C400056DCB2F57A7F43DCB2F5617F03DD314695
:104C5000FDF714FB00E04383022447E040F6AC5725
:104C6000BE4216DA764502DA438303243EE0B2F50B
:104C70007A6F3DDB41F23015AA4229DB41F29411F3
:104C80008A4203DAC821FDF7F9FA00E043830424DD
:104C90002CE040F24C46B44512DA44F25C46B24293
:104CA00026DB44F28855AA4212DB44F2EC518A42D8
:104CB00003DAC821FDF7E2FA00E04383052415E09A
:104CC00043F2F436B24213DB43F28455AA4203DACC
:104CD000FDF7D4FA0AE00BE043F2E8518A4203DA26
:104CE000C821FDF7CBFA00E0438306242046A1E764
:104CF0002946EDE70800002010B5406EFDF754FC92
:104D000000EB00104821B0FBF1F0722802DA00F24B
:104D10008D3000E072380249096C088010BD000037
:104D2000080000202DE9F0410446006D0126002511
:104D300081694878302802D0502837D054E08878EC
:104D4000AA2804D0112815D0552821D04CE0C878C5
:104D5000BB2849D10879CC2846D14879DD2843D1F0
:104D600084F82460A068FDF7E2FCE068BDE8F0414B
:104D7000FDF7DDBCC878222836D10879332833D135
:104D80004879442830D12046BDE8F041FFF780B98A
:104D9000C878662828D10879772825D148798828C5
:104DA00022D12046BDE8F041FDF748BE8878AA2808
:104DB0001AD1C878BB2817D10879CC2814D14879E2
:104DC000DD2811D18879EE280ED1C879FF280BD1C2
:104DD000087A112808D1487A222805D1887A332800
:104DE00002D1C87A442816D084F82450487A4B4A15
:104DF00007070D23002F12D050DA8D7905F0070533
:104E0000012D0ED0022D11D0032D14D0042D20D051
:104E1000052D23D071E084F82C50BDE8F081157089
:104E200073E00879400768D106206DE008794007F3
:104E300063D1072068E00D796E0704D005F00705FF
:104E4000032D02D059E008205EE0400755D503202D
:104E50005AE00879400758D1092055E00D796F07CD
:104E600004D005F00705012D02D005E00A204BE033
:104E7000470701D5167048E0022D03D1460701D53A
:104E8000022041E0042D03D1460701D504203BE078
:104E9000052D32D1400730D5052035E0C0F381051E
:104EA000012D06D000F0030002282AD001282AD0C4
:104EB0002BE00879C5436D0704D000F007000628F1
:104EC0001DD01AE04879450705D0000701D412200B
:104ED0001AE0132018E0C879450705D0000701D46F
:104EE000102011E011200FE010F0700F05D0000627
:104EF00001D40F2008E00E2006E0137005E0142016
:104F000002E00B2000E00C2010700020236B0A5CF4
:104F10001A54401C0D28F9DB7FE700000800002030
:104F200070B52D4E00243146B06BCA6EB0F90050FA
:104F3000F06AB0F9000000280FDDB0F57A7F01DDDE
:104F4000264918E0C82801DD254914E0642801DD60
:104F5000244910E00020508310E010F57A7F02DA37
:104F600042F6E06107E010F1C80F02DA41F2707119
:104F700001E04FF4C8711046FDF780F941F2BA31F3
:104F800041F27C508D420CDD854201DD164C1AE069
:104F900041F21E40854201DD144C14E0114C643492
:104FA00011E041F288318D4202DA42F228340AE0FF
:104FB00041F2B4418D4202DA41F2941403E0854299
:104FC00001DA4FF4967420B200F020FF0146B06F72
:104FD000BDE87040FCF784BF0800002020D1FFFF2F
:104FE00090E8FFFF70FEFFFFD8DCFFFF6CEEFFFFD5
:104FF0002DE9F0474C4905460024086C40F2654213
:10500000008810FB02F0C21700EBD260C0F34F170C
:10501000086A2346B0F90020C869B0F90060486A00
:10502000B0F900C00846006E85B1497889B1032106
:1050300095FBF1F141F2175909B2002D4BDABCF59D
:10504000AF6F08DA43830120BDE8F0874383184639
:10505000FAE7294659E0A7F59847F83F41F6AC58DA
:105060006FF0C70C474525D206F60F664E4510D2A5
:105070002E4EB242EDDC2E4DAA4246DC2C4964395C
:105080008A4203DD6146FDF7F9F800E0438302241C
:1050900048E0284EB242DCDC274DAA4235DC2649E6
:1050A00064398A4203DD6146FDF7E8F800E0438396
:1050B000032437E0214EB242CBDC214DAA4224DC4E
:1050C0001F4964398A4203DD6146FDF7D7F800E0E5
:1050D0004383042426E006F207764E450FD212F5EC
:1050E000FA6FB6DB12F5C86F0FDB16498A4203DA96
:1050F000C821FDF7C3F800E04383052412E0124EF7
:10510000B242A6DB114DAA4202DAFDF7B7F809E078
:105110000E4964318A4203DAC821FDF7AFF800E096
:105120004383062420468FE708000020A4BBFFFF2E
:1051300078BAFFFFACC2FFFF1CC1FFFF9EEEFFFF6E
:105140000EEDFFFF24FAFFFF28F1FFFFB8F2FFFF8B
:10515000F0B5104C85B04FF47A5CA56AE169226A1B
:10516000B5F90070636AE56A246CB1F90010B5F90D
:105170000060B2F90020B3F90030B4F90040002516
:10518000CDE902C5CDE900760494FEF78BFF05B0AA
:10519000F0BD0000080000202DE9F0474B4905460E
:1051A0000024086C40F26542008810FB02F0C21730
:1051B00000EBD260C0F34F17086A2346B0F90060D5
:1051C000C869B0F900200846C06DDDB14978E9B181
:1051D000032195FBF1F1DFF8F8C043F6AC7943F217
:1051E0002D3A09B241F6AC58002D36DA664531DA6F
:1051F00006EB090C6FF0C709D44516D312F5966F6C
:1052000004DC05E043831846BDE8F087294632E018
:1052100012F5C86F2FDC2F498A4203DD4946FDF79E
:105220002DF800E0438301244DE0A7F59847F83FAF
:105230004745EBD3284EB242E8DC284DAA421ADC9F
:1052400012F57A6F03DD4946FDF718F800E0438355
:10525000022438E04383032435E0664531DA06EB67
:10526000090CD44515D340F6B836B242CEDB40F631
:105270004855AA4202DAFDF701F824E040F6AC51A5
:105280008A4203DAC821FCF7F9FF00E043830424D3
:1052900019E0A7F59847F83F4745B7D341F2941670
:1052A000B242B3DB41F22435AA42E4DB41F2883159
:1052B0008A4203DAC821FCF7E1FF00E043830524BA
:1052C00001E04383062420469EE7000008000020FA
:1052D000BAFAFFFF5CF9FFFF54F2FFFFC4F0FFFFD3
:1052E0002DE9F041334905004FF00004486A234698
:1052F000B0F90020886AB0F900600846406E12D00C
:105300004978A1B1032195FBF1F109B2002D30DA02
:1053100041F2F81C6FF0C707664518DA40F6C4166C
:10532000B24204DC05E043831846BDE8F08129461B
:1053300030E040F63405AA422CDCB2F5FA6F03DD0A
:105340003946FCF79BFF00E0438301242FE041F244
:105350006806B242EBDC40F67465AA421ADCB2F58C
:10536000616F03DD3946FCF789FF00E043830224C7
:105370001DE0B6F5167F02DBB2F5487F02DA438303
:105380000320D2E744F25C46B242D0DB44F28855B7
:10539000AA4202DAFCF772FF09E044F2EC518A42B9
:1053A00003DAC821FCF76AFF00E0438304242046A7
:1053B000BBE70000080000202DE9F0412F49030061
:1053C0004FF00004886A2546B0F90070086BB0F908
:1053D00000200846006F15D04978A9B303EBD371BC
:1053E00041F34F06032193FBF1F109B2002B17DDC6
:1053F00044F2F837BA423FDB44F224539A4205DACA
:10540000314632E045832846BDE8F08144F2EC5352
:105410009A4202DAFCF732FF00E04583032429E0D8
:1054200040F26C7C674513DA43F2D406B24223DCC7
:1054300042F644739A4218DC42F6E0618A4204DD87
:10544000C821FCF71BFF01E016E04583012411E0B1
:105450000B4FBA4210DC0B4B9A42D1DC094BC83BD4
:105460009A4205DDFCF70AFF03E0FCF707FF01E0C5
:10547000458302242046C7E71946F6E708000020C6
:1054800004F7FFFF74F5FFFF2DE9F04786B00446EF
:10549000FEF77CFDFE4D0021E86DFCF721FD0021AB
:1054A000286EFCF71DFD0021686EFCF719FD002138
:1054B000A86EFCF715FD0021286FFCF711FD0021F7
:1054C000A86FFCF70DFD0021A86DFCF709FD206B0E
:1054D0004FF001090026407AB9EB901F01D1ED4948
:1054E00005E00221B1EB901F05D141F28831E86F50
:1054F000FCF7C4FE01E0E86F46832878032837D024
:10550000EE812E826E82286AB0F90000A0F28F1020
:10551000414240F21E3081420FD9696AB1F9001050
:10552000A1F2E7314942814207D9A96AB1F90010D5
:10553000A1F25721494281420ED8286EB0F91C00D1
:1055400000287CDC686EB0F91C00002877DBA86EB0
:10555000B0F91C00002872DB286E00218183696E7F
:1055600000208883A86E00218183EE712E726E72F6
:10557000206B807A0006206E01D5012100E0002119
:10558000FDF73EF8206B807A8006206E01D5012160
:1055900000E00021FDF736F8206B807A4006206E8F
:1055A00001D5012100E00021FDF72EF8206BC07A23
:1055B0004109206EFDF72AF8206BC07A00F01F0128
:1055C000206EFDF719F8206B007A0106C0F3021077
:1055D00000EB002000EB800000D5404200F016FCFC
:1055E0000146A86FFCF77CFC206B962781789629F2
:1055F00000D98770206BC178962900D9C770206BBD
:105600004178C1F3810101292CD0022933D0A06D4A
:105610004683206B417801F00301012937D002292C
:105620003DD0606DA0F81A600C2295F800C00920EA
:105630004FF47A5740F2E53A4FF4CE7800E082E03A
:1056400040F23921BCF1150F7DD2DFE80CF035D1E5
:10565000F9F7F6F5F4F3F2F1F0EFEEEDECEBEAE941
:10566000E8E7E60080784FF4FA5110FB01F090FB78
:10567000F7F0404206E080784FF4FA5110FB01F059
:1056800090FBF7F001B2A06DFCF7F8FDC1E7C07820
:105690004FF4FA5110FB01F090FBF7F007E0C078EF
:1056A0004FF4FA5110FB01F090FBF7F0404201B2C9
:1056B000606DFCF7E3FDB7E7206B017911F0770F20
:1056C00003D1417911F0700F01D084F82660007980
:1056D00001060029C0F3021040F2764110FB01F0F0
:1056E00000DB4042FFF758FD0146E86DFCF7F8FB90
:1056F000206B00790107002900F0070040F2CA2161
:1057000010FB01F000DB4042FFF772FC0146286EFF
:10571000FCF7E6FB206B407901060029C0F302107C
:1057200040F2CA2110FB01F000DA4042FFF7D8FD39
:105730000146686EFCF7D4FB206B40790107002915
:1057400000F0070000E08EE040F2CA2110FB01F0FB
:1057500000DA4042FFF736FA0146A86EFCF7C0FBBC
:10576000206B80790106C0F3021040F2B26102D5CD
:1057700010FB01F102E010FB01F04142E86EFCF782
:105780007DFD206BC079010700F0070000EB0020D1
:1057900000EB800000D44042FFF70EFE0146286F68
:1057A000FCF79EFB206BC0790106C0F3021040F2AB
:1057B0001D1102D510FB01F102E010FB01F0414286
:1057C000686FFCF75BFD206B80790107002900F012
:1057D00007004FF47A7110FB01F000DA4042FFF746
:1057E0004FF90146A86D06B0BDE8F047FCF778BB5D
:1057F00084F8266041462046FDF7D6F8002832D0CE
:10580000CDE901674FF4C8600090CDE9036840F628
:105810005433214A0021204623E0B4E1A0E192E183
:105820007EE170E15CE14EE147E140E139E131E1E7
:105830002CE128E123E11FE108E1F5E016E0FFE7B4
:1058400084F826600D462046FDF7AEF800280AD001
:10585000CDE901674FF4825041F27C530F4A00902A
:1058600005E1FEF71FFC06B0BDE8F08784F826606E
:10587000CDE90167C8200090CDE9036A00224FF40A
:10588000167311462046FEF70DFC2B6E08E0000053
:105890000800002078ECFFFF24FAFFFFFCD6FFFF92
:1058A000B3F91A204FF4FA742AB9696E488B10B90B
:1058B000A86E468BCEB332B140F6B8318A4202DAD6
:1058C0001846FCF7DBFC6A6EB24EB2F91A0028B13A
:1058D0003146884202DD1046FCF7D0FCA86EB0F9D4
:1058E0001A1021B1B14202DD3146FCF7C7FCE86D68
:1058F000B0F91A20002A04DD21468A4201DAFCF7B9
:10590000BDFCE86DB0F91A20002A04DAA2498A42E7
:1059100001DDFCF7B3FC286E00218183696E002055
:105920008883A86E002181839DE7FFE7EA69B2F9C9
:105930000020C2F13106622E67D82A6A4FF47A7CC1
:10594000B2F90020574242F21072674505DDEE8938
:10595000964202D245F2F05706E0A74209DDEE89F1
:10596000964206D242F6E0679F835C82761CEE8107
:1059700005E0EE791EB99A835C8285F807906B6A20
:10598000E246DFF81882B3F90060854BA6F516767B
:10599000844F56450BDDB5F810C0944507D2A1F8E9
:1059A0001C804C820CF1010CA5F810C00FE0A6423F
:1059B00007DD2E8A964204D28B834C82761C2E827F
:1059C00005E02E7A1EB98F834C8285F80890A96A6B
:1059D000B1F90060C83E564505DD698A914202D2A0
:1059E000A0F81C8005E0A64207DD698A914204D236
:1059F00083834482491C698235E7697A002993D1FF
:105A00008783448285F809902DE7E86D418B002952
:105A10008AD1514201D5C82101E06FF0C70106B01B
:105A2000BDE8F047FCF72ABC84F826600D46204606
:105A3000FCF7BAFF0028DFD05B4841F66413CDE9DC
:105A4000016042F61860594A009010E084F8266020
:105A50000D462046FCF7A8FF0028CDD043F2903039
:105A6000CDE901604B4A41F63803643A0093CDE931
:105A7000036500212046F4E6012241460BE00122A5
:105A80004FF4257107E00122514604E0012240F263
:105A9000212100E0012206B02046BDE8F047FEF7D4
:105AA00003BE06B02046BDE8F047FFF751BB06B085
:105AB0002046BDE8F047FFF733BA06B02046BDE800
:105AC000F047FEF763BA84F82660216B4EF6784201
:105AD000C979C1F3021111FB02F191FBF0F00BE067
