:020000040800F2
:1000000018170020350200083D0200083F020008D2
:1000100041020008430200084502000800000000F9
:10002000000000000000000000000000470200087F
:1000300049020008000000004B0200084D020008C1
:100040004F0200084F0200084F0200084F0200084C
:100050004F0200084F0200084F0200084F0200083C
:100060004F0200084F0200084F0200084F0200082C
:100070004F0200084F0200084F0200084F0200081C
:100080004F0200084F0200084F0200084F0200080C
:100090004F0200084F0200084F0200084F020008FC
:1000A0004F0200084F0200084F0200084F020008EC
:1000B00091130008C5130008FD1300084F02000843
:1000C0004F0200084F0200084F0200084F020008CC
:1000D0004F02000821160008D916000891170008E1
:1000E0004F0200084F0200084F0200084F020008AC
:1000F0004F0200084F0200084F0200084F0200089C
:100100004F0200084F0200084F0200084F0200088B
:10011000F9140008691500084F0200084F02000892
:100120004F0200084F0200084F0200084F0200086B
:100130004F0200084F0200084F0200084F0200085B
:100140004F0200084F0200084F0200084F0200084B
:100150004F0200084F0200084F020008D91800089B
:100160004F0200084F0200084F0200084F0200082B
:100170004F0200084F0200084F0200084F0200081B
:100180004F0200084F02000800F002F800F042F8A9
:100190000AA090E8000C82448344AAF10107DA45E2
:1001A00001D100F037F8AFF2090EBAE80F0013F0F2
:1001B000010F18BFFB1A43F0010318473C960000DB
:1001C0005C960000103A24BF78C878C1FAD852076C
:1001D00024BF30C830C144BF04680C6070470000C1
:1001E0000023002400250026103A28BF78C1FBD840
:1001F000520728BF30C148BF0B6070471FB509F0D8
:10020000AFF99DE8030000F097F900F081F81FBDF9
:1002100010B510BD00F0D3F91146FFF7EFFF08F05D
:1002200093FB00F00BFA03B4FFF7F2FF03BC00F0FE
:1002300043FA00000948804709480047FEE7FEE707
:10024000FEE7FEE7FEE7FEE7FEE7FEE7FEE7FEE786
:1002500004480549054A064B70470000351300085D
:100260008901000818030020181700201813002027
:100270001813002010B54C1084EA530404D54042F2
:10028000C1F1000138BF491E1B4204D55242C3F1DF
:10029000000338BF5B1E00F0A7F814F0804F04D0B5
:1002A0004042C1F1000138BF491E14F0004F04D094
:1002B0005242C3F1000338BF5B1E10BD4FF0000275
:1002C00000B5134694469646203922BFA0E80C504C
:1002D000A0E80C50B1F12001BFF4F7AF090728BF27
:1002E000A0E80C5048BF0CC05DF804EB890028BFA3
:1002F00040F8042B08BF704748BF20F8022B11F0CC
:10030000804F18BF00F8012B704770477047704747
:1003100070B5064C7C44064D7D4403E020682044C3
:100320008047241DAC42F9D170BD0000009500004B
:100330000495000000487047EC02002070B50646A6
:1003400000F0DAF8056806F10B0020F00704B4426B
:100350009CBF002070BD2B466A68BAB11068A042ED
:1003600010D304F1080188423CBF5068586007D39D
:100370005168101941601168091B016058601460D0
:10038000101D70BD13465268002AE7D12146284649
:1003900000F0BEF80028DED170BD70B50446051F20
:1003A00000F0AAF80068002C14BF446870BD002C4F
:1003B00018BFA54284BF20466468F8D801680A18AF
:1003C000AA4218BF456003D12A680546114401605E
:1003D00028684119A1421CBF6C6070BD61686960EA
:1003E00021680844286070BD53EA020C00F069805F
:1003F0002DE9F04B4FF00006002B1FBFB3FA83F539
:1004000003FA05F424FA05F65E4012BF1643B2FA69
:1004100082F502FA05F4C5F120051EBF22FA05FC9B
:1004200044EA0C04203556EA044C4FEA144418BF41
:10043000641C4FF000084FF00009904271EB030C70
:1004400039D3002919BFB1FA81F701FA07F6B0FADA
:1004500080F700FA07F6C7F120071EBF20FA07FC55
:1004600046EA0C062037B6FBF4FCA7EB0507103F65
:1004700007F01F0BCBF120060CFA0BFB2CFA06F64B
:1004800044BFB3460026202FA4BF5E464FF0000BAA
:100490005BEA060C08BF4FF0010B19EB0B09ABFB35
:1004A000027C48EB0608C01B06FB02CC0BFB03CC0E
:1004B00071EB0C01C1E70B46024641464846BDE8D8
:1004C000F08B13B54FF000004FF00001AFF3008048
:1004D000BDE81C40704710B500F012F8006810BD70
:1004E00010B5044600F00CF8046010BD00F05AB8D6
:1004F00000487047B802002000487047C002002042
:1005000000487047B8020020704770477047704736
:1005100038B504460A4600206946AFF3008000283B
:1005200008BF38BD02460099204600F06DF8012052
:1005300038BD012000F090B8F8B5AFF30080054653
:1005400000200C46102000BF0646A819A0420DD975
:10055000324669460020AFF30080070008BF00F074
:100560007BF80098A04218BF0546C419FFF7C4FFE6
:1005700005600746F01D20F007004619284600F0E8
:100580000AF8B44208BFF8BDA21B31463868BDE87E
:10059000F84000F039B800210160C0E9011070474F
:1005A0001020704710B500F062F8016919B10022FF
:1005B0000261884701E08068804700F045F8754691
:1005C000FFF796FFAE4605006946534620F0070048
:1005D000854618B020B5FFF73BFEBDE820404FF040
:1005E00000064FF000074FF000084FF0000B21F01D
:1005F0000701AC46ACE8C009ACE8C009ACE8C009EA
:10060000ACE8C0098D467047034640688C46002818
:1006100018BF814284BF03464068F8D81868184460
:10062000884207D00CF1030020F00700001D411A9A
:10063000521A0146081D0A60FFF7AFBE0446AFF329
:1006400000802046FFF7EFFD002000F046F8FFF79E
:10065000DFFD012000F030F810B500F045F8BDE8EE
:10066000104000F035B8000010B5FFF7EDFF70B591
:1006700000F02AF804680546A4B92020FFF75EFEC2
:10068000040011D0094900202C60C4E90001084988
:10069000A1602073206160610649A06109B100F08A
:1006A0004BF8E061204670BDFFF7CEFF0000000070
:1006B000690600080000000001491820ABBEFEE7F3
:1006C000260002007047000000487047F402002036
:1006D000002801D0FFF7F0BF704710B500F064F8B4
:1006E000BDE81040FFF7F4BF10B5012805D0002188
:1006F00003A000F03FF8012010BD09A1F8E70000B9
:1007000053494752544D454D3A204F7574206F66FA
:100710002068656170206D656D6F72790000000062
:100720003A2048656170206D656D6F727920636F46
:10073000727275707465640010B58820FFF7FEFD55
:10074000002801D00021017010BD802902D808B115
:10075000017809B100207047012100F8081B70479B
:1007600018B100F10802914201D000207047002129
:100770000170704770B505460C460A2000E06D1CFC
:1007800000F02AF835B128780028F8D102E0641C7E
:1007900000F022F814B120780028F8D1BDE87040AC
:1007A0000A2000F019B8000010B5002102A0FFF7E0
:1007B000E1FF012010BD0000534947414252543A25
:1007C0002041626E6F726D616C207465726D696E2E
:1007D0006174696F6E00000008B569468DF800000D
:1007E0000320ABBE08BD0029816802D041F00101A1
:1007F00001E021F00101816070470000074B10B556
:100800001A6807490A40D0E900142143D0E90240A0
:10081000044321431143196010BD0000042301402B
:10082000E030FCFF0029816802D041F4807101E0D2
:1008300021F48071816070470029816802D041F401
:10084000007101E021F400718160704730B54268A9
:100850000F4B0C791A400B6842EA042213434360A1
:1008600082680C4B4D791A40D1E9034323438C68CD
:1008700044EA4504234313438360C26A097D22F49A
:100880007002491EC9B242EA0151C16230BD000086
:10089000FFFEFFFCFDF7FFC070B5072409290AD948
:1008A000C568A1F10A0606EB4606B440A543B3406D
:1008B0001D43C56007E0056901EB4106B440A5434F
:1008C000B3401D4305611F23072A09D2446B521E02
:1008D00002EB820293409C4391400C43446370BD01
:1008E0000D2A09D2046BD21F02EB820293409C4373
:1008F00091400C43046370BDC46A0D3A02EB82025E
:1009000093409C4391400C43C46270BD816841F0A8
:10091000804181607047000010B50A4C0122072316
:1009200011462046FFF7B8FF01212046FFF784FF5C
:1009300001212046FFF776FF2046BDE81040012147
:10094000FFF751BF002001401FB500204FF4804148
:100950000090CDE9010103906846FFF74FFF1FBDEE
:1009600010B590B012490020CDE900011149CDE940
:1009700002100A21CDE904104FF48061069149006C
:10098000079189000891491109914902CDE90A109E
:100990000121CDE90C10084C0E906946204600F06C
:1009A00055F80121204600F047F810B010BD0000B6
:1009B0004C200140A4020020106402401CB502201B
:1009C000009003208DF8040000208DF80700694690
:1009D000014800F07BF81CBD0000024010B5012169
:1009E000094800F027F90121080200F03BF9FFF760
:1009F000B7FFFFF7E3FFFFF7A7FF00F007F8BDE839
:100A00001040FFF789BF00000100400000B587B02B
:100A10000020012100908DF804108DF8051002903F
:100A200004908DF8141069460248FFF70FFF07B0D5
:100A300000BD0000002001400029016802D041F003
:100A4000010101E021F001010160704730B5036848
:100A5000124ACC6813400A682243D1E905452C4369
:100A60002243CC6922430C6A22434C6A22438C6A9B
:100A700022434C6B22438C6B22431A43026042692F
:100A800022F00703D1E90B2422431A4342610A6989
:100A900042604A6882608968C16030BD3F801CF056
:100AA0000021084A084600BF32F91030401CC0B28D
:100AB00019440A28F8D30A2091FBF0F00249088073
:100AC00070470000A4020020A6000020F0B500231B
:100AD000012403270D6804FA03F21540954242D120
:100AE000D0F800C05E0007FA06F52CEA050CC0F845
:100AF00000C091F804C0D0F800E00CFA06FC4CEA03
:100B00000E0CC0F800C091F804C0BCF1010F02D077
:100B1000BCF1020F1FD1D0F808C02CEA050CC0F8B8
:100B200008C091F805C0D0F808E00CFA06FC4CEAC1
:100B30000E0CC0F808C0D0F804C02CEA020CC0F8B3
:100B400004C0426891F806C00CFA03FC1FFA8CFC42
:100B500042EA0C024260C268AA43C260CA79C56810
:100B6000B2402A43C2605B1C102BB3D3F0BD4B07CD
:100B7000DB0E9A40C90810B500EB8100016A0F2412
:100B80009C40A1430162016A1143016210BD02460B
:100B9000002012690A4200D001207047024600205E
:100BA00052690A4200D00120704741837047018397
:100BB00070470AB1018370474183704770B50F21B8
:100BC000C478027801234FF0E026E4B1124C246887
:100BD00004F4E064C4F5E064C4F30724C4F104053C
:100BE000E1404478AC4085780D4025430B4C290109
:100BF0001155007800F01F018B40400906EB800082
:100C0000C0F8003170BD02F01F008340500906EBB0
:100C10008000C0F8803170BD0CED00E000E400E021
:100C20000249084302490860704700000000FA05C5
:100C30000CED00E0044A0029116801D0014300E0F6
:100C4000814311607047000030380240044A002997
:100C5000116801D0014300E081431160704700003A
:100C600040380240044A0029116801D0014300E0E5
:100C700081431160704700004438024070B5204A3B
:100C80001168204C11F00C0104D06610042903D027
:100C9000082903D004601BE0066019E01849091F09
:100CA0000B68C3F380550B6803F03F0315B1B6FB27
:100CB000F3F301E0B4FBF3F30C680968C4F38814A0
:100CC0006343C1F30141491C4900B3FBF1F10160E9
:100CD00011680F2303EA11110B4B5C5C0168E140C2
:100CE00041601468072505EA94241C5D21FA04F488
:100CF0008460126805EA52329A5CD140C16070BDCE
:100D0000083802400024F400A80000207CB501212E
:100D10000846FFF78FFF01210220FFF78BFF01211B
:100D20000420FFF787FF01210820FFF783FF01213F
:100D30001020FFF77FFF01212020FFF77BFF01211B
:100D40004020FFF777FF264D002423460122022191
:100D50001020CDE9004500F049F8002301220221CE
:100D60002020CDE9004500F041F81E4E0221CDE9DA
:100D7000004600230122480200F038F8CDE9004681
:100D8000022100230122084600F030F8CDE9004698
:100D9000012200230221104600F028F8022100233E
:100DA0000122C801CDE9004500F020F80E4D0023D6
:100DB0001A4602210420CDE9004500F017F800236F
:100DC000012202211020CDE9004500F00FF8002398
:100DD0001A4602212020CDE9004500F007F87CBD2D
:100DE00000000240000C0240000802401CB5059BB8
:100DF0008DF8042000908DF8051069461846FFF71D
:100E000065FE1CBDF0B52D4D074687B029462C4820
:100E100000F03EFE0021284600F09CFD012110203C
:100E2000FFF720FF01210846FFF704FF254C0722AA
:100E300009212046FFF79BFE07220A212046FFF7E3
:100E400096FE01260222CDE900640023114610021D
:100E5000FFF7CCFF0222CDE90064002311465002C7
:100E6000FFF7C4FF01210846FFF7E4FE02A800F0E7
:100E700043FE0020ADF80C00ADF80E00ADF81000F8
:100E8000ADF814000C20ADF81200029702A9284614
:100E900000F0A2FD01220021252000F0D9F9012255
:100EA00040F22551284600F07EFD012240F22661E5
:100EB000284600F078FD07B0F0BD000000100140AA
:100EC000F4000020000002402DE9FC41254E0746B9
:100ED0003146254800F0DCFD0021304600F03AFDA7
:100EE00001214804FFF7B2FE01210846FFF7A2FEE8
:100EF0001E4C072202212046FFF739FE072203215C
:100F00002046FFF734FE0125CDE9005402220023DC
:100F100011460420FFF76AFFCDE9005402220023A6
:100F200011460820FFF762FF01210846FFF782FE05
:100F30000C223946304600F073F9022200212620A7
:100F400000F086F9012240F22551304600F02BFDD9
:100F500002B03046BDE8F041012240F2266100F0C7
:100F600022BD0000004400403C010020000002407F
:100F70002DE9FC41254E07463146254800F088FD05
:100F80000021304600F0E6FC01218804FFF75EFEF8
:100F900001210820FFF74EFE1E4C072208212046A3
:100FA000FFF7E5FD072209212046FFF7E0FD0125B7
:100FB0000222CDE9005400231146D001FFF716FFAD
:100FC0000222CDE90054002311461002FFF70EFF64
:100FD00001210820FFF72EFE0C223946304600F092
:100FE0001FF903220021272000F032F9012240F2EC
:100FF0002551304600F0D7FC02B03046BDE8F04144
:10100000012240F2266100F0CEBC00000048004002
:1010100084010020000C02402DE9FC41254E0746CA
:101020003146254800F034FD0021304600F092FCA6
:101030000121C804FFF70AFE01210420FFF7FAFD91
:101040001E4C08220A212046FFF791FD08220B21A1
:101050002046FFF78CFD00250222CDE900542B46E7
:1010600011465002FFF7C2FE0222CDE900540023D0
:1010700011469002FFF7BAFE01210820FFF7DAFDC2
:101080000C223946304600F0CBF8002211463420BD
:1010900000F0DEF8012240F22551304600F083FCDA
:1010A00002B03046BDE8F041012240F2266100F076
:1010B0007ABC0000004C0040CC0100200008024037
:1010C0002DE9FC41284D07462946284800F0E0FC60
:1010D0000021284600F03EFC01210805FFF7B6FD7F
:1010E00001210420FFF7A6FD01210820FFF7A2FD42
:1010F0001F4C08220C212046FFF739FD1D4E082207
:1011000002213046FFF733FD20460124CDE900409F
:10111000022200231146D002FFF768FECDE9004607
:101120000222002311460420FFF760FE012108205F
:10113000FFF780FD0C223946284600F071F80322A3
:101140000021352000F084F8012240F22551284684
:1011500000F029FC02B02846BDE8F041012240F22F
:10116000266100F020BC0000005000401402002066
:1011700000080240000C02402DE9FC41254E0746C4
:101180003146254800F084FC0021304600F0E2FBA7
:1011900001212020FFF766FD01210420FFF74AFD11
:1011A0001E4C082206212046FFF7E1FC08220721F9
:1011B0002046FFF7DCFC0125CDE900540222002384
:1011C00011464020FFF712FECDE900540222002311
:1011D00011468020FFF70AFE01210846FFF72AFD8D
:1011E0000C223946304600F01BF8002211464720F9
:1011F00000F02EF8012240F22551304600F0D3FBDA
:1012000002B03046BDE8F041012240F2266100F014
:10121000CABB0000001401405C020020000802402C
:101220007FB5064614460D46684600F065FC002171
:10123000ADF80410ADF80810ADF80610ADF80C10BC
:101240000095ADF80A406946304600F0C5FB7FBD09
:1012500008B58DF800008DF801108DF802200120EE
:101260008DF803006846FFF7A9FC08BD0CB5002007
:101270002749019000900A6842F480320A604FF4D6
:10128000A0630A6802F400320092019A521C019293
:10129000009A12B9019A9A42F3D10A68920334D59E
:1012A000012000901A484030026842F080520260EB
:1012B0001848026842F4804202601548083002680B
:1012C0000260026842F400420260026842F4A052E6
:1012D0000260031F104A1A600A6842F080720A60B6
:1012E0000A689201FCD50D4A40F20561116001685F
:1012F00021F003010160016841F002010160016811
:10130000C1F381010229FAD10CBD00900CBD00008F
:10131000003802400070004008544007003C024082
:1013200042F6DE6302E01946491EFDD2401EFAD2A3
:1013300070470000124810B5016841F47001016067
:101340001048016841F0010101600E4A0021083295
:10135000116002680C4B1A400260031D0B4A1A60B0
:10136000026822F48022026006480C300160FFF718
:101370007DFF03494FF000608039086010BD000018
:1013800088ED00E000380240FFFFF6FE1030002438
:1013900010B54FF08044204601F030FA00280ED0FE
:1013A000204601F040FA204601F040FA0448006867
:1013B00001F08EFA2046BDE8104001F03EBA10BDA3
:1013C0000000002010B50B4C204601F017FA002851
:1013D0000ED0204601F027FA204601F027FA0648F1
:1013E000006801F0EFFA2046BDE8104001F025BA90
:1013F00010BD0000000400400000002010B50B4CA0
:10140000204601F0FBF900280ED0204601F00BFA2F
:10141000204601F00BFA0648006801F073FB2046F5
:10142000BDE8104001F009BA10BD000000080040FE
:1014300000000020C94301827047C9430182704700
:101440000029018802D041F0010101E021F00101F1
:101450000180704702460020138A92890B4202EAFB
:10146000010202D0002A00D001207047002A8289A0
:1014700001D00A4300E08A438281704730B5028878
:10148000164B174C98420DD0A0420BD0B0F1804FB4
:1014900008D0144DA84205D0134DA84202D0134DD8
:1014A000A84203D122F070054A882A43104DA84271
:1014B00006D0104DA84203D022F440750A892A4371
:1014C00002804A68C2620A880285984201D0A0421E
:1014D00001D1897A01860121818230BD000001405D
:1014E000000401400004004000080040000C0040DF
:1014F000001000400014004070B5184C40F2255513
:101500002946204600F030FA30B12946204600F046
:101510001BFA134800F0D8FA40F2277529462046F6
:1015200000F022FA30B12946204600F00DFA0C48AE
:1015300000F066F940F226652946204600F014FACC
:10154000002809D02946204600F0FEF9BDE8704089
:1015500002210448FFF729BB70BD0000004C004089
:10156000CC010020000C024070B5184C40F225550B
:101570002946204600F0F8F930B12946204600F00F
:10158000E3F9134800F0A0FA40F2277529462046F7
:1015900000F0EAF930B12946204600F0D5F90C48B0
:1015A00000F052F940F226652946204600F0DCF9A9
:1015B000002809D02946204600F0C6F9BDE8704051
:1015C00001210448FFF7F1BA70BD0000005000404F
:1015D00014020020000C024070B50446051D90F86E
:1015E000470095F94210814205D12068818921F098
:1015F0008001818170BD10210848FFF7D8FA94F965
:10160000471005F12000085C2168888015F8430F19
:10161000401C00F01F00287070BD00000000024058
:1016200070B5184C40F225552946204600F09CF92B
:1016300030B12946204600F087F9134800F044FAFB
:1016400040F227752946204600F08EF930B1294630
:10165000204600F079F90C48FFF7BEFF40F22665FE
:101660002946204600F080F9002809D02946204666
:1016700000F06AF9BDE8704010210448FFF795BA00
:1016800070BD000000100140F40000200000024086
:1016900070B50446051D90F8470095F94210814247
:1016A00005D12068818921F08001818170BD2021D0
:1016B0000848FFF77CFA94F9471005F12000085C10
:1016C0002168888015F8430F401C00F01F00287027
:1016D00070BD00000000024070B5184C40F2255566
:1016E0002946204600F040F930B12946204600F056
:1016F0002BF9134800F0E8F940F2277529462046F7
:1017000000F032F930B12946204600F01DF90C48AE
:10171000FFF7BEFF40F226652946204600F024F977
:10172000002809D02946204600F00EF9BDE8704097
:1017300020210448FFF739BA70BD00000044004082
:101740003C0100200000024070B50446051D90F8E1
:10175000470095F94210814205D12068818921F026
:101760008001818170BD4FF480610848FFF71FFA46
:1017700094F9471005F12000085C2168888015F86D
:10178000430F401C00F01F00287070BD000C024089
:1017900070B5184C40F225552946204600F0E4F873
:1017A00030B12946204600F0CFF8134800F08CF9FC
:1017B00040F227752946204600F0D6F830B1294678
:1017C000204600F0C1F80C48FFF7BEFF40F2266546
:1017D0002946204600F0C8F800280AD029462046AD
:1017E00000F0B2F8BDE870404FF480610348FFF7A5
:1017F000DCB970BD0048004084010020000C0240AC
:1018000070B50446051D90F8470095F942108142D5
:1018100005D12068818921F08001818170BD02217C
:101820000848FFF7C4F994F9471005F12000085C57
:101830002168888015F8430F401C00F01F002870B5
:1018400070BD0000000C024070B50446051D90F804
:10185000470095F94210814205D12068818921F025
:101860008001818170BD01210848FFF7A0F994F93A
:10187000471005F12000085C2168888015F8430FA7
:10188000401C00F01F00287070BD0000000C0240DA
:1018900070B50446051D90F8470095F94210814245
:1018A00005D12068818921F08001818170BD4FF4CC
:1018B00080710848FFF77BF994F9471005F1200083
:1018C000085C2168888015F8430F401C00F01F0059
:1018D000287070BD0000024070B5184C40F22555CC
:1018E0002946204600F040F830B12946204600F055
:1018F0002BF8134800F0E8F840F2277529462046F7
:1019000000F032F830B12946204600F01DF80C48AE
:10191000FFF7BEFF40F226652946204600F024F876
:1019200000280AD02946204600F00EF8BDE8704095
:101930004FF480710348FFF738B970BD00140140BF
:101940005C020020000002400A0A01219140C943C4
:10195000018070470029818902D041F4005101E0E3
:1019600021F400518181704730B501F01F0201243C
:101970000025C1F3421304FA02F2012B0FD0022B0F
:101980000FD0838A4FEA11210088134204FA01F430
:1019900000EA040001D000B10125284630BD83894A
:1019A000F0E7038AEEE710B5C1F3421301F01F041C
:1019B0000121A140012B07D0022B07D01430002AAF
:1019C000026805D00A4304E00C30F8E71030F6E76F
:1019D0008A43026010BD00007FB50446008A0D46B0
:1019E00020F44051E88808432082A08941F20C612C
:1019F0008843A9882A8911436A8902431143A18136
:101A0000A08A20F44071A8890843A0826846FFF7A5
:101A100035F91D48844202D01C48844201D1039804
:101A200000E00298A1890904002900EBC00101EB44
:101A30000010296802DA4FEA410101E04FEA810112
:101A4000B0FBF1F26420B2FBF0F14FEA01114FEA72
:101A500011136FF018056B4302EB8302A3891D0479
:101A60004FF0320306D503EBC202B2FBF0F000F0F8
:101A7000070005E003EB0212B2FBF0F000F00F00EC
:101A8000084320817FBD0000001001400014014088
:101A900040F8281B002141770177C1778177704793
:101AA00010F8441F4078814201D001207047002087
:101AB0007047011D90F94500085C11F8412F521C38
:101AC00002F01F020A70704730B500F1440211782D
:101AD0005278491C01F01F0103689B889142DBB2D8
:101AE00001D1002206E090F944500122041D2B553B
:101AF00080F84410104630BD4FF4165101600021AB
:101B00008180C18001810C2242818181704710F85F
:101B1000461F491C407801F01F01814201D001207D
:101B200070470020704730B50C460346021DFFF792
:101B3000EEFF01000ED092F84200151885F8204003
:101B4000401C00F01F0082F842001868828942F0B1
:101B500080028281084630BD7CB5017A05460124A9
:101B600004FA01F02146FFF765F828680023CDE963
:101B70000040A888012280B21946FFF737F97CBDE2
:101B8000002100F011B810B50446808881B22068A9
:101B9000FFF704F8C0F10100C2B2A08881B220684A
:101BA000BDE81040FFF705B805C8002991B201D083
:101BB000FEF7FBBFFEF7FBBF10B504461948C4E9AA
:101BC0000012814201D1002026E01748814201D154
:101BD000012021E01548814201D102201CE0144877
:101BE000814201D1032017E01248814201D1042033
:101BF00012E01148814201D105200DE00F488142D9
:101C000001D1062008E00E48814201D1072003E0FF
:101C10000C48814201D10820A0602046FFF79CFFBC
:101C2000204610BD000002400004024000080240AF
:101C3000000C024000100240001402400018024054
:101C4000001C024000200240406801280ED00228FB
:101C50000FD0032810D0042811D0052812D0062850
:101C600013D10A48012100BFFFF774BE01210848C3
:101C7000FAE701210748F7E701210748F4E70121C6
:101C80000648F1E701210648EEE7704700140140DD
:101C9000001001400044004000480040004C00405B
:101CA000005000402DE9F04116460D46074600243D
:101CB00006E0295D384600F00CF80028F9D0641CD5
:101CC000B442F6DBBDE8F0810068FFF7F2BE406881
:101CD000704710B50068FFF726FF002800D00120EC
:101CE00010BD10B50068FFF7DBFE002800D0012012
:101CF00010BD000010B504461046C4E901120129C8
:101D00000AD002290DD0032910D0042913D00529A7
:101D100016D0062919D01CE00F492160FFF772F890
:101D200017E00E492160FFF7CFF812E00C4921605F
:101D3000FFF71EF90DE00B492160FFF76DF908E090
:101D400009492160FFF7BCF903E008492160FFF76A
:101D500013FA204610BD0000F40000203C010020D2
:101D600084010020CC010020140200205C0200202D
:101D70002DE9F04700258146A846FFF7A8FF401E41
:101D8000C4B2354E5EE04846FFF79EFF014656F866
:101D9000240005F048FC56F8240005F03DFC56F8F8
:101DA000240005F03DFCA4284CD1A43556F82400AD
:101DB00005F032FC56F8240005F032FC2844C5B288
:101DC00056F8240005F028FC56F8240005F028FCFD
:101DD00040062ED55FF0000756F8240005F020FCE1
:101DE0002844C5B256F8240005F016FC7F1C032FCA
:101DF000F2DB56F8240005F013FCA84214D1164972
:101E0000002504EB4400243901EB400756F8240078
:101E100005F002FC56F8240005F002FC78556D1C14
:101E2000062DF3DB4FF0010856F8240005F0F4FB13
:101E300007E056F8240005F0F9FB56F8240005F0F9
:101E4000F5FB00254846FFF74CFF414630EA080005
:101E500099D10846BDE8F087DC00002010B50446A3
:101E6000217A6068FFF735FF0028F9D0617A606851
:101E7000FFF72FFF0028F9D0A17A6068FFF729FF4C
:101E80000028F9D0E06841786068FFF722FF002859
:101E9000F8D0E06801786068FFF71BFF0028F8D0F1
:101EA000207A617A0844A17A0844E1684A7809787E
:101EB00010440844C1B26068FFF70BFF0028EFD060
:101EC00010BD19B9427C0AB1082A00D34174704789
:101ED000024900EB400001EB40007047B8000020D1
:101EE000427C082A00D24174704700210174704777
:101EF00010B504460A48C4E90001022005F0C8FBF9
:101F0000014600200880A422E16022726072A07263
:101F10000870E168487020746074204610BD0000AD
:101F200080970008418370474A1E092A16D2C9B219
:101F3000002241F020038372012907D0062907D02F
:101F4000092907D0C1680A80FFF788BF818A02E0AB
:101F5000C18A00E0018BC2681180F5E7704710B5B7
:101F60000446481E0C282AD2C8B20021A0720D28AF
:101F70001AD2DFE800F0190707090D0F1113151722
:101F800017171700608B00E0A08BE16808800BE05A
:101F9000E08BFAE7208CF8E7608CF6E7A08CF4E79A
:101FA000E08CF2E7E06801802046FFF757FF207CD5
:101FB000401CC0B22074152801D91520207410BD12
:101FC000B0F91210B1F5FA7F01DA012100E0032126
:101FD000FFF7C5BF428B002112B181834182704758
:101FE000428A40F6AC53521C12B242829A42F6DD4B
:101FF0004FF4FA724282818370472DE9F05F8B467D
:102000000025DDE90A1CDDE90CAE2C46AD1A9C4129
:1020100002DA14461D4603E00025544265EB030531
:10202000322700263C1BAE4173DA00252C46AD1A40
:102030009C4102DA16461F4603E00027564267EB32
:1020400003074FF42F750024AD1BBC4109DAB0F92A
:102050002E20A2FB0104D31703FB014102FB0C114C
:102060004BE000252C46AD1A9C4102DA9046994679
:1020700005E04FF00009D2F1000869EB03094FF4C5
:10208000E1750024B5EB080574EB09040ADAB0F930
:102090003000A0FB0134C21702FB014100FB0C1110
:1020A000122218E000252C46AD1A9C4103DB0024C7
:1020B000524264EB0303C825AA1AB0F93000002489
:1020C0009C41A0FB01344FEAE07202FB01410ADAB5
:1020D00000FB0C110F22A3FB020501FB025100249F
:1020E00003FB041109E000FB0C140521A3FB01050F
:1020F00004FB0151002203FB021152467346FEF716
:10210000B9F8DC46BDE8F04F00B25DF804EB60477B
:10211000FFE700214183BDE8F09F2DE9F05F0AACA5
:102120008246B4E8031000252C46DDF834B0AD1A21
:102130009C4102DA14461D4603E00025544265EB3B
:102140000305322700263C1BAE4174DA00252C46DD
:10215000AD1A9C4102DA16461F4603E0002756429C
:1021600067EB03074FF42F750024AD1BBC410CDA5D
:10217000BAF92E20A2FB0045D31703FB005002FB47
:10218000010162465B4620464DE000252C46AD1A13
:102190009C4102DA9046994605E04FF00009D2F1E1
:1021A000000869EB03094FF4E1750024B5EB08055D
:1021B00074EB09040ADABAF93020A2FB0045D31700
:1021C00003FB005002FB0101122318E000252C46FE
:1021D000AD1A9C4103DB0024524264EB0303C82583
:1021E000AA1A0024BAF930209C41A2FB00454FEA0C
:1021F000E27303FB00500ADA02FB01010F23A4FB88
:10220000030501FB0351002204FB021109E002FB5C
:1022100001020523A4FB030502FB0352002104FB7A
:10222000012162465B46FEF725F801B25046BDE843
:10223000F05F00F02DB80020AAF81A00BDE8F09F6A
:102240002DE9F0410025DDE90617DDE9086C2C4693
:10225000AD1A9C4103DB0025524265EB03030525C3
:102260000024AA1A9C4110DAB0F92E200446A2FBE1
:102270000105D31703FB015102FB071132466346E8
:10228000FDF7F8FF6083BDE8F08100214183FAE7A4
:102290004A1EC72A01D2C82104E011F1C70201D3A6
:1022A0006FF0C7014183704710B5FFF721FE0B495E
:1022B000016000214183C185018681838182C182C1
:1022C0000183C183018441848184C1840185418566
:1022D00081854FF4FA71418210BD0000909700088B
:1022E00010B5044604210C48FEF751FC0B490023AD
:1022F0004A7882420CD00A78642A06D9487008B11C
:10230000A37406E00120A07403E0521C0A7000E0F0
:102310000B70A07C10BD000000080240A00000204F
:10232000C17C044800294FF0100101D0FEF73DBCEC
:10233000FEF73DBC0008024010B50446807A00F06C
:10234000F00040F00200A072E26800201080E06817
:1023500001702046FFF782FD207C401CC0B2207433
:10236000142801D91420207410BD10B50446807AB9
:1023700000F0F00040F00300A072E268002010803E
:10238000E2681170E16848702046FFF767FD207C25
:10239000401CC0B22074142801D91420207410BD30
:1023A00010B5FFF7A5FD0649016003214172817A4E
:1023B00041F0300181720021C174817410BD0000B0
:1023C000A09700081CB508A2D2E90012CDE90012BE
:1023D000817C8DF80410BC318DF805104068062210
:1023E0006946FFF75FFC1CBDA40117000000000058
:1023F000822901D9052102E07F2902D904218174B3
:1024000070477C2901D90321F9E7792901D90221F3
:10241000F5E7762901D90121F1E70021EFE7000076
:1024200010B5FFF765FD024901600121817410BDFF
:10243000B097000810B50446807CA072E168A07DCA
:102440000870E168607D48702046FFF707FD207C3A
:10245000401CC0B22074142801D91420207410BD6F
:1024600010B5FFF745FD064901600A2141720021C0
:102470008172C174017541758175817410BD000050
:10248000C09700082DE9F0410025884604462F46F4
:102490003EE04046FFF718FC0146206905F0C3F80E
:1024A000206905F0B9F8206905F0BAF8A5282FD100
:1024B000A535EEB2206905F0AFF8206905F0B0F857
:1024C000000621D40025206905F0AAF83044C6B2E0
:1024D000206905F0A1F86D1C0B2DF4DB206905F0D7
:1024E0009FF8B0420CD10025206905F095F82069CD
:1024F00005F096F8A16948556D1C0D2DF4DB0127F8
:10250000206905F089F802E0206905F08FF80025C0
:102510004046FFF7E6FBB843BBD13846BDE8F08143
:102520002DE9F0410546C168FFF7ACFF0F4C0026CE
:1025300010B1268001210FE021884FF4FA77B942CB
:1025400003D2491C2180BDE8F0812846A968FFF725
:1025500099FF18B1668002216960F4E76188B94289
:1025600002D2491C6180EEE76E60ECE7A200002019
:1025700042684169012A03D080680D22FFF792BBAF
:10258000C068FAE710B5002244698B5CA354521C62
:102590000D2AF9DB10BD000070B504461148002576
:1025A000C4E90005C4E90221082005F071F80D21F5
:1025B00005F040F820610D2005F065F860610D2000
:1025C00005F061F8A061002061690D54401C0D28E0
:1025D000FADB0020A1690D54401C0D28FADB2046CF
:1025E00070BD0000D097000810B5044606F0A2F9AF
:1025F000C0F30B00608210BD10B5FEF7EFF9BDE827
:1026000010400148FEF782B90020014070B5044631
:102610000848C4E90001022005F03AF800250580C9
:10262000A060022005F034F80580E0606582204655
:1026300070BD0000E0970008202900D2C1757047E6
:10264000C17470478174704741757047052900D285
:102650008175704710B504460020E1680880207D30
:102660000028E068417802D041F0010101E001F06A
:10267000FE014170607D0028E068417802D041F0A1
:10268000200101E001F0DF014170A07C0028E0683A
:10269000417802D041F0400101E001F0BF014170FA
:1026A000E07C0028E068417802D041F0800101E040
:1026B00001F07F014170E168E27D08781043087005
:1026C000A27DE16840EA421008702046FFF7C6FB91
:1026D000207C401CC0B22074142801D9142020741E
:1026E00010BD00001CB50AA10446D1E90001CDE9E6
:1026F0000001062269466068FFF7D4FA207C401C7E
:10270000C0B22074142801D9142020741CBD00000C
:10271000A40932B5F589000010B5FFF7E9FB0749B8
:10272000016009214172817A41F0310181720021F9
:102730008174C1740175417510BD0000F0970008E7
:102740003EB50446012956DB481E042802D240F259
:102750008F102EE0481F052802D240F21F3028E0DB
:10276000A1F10A00282802D240F2DB5021E0A1F1B9
:102770003200322802D240F65F101AE0A1F1640064
:10278000B0F5C87F02D241F2670012E0A1F5FA70FD
:1027900040F6C412904202D242F2CF0009E0A1F604
:1027A000B830B0F5FA6F02D244F29F1001E04AF25D
:1027B0000F40A08110484143A089401C91FBF0F0DC
:1027C000401EA0600190A089ADF800000020ADF887
:1027D0000800ADF8020020798DF80A0069462069EA
:1027E000FEF74CFE01212069FEF724FE012211466E
:1027F0002069FEF73BFE3EBD204801000121FEF7A7
:1028000029BE08B50175427502788DF800208DF853
:102810000110407D8DF8020001208DF8030068460C
:10282000FEF7CCF908BD0121FEF707BE0021FEF737
:1028300007BE00690021FEF703BE0121FEF700BEBE
:1028400000690121FEF7FCBD10B504460161B1F13C
:10285000804F07D01A48814209D11D2001212060F4
:1028600002201BE01C2001212060084616E01548CC
:10287000814204D11E200121206004200EE0124874
:10288000814204D1322001212060082006E00F4857
:10289000814205D13720206001212020FEF7D6F9A2
:1028A000002211462046FFF7ACFF002020710121D5
:1028B0002046FFF745FF2046FFF7BBFF204610BD2F
:1028C0000004004000080040000C004000140040DC
:1028D00070B50446C06C00792076A06DFFF700FD4E
:1028E00030B194F82400012802D1204604F0FCFC09
:1028F00094F82000012803D0207E012528B109E0AA
:102900002046BDE8704001F035BF204601F014FDBF
:1029100084F82150204601F049FD94F82300002856
:102920004DD0204601F02CFE94F82500002846D01A
:10293000204600F04FF994F8260000283FD02046AA
:1029400004F0DEFB94F82400002838D0E06CFFF798
:10295000E7FD68B184F82150204602F007FF2046C9
:1029600004F0AEF9204603F0F5FBE06CFFF700FE43
:10297000204602F0F3F8204602F0B4FC204602F0B4
:10298000DFFE0F4CA06DFFF725FBE06DFFF722FB8C
:10299000206EFFF71FFB606EFFF71CFBA06EFFF7BA
:1029A00019FBE06EFFF716FB206FFFF713FB606F5C
:1029B000FFF710FBA06FBDE87040FFF70BBB70BDC9
:1029C0000800002070B5044602F0EEF994F82400E7
:1029D00000286FD0204603F02FF894F82300002839
:1029E00068D0204603F0CCF894F82500002861D088
:1029F000204602F0C1FB94F8260000287FD0204634
:102A000002F058FC94F82700002878D094F82100B0
:102A1000002874D03A4DA8780B2866D2DFE800F081
:102A2000061117252D3B41464B515500A86DFFF768
:102A3000C7FA207E0028206D15D100218183206DEA
:102A40000FE0E86DFFF7BCFA0021A06D12E0286EE0
:102A5000FFF7B6FA207E0028606D04D10021818343
:102A6000606D032110E002210EE0686EFFF7A8FA06
:102A70000121A06DFFF779FC37E0A86EFFF7A0FAFF
:102A8000207E20B10221686DFFF769FA2DE0686DA4
:102A900000218183E5E7E86EFFF792FA0221A06D3D
:102AA000E8E7286FFFF78CFA206D08E0686FFFF702
:102AB00087FA1AE023E0A86FFFF782FA606D092118
:102AC000E2E7E06DFFF7C6FD0FE0207E012802D1AE
:102AD000A06EFFF7AFFCE978A06D49B2FFF72CFCC0
:102AE000E878401C00F00300E870A878401CC0B2F1
:102AF000A8700B2803D10020A87084F8210070BDB5
:102B00000800002010B50446806DFFF709FC606ED8
:102B1000FFF758FC207E02280AD0207E012809D029
:102B20002069FFF72DF86069BDE81040FFF728B86D
:102B3000206900E06069BDE81040FFF724B800009C
:102B40002DE9F041214C40F2DC57214E226A40F23F
:102B50004C45B2F90020BA4209DB626AB2F90020A2
:102B6000AA4204DBE269B2F90020B2422CDD002265
:102B700002F0D4F9206A44F62062B0F900104FF454
:102B8000FA70B942216E01DA8A8301E000238B8357
:102B90004882616AB1F90010A942616E02DA8A8343
:102BA000488202E0488200228A83E169B1F900107C
:102BB000B142E16D02DD4BF2E01200E000228A83B7
:102BC00048820020BDE8F0810120FBE708000020DA
:102BD000E0FCFFFF70B5044690F8260000260028B0
:102BE0001DD1E06990F9002075490B250B2AC96CAD
:102BF00016DA0846FFF7BCF8002810D03046FFF779
:102C000067F9417809070AD18178662907D1C17827
:102C10004F2904D100794B2801D1E069057070BDBE
:102C200090F901200B2A18DA0846FFF7A1F80028CE
:102C3000F5D03046FFF74CF9417801F00F0101293A
:102C4000EDD181786629EAD1C1784F29E7D10079A1
:102C50004B28E4D1E069457070BD90F902200B2A41
:102C600018DA0846FFF784F80028F5D03046FFF759
:102C70002FF9417801F00F010229EDD18178662901
:102C8000EAD1C1784F29E7D100794B28E4D1E06936
:102C9000857070BD90F903200B2A18DA0846FFF7FB
:102CA00067F80028F5D03046FFF712F9417801F0B7
:102CB0000F010329EDD181786629EAD1C1784F2926
:102CC000E7D100794B28E4D1E069C57070BD90F977
:102CD00004200B2A18DA0846FFF74AF80028F5D036
:102CE0003046FFF7F5F8417801F00F010429EDD1E6
:102CF00081786629EAD1C1784F29E7D100794B283C
:102D0000E4D1E069057170BD90F905200B2A18DA4D
:102D10000846FFF72DF80028F5D03046FFF7D8F821
:102D2000417801F00F010529EDD181786629EAD1BA
:102D3000C1784F29E7D100794B28E4D1E06945718A
:102D400070BD90F906200B2A18DA0846FFF710F834
:102D50000028F5D03046FFF7BBF8417801F00F01AD
:102D60000629EDD181786629EAD1C1784F29E7D1CA
:102D700000794B28E4D1E069857170BD90F90700B6
:102D80000B2818DA0846FEF7F3FF0028F5D0304686
:102D9000FFF79EF8417801F00F010729EDD1817806
:102DA0006629EAD1C1784F29E7D100794B28E4D1CF
:102DB000E069C57170BD012084F8260070BD000077
:102DC00008000020002280F826201146C3695A54CA
:102DD000491C0D29FADB704770B53D4E0C462DEDB0
:102DE000088B44F25061B069B0F90050F069B0F955
:102DF0000000084406F057F89FED36AB53EC1A2B51
:102E000006F0B8F89FED359B53EC192B06F0B2F89D
:102E10009FED34BB53EC1B2B05F0BEFE41EC180BB1
:102E2000306AB0F9000006F03EF853EC1A2B06F0B9
:102E3000A1F853EC192B06F09DF853EC1B2B05F071
:102E4000ABFE41EC100B51EC190B53EC102B06F0C0
:102E50009DFA53EC182B06F099FA41EC100B04F094
:102E60005FFF9FED221B51EC100B53EC112B06F072
:102E700081F841EC190BB0EE480AF0EE680A04F054
:102E80004FFF9FED1C1B51EC100B53EC112B06F068
:102E900071F853EC192B05F0CBFD9FED181B53EC8B
:102EA000112B06F065F906D2604200B2002C04DA5C
:102EB00014498D4205DC002003E043F20C018D42F1
:102EC000F9DABDEC088BBDE8704002F0CBBF000022
:102ED000080000200000000000000040E08644548C
:102EE000FB210940000000000094E14000000000C8
:102EF0008047EA4000000000003FEB400000000077
:102F00000011E240F4CFFFFF2DE9F04F1E462DEDFA
:102F1000108B83B014460F4683469FEDFAFB90F862
:102F200022004FF0000A9FEDF9AB9FEDFABBFB4D7D
:102F30000028A5F180086ED104F1080090EC040B84
:102F400051EC100B53EC112B05F072FD41EC100B02
:102F500004F0E6FE53EC1A2B51EC100B06F00AF8C5
:102F600041EC180B94ED020B04F0DAFE53EC1B2B32
:102F700051EC100B05F0FEFF53EC182B06F006FA8F
:102F800041EC180B94ED000B04F0CAFE53EC182B27
:102F900051EC100B05F0EEFF41EC100B85ED000B32
:102FA00094ED000B04F028FF53EC182B51EC100BA0
:102FB00005F0E0FF41EC100B04F1080085ED020B79
:102FC00090EC040B51EC100B53EC112B05F030FD81
:102FD00041EC100B04F010FF53EC1A2B51EC100BCA
:102FE00005F0C8FF41EC180B94ED020B04F004FF50
:102FF00053EC1B2B51EC100B05F0BCFF53EC182BC2
:1030000006F0C4F941EC100B012185ED040B88F8A2
:1030100008A08BF8221006EB46099FEDC1CB9FED6F
:10302000C2DB9FEDC3EB9FEDC48B9FEDC59B012FD2
:1030300006D0022F7ED0032F7DD0002F7CD002E35C
:1030400004F1080090EC040B51EC100B53EC112B25
:1030500005F0EEFC41EC100B04F062FE53EC1A2B71
:1030600051EC100B05F086FF41EC1F0B94ED020BA9
:1030700004F056FE53EC1B2B51EC100B05F07AFFBD
:1030800053EC1F2B06F082F941EC1F0B98F9080056
:10309000022802D003280FD036E094ED000B04F094
:1030A0003FFE53EC1F2B51EC100B05F063FF41EC7E
:1030B000100B85ED000B27E004F1080090EC040BE9
:1030C00051EC100B53EC112B05F0B2FC41EC100B42
:1030D00004F092FE53EC1A2B51EC100B05F04AFF52
:1030E00041EC1A0B94ED020B04F086FE53EC1B2B03
:1030F00051EC100B05F03EFF53EC1A2B06F046F98D
:1031000041EC100B85ED040B484605F0CCFE41EC7C
:103110001A0B94ED000B04F06FFE53EC1F2B51ECD7
:10312000100B05F027FF53EC1A2B05F081FC41EC46
:10313000100B02E018E187E2C7E385ED020B53ECC8
:10314000102B05F017FF95ED000B41EC1A0B53EC1B
:10315000102B51EC100B05F00DFF53EC1A2B05F062
:1031600067FC95ED040B41EC1B0B53EC102B51EC61
:10317000100B05F0FFFE53EC1B2B05F059FC41EC46
:103180001A0BB0EE4B0AF0EE6B0A04F0A1FEB0EEA3
:1031900040BAF0EE60BAB0EE4A0AF0EE6A0A04F005
:1031A00097FEB0EE40FAF0EE60FA9FED670B53EC3D
:1031B000102B95ED000B51EC100B05F09FFE0CD27F
:1031C000D8F85820A2F81AA0D8F85C20A2F81AA0C3
:1031D000D8F86000A0F81AA031E295ED000B53EC8E
:1031E000102B95ED020B51EC100B05F0D5FC41ECCA
:1031F000100B04F021FC53EC182B51EC100B05F0D4
:10320000B9FE53EC192B05F0C7FC41EC100B53EC45
:103210001C2B8DED000B51EC1F0B05F0ABFE41ECB0
:103220001C0B53EC1D2B51EC1A0B05F001FC53EC5D
:103230001E2B06F0ABF853EC1C2B05F0ADFC41EC5B
:10324000100B04F051FAB0EE40CAF0EE60CA95EDF2
:10325000040B53EC1B2B51EC100B05F09DFC41ECC7
:10326000100B04F0E9FBB0EE401AF0EE601A53ECDC
:103270001C2B51EC110B05F0DBFB9FED351B53ECC8
:10328000112B06F083F853EC182B05F073FE53EC6A
:10329000192B05F081FC53EC182B06F077F89FED05
:1032A0002E0B41EC1B0B53EC1A2B51EC100B06F0C0
:1032B0006DF89FED2B1B53EC112B05F06DFC41ECD1
:1032C000100B04F011FA53EC182B51EC100B05F015
:1032D00051FE53EC192B05F05FFC05F0B5FD81465E
:1032E00051EC1B0B05F0B0FD9DED000B044651ECBD
:1032F000100B05F0A9FD014606EBD67040100090BA
:1033000098E1000000000000000000009A999999DF
:1033100099D18040000000000070814088000020AA
:1033200000000000007091400000000010011341F7
:103330005C8FC2F5ECAD1141000000000094D1405B
:10334000E0864454FB2109400000000000C07240A8
:10335000C154336B29209D3FAE47E17A7E5722410D
:10336000666666666E54224104F1080090EC040B18
:1033700051EC100B53EC112B05F05AFB41EC100BE8
:1033800004F0CEFC53EC1A2B51EC100B05F0F2FDBF
:1033900041EC1F0B94ED020B04F0C2FC53EC1B2B11
:1033A00051EC100B05F0E6FD53EC1F2B05F0EEFF82
:1033B00041EC1F0B98F90800012802D003280FD018
:1033C00036E094ED000B04F017FD53EC1F2B51EC8D
:1033D000100B05F0CFFD41EC100B85ED020B27E043
:1033E00004F1080090EC040B51EC100B53EC112B82
:1033F00005F01EFB41EC100B04F0FEFC53EC1A2B05
:1034000051EC100B05F0B6FD41EC1A0B94ED020BDC
:1034100004F0F2FC53EC1B2B51EC100B05F0AAFD51
:1034200053EC1A2B05F0B2FF41EC100B85ED040BA9
:1034300009EBD970401005F036FD41EC1A0B94ED04
:10344000000B04F06DFC53EC1F2B51EC100B05F03E
:1034500091FD53EC1A2B05F0EBFA41EC1A0B85EDBC
:1034600000AB95ED020B53EC102B51EC100B05F05B
:1034700081FD41EC1B0B53EC1A2B51EC1A0B05F0A0
:1034800079FD53EC1B2B05F0D3FA95ED040B41ECC1
:103490001B0B53EC102B51EC100B05F06BFD53EC98
:1034A0001B2B05F0C5FA41EC1A0BB0EE4B0AF0EEFF
:1034B0006B0A04F00DFDB0EE40BAF0EE60BAB0EE6B
:1034C0004A0AF0EE6A0A04F003FDB0EE40FAF0EEAC
:1034D00060FA95ED000B53EC102B95ED020B51ECBF
:1034E000100B05F059FB41EC100B04F0A5FA53EC5E
:1034F000182B51EC100B05F03DFD53EC192B05F08A
:103500004BFB41EC100B53EC1C2B8DED000B51ECE5
:103510001F0B05F02FFD41EC1C0B53EC1D2B51EC48
:103520001A0B05F085FA53EC1E2B05F02FFF53EC18
:103530001C2B05F031FB41EC100B04F0D5F8B0EE7C
:1035400040CAF0EE60CA95ED040B53EC1B2B51EC16
:10355000100B05F021FB41EC100B04F06DFAB0EEFE
:10356000401AF0EE601A53EC1C2B51EC110B05F0D5
:103570005FFA1FED891B53EC112B05F007FF53EC8D
:10358000182B05F0F7FC53EC192B05F005FB53EC59
:10359000182B05F0FBFE53EC1A2B41EC1B0B1FED17
:1035A000920B51EC100B05F0F1FE1FED931B53EC49
:1035B000112B05F0F1FA41EC100B04F095F853ECE7
:1035C000182B51EC100B05F0D5FC53EC192B05F022
:1035D000E3FA41EC180B9FEDD70B53EC102B95ED54
:1035E000000B51EC100B05F089FC02D2002EFFF607
:1035F000E7AD9FEDD20B53EC102B95ED000B51EC8A
:10360000100B05F0B5FD1AD27100032091FBF0F606
:1036100051EC180B05F018FC814651EC1B0B05F022
:1036200013FC9DED000B044651EC100B05F00CFC57
:10363000014600964B462246584601F0D7FC88F8D2
:10364000087095ED00FB49E104F1080090EC040BD3
:1036500051EC100B53EC112B05F0EAF941EC100B77
:1036600004F05EFB53EC1A2B51EC100B05F082FCBE
:1036700041EC1F0B94ED020B04F052FB53EC1B2B9F
:1036800051EC100B05F076FC53EC1F2B05F07EFE81
:1036900041EC1F0B98F90800012802D002280FD036
:1036A0001CE094ED000B04F0A7FB53EC1F2B51EC36
:1036B000100B05F05FFC41EC100B85ED020B0DE0EB
:1036C00094ED000B04F02CFB53EC1F2B51EC100B72
:1036D00005F050FC41EC100B85ED000B304605F079
:1036E000E2FB41EC1F0B04F1080090EC040B51ECE1
:1036F000100B53EC112B05F09BF941EC100B04F06F
:103700007BFB53EC1A2B51EC100B05F033FC41EC16
:103710001A0B94ED020B04F06FFB53EC1B2B51ECD6
:10372000100B05F027FC53EC1A2B05F02FFE53EC81
:103730001F2B05F07DF941EC1A0B85ED04AB95EDDF
:10374000020B53EC102B51EC100B05F013FC95ED14
:10375000000B41EC1B0B53EC102B51EC100B05F044
:1037600009FC53EC1B2B05F063F941EC1B0B53ECEC
:103770001A2B51EC1A0B05F0FDFB53EC1B2B05F03B
:1037800057F941EC1A0BB0EE4B0AF0EE6B0A04F05D
:103790009FFBB0EE40BAF0EE60BAB0EE4A0AF0EE2F
:1037A0006A0A04F095FB53EC1C2B51EC100B05F04E
:1037B000E1FB41EC1C0B53EC1D2B51EC1A0B05F0FB
:1037C00037F953EC1E2B05F0E1FD53EC1C2B05F0F3
:1037D000E3F941EC100B03F087FFB0EE40CAF0EEC6
:1037E00060CA95ED040B53EC1B2B51EC100B05F04C
:1037F000D3F941EC100B04F01FF9B0EE401AF0EED3
:10380000601A53EC1C2B51EC110B05F011F99FEDD4
:103810004D1B53EC112B05F0B9FD53EC182B05F0A3
:10382000A9FB53EC192B05F0B7F953EC182B05F055
:10383000ADFD53EC1A2B41EC1B0B9FED440B51ECEF
:10384000100B05F0A3FD9FED431B53EC112B05F06E
:10385000A3F941EC100B03F047FF53EC182B51EC8C
:10386000100B05F087FB53EC192B05F095F99FED34
:103870003B0B41EC1A0B53EC102B95ED000B51EC6C
:10388000100B05F03BFBFFF49BAC032096FBF0F61E
:1038900051EC1A0B05F0D8FA814651EC1B0B05F0E0
:1038A000D3FA94ED000B824653EC182B51EC100B1D
:1038B00005F060FB53EC192B05F06EF905F0C4FA26
:1038C00001464B4652460096B6E6002002F0CAFA80
:1038D000002002F0F3F9002002F068FBD8F85C0049
:1038E0004446418BD8F86000408B084401B2D8F8B8
:1038F0006400FEF717FBA06DB0F91A0005F0D3FACB
:103900009FED181B53EC112B05F034FB05F09CFACE
:10391000404201B2A06EFEF705FB584601F0A4F844
:1039200003B0B0EE4F0AF0EE6F0ABDEC108BBDE8AD
:10393000F08F00000000000000A0744000000000B4
:1039400000406F40C154336B29209D3FAE47E17A60
:103950007E572241666666666E5422410000000072
:1039600000C0724026E4839ECD2AF63F70B508461B
:103970002DED108B82B09FEDFD8BFE4C05F093FA80
:1039800041EC190BE06944F25061B0EE48BAB0F96D
:103990000000F0EE68BAB0EE48AAF0EE68AA08445B
:1039A00005F081FA9FEDF4FB53EC1F2B05F0E2FAD2
:1039B0009FEDF3DB53EC1D2B05F0DCFA9FEDF21BC2
:1039C00053EC112B05F0E8F841EC1C0B206AB0F920
:1039D000000005F068FA53EC1F2B05F0CBFA53EC0E
:1039E0001D2B05F0C7FA9FEDE81B53EC112B05F0DA
:1039F000D3F841EC1E0B606AB0F9000005F053FAF1
:103A000053EC1F2B05F0B6FA53EC1D2B05F0B2FA60
:103A10009FEDDD1B53EC112B05F0BEF841EC1F0BA5
:103A200053EC1E2B51EC1D0B05F0B0FC53EC1C2B82
:103A300005F0ACFC41EC100B53EC1C2B8DED000B96
:103A40009FEDD30B51EC100B05F0A0FC41EC1D0BCE
:103A500053EC1E2B51EC1F0B05F098FC53EC1D2B67
:103A600004F0E6FF41EC1E0BB0EE4C0AF0EE6C0ADF
:103A700004F056F99FEDC81B51EC100B53EC112BC1
:103A800005F078FA41EC1C0B9DED000B04F048F9B1
:103A90009FEDC31B51EC100B53EC112B05F06AFA90
:103AA00041EC1D0B51EC1C0B53EC1D2B04F0C0FF23
:103AB0000E46054646EC1C0BB0EE4E0AF0EE6E0AC2
:103AC00004F09AF99FEDB81B51EC100B53EC112B3D
:103AD00005F050FA53EC1C2B05F080FB41EC1F0B5A
:103AE0009FEDB3EB51EC1C0B53EC1E2B05F006FACB
:103AF00006D353EC1E2B51EC1F0B05F0FFF906D239
:103B000053EC182B51EC190B05F032FB3AD353EC64
:103B1000182B51EC190B05F0F1F908D29FEDA60B0B
:103B200051EC1C0B53EC102B05F0E8F92AD3B0EE46
:103B3000480AF0EE680A53EC102B51EC190B05F013
:103B4000DDF90DD2206A43F2C821B0F900008842A5
:103B500018DC606A43F69821B0F90000884211DC55
:103B6000B0EE49AAF0EE69AA46EC1B5B53EC1D2BA4
:103B700051EC190B05F0FEF953EC1B2B05F00CF87A
:103B800041EC1B0B51EC1A0B53EC1B2B05F0FEFB0D
:103B900041EC1D0B53EC182B51EC1A0B05F0E8FA15
:103BA00004D2B0EE4AEAF0EE6AEA05E051EC1A0BF4
:103BB00004F031FF41EC1E0BB0EE48CAF0EE68CACB
:103BC00053EC1C2B51EC1B0B05F0D2FA04D2B0EED7
:103BD0004B0AF0EE6B0A05E051EC1B0B04F01BFFE7
:103BE00041EC100B53EC1E2B51EC100B05F0C0FAFE
:103BF00053EC1C2B0CD251EC1B0B05F0B9FA04D280
:103C0000B0EE4B8AF0EE6B8A12E051EC1B0B0BE02E
:103C100051EC1A0B05F0ACFA04D2B0EE4A8AF0EE81
:103C20006A8A05E051EC1A0B04F0F5FE41EC180B22
:103C300053EC1C2B51EC1D0B05F09AFA04D2B0EE9C
:103C40004DEAF0EE6DEA05E051EC1D0B04F0E3FEE9
:103C500041EC1E0B53EC1C2B51EC180B05F088FAB1
:103C600004D2B0EE480AF0EE680A05E051EC180BF9
:103C700004F0D1FE41EC100B53EC1E2B51EC100B59
:103C800005F076FA53EC1C2B07D251EC180B05F01B
:103C90006FFA12D351EC180B0BE051EC1D0B05F031
:103CA00067FA04D2B0EE4D8AF0EE6D8A05E051EC71
:103CB0001D0B04F0B0FE41EC180B53EC1C2B51EC27
:103CC000190B05F055FA05D351EC190B04F0A3FEBE
:103CD00041EC190B53EC182B51EC1B0B04F05CFF5F
:103CE00053EC192B05F046F941EC1B0B53EC182B48
:103CF00051EC1A0B04F050FF53EC192B05F03AF974
:103D000041EC1A0B53EC182B51EC1D0B04F044FF43
:103D100053EC192B05F02EF941EC180B51EC1B0B51
:103D200005F092F800B201F0C9FF51EC1A0B04F053
:103D300072FE05F089F800B202F038F951EC180B68
:103D400004F069FE05F080F800B201F05FFCE06D60
:103D5000408B30B1206E408B18B1606E408B0028D4
:103D600038D1002001F0AAFF002029E00000000067
:103D700000000000080000200000000000000040DB
:103D8000E0864454FB210940000000000094E1401B
:103D9000E0864454FB21F93F00000000003FEB4067
:103DA000000000008047EA4000000000006AD840A0
:103DB000000000000088E340000000000046DE40F4
:103DC00002F0F4F802B00020BDEC108BBDE87040AA
:103DD00001F01CBC02B0BDEC108B70BD2DE9F34F9F
:103DE0008B462DED108B87B044F2506A9FEDFD8B12
:103DF000FE4989468A69B0EE489AF0EE689AB2F9AF
:103E000000600A6AB2F900504A6AC969B2F9004012
:103E1000B1F9001001EB0A0005F045F89FEDF4EB55
:103E200053EC1E2B05F0A6F89FEDF3CB53EC1C2BA7
:103E300005F0A0F89FEDF2FB53EC1F2B04F0ACFE55
:103E40009FEDF1BB53EC1B2B04F0F2FD41EC1A0B80
:103E5000284605F028F853EC1E2B05F08BF853ECA0
:103E60001C2B05F087F853EC1F2B04F095FE41EC5A
:103E70001D0B204605F017F853EC1E2B05F07AF8C1
:103E800053EC1C2B05F076F853EC1F2B04F084FE4A
:103E900041EC1F0B53EC1D2B51EC1C0B05F076FA7B
:103EA00053EC1A2B05F072FA41EC1E0B53EC1A2B53
:103EB00051EC1B0B05F06AFA53EC1B2B04F0B8FD18
:103EC00041EC1C0B53EC1D2B51EC1F0B05F05EFA63
:103ED00053EC1C2B04F0ACFD41EC100B8DED040BEE
:103EE000B0EE4A0AF0EE6A0A03F01AFF9FEDC8DB53
:103EF00051EC100B53EC1D2B05F03CF841EC100B72
:103F00008DED020BB0EE4E0AF0EE6E0A03F008FFE4
:103F10009FEDC1FB51EC100B53EC1F2B05F02AF861
:103F200041EC1C0B53EC1B2B51EC1A0B05F02EFA39
:103F3000804641EC100B019103F05EFF53EC1D2B0A
:103F400051EC100B05F016F841EC1A0B53EC1B2B3F
:103F500051EC1E0B04F06CFD074641EC100B009178
:103F600003F04AFF53EC1F2B51EC100B05F002F845
:103F700041EC1B0B009941EC107B03F0D1FE53EC9C
:103F80001F2B51EC100B04F0F5FF41EC1E0B0199B7
:103F900041EC108B03F0C4FE53EC1D2B51EC100BC5
:103FA00004F0E8FF53EC1E2B04F042FD41EC1D0B26
:103FB0009DED040B03F020FF9FED991B51EC100BBE
:103FC00053EC112B04F0D6FF53EC1D2B05F006F932
:103FD00041EC1E0B9FED940B51EC1D0B53EC102B81
:103FE00004F08CFF37D2002440F25227BBF1000FBF
:103FF0000DDD179800F0BEF9002827D042F22830D6
:10400000CDE9014053464242CDF800A018E04FF4FC
:10401000FA639D4276DB06F2077041F2175188423F
:1040200006D244F26820CDE90140814A009307E0BE
:1040300043F66C10CDE9014041F6C8137D4A009368
:10404000CDE903473146179800F0F0FB07B0BDEC0F
:10405000108BBDE8FC8F9FED780B51EC1E0B53ECE1
:10406000102B04F04BFF4DD353EC1B2B51EC1A0BD0
:1040700005F07EF8584604D204F015FF04F0CBFC9E
:1040800001E004F010FFB0EE48DAF0EE68DA41EC3F
:104090001A0B53EC1D2B04F031FF05D243F2C8205C
:1040A00085421BDC844219DC9DED020BB0EE4A8A8E
:1040B000F0EE6A8A53EC1C2B51EC100B04F0B8FCA8
:1040C00041EC190B53EC1C2B51EC1A0B04F052FF72
:1040D00053EC192B04F060FD41EC190B51EC180B5B
:1040E00053EC192B05F052F941EC1C0B53EC1D2B32
:1040F00051EC180B05F03CF805D2B0EE48BAF0EEE2
:1041000068BA06E00AE151EC180B04F084FC41ECBB
:104110001B0B53EC1D2B51EC190B05F029F804D2A5
:10412000B0EE490AF0EE690A05E051EC190B04F013
:1041300072FC41EC100B53EC1B2B51EC100B05F0F7
:1041400017F853EC1D2B0CD251EC190B05F010F89D
:1041500004D2B0EE49BAF0EE69BA12E051EC190B94
:104160000BE051EC180B05F003F804D2B0EE48BA9E
:10417000F0EE68BA05E051EC180B04F04CFC41EC91
:104180001B0B53EC1D2B51EC1C0B04F0F1FF04D264
:10419000B0EE4CEAF0EE6CEA05E051EC1C0B04F0DA
:1041A0003AFC41EC1E0B53EC1D2B51EC1B0B04F0A5
:1041B000DFFF04D2B0EE4B0AF0EE6B0A05E051ECE3
:1041C0001B0B04F028FC41EC100B53EC1E2B51ECA4
:1041D000100B04F0CDFF53EC1D2B37D251EC1B0B11
:1041E0002EE0000000000000000000000800002099
:1041F0000000000000000040E0864454FB2109401C
:10420000000000000094E140E0864454FB21F93FA7
:1042100000000000003FEB40000000008047EA4043
:1042200000000000006AD84000000000004CDD40A3
:1042300018FCFFFF1CF3FFFF000000000011E2402C
:1042400004F096FF12D351EC1B0B0BE051EC1C0B4E
:1042500004F08EFF04D2B0EE4CBAF0EE6CBA05E07A
:1042600051EC1C0B04F0D7FB41EC1B0B53EC1D2B4A
:1042700051EC1A0B04F07CFF05D351EC1A0B04F03F
:10428000CAFB41EC1A0B53EC1B2B51EC190B04F03D
:1042900083FC53EC1A2B04F06DFE41EC190B53EC2C
:1042A0001B2B51EC180B04F077FC53EC1A2B04F089
:1042B00061FE41EC180B53EC1B2B51EC1C0B04F072
:1042C0006BFC53EC1A2B04F055FE41EC1A0B51EC2D
:1042D000190B04F0B9FD00B201F0F0FC51EC180B21
:1042E00004F099FB04F0B0FD00B201F05FFE51EC68
:1042F0001A0B04F090FB04F0A7FD00B201F086F960
:10430000D9F85C104846498B41B1016E498B29B1FF
:10431000D9F86400408B00287FF498AE002001F0AB
:10432000CDFC002001F042FE07B00020BDEC108B58
:10433000BDE8FC4F01F06AB9026D00215183406D68
:1043400041830B48426D5183826D5183C26D51830D
:10435000026E5183426E5183826E5183C26E5183CD
:10436000026F5183426F5183806F41837047000019
:104370000800002070B540F2522405462146FEF7A1
:10438000DFFB00280DD00848C06BB0F90000A0F298
:104390004E20092806D300222146284600F0BEFD03
:1043A000002070BD012070BD080000202DE9F04103
:1043B000044690F82300002700281BD1E16991F9F9
:1043C00000206E4E0B250B2AF06C15DAFDF7D0FCA1
:1043D00000280FD03846FDF77BFD4178090709D149
:1043E00081784C2906D1B169C2784A700079087089
:1043F000E0690570BDE8F08191F901200B2A16DA19
:10440000FDF7B6FC0028F5D03846FDF761FD417890
:1044100001F00F010129EDD181784C29EAD1F16930
:10442000C2784A7000790870E0694570E2E791F956
:1044300002200B2A16DAFDF79BFC0028DAD038465A
:10444000FDF746FD417801F00F010229D2D18178B4
:104450004C29CFD1316AC2784A7000790870E0697E
:104460008570C7E791F903200B2A16DAFDF780FC67
:104470000028BFD03846FDF72BFD417801F00F0131
:104480000329B7D181784C29B4D1716AC2784A70B6
:1044900000790870E069C570ACE791F904200B2A37
:1044A00016DAFDF765FC0028A4D03846FDF710FDAC
:1044B000417801F00F0104299CD181784C2999D1D0
:1044C000B16AC2784A7000790870E069057191E7B5
:1044D00091F905200B2A16DAFDF74AFC002889D04D
:1044E0003846FDF7F5FC417801F00F01052981D12F
:1044F00081784C299AD1F16AC2784A7000790870A3
:10450000E069457176E791F906200B2A16DAFDF786
:104510002FFC00288AD03846FDF7DAFC417801F0FC
:104520000F0106299DD181784C299AD1316BC2782F
:104530004A7000790870E06985715BE791F90710AE
:104540000B2916DAFDF714FC00288AD03846FDF74F
:10455000BFFC417801F00F0107299DD181784C29DA
:104560009AD1716BC2784A7000790870E069C571A0
:1045700040E7012084F823003CE700000800002009
:1045800070B5044690F82500002600281DD1E0698A
:1045900090F90030764A0B250B2BD16C16DA0846C1
:1045A000FDF7E6FB002810D03046FDF791FC41787E
:1045B00009070AD18178622907D1C1784F2904D12E
:1045C00000794B2801D1E069057070BD90F9013088
:1045D0000B2B18DA0846FDF7CBFB0028F5D0304648
:1045E000FDF776FC417801F00F010129EDD18178CA
:1045F0006229EAD1C1784F29E7D100794B28E4D16B
:10460000E069457070BD90F902300B2B18DA08464E
:10461000FDF7AEFB0028F5D03046FDF759FC417898
:1046200001F00F010229EDD181786229EAD1C17828
:104630004F29E7D100794B28E4D1E069857070BD3E
:1046400090F903300B2B18DA0846FDF791FB002890
:10465000F5D03046FDF73CFC417801F00F0103290D
:10466000EDD181786229EAD1C1784F29E7D100796B
:104670004B28E4D1E069C57070BD90F904300B2B74
:1046800018DA0846FDF774FB0028F5D03046FDF730
:104690001FFC417801F00F010429EDD181786229D6
:1046A000EAD1C1784F29E7D100794B28E4D1E069FC
:1046B000057170BD90F905300B2B18DA0846FDF72F
:1046C00057FB0028F5D03046FDF702FC417801F099
:1046D0000F010529EDD181786229EAD1C1784F29EE
:1046E000E7D100794B28E4D1E069457170BD90F9BC
:1046F00006300B2B18DA0846FDF73AFB0028F5D0F8
:104700003046FDF7E5FB417801F00F010629EDD1B8
:1047100081786229EAD1C1784F29E7D100794B2805
:10472000E4D1E069857170BD90F907000B2818DAB3
:104730000846FDF71DFB0028F5D03046FDF7C8FB05
:10474000417801F00F010729EDD181786229EAD182
:10475000C1784F29E7D100794B28E4D1E069C571D0
:1047600070BD012084F825000020507070BD00004D
:104770000800002010B590F91800214C01280BD03A
:10478000022827D010BD606CFDF79EFA0146E06C50
:10479000FDF79FFA0028F6D0606CFDF7A2FA00281A
:1047A000F1D108E0E06CFDF78FFA0146606CFDF78F
:1047B00090FA0028F6D0E06CFDF793FA0028F1D1CA
:1047C00010BD206CFDF780FA0146E06CFDF781FA20
:1047D0000028F6D0206CFDF784FA0028F1D108E01B
:1047E000E06CFDF771FA0146206CFDF772FA0028C3
:1047F000F6D0E06CFDF775FA0028F1D110BD00008D
:1048000008000020002280F823201146C3695A5472
:10481000491C0D29FADB7047002280F8252011463B
:10482000C3695A54491C0D29FADB70472DE9FF4F23
:1048300095B00F4623A91D46B1E8000F164620216A
:1048400004A8FBF73BFD20210CA8FBF737FD654CC6
:1048500048F69862A069B0F90000381A0490E0693F
:10486000B0F90000301A0590206AB0F90000281A4B
:104870000690606AB0F900102298401A0790A06A6A
:10488000B0F90010A8EB01000890E06AB0F9001040
:10489000A9EB01000990206BB0F90010AAEB010010
:1048A000CDE90A0B0498C0EBC001C1EBC010C117E1
:1048B00000EB117000110C90059948F69860414387
:1048C00041F2ED7091FBF0F10D910699514391FB8E
:1048D000F0F10E910799514391FBF0F00F90089879
:1048E00040F275514843C82190FBF1F010900998AF
:1048F00040F2755148434FF4967190FBF1F01190DE
:104900000A9840F6DF2148434FF47A7190FBF1F0AA
:104910001290002013900CA9159802F0F9FA0546A0
:1049200000220B99159800F0F9FA60784042054290
:1049300055D0EE17CDE902561298C117CDE9000106
:104940000A9A206FD317FDF7E8FBCDE902561198BC
:10495000099AC117CDE90001D3172349E06EFDF78D
:104960004CFBCDE902561098089AC117CDE9000119
:10497000D317A06EFDF7D1FBCDE902560F98079A29
:10498000C117CDE90001D3171849606EFDF735FB5B
:104990000E98CDE90256C117CDE90001069A1449D7
:1049A000D317206EFDF729FBCDE902560D98C117EC
:1049B000CDE90001059A0F49D317E06DFDF71DFB06
:1049C000CDE902560C98049AC117CDE90001D3171E
:1049D0000949A06DFDF711FB159800F045F819B0D5
:1049E000BDE8F08F08000020856000080D56000823
:1049F000AD5F0008BD5C0008655E000830B5C46BA3
:104A0000836B0022B4F90040B3F9003004EBD47496
:104A1000C4F34705046C406C03EBD373B4F9004056
:104A2000B0F90000C3F3470304EBD47400EBD0707B
:104A30001146C4F34704C0F34700322B01D90122C9
:104A40001946322D01D9521C2944322C01D9521C4D
:104A50002144322801D9521C01441AB1B1FBF2F0B1
:104A6000C0B230BD0020FBE72DE9FE4F3A484FF0C1
:104A70000008C446416D47468B46497C464645463C
:104A80004446434642460B2901D00C2901D14FF040
:104A90000108816D0291497C0B2901D00C2901D1BB
:104AA0004FF0010CC16D0191497C0B2901D00C29FB
:104AB00000D10127016E0091497C0B2901D00C29FE
:104AC00000D10126416E8E46497C0B2901D00C296C
:104AD00000D10125816E8A46497C0B2901D00C2921
:104AE00000D10124C16E8946497C0B2901D00C29D3
:104AF00000D10123016F487C0B2801D00C2800D184
:104B0000012248EA0C00384330432843204318432D
:104B100010431ED00020B8F1000F01D1ABF81A00ED
:104B2000BCF1000F03D1DDF808C0ACF81A000FB9D2
:104B3000019F78830EB9009E70830DB9AEF81A00FC
:104B40000CB9AAF81A000BB9A9F81A0002B94883DF
:104B50000120BDE8FE8F0000080000202DE9F04193
:104B6000904C0646A06D017C0A2902D90821FDF768
:104B7000A8F9E06D017C0A2902D90821FDF7A1F905
:104B8000206E017C0A2902D90821FDF79AF9606E8E
:104B9000017C0A2902D90821FDF793F9A06E017C56
:104BA0000A2902D90821FDF78CF9E06E017C0A2957
:104BB00002D90821FDF785F9206F017C0A2902D965
:104BC0000821FDF77EF9606F017C0A2902D90821CE
:104BD000FDF777F9A06F017C0A2902D90821FDF7BA
:104BE00070F9F06D017C0A2902D90821FDF769F9F5
:104BF000B06E007C0A2802D9002086F82800E06CFC
:104C0000FDF7B6F800287DD00020FDF761F9417866
:104C100005460F0900D00837A878412803D0682836
:104C200001D0432864D101F00F00092860D2DFE8E9
:104C300000F0050F19232D37414B5800A06DFDF7EB
:104C400054F93946A06DFDF73CF9E978A06944E0D4
:104C5000E06DFDF74AF93946E06DFDF732F9E97884
:104C6000E0693AE0206EFDF740F93946206EFDF725
:104C700028F9E978206A30E0606EFDF736F93946A8
:104C8000606EFDF71EF9E978606A26E0A06EFDF718
:104C90002CF93946A06EFDF714F9E978A06A1CE0FA
:104CA000E06EFDF722F93946E06EFDF70AF9E97882
:104CB000E06A12E0206FFDF718F93946206FFDF722
:104CC00000F9E978206B08E0606FFDF70EF93946CE
:104CD000606FFDF7F6F8E978606B41702979017033
:104CE00006E0A06FFDF701F93946A06FFDF7E9F87E
:104CF0002078032836D1E069B0F90000A0F25720EF
:104D0000414200E04CE040F2AE48414508D8E06D39
:104D1000417C0B2901D00C2902D10021FDF7D1F8EB
:104D2000206AB0F90000A0F2AF404142414508D8E6
:104D3000206E417C0B2901D00C2902D10021FDF706
:104D4000C0F8606AB0F90000A0F21F30414241454E
:104D500008D8606E417C0B2901D00C2902D10021BA
:104D6000FDF7AFF8687800F00F00092806D1F06D64
:104D7000FDF7BBF83946F06DFDF7A3F8687800F051
:104D80000F000A280CD1B06EFDF7AFF83946B06EAF
:104D9000FDF797F8B06E2979C174012086F82800D4
:104DA000BDE8F0810800002070B5044690F82400AA
:104DB00000281ED1E16991F90900032807DA487A31
:104DC000401C4872BDE870406420FCF7A9BA91F914
:104DD0000000514A0A2805DA0878401C08700721AB
:104DE000906D7CE091F900000B2803DA0878401CF4
:104DF000087070BD91F901000A2805DA4878401C56
:104E000048700721D06D6AE091F901000B2803DAA0
:104E10004878401C487070BD91F902000A2805DAF4
:104E20008878401C88700721106E58E091F90200C4
:104E30000B2803DA8878401C887070BD91F9030054
:104E40000A2805DAC878401CC8700721506E46E071
:104E500091F903000B2803DAC878401CC87070BDB4
:104E600091F904000A2805DA0879401C0871072125
:104E7000906E34E091F904000B2803DA0879401CA5
:104E8000087170BD91F905000A2805DA4879401CBF
:104E900048710721D06E22E091F905000B2803DA52
:104EA0004879401C487170BD91F906000A2805DA5E
:104EB0008879401C88710721106F10E091F9060075
:104EC0000B2803DA8879401C887170BD91F90700BE
:104ED0000A2808DAC879401CC871506F0721BDE85C
:104EE0007040FDF721B891F907000B2803DAC87963
:104EF000401CC87170BD91F908000128FADA01253B
:104F00000D724FF4FA60FCF70BFAA06DC574A06D3A
:104F1000BDE87040FDF704BA080000202DE9F04715
:104F2000DFF8C4909246A1F23A33D9F83C00B0F9C8
:104F300000200020702B54D3A2F23A33702B50D3B0
:104F40004FF4FA6441F65833674240F23938A510FD
:104F50005E424FEAA70C414514D8A2F2AA38B8F134
:104F6000560F07D2891A01F5806112E00A2915DD72
:104F7000204625E08A420BDB511A19E00A291CDD84
:104F800038461DE040F2AA3842450BD38A4209DA7E
:104F9000891A09B21429E9DD184611E004290FDD48
:104FA00028460DE08A4202DBB2F5806FE4D3891A0D
:104FB00009B21429E2DD304602E0042900DD604632
:104FC000BAF1000F00B208D000F076FA0146D9F825
:104FD0005400BDE8F047FCF783BFBDE8F04700F0A0
:104FE0006BBABDE8F0870000080000202DE9F04F03
:104FF000DFF834C185B0DCF818000E9FB0F900006E
:10500000A1EB000BDCF81C00CBEBCB01B0F90000EE
:10501000A2EB000ADCF82000B0F900001A1AC1EB7C
:10502000CB10C11700EB1170041148F698610AFB10
:1050300001F041F2ED7190FBF1F548F698605043B4
:1050400090FBF1F0002C01DD214600E06142002DD3
:1050500001DD2B4600E06B42994205DD002C01DDAD
:10506000264606E0664204E0002D01DD2E4600E003
:105070006E42002E01DD334600E07342002801DD60
:10508000014600E041428B4203DD002E06DC764201
:1050900004E0002801DD064600E046429CF80110CD
:1050A00049420E423CD079428946002F00DD394604
:1050B00048434FF0070890FBF8F0F317C117CDE90C
:1050C0000263CDE9000118480493D317006EFDF781
:1050D000B7F8002F01DD384600E04846454395FB10
:1050E000F8F0049A104DCDE90262C117CDE9000134
:1050F00052464FEAEA73E86DFDF7A2F8002F00DC94
:105100004F467C4394FBF8F0049AC117CDE9026244
:10511000CDE900015A464FEAEB73A86DFDF790F810
:1051200005B0BDE8F08F00000800002070B504460F
:10513000006EFDF761FA0F4D286CFCF785FD686C79
:10514000FCF782FDA86CFCF77FFDE86CFCF77CFDAA
:10515000286DFCF779FD2068FCF776FD6068FDF7A7
:105160006FFBA068FDF76CFBE068BDE87040FDF7E1
:1051700067BB00000800002090F82610002912D11B
:10518000C16991F900304A4A0A2B05DA0878401CB7
:1051900008700621906D7CE091F900300B2B03DA4A
:1051A0000878401C0870704791F901300A2B05DA25
:1051B0004878401C48700621D06D6AE091F90130B2
:1051C0000B2B03DA4878401C4870704791F9023085
:1051D0000A2B05DA8878401C88700621106E58E08A
:1051E00091F902300B2B03DA8878401C88707047E5
:1051F00091F903300A2B05DAC878401CC8700621E3
:10520000506E46E091F903300B2B03DAC878401C4E
:10521000C870704791F904300A2B05DA0879401CF0
:1052200008710621906E34E091F904300B2B03DAFB
:105230000879401C0871704791F905300A2B05DA8E
:105240004879401C48710621D06E22E091F9053062
:105250000B2B03DA4879401C4871704791F90630EE
:105260000A2B05DA8879401C88710621106F10E03E
:1052700091F906300B2B03DA8879401C887170474E
:1052800091F907300A2B06DAC879401CC87106214B
:10529000506FFCF749BE91F907200B2A03DAC87951
:1052A000401CC8717047012180F82610704700002B
:1052B0000800002010B590F8271000290ED1084CE6
:1052C00021790A2905D2C06DFDF70CFA2079401C1E
:1052D00003E0012180F827100020207110BD00009C
:1052E000080000202DE9F041724E044641F2883258
:1052F000B6F91010481C00B2914201DA30820CE07D
:1053000004D13082A06DFCF7F0FD06E0A06D017CB9
:105310000A2902D90821FCF7D4FD206D017C0A2955
:1053200002D90821FCF7CDFD606D017C0A2902D964
:105330000821FCF7C6FD706D017C0A2902D90821FD
:10534000FCF7BFFD306DFCF713FD002827D00120CE
:10535000FCF7BEFD05464078070900D0083710F07D
:105360000F001ED0012836D002284FD0032816D1B6
:10537000A06DFCF7BAFD3946A06DFCF7A2FDA87838
:1053800001210222722853D0732808D1E8788309BA
:105390007ED0B1EB901F7CD1287984F84900BDE81C
:1053A000F081206DFCF7A1FD17B13946206D07E0B3
:1053B00094F948005A28206D01DD092100E0002100
:1053C000FCF77FFDA8784928E9D1216BE87848707F
:1053D0002879216B18E0606DFCF787FD17B139461D
:1053E000606D07E094F949005A28606D01DD0921DC
:1053F00000E00021FCF765FDA8784928CFD1616B5A
:10540000E87848702879616B0870C8E7706DFCF720
:105410006CFD0FB1394606E094F94A005A2801DDC7
:10542000092100E00021706DBDE8F041FCF749BDA5
:10543000E878830909D0B1EB901F0DD1E16B00F042
:105440003F0048702879E16B1AE0A16B00F03F0043
:1054500048702879A16B13E0B2EB901F06D1216C44
:1054600000F03F0048702879216C09E00321B1EB7E
:10547000901F06D1616C00F03F0048702879616C84
:1054800008702046FFF7BAFA6076617E606E01E030
:1054900004E007E0BDE8F041FCF7AABF287984F8F2
:1054A00048007CE7B2EB901FAFD1287984F84A001E
:1054B00075E70000080000202DE9F0474F4D014638
:1054C0000024E86B40F26542008810FB02F0C2172E
:1054D00000EBD260C0F34F12E8692346B0F90070C8
:1054E000A869B0F900602846406D69B16D787DB15A
:1054F000A2F5E445DC3D40F6644C65450BD2052140
:1055000043830846BDE8F087014618464B83F9E718
:10551000FCF7BEFE6FE03A4DDFF8E8C041F2EC3830
:10552000002937DA6FF0C709AF421BDD664519DD88
:10553000464517DAA2F5E6453F3D41F28236B542CF
:10554000E6D248F2F8518A4201D92F49E0E748F201
:1055500030518A4203D94946FCF79AFE00E0438362
:10556000032448E045F2EA35AA42D1D845F2BE25E7
:10557000AA4204D9052291FBF2F109B2C8E745F22B
:10558000F6118A4203D94946FCF782FE00E04383C4
:10559000012430E04FF4FA69AF421ADD664518DDA8
:1055A000464516DAA2F5D6455C3DB5F59C5FAFD809
:1055B00046F624418A4201D24946A9E746F6EC4123
:1055C0008A4203D2C821FCF763FE00E0438304242F
:1055D00011E046F28475AA429AD346F64C018A42FB
:1055E000EAD346F678118A4203D2C821FCF750FE6E
:1055F00000E043830224204684E7000008000020E6
:1056000014ECFFFFFCEFFFFF30F8FFFF2DE9F04146
:105610004A4905004FF00004086A2346B0F90060CB
:10562000486AB0F90020C86AB0F90070486BB0F958
:1056300000C00846406E1FD0497800297CD0032165
:1056400095FBF1F109B24FF4AF6E002D2ADA42F664
:10565000186C6FF0C706674515DA40F6C417BA42F2
:105660006ADC40F63405AA4256DCB2F5FA6F07DD73
:105670003146FCF70DFE04E043831846BDE8F08197
:105680004383012456E0724556DCB2F57A7F43DC51
:10569000B2F5617F03DD3146FCF7FAFD00E043839C
:1056A000022447E040F6AC57BE4216DA764502DAED
:1056B000438303243EE0B2F57A6F3DDB41F23015BF
:1056C000AA4229DB41F294118A4203DAC821FCF78D
:1056D000DFFD00E0438304242CE040F24C46B44557
:1056E00012DA44F25C46B24226DB44F28855AA4202
:1056F00012DB44F2EC518A4203DAC821FCF7C8FD00
:1057000000E04383052415E043F2F436B24213DB94
:1057100043F28455AA4203DAFCF7BAFD0AE00BE033
:1057200043F2E8518A4203DAC821FCF7B1FD00E0F8
:10573000438306242046A1E72946EDE70800002020
:1057400010B5006EFCF750FF00EB00104821B0FBD5
:10575000F1F0722802DA00F28D3000E0723802496E
:10576000C96B088010BD0000080000202DE9F04141
:105770000446C06C0126002581694878302802D093
:10578000502837D054E08878AA2804D0112815D0A2
:10579000552821D04CE0C878BB2849D10879CC28BD
:1057A00046D14879DD2843D184F82060A068FDF710
:1057B00040F8E068BDE8F041FDF73BB8C878222822
:1057C00036D10879332833D14879442830D120465E
:1057D000BDE8F041FFF720B8C878662828D10879DD
:1057E000772825D14879882822D12046BDE8F04184
:1057F000FDF7E8BA8878AA281AD1C878BB2817D14B
:105800000879CC2814D14879DD2811D18879EE287F
:105810000ED1C879FF280BD1087A112808D1487A0F
:10582000222805D1887A332802D1C87A442816D094
:1058300084F82050487A4B4A07070D23002F12D0D6
:1058400050DA8D7905F00705012D0ED0022D11D00B
:10585000032D14D0042D20D0052D23D071E084F821
:105860002750BDE8F081157073E00879400768D1D2
:1058700006206DE00879400763D1072068E00D79C4
:105880006E0704D005F00705032D02D059E008206B
:105890005EE0400755D503205AE00879400758D10B
:1058A000092055E00D796F0704D005F00705012D9B
:1058B00002D005E00A204BE0470701D5167048E00A
:1058C000022D03D1460701D5022041E0042D03D16A
:1058D000460701D504203BE0052D32D1400730D5E5
:1058E000052035E0C0F38105012D06D000F003004E
:1058F00002282AD001282AD02BE00879C5436D0759
:1059000004D000F0070006281DD01AE048794507AA
:1059100005D0000701D412201AE0132018E0C8793E
:10592000450705D0000701D4102011E011200FE039
:1059300010F0700F05D0000601D40F2008E00E20F3
:1059400006E0137005E0142002E00B2000E00C20BC
:1059500010700020E36A0A5C1A54401C0D28F9DB21
:105960007FE700000800002070B52D4E002431466E
:10597000706B8A6EB0F90050B06AB0F90000002870
:105980000FDDB0F57A7F01DD264918E0C82801DD7A
:10599000254914E0642801DD244910E000205083EB
:1059A00010E010F57A7F02DA42F6E06107E010F1CC
:1059B000C80F02DA41F2707101E04FF4C87110466D
:1059C000FCF766FC41F2BA3141F27C508D420CDDAD
:1059D000854201DD164C1AE041F21E40854201DD90
:1059E000144C14E0114C643411E041F288318D42C2
:1059F00002DA42F228340AE041F2B4418D4202DA7E
:105A000041F2941403E0854201DA4FF4967420B217
:105A100001F0FAF80146706FBDE87040FCF760BA1B
:105A20000800002020D1FFFF90E8FFFF70FEFFFF7D
:105A3000D8DCFFFF6CEEFFFF90F82310002912D195
:105A4000C16991F900304D4A0A2B05DA0878401CEB
:105A500008700C21906D7CE091F900300B2B03DA7B
:105A60000878401C0870704791F901300A2B05DA5C
:105A70004878401C48700C21D06D6AE091F90130E3
:105A80000B2B03DA4878401C4870704791F90230BC
:105A90000A2B05DA8878401C88700C21106E58E0BB
:105AA00091F902300B2B03DA8878401C887070471C
:105AB00091F903300A2B05DAC878401CC8700C2114
:105AC000506E46E091F903300B2B03DAC878401C86
:105AD000C870704791F904300A2B05DA0879401C28
