:020000040800F2
:10000000580D0020A94300087D0200087F02000867
:1000100083020008870200088B020008000000002D
:100020000000000000000000000000008F02000837
:1000300091020008000000009302000895020008E9
:10004000C3430008C3430008C3430008C343000878
:10005000C3430008C3430008C3430008C343000868
:10006000C3430008C3430008C3430008C343000858
:10007000C3430008C3430008C3430008C343000848
:10008000C3430008C3430008C3430008C343000838
:10009000C3430008C3430008C3430008C343000828
:1000A000C3430008C3430008C3430008C343000818
:1000B0009D020008C9020008F3020008C3430008BB
:1000C000C3430008C3430008C3430008C3430008F8
:1000D000C3430008671D0008B91D0008151E00086D
:1000E000C3430008C3430008C3430008C3430008D8
:1000F000C3430008C3430008C3430008C3430008C8
:10010000C3430008C3430008C3430008C3430008B7
:10011000711E0008071F0008C3430008C3430008FE
:10012000C3430008C3430008C3430008C343000897
:1001300000F002F800F03EF80AA090E8000C8244BB
:100140008344AAF10107DA4501D100F033F8AFF298
:10015000090EBAE80F0013F0010F18BFFB1A43F0A5
:10016000010318472445000044450000103A24BF0D
:1001700078C878C1FAD8520724BF30C830C144BF0C
:1001800004680C607047000000230024002500264E
:10019000103A28BF78C1FBD8520728BF30C148BFEA
:1001A0000B6070471FB59DE8030004F093F91FBD75
:1001B00010B510BD04F0EAF91146FFF7F3FF00F0A7
:1001C00009F804F008FA03B4FFF7F2FF03BC04F0E7
:1001D00035FA000004F068F84FF4806002F0C0FDCA
:1001E000002002F0C6FD4FF4A06001F0A1FF012144
:1001F000084602F071FE01F071FA00F0D5F901F045
:1002000081FA01F085F900F003F901F059FF01F0DE
:10021000ABFE01F0DCFE01F00CFF4FF4964001F064
:1002200048FC4FF4964001F090FC4FF4964001F0EA
:10023000D3FC4FF4964001F012FD4FF480410C487E
:1002400002F041FC4FF40041094802F03AFC6420FE
:1002500001F084FA0121880703F0D6FA012105484C
:1002600003F0D2FA0121044803F0CEFA00BFFEE702
:10027000000C01400004004000080040704700BF2F
:10028000FEE700BFFEE700BFFEE700BFFEE77047E6
:100290007047704710B501F06BFA10BD10B5012121
:1002A000880703F07AFD70B10121880703F086FD0D
:1002B00000214FF0804003F0A7FA00F02BFF01214E
:1002C000880703F0A1FA10BD10B50121164803F00C
:1002D00064FD68B10121144803F070FD002112484B
:1002E00003F092FA00F0D2FB01210F4803F08CFAE0
:1002F00010BD10B501210D4803F04FFD98B101214B
:100300000A4803F05BFD0021084803F07DFA084924
:10031000084800F0FAFD00F00FF801F09EF8012106
:10032000024803F071FA10BD0004004000080040CC
:100330009C0200209005002070B5002400252F4865
:1003400000781E280EDA322201212D4801F0A7F98B
:100350002A490A780978491C284B1970294921F83B
:10036000120002E0002025490870002505E025481C
:1003700030F815000444681CC5B21E2DF7DB1E20A2
:10038000B4FBF0F4C4EB0424A40AFF2C01D9FF242D
:1003900001E004B90124E0B270BD70B500241A4830
:1003A00000781E280EDA32220221154801F077F972
:1003B00015490A780978491C134B1970134921F81B
:1003C000120002E0002010490870002505E00F48E7
:1003D00030F815000444681CC5B21E2DF7DB1E2042
:1003E000B4FBF0F4C4EB0424A40AFF2C01D9FF24CD
:1003F00001E004B90124E0B270BD0000000000205B
:10040000D4020020440000200100002080000020D1
:100410002DE9F041002500260027A846002464208D
:1004200001F09CF900BF5BE032220221514801F04B
:1004300036F951490880322203214E4801F02FF944
:100440004E490880322205214A4801F028F94C49DA
:10045000088032220421474801F021F940F6FF715B
:10046000081A4849088044480088054443480088E1
:1004700006444348008807440846008880443E48B4
:100480000088B0F50B6F05DD3B480088B0F5F66FCE
:1004900000DA27E039480088B0F50B6F05DD3648F3
:1004A0000088B0F5F66F00DA1CE035480088B0F53A
:1004B0000B6F05DD30480088B0F5F66F00DA11E00B
:1004C00030480088B0F50B6F05DD2B480088B0F58B
:1004D000F66F00DA06E00A2001F040F9601CC4B2B1
:1004E000642CA1DB00BF642C16D16420B5FBF0F0B6
:1004F000214908806420B6FBF0F020490880642080
:10050000B7FBF0F01E4908806420B8FBF0F01D49ED
:1005100008800120BDE8F0814FF40360164908808F
:100520001649088016490880164908800020F1E71E
:1005300010B503460A46194602F50070814201DDF6
:10054000091A06E0A2F50070884201DD091A00E0F0
:100550000021C9010846CC1701EB5454E1127F2950
:1005600001DD7F2104E011F1800F01DA6FF07F01DE
:1005700048B210BDD4020020020000200400002078
:100580000600002008000020F8B507460C46154676
:100590001E46ADF800708DF803508DF80240694694
:1005A000304602F0E3F9F8BD10B500240121042023
:1005B00002F092FC0121082002F08EFCFE4B482242
:1005C00002210802FFF7E0FFFB4B48220221C8018D
:1005D000FFF7DAFFF84B482202218020FFF7D4FF13
:1005E000F54B482202214020FFF7CEFFF24B482274
:1005F00002212020FFF7C8FFF04B48220221802073
:10060000FFF7C2FFED4B482202211020FFF7BCFF8D
:10061000EA4B482202210820FFF7B6FFE84B4822A8
:1006200002214802FFF7B0FFE54B48220221880271
:10063000FFF7AAFFE24B48220221C802FFF7A4FFFE
:10064000DF4B482202210803FFF79EFFDC4B4822C4
:1006500002214803FFF798FFD94B48220221880363
:10066000FFF792FFD44B482202214802FFF78CFF8C
:10067000D14B482202218802FFF786FFD14B482246
:1006800002212020FFF780FFCB4B482202210120CE
:10069000FFF77AFFC84B482202210846FFF774FF94
:1006A000C74B482202218020FFF76EFFC44B48222F
:1006B0000221C801FFF768FFC14B48220221012037
:1006C000FFF762FFBE4B482202210846FFF75CFF9E
:1006D000BB4B482202210420FFF756FFB84B4822AB
:1006E00002210820FFF750FFB54B482202211020BD
:1006F000FFF74AFFB24B482202212020FFF744FFB8
:10070000AF4B482202214020FFF73EFFAD4B48226D
:1007100002214020FFF738FFAA4B48220221802007
:10072000FFF732FFA54B482202210846FFF72CFFB6
:10073000A24B482202214803FFF726FF9F4B482285
:1007400002210803FFF720FF9C4B482202210120D1
:10075000FFF71AFF994B482202218803FFF714FF85
:10076000994B482202211020FFF70EFF954B48229B
:1007700002211020FFF708FF934B4822022180201E
:10078000FFF702FF904B482202212020FFF7FCFEDA
:100790008D4B482202214020FFF7F6FE00BF13E0F8
:1007A000002004EB4401894A02EB8101087204EB4A
:1007B000440102EB810148720A2004EB440102EB80
:1007C0008101C872601CC4B2282CE9DB4FF40070B0
:1007D0007E490880784848608015888176497B4842
:1007E000016180207949088373497848C1614020BC
:1007F000764988847049754881622020734908864B
:100800006D49724841638020704988876B496F4801
:10081000016410206D49A1F8480068496B48C16423
:1008200008206A49A1F854006449684881650815A0
:100830006649A1F86000624964484166C81463498A
:10084000A1F86C005E496148016788145F49A1F80E
:1008500078005B495D48C16748145C49A1F8840091
:1008600057495A48C0F888104FF480405749A1F8BA
:10087000900053495548C0F894104FF40040534934
:10088000A1F89C004E495148C0F8A01008154F49E6
:10089000A1F8A80048494D48C0F8AC10C8144B490D
:1008A000A1F8B40044494948C0F8B810202047498D
:1008B000A1F8C00043494548C0F8C410012043498D
:1008C000A1F8CC003C494148C0F8D01002203F4973
:1008D000A1F8D80038493D48C0F8DC1080203B49D9
:1008E000A1F8E40036493948C0F8E81088153749BE
:1008F000A1F8F00032493548C0F8F410012033491E
:10090000A1F82C012E493148C0F8301102202F499E
:10091000A1F838012A492D48C0F83C1104202B4980
:10092000A1F8440126492948C0F848110820274960
:10093000A1F8FC0022492548C0F8001110202349E5
:10094000A1F808011E492148C0F80C1120201F49B8
:10095000A1F814011A491D48C0F8181140201B497C
:10096000A1F8200116491948C0F824114020174960
:10097000A1F8500113491548C0F8541180201349BB
:10098000A1F85C010F491148C0F8601102200F491D
:10099000A1F8680109490D48C0F86C114FF4804076
:1009A0000A49A1F8740105490848C0F878114814AB
:1009B0000649A1F880010BE0000C01400014014041
:1009C000001801400010014000080140BC00002058
:1009D00036493748C0F8841101203549A1F88C0107
:1009E00032493348C0F890114FF400403049A1F823
:1009F00098012E492E48C0F89C1110202C49A1F8CE
:100A0000A4012C492A48C0F8A81110202849A1F8AF
:100A1000B00129492648C0F8B41180202449A1F822
:100A2000BC0124492248C0F8C01120202049A1F867
:100A3000C80120491E48C0F8CC1140201C49A1F82B
:100A4000D4011C491A48C0F8D81110BD70B504462D
:100A50002188606802F01BF80546607AA84212D02F
:100A6000207AE17A88420ADD6572607A10B9012045
:100A7000A07201E00220A0720020207205E0207A1E
:100A8000401C207201E00020207270BD10B50024CF
:100A900000BF08E004EB4401054A02EB8100FFF7C8
:100AA000D5FF601CC4B2282CF4DB10BD001401403B
:100AB000BC0000200008014000100140704710B544
:100AC00032220221FE4800F0EAFD0446FD4801887A
:100AD0002046FFF72DFDFC49087232220321F84819
:100AE00000F0DDFD0446F94801882046FFF720FDAF
:100AF000F549487232220521F14800F0D0FD044644
:100B0000F34801882046FFF713FDEF49887232222F
:100B10000421EB4800F0C3FD40F6FF71081A84B2CF
:100B2000EC4801882046FFF703FDE749C872FFF74C
:100B300003FCE5490873FFF730FCE349487310BD37
:100B40000020E149C871E44890F80601012804D169
:100B50000846C07940F00100C871DF4890F81201E2
:100B6000012805D1D848C07940F00200D649C871A3
:100B7000D94890F81E01012805D1D348C07940F02A
:100B80000400D149C871D44890F82A01012805D140
:100B9000CD48C07940F00800CB49C871CE4890F8E4
:100BA0005A01012805D1C848C07940F01000C64953
:100BB000C871C94890F86601012805D1C248C079BA
:100BC00040F02000C049C87170470020BE498871BC
:100BD000C14890F8CA00012804D10846807940F045
:100BE00001008871BC4890F8D600012805D1B648AC
:100BF000807940F00200B4498871B74890F8E2006B
:100C0000012805D1B048807940F00400AE498871D0
:100C1000B14890F8EE00012805D1AB48807940F04A
:100C20000800A9498871AC4890F8FA00012805D15C
:100C3000A548807940F01000A3498871A64890F833
:100C40003601012805D1A048807940F020009E4956
:100C50008871A14890F84201012805D19A4880790D
:100C600040F04000984988719B4890F84E01012857
:100C700005D19548807940F080009349887170478C
:100C8000002091494871944890F8AE01012804D1A0
:100C90000846407940F0010048718F4890F8BA0149
:100CA000012805D18848407940F002008649487102
:100CB000894890F8C601012805D18348407940F061
:100CC000040081494871844890F8D201012805D177
:100CD0007D48407940F008007B4948717E4890F893
:100CE000DE01012805D17848407940F010007649AE
:100CF00048717047002074490871774890F8720174
:100D0000012804D10846007940F0010008717248BA
:100D100090F87E01012805D16B48007940F002006F
:100D2000694908716C4890F88A01012805D1664824
:100D3000007940F0040064490871674890F8960112
:100D4000012805D16048007940F008005E4908712B
:100D5000614890F8A201012805D15B48007940F074
:100D6000100059490871704700205749C8705A4807
:100D700090F86A00012804D10846C07840F00100CC
:100D8000C870554890F87600012805D14E48C078C3
:100D900040F002004C49C8704F4890F8820001288A
:100DA00005D14948C07840F004004749C8704A4816
:100DB00090F88E00012805D14348C07840F0080023
:100DC0004149C870444890F89A00012805D13E482E
:100DD000C07840F010003C49C8703F4890F8A60029
:100DE000012805D13848C07840F020003649C87045
:100DF000394890F8B200012805D13348C07840F056
:100E000040003149C870344890F8BE00012805D12F
:100E10002D48C07840F080002B49C87070470020F2
:100E2000294988702C48807A012804D108468078A6
:100E300040F0010088702848807D012805D12248B3
:100E4000807840F0020020498870234890F8220002
:100E5000012805D11C48807840F004001A498870A8
:100E60001D4890F82E00012805D11748807840F0E1
:100E7000080015498870184890F83A00012805D1F3
:100E80001148807840F010000F498870124890F89F
:100E90004600012805D10C48807840F020000A491E
:100EA00088700D4890F85200012805D106488078D6
:100EB00040F0400004498870074890F85E000DE05B
:100EC000D4020020020000209C0200200400002028
:100ED0000600002008000020BC000020012805D1E9
:100EE000F848807840F08000F6498870704710B567
:100EF000FFF795FFFFF738FFFFF7FCFEFFF7C0FE97
:100F0000FFF763FEFFF71CFE10BD70B506460C46EA
:100F10000025A520207030206070FFF7E8FFFFF764
:100F2000CEFD0020A07300BF05E0A07B615D0844FA
:100F3000A073681CC5B20E2DF7DB002508E000BFCA
:100F4000615DE14800F067FC0028F9D0681CC5B27B
:100F50000F2DF4DB70BD30B5024600200023A52420
:100F60000C7010244C7066244C73012003E0155C57
:100F7000441C0D55E0B20C28F9DB002004E00C5CA9
:100F80001C44E3B2441CE0B20E28F8DB8B7330BD86
:100F90002DE9F04780460C460027B94644E040461C
:100FA00000F065FC0546C948007870B9A52D03D04E
:100FB0000020C649087037E0C44800782554C3486B
:100FC0000078401CC14908702EE0C04800780C2809
:100FD00008DABE4800782554BC480078401CBB495C
:100FE000087021E0B94800780C281AD1B748007879
:100FF0002554B6480078401CB449087000270026E4
:1010000004E0A05D3844C7B2701CC6B20C2EF8DBF9
:10101000207BB84201D14FF001090020AB49087094
:1010200002E00020A9490870404600F015FC0028A5
:10103000B5D14846BDE8F08710B502460020002330
:10104000A5240C70012004E0441C145D0C54441CC5
:10105000E0B20C28F8DB002004E00C5C1C44E3B296
:10106000441CE0B20C28F8DB0B7310BD2DE9F047EF
:1010700080460C460027B94644E0404600F0F7FBA6
:1010800005469348007870B9A52D03D000209049FB
:10109000087037E08E48007825548D480078401C51
:1010A0008B4908702EE08A4800780E2808DA8848B4
:1010B0000078255486480078401C8549087021E056
:1010C000834800780E281AD181480078255480483A
:1010D0000078401C7E4908700027002604E0A05DCF
:1010E0003844C7B2701CC6B20E2EF8DBA07BB842E3
:1010F00001D14FF0010900207549087002E000207D
:1011000073490870404600F0A7FB0028B5D1484657
:10111000BDE8F08710B500246E496B48FFF7A6FFC5
:10112000012830D16B48407B00F08000802803D13B
:1011300000206949087002E001206749087067498A
:101140006448FFF779FF6448007870B9002409E02B
:1011500000BF6248015D624800F05DFB0028F8D0E6
:10116000601CC4B20D2CF3DB0DE0002409E000BFCD
:101170005A48015D5B4800F04EFB0028F8D0601C27
:10118000C4B20D2CF3DB54480078C0B9564954481A
:10119000FFF7FEFE01282AD14A495348FFF7DBFE3C
:1011A000002409E000BF4748015D474800F033FBD9
:1011B0000028F8D0601CC4B20F2CF3DB17E04A49BA
:1011C0004848FFF7E5FE012811D13E494648FFF7A0
:1011D000C2FE002409E000BF3A48015D3A4800F031
:1011E0001AFB0028F8D0601CC4B20F2CF3DB10BD32
:1011F00070472DE9F04107460E460025A846002419
:101200003A48007838B90D2000F0E0F83849086015
:1012100001203649087073E0384600F028FB344955
:1012200009680870324800688068314908600846DB
:1012300000680078A52863D10846006880680860C7
:101240000D3508460068007880280ED008460068F2
:101250000078812809D0084600680078822804D0E8
:10126000084600680078832844D100240BE0204819
:10127000006800782844C5B21D48006880681C4991
:101280000860601CC4B20B2CF1DB194800680078C0
:10129000A84210D100240AE015480068806814496B
:1012A00008600846006800783055601CC4B20D2CF8
:1012B000F2DB4FF001080E48006880680C490860B6
:1012C0001DE000009C020020900500200E00002080
:1012D0000D000020AB0200200C000020BA0200200C
:1012E000D805002068060020C70200200F0000205B
:1012F0001000002006480068406805490860002585
:10130000384600F0A9FA002886D14046BDE8F081B1
:101310001000002070B506460D4655B10C2003F0B4
:1013200063F804462670A868A060A86844606560F9
:10133000AC6070BD70B506460D4655B10C2003F08B
:1013400053F804462670A560686860606868846029
:101350006C6070BD70B506460C46A068B04209D0FE
:10136000A568A868A060A8684460284603F06BF8E8
:10137000012070BD0020FCE770B506460C46A06851
:10138000B04209D065686868606068688460284613
:1013900003F059F8012070BD0020FCE770B5064647
:1013A0000C4635460CB9002070BD00E0AD68A86859
:1013B000A04202D0A868B042F8D1A068A860A06896
:1013C0004560204603F03FF80120EDE72DE9F041AC
:1013D00007464FF00008012F02DA0020BDE8F08137
:1013E0000C2003F001F80446254626460020207014
:1013F000A560656080460EE00C2002F0F5FF044613
:1014000000202070A56066606C60B460264608F11C
:1014100001001FFA80F8781E4045EDDC2846DDE724
:1014200070B50446A56804E0AE68284603F00BF8E2
:101430003546A542F8D1204603F005F8002470BDDA
:1014400010B50024322206212C4800F028F900EBC8
:101450004010C0F30734204610BD10B5FFF7F0FF71
:10146000044627480178A01C814204DCA01E2449C0
:101470000978884223DD22480470007802281EDDA6
:1014800020480078401C1F49087008460078022850
:1014900007DB01201C490870C1031C4801F013FB45
:1014A0000DE018480078012809DB4FF40051174877
:1014B00001F007FB4FF48051144801F002FB022CAD
:1014C00017DD11480078002813DD0F480078401C14
:1014D0000D490870084600780A280DDD4FF4805148
:1014E0000A4801F0F0FA4FF40051084801F0EBFA15
:1014F00002E000200449087010BD0000D402002062
:10150000140000201500002016000020000C0140EF
:1015100000B591B04FF4804001F045FC012103205B
:1015200001F0CDFC012140F2146001F0D5FC664BC6
:1015300000220321012000F0B3FD634B00220321B0
:10154000022000F0ADFD604B00220321042000F0DA
:10155000A7FD5D4B00220321082000F0A1FD5B4B9D
:1015600000220321022000F09BFD584B00220321A2
:10157000042000F095FD554B00220321012000F0CE
:101580008FFD534801F06AF852480190524802908A
:10159000002003904FF4AF7004900020059080204D
:1015A00006904000079080000890202009900002DB
:1015B0000A9000200B9001A9454801F0F1F80020A5
:1015C0000C9001208DF834008DF835004FF4602028
:1015D0000E9000200F9007208DF840000CA93D4888
:1015E0004C3800F03AFE07230122002139484C38DC
:1015F00000F0CBFE07230222012136484C3800F0D0
:10160000C4FE072303220B2132484C3800F0BDFEF4
:10161000072304220C212F484C3800F0B6FE072384
:10162000052203212B484C3800F0AFFE0723062289
:10163000022128484C3800F0A8FE07231A460A2148
:1016400024484C3800F0A1FE012122484C3800F01B
:101650003BFE01211F484C3800F02BFE1D484C3842
:1016600000F049FE00BF1B484C3800F049FE00283E
:10167000F9D118484C3800F04DFE00BF15484C38E1
:1016800000F04DFE0028F9D10121114801F0B3F816
:10169000012110484C3800F04CFE11B000BD30B5AF
:1016A00004460D460021002308E0C3EBC30004EB11
:1016B000400030F815000144581CC3B29342F4DBDB
:1016C000B1FBF2F188B230BD0008014000100140CA
:1016D000080002404C240140D402002010B5012132
:1016E000082001F0F9FB064B10220221480300F00C
:1016F000D7FC034B10220221880300F0D1FC10BD5F
:10170000000C014030B52C4800684FF47A72B0FBF1
:10171000F2F1B1F1807F01D301201BE021F07F4085
:10172000401E4FF0E022506150170F22002806DAC9
:101730001301224C00F00F052D1F635502E0130129
:101740001F4C235400BF00204FF0E022906107207F
:101750001061002008B100BFFEE730BD01B5194996
:101760000098086000BF174800680028FBD108BD3A
:101770001448006820B113480068401E11490860F1
:101780007047002105E00A2100BF0A00A1F1010114
:10179000FBD10200A0F10100F5D17047002106E065
:1017A00042F6E06100BF0A00A1F10101FBD1020095
:1017B000A0F10100F4D170473000002018ED00E0E6
:1017C00000E400E0180000200160002380F84530AC
:1017D00080F8443080F8473080F846307047014642
:1017E00091F84600401C00F01F0291F847309A42E1
:1017F00001D0012070470020FCE7014691F8460027
:10180000401E00F01F0291F847309A4201D001209B
:1018100070470020FCE72DE9F04304460F46261DE3
:101820002046FFF7DCFF8146B9F1000F11D096F892
:10183000425006F120004755681C00F01F0086F852
:1018400042002068B0F80C8048F080082068A0F8BA
:101850000C804846BDE8F083014691F8442091F899
:1018600045309A4201D0012070470020FCE7024633
:10187000111D91F84130C85C91F841305B1C03F0B8
:101880001F0381F841307047F0B501460A1D92F8F8
:101890004060761C06F01F0392F841400E68B6883F
:1018A000F5B2A34201D1002006E0012091F8447076
:1018B0000E1DF55581F84430F0BD30B5011D90F88E
:1018C000473091F842209A4206D10468A28922F05A
:1018D00080020468A2810EE090F8475001F12004D4
:1018E000625D0468A28091F84340641C04F01F0408
:1018F00081F8434000BF30BD70B5011D90F84740EE
:1019000091F84250A54206D10568AA8922F08002CA
:101910000568AA810DE090F8476001F12005AB5DF4
:101920000568AB8091F843506D1C05F01F0581F8E8
:10193000435070BD2DE9F0410446251D94F84780C1
:1019400095F84200404506D12068868926F0800639
:101950002068868112E04FF480713E4801F0B1F8B2
:1019600094F8471005F12000475C2068878095F8BF
:101970004300401C00F01F0085F84300BDE8F081E3
:101980002DE9F0410446251D94F8478095F8420062
:10199000404506D12068868926F080062068868129
:1019A00012E04FF480612C4801F08BF894F8471056
:1019B00005F12000475C2068878095F84300401CB3
:1019C00000F01F0085F84300BDE8F0812DE9F041EB
:1019D0000446251D94F8478095F84200404506D1FD
:1019E0002068868926F080062068868112E04FF400
:1019F00080511A4801F065F894F8471005F120006D
:101A0000475C2068878095F84300401C00F01F0069
:101A100085F84300BDE8F08170B5011D90F847409E
:101A200091F84250A54206D10568AA8922F08002A9
:101A30000568AA810DE090F8476001F12005AB5DD3
:101A40000568AB8091F843506D1C05F01F0581F8C7
:101A5000435070BD000801400014014000100140D7
:101A6000F8B506460C4615468DF800608DF8014025
:101A70008DF8025001208DF80300684600F05DFBF0
:101A8000F8BD7FB506460C461546684602F046FA94
:101A900000940020ADF80400ADF80600ADF8080091
:101AA000ADF80C00ADF80A506946304602F0CDF9A9
:101AB0007FBD1FB50446FE49FE48FFF785FE0021A5
:101AC000FB4802F04EFA0121052001F005FA012140
:101AD000880301F001FA0021042001F016F8F64B0A
:101AE00004220321100200F0DBFAF34B1822032139
:101AF000581500F0D5FA684602F010FA009400205C
:101B0000ADF80400ADF80600ADF80800ADF80C0023
:101B10000C20ADF80A006946E54802F096F900226B
:101B200011462520FFF79CFF012240F22551E04895
:101B300002F023FA012240F22661DD4802F01DFA8C
:101B40000121DB4802F00DFA1FBD10B50446DB4948
:101B5000DB48FFF739FE0021D84802F002FA0121E4
:101B6000212001F0B9F90121042001F0B5F901218A
:101B7000480401F0BEF90121082000F0C6FFD14B56
:101B800004220321402000F08BFACE4B18220321BF
:101B9000202000F085FAC84B10220321100100F02C
:101BA0007FFA0C222146C548FFF76BFF0022114641
:101BB0002620FFF755FF012240F22551BF4802F0D1
:101BC000DCF9012240F22661BC4802F0D6F901217D
:101BD000BA4802F0C6F910BD10B50446BA49BB4870
:101BE000FFF7F2FD0021B84802F0BBF901212120E6
:101BF00001F072F90121880401F07BF90121B44858
:101C000000F083FFAF4B04220321D00100F048FA1B
:101C1000AC4B18220321981500F042FAA94B102270
:101C20000321900100F03CFA0C222146A648FFF760
:101C300028FF002211462720FFF712FF012240F261
:101C40002551A14802F099F9012240F226619E48EF
:101C500002F093F901219C4802F083F910BD10B500
:101C600004469C499C48FFF7AFFD0021994802F0CB
:101C700078F90121112001F02FF90121C80401F0A8
:101C800038F90121082000F040FF944B0422032181
:101C9000500200F005FA914B18220321181500F0AC
:101CA000FFF98E4B10220321100200F0F9F90C22EB
:101CB00021468848FFF7E5FE002211463420FFF751
:101CC000CFFE012240F22551824802F056F901224E
:101CD00040F226617F4802F050F901217D4802F070
:101CE00040F910BD10B504467D497E48FFF76CFDF4
:101CF00000217B4802F035F90121112001F0ECF8B8
:101D00000121202001F0E8F80121080501F0F1F897
:101D10000121082000F0F9FE6A4B0422032110463D
:101D200000F0BEF96D4B18220321981400F0B8F9A9
:101D30000C2221466A48FFF7A4FE002211463520F6
:101D4000FFF78EFE012240F22551654802F015F999
:101D5000012240F22661624802F00FF90121604839
:101D600002F0FFF810BD10B540F22551504802F0C6
:101D7000E9F938B140F225514D4802F00DFA4D48CD
:101D8000FFF782FD40F22771494802F0DBF938B1D4
:101D900040F22771464802F0FFF94648FFF7ACFDD4
:101DA00040F22661424802F0CDF920B140F22661AE
:101DB0003F4802F0F1F910BD10B540F225513F48FF
:101DC00002F0C0F938B140F225513C4802F0E4F984
:101DD0003B48FFF759FD40F22771384802F0B2F94D
:101DE00038B140F22771354802F0D6F93448FFF790
:101DF000A1FD40F22661314802F0A4F948B140F259
:101E000026612E4802F0C8F94FF480712A4800F08C
:101E10005AFE10BD10B540F225512B4802F092F940
:101E200038B140F22551284802F0B6F92748FFF7AB
:101E30002BFD40F22771244802F084F938B140F2BA
:101E40002771214802F0A8F92048FFF799FD40F2D8
:101E500026611D4802F076F948B140F226611A4821
:101E600002F09AF94FF48061164800F02CFE10BD84
:101E700010B540F22551174802F064F938B140F22C
:101E80002551144802F088F91348FFF7FDFC40F291
:101E90002771104802F056F938B140F227710D4809
:101EA00002F07AF90C48FFF791FD40F226611BE041
:101EB0000038014090050020000801400044004027
:101EC000D8050020001401400048004020060020F2
:101ED00030001400004C0040680600200010014053
:101EE00000500040B00600201B4802F02BF948B11A
:101EF00040F22661184802F04FF94FF4805117481C
:101F000000F0E1FD10BD10B540F22551144802F07B
:101F100019F938B140F22551114802F03DF9114844
:101F2000FFF7B2FC40F227710D4802F00BF938B10F
:101F300040F227710A4802F02FF90A48FFF76CFDBA
:101F400040F22661064802F0FDF820B140F2266119
:101F5000034802F021F910BD004C00400010014080
:101F600000500040B00600201FB50121084600F0D7
:101F7000C0FF1C208DF80C0002208DF80D008DF89C
:101F80000E0001208DF80F0003A800F0D6F86420A1
:101F9000ADF8040040F2CF20ADF800000020ADF80D
:101FA0000600ADF8020069464FF0804001F0D0F81D
:101FB0000121880701F0EEFE01221146900701F091
:101FC0003EFC00214FF0804001F01EFC1FBD1FB5FC
:101FD0000121022000F08DFF1D208DF80C00022051
:101FE0008DF80D008DF80E0001208DF80F0003A86C
:101FF00000F0A3F84FF47A70ADF8040040F2CF205F
:10200000ADF800000020ADF80600ADF8020069460A
:10201000214801F09DF801211F4801F0BBFE01227B
:1020200011461D4801F00BFC00211B4801F0ECFBA0
:102030001FBD1FB50121042000F05BFF1E208DF89D
:102040000C0002208DF80D008DF80E0001208DF897
:102050000F0003A800F071F84FF47A70ADF8040097
:1020600041F61F40ADF800000020ADF80600ADF8C5
:1020700002006946094801F06BF80121074801F0A8
:1020800089FE01221146054801F0D9FB00210348D1
:1020900001F0BAFB1FBD0000000400400008004032
:1020A000F8B507460C4615461E46ADF800708DF88B
:1020B00003508DF802406946304600F057FCF8BDE9
:1020C00010B50121082000F007FF0121102000F0C9
:1020D00003FF0121202000F0FFFE0121402000F03D
:1020E000FBFE0F4B10220221C801FFF7D9FF0C4B5A
:1020F000102202210802FFF7D3FF0A4B102202210F
:102100000802FFF7CDFF084B102202210420FFF741
:10211000C7FF064B102202210803FFF7C1FF10BDC5
:10212000001001400018014000140140000C014063
:1021300031490143314A1160704770B500210023D5
:102140000F22C4780CB32D4C246804F4E064C4F569
:10215000E064210AC1F10403CA40447804FA03F19F
:102160008478144021430901254C0678A155047850
:1021700004F01F050124AC4005786D114FF0E026F6
:1021800006EB8505C5F8004109E0047804F01F0559
:102190000124AC401B4D0678761145F8264070BDF1
:1021A000194A0A400243154B1B1F1A60704739B188
:1021B000124A121D12680243104B1B1D1A6006E0E2
:1021C0000E4A121D126882430C4B1B1D1A60704789
:1021D000042808D14FF0E021096941F004014FF0D3
:1021E000E022116107E04FF0E021096921F00401CC
:1021F0004FF0E022116170470000FA050CED00E09D
:1022000000E400E080E100E080FFFF1F10B504461D
:10221000FA48844208D10121401500F077FE0021E0
:10222000601500F073FE17E0F548844208D10121E3
:10223000001500F06BFE0021201500F067FE0BE09A
:10224000F048844208D10121C80300F05FFE00215C
:102250004FF4004000F05AFE10BD30B50246002099
:1022600000235068E84C20400D790C6844EA0524AE
:10227000204350609068E54C2040D1E902542C4343
:102280004D7944EA450420439060D06A20F4700000
:102290000C7C641EE4B2234340EA0350D06230BD9C
:1022A00000210160017141718160C16001210174EF
:1022B000704721B1826842F00102826003E08268C7
:1022C00022F001028260704721B1826842F480727C
:1022D000826003E0826822F480728260704710B5E9
:1022E0000023CBB21AB144681C43446002E0446846
:1022F0009C43446010BD816841F0080181607047D3
:10230000014600208A6812F0080F01D0012000E089
:1023100000207047816841F00401816070470146E8
:1023200000208A6812F0040F01D0012000E0002094
:10233000704721B1826842F4A002826003E08268A3
:1023400022F4A00282607047014600208A6812F4DD
:10235000800F01D0012000E00020704710B50A4630
:1023600000210023416821F46041531E41EA4331BA
:10237000416010BD21B1426842F40062426003E056
:10238000426822F4006242607047F0B504460D4690
:1023900000200021092D11DDE068A5F10A0606EBF9
:1023A0004607072606FA07F18843A5F10A0606EB59
:1023B000460603FA06F10843E0600CE0206905EBED
:1023C0004507072606FA07F1884305EB450603FA99
:1023D00006F108432061072A0FDA606B561E06EBF0
:1023E00086071F2606FA07F18843561E06EB860667
:1023F00005FA06F10843606322E00D2A0FDA206B2C
:10240000D61F06EB86071F2606FA07F18843D61F5C
:1024100006EB860605FA06F10843206310E0E06A41
:10242000A2F10D0606EB86071F2606FA07F1884380
:10243000A2F10D0606EB860605FA06F10843E062F6
:10244000F0BD21B1826842F48012826003E08268AC
:1024500022F48012826070470146C86C80B27047D7
:1024600066484C300068704721B1426842F480628F
:10247000426003E0426822F480624260704721B10A
:10248000426842F48052426003E0426822F4805283
:10249000426070470A460021816821F4E0411143FF
:1024A0008160704721B1826842F40042826003E09B
:1024B000826822F400428260704721B1826842F44F
:1024C0000212826003E0826822F402128260704786
:1024D000014600208A6812F4001F01D0012000E0AC
:1024E00000207047F0B50446154600200022002663
:1024F000092911DDE068A1F10A0707EB470C07275E
:1025000007FA0CF29043A1F10A0707EB470703FA19
:1025100007F21043E0600CE0206901EB410C072753
:1025200007FA0CF2904301EB410703FA07F210435C
:102530002061A06BC0F30156EF1C06F1010CA7EB64
:102540000C0707EB870C1F2707FA0CF29043EF1CD0
:1025500006F1010CA7EB0C0707EB870701FA07F25E
:102560001043A063F0BD10B50A4600210023816B23
:1025700021F44011531E41EA0351816310BD08B597
:10258000002300930090009B0B440093009B1A6073
:1025900008BD08B5024600200090009201F1280015
:1025A000009B184400900098006880B208BD0A465D
:1025B00000214168164B1940114341607047416248
:1025C000826270470A460021416821F01F011143D1
:1025D0004160704740B109490831096841F4000180
:1025E000064A0832116007E004490831096821F4FD
:1025F0000001024A083211607047000000240140C7
:1026000000280140003C0140FFFEF0FFFDF7F1FF14
:10261000FFFD3FFF0246002013680B4201D001205E
:1026200000E000207047CA430260704770B5024660
:102630000020002300240B125568CEB205EA0604E0
:1026400015681D4202D00CB1012000E0002070BDD1
:1026500000220A12D34303607047000001684FF65E
:10266000FE72114001600021016041608160C16023
:102670008C49884208D18B490839496841F00F01DB
:10268000884A083A51608AE086491431884208D164
:1026900084490839496841F0F001824A083A51609A
:1026A0007DE080492831884208D17E49083949684F
:1026B00041F470617B4A083A516070E079493C31DD
:1026C000884208D177490839496841F47041754A10
:1026D000083A516063E073495031884208D171492A
:1026E0000839496841F470216E4A083A516056E051
:1026F0006C496431884208D16A490839496841F413
:102700007001684A083A516049E066497831884268
:1027100008D164490839496841F07061614A083A52
:1027200051603CE06049884206D1011F096841F0D0
:102730000F01021F116032E05B491431884208D159
:102740005949091F096841F0F001574A121F1160E9
:1027500025E055492831884208D15349091F0968A5
:1027600041F47061504A121F116018E04E493C312B
:10277000884208D14C49091F096841F470414A4A0E
:10278000121F11600BE048495031884207D1464979
:10279000091F096841F47021434A121F11607047F4
:1027A00010B50022026847F6F0739A430C6A8B68F2
:1027B00023430C6923434C6923438C692343CC692D
:1027C00023434C6A23438C6A23431A430260CB6839
:1027D00043600B6883604B68C36010BD00210160DB
:1027E00041608160C160016141618161C1610162DB
:1027F00041628162704721B1026842F001020260C9
:1028000004E002684FF6FE731A40026070471AB186
:1028100003680B43036002E003688B430360704767
:10282000416070470146486880B270470146002009
:10283000002211F0805F03D01B4B083B1A6802E0B6
:10284000184B083B1A680A4201D0012000E0002022
:10285000704710F0805F03D01349091F086002E041
:10286000104908394860704701460020002211F0E5
:10287000805F03D00C4B083B1A6802E0094B083B11
:102880001A680A4201D0012000E00020704710F0D1
:10289000805F03D00449091F086002E0014908393C
:1028A00048607047080002400804024010B5044622
:1028B000CA48844208D10121042000F027FB0021EE
:1028C000042000F023FB46E0C548844208D10121E2
:1028D000082000F01BFB0021082000F017FB3AE065
:1028E000C048844208D10121102000F00FFB0021D4
:1028F000102000F00BFB2EE0BB48844208D10121E0
:10290000202000F003FB0021202000F0FFFA22E04D
:10291000B648844208D10121402000F0F7FA002196
:10292000402000F0F3FA16E0B148844208D10121BA
:10293000802000F0EBFA0021802000F0E7FA0AE0A6
:10294000AC48844207D10121801500F0DFFA002154
:10295000A01500F0DBFA10BD10B50121084600F00B
:10296000D5FA0021012000F0D1FA10BD2DE9F04187
:10297000024600250026002000230024002791F8AD
:1029800003C00CF00F0591F803C01CF0100F03D02A
:1029900091F802C04CEA050591F800C0BCF1000FA7
:1029A00031D0146800202BE04FF0010C0CFA00F33A
:1029B000B1F800C00CEA03069E4220D183004FF01C
:1029C0000F0C0CFA03F7BC4305FA03FC4CEA0404B1
:1029D00091F803C0BCF1280F06D14FF0010C0CFA9E
:1029E00000FCC2F814C00AE091F803C0BCF1480F23
:1029F00005D14FF0010C0CFA00FCC2F810C0401CCD
:102A00000828D1D31460B1F800C0BCF1FF0F34DD49
:102A1000546800202EE000F1080C4FF0010808FA7D
:102A20000CF3B1F800C00CEA03069E4221D18300EA
:102A30004FF00F0C0CFA03F7BC4305FA03FC4CEA09
:102A4000040491F803C0BCF1280F05D100F1080C73
:102A500008FA0CF8C2F8148091F803C0BCF1480FD2
:102A600007D100F1080C4FF0010808FA0CF8C2F881
:102A70001080401C0828CED35460BDE8F0814FF68A
:102A8000FF710180022181700421C17070470246EC
:102A9000002093680B4201D0012000E00020704725
:102AA0000146886880B2704702460020D3680B4216
:102AB00001D0012000E0002070470146C86880B2C4
:102AC000704701617047416170470AB1016100E0E0
:102AD00041617047C16070474FF480320A438261A0
:102AE0008161826182698269704702460020424B9F
:102AF00018684FF68073184040EA021008433E4BB6
:102B0000186070473D49C8617047F0B50A46002318
:102B100000240021002500F00046B6F1004F02D14C
:102B2000354EF16901E0344E7168C0F3034583B25C
:102B300000F44016B6F5401F08D121F070612E4E0A
:102B4000766826F070662C4F7E6012E000F48016E6
:102B5000B6F5801F06D1032606FA05F4A14341F01D
:102B6000706106E0460D360103FA06F6B14341F006
:102B7000706122B1460D360103FA06F6314300F0CA
:102B80000046B6F1004F02D11B4EF16101E01A4E32
:102B90007160F0BD30B500228B071C0F0F2303FAC4
:102BA00004F2154B08338C1053F824309343124C25
:102BB00008348D1044F8253023468C1053F8243007
:102BC0008C07240F00FA04F423430B4C08348D10B7
:102BD00044F8253030BD0A490860704700080140BC
:102BE000000C014000100140001401400018014099
:102BF000001C014000200140000001400000204274
:102C0000DC002042DD48006840F00100DB4908603C
:102C100008464068DA490840D849486008460068D4
:102C2000D8490840D54908600846006820F480204B
:102C300008600846406820F4FE0048604FF41F001A
:102C400088607047CD49096821F48031CB4A116012
:102C50001146096821F480211160B0F5803F03D04E
:102C6000B0F5802F0ED106E0C449096841F48031E7
:102C7000C24A116007E0C149096841F4A021BF4A76
:102C8000116000E000BF00BF704710B50146002290
:102C9000002300204A11012A02D1B84C236806E023
:102CA000022A02D1B54C236A01E0B44C636A01F0F8
:102CB0001F02012494401C4201D0012000E00020AA
:102CC00010BD38B5002000900024002500BF312041
:102CD000FFF7DBFF05460098401C00900098B0F518
:102CE000A06F01D0002DF2D03120FFF7CEFF08B148
:102CF000012400E00024204638BD014600209F4A00
:102D0000106820F0F80040EAC100106070479E494A
:102D10000860704702460020984B586820F47C10E9
:102D200042EA01031843954B58607047964908667C
:102D3000704701460020914A506820F00300084384
:102D4000506070478D48406800F00C0070470146A5
:102D500000208A4A506820F0F00008435060704715
:102D600001460020854A506820F4E0600843506026
:102D7000704701460020814A506820F4605040EAC4
:102D8000C1005060704729B17C4A527A02437B4BA4
:102D90005A7204E0794A527A8243784B5A727047E9
:102DA0007A490860704701460020744A506820F450
:102DB00040400843506070470021754A11706F4AC7
:102DC00082F82010012802D0042808D103E0012154
:102DD0006F4A117004E005216D4A117000E000BFD8
:102DE00000BF70476B49086070476449096A014336
:102DF000624A11627047674944390860704730B5CC
:102E000000210022002400235C4D6D6805F00C01B8
:102E100021B1042905D0082923D105E05E4D0560C4
:102E200022E05D4D05601FE0544D6D6805F47012A1
:102E3000524D6D6805F48034022505EB92421CB9B1
:102E4000564D554305600BE04C4D6D6815F4003F41
:102E500003D0524D5543056002E04F4D5543056088
:102E600002E04D4D056000BF00BF444D6D6805F0A8
:102E7000F00109094A4D6B5C0568DD4045603F4D36
:102E80006D6805F4E061090A454D6B5C4568DD40FD
:102E900085603A4D6D6805F46051C90A404D6B5C20
:102EA0004568DD40C560354D6D6805F44041890BCE
:102EB0003C4D6B5CC568B5FBF3F5056130BD29B1D0
:102EC0002E4A526902432D4B5A6104E02B4A526943
:102ED00082432A4B5A61704729B1284A92690243BA
:102EE000264B9A6104E0254A92698243234B9A61FA
:102EF000704729B1214AD2690243204BDA6104E0CC
:102F00001E4AD26982431D4BDA61704729B11B4AC0
:102F1000D2680243194BDA6004E0184AD26882434F
:102F2000164BDA60704729B1144A12690243134BF9
:102F30001A6104E0114A12698243104B1A6170470A
:102F400014494039086070470F49C86470470B49FD
:102F5000C87170470948406A40F08070074948626C
:102F6000704701460020054A92680A4201D00120BC
:102F700000E000207047014988727047001002404D
:102F80000000FFF8FFFFF6FE00004242D800424278
:102F9000201002408004424200127A0000093D00E5
:102FA0001C0000202C00002010B50446FE4884427E
:102FB00008D10121C014FFF7A9FF0021E014FFF799
:102FC000A5FFC4E0B4F1804F08D101210846FFF706
:102FD000AAFF00210120FFF7A6FFB8E0F3488442D2
:102FE00008D101210220FFF79EFF00210220FFF7F8
:102FF0009AFFACE0EE48844208D101210420FFF79B
:1030000092FF00210420FFF78EFFA0E0E9488442F0
:1030100008D101210820FFF786FF00210820FFF7D3
:1030200082FF94E0E448844208D101211020FFF798
:103030007AFF00211020FFF776FF88E0DF48844206
:1030400008D101212020FFF76EFF00212020FFF78B
:103050006AFF7CE0DA48844208D101214014FFF77E
:1030600055FF00216014FFF751FF70E0D5488442FE
:1030700009D10121C804FFF749FF00214FF40020C6
:10308000FFF744FF63E0D048844209D101210805DD
:10309000FFF73CFF00214FF48010FFF737FF56E0A9
:1030A000CA48844209D101214805FFF72FFF0021BA
:1030B0004FF40010FFF72AFF49E0C548844208D1C9
:1030C00001214020FFF72FFF00214020FFF72BFFB9
:1030D0003DE0C048844208D101218020FFF723FF52
:1030E00000218020FFF71FFF31E0BB48844208D158
:1030F00001218015FFF717FF0021A015FFF713FF2F
:1031000025E0B648844209D101210804FFF7FEFEFC
:1031100000214FF48030FFF7F9FE18E0B0488442F8
:1031200009D101214804FFF7F1FE00214FF40030DE
:10313000FFF7ECFE0BE0AB48844208D10121880484
:10314000FFF7E4FE00214FF48020FFF7DFFE10BD03
:1031500000220288944B98420ED0994B98420BD093
:10316000B0F1804F08D0914B984205D0904B9842D7
:1031700002D0904B984204D14FF68F731A404B887F
:103180001A438D4B984207D08C4B984204D04FF68F
:10319000FF431A40CB881A4302808B8883850B88B3
:1031A0000385814B98420BD0854B984208D08B4BBE
:1031B000984205D08A4B984202D08A4B984201D15E
:1031C0000B7A038601238382704770B500240022A6
:1031D0000023058C4FF6FE7635400584028C8388EB
:1031E000048B4FF68F752C40B51E2C400D882C4358
:1031F000751E2A400D892A434D882A436A4DA842EC
:103200000BD06F4DA84208D0744DA84205D0744D24
:10321000A84202D0734DA84213D14FF6F7752A4049
:103220004D892A434FF6FB752A408D882A434FF675
:10323000FF652B404FF6FF552B408D892B43CD89E1
:103240002B4383800483CD888586028470BD70B54E
:10325000002400220023058C4FF6EF7635400584CC
:10326000028C8388048B48F6FF752C404FF6FF458F
:103270002C400D884FF6FF7606EA05252C434FF6C5
:10328000DF752A400D8906EA05152A434D8806EAAE
:1032900005152A43444DA84202D0494DA8421DD1EC
:1032A0004FF67F752A404D894FF6FF7606EA0515E1
:1032B0002A434FF6BF752A408D8806EA05152A4332
:1032C0004FF6FF352B404FF2FF752B408D8906EAF4
:1032D00085052B43CD8906EA85052B43838004832E
:1032E000CD880587028470BD70B5002400220023BC
:1032F000058C4FF6FF6635400584028C8388848BED
:103300004FF68F752C404FF6FC752C400D882C43E2
:103310004FF6FF552A400D894FF6FF7606EA052540
:103320002A434D8806EA05252A431F4DA84202D0AC
:10333000234DA8421DD14FF2FF752A404D894FF60B
:10334000FF7606EA05252A434FF6FF352A408D8889
:1033500006EA05252A434EF6FF752B404DF6FF750C
:103360002B408D8906EA05152B43CD8906EA051504
:103370002B4383808483CD888587028470BD70B59C
:10338000002200230024058C4EF6FF76354005848C
:10339000038C8488828B48F6FF752A404FF6FF45E0
:1033A0002A400D8820E00000002C0140000400406D
:1033B00000080040000C00400010004000140040D5
:1033C00000340140004C01400050014000540140D5
:1033D00000180040001C0040002000400040014058
:1033E00000440140004801404FF6FF7606EA0525FB
:1033F0002A434DF6FF752B400D8906EA05352B4310
:103400004D8806EA05352B43FA4DA84202D0FA4D05
:10341000A84208D14BF6FF752C408D894FF6FF76F8
:1034200006EA85152C4384808283CD88A0F840501D
:10343000038470BD828B4FF2FF331A408283828BEC
:103440004FF6FF7303EA01231A4382837047F0B5F6
:103450000C461546002200210026078C4EF6FF7C04
:1034600007EA0C070784828B018C4FF6FF7707EA87
:10347000043640F6FF473A404FF6FF7707EA052744
:103480003A434FF6FF7707EA03373A43D94FB8423A
:103490000ED0D94FB8420BD0B0F1804F08D0D74FE3
:1034A000B84205D0D64FB84202D0D64FB84206D166
:1034B0004DF6FF77394046F48057394305E047F62B
:1034C000FF57394044F48057394382830184F0BD6B
:1034D000828B4FF6F3731A408283828B0A43828376
:1034E0007047F0B50C461546002200210026078CD7
:1034F0004FF6FF6C07EA0C070784828B018C4FF6AE
:10350000FF7707EA04264FF60C773A404FF6FF772D
:1035100007EA03172F433A43B64FB8420ED0B64FCF
:10352000B8420BD0B0F1804F08D0B44FB84205D0AC
:10353000B34FB84202D0B34FB84206D14FF6FF574F
:10354000394046F48077394305E04FF2FF57394060
:1035500044F48077394382830184F0BD028B4FF2BB
:10356000FF331A400283028B4FF6FF7303EA0123F5
:103570001A4302837047F0B50C461546002200211D
:103580000026078C4FF6EF7C07EA0C070784028BB6
:10359000018C4FF6FF7707EA041640F6FF473A40E2
:1035A0004FF6FF7707EA03373A434FF6FF7707EA0C
:1035B00005273A438F4FB8420ED08F4FB8420BD0F9
:1035C000B0F1804F08D08D4FB84205D08C4FB84233
:1035D00002D08C4FB84206D14FF6DF77394046F023
:1035E0001007394305E04FF65F77394044F0100784
:1035F000394302830184F0BD028B4FF6F3731A4006
:103600000283028B0A4302837047F0B50C461546CD
:1036100000220021068C4FF6FE773E400684028B86
:10362000018C4FF60C7632407E1C06EA03162E43C0
:103630003243704EB0420ED06F4EB0420BD0B0F15C
:10364000804F08D06D4EB04205D06D4EB04202D0D2
:103650006C4EB04206D14FF6FD76314044F0010683
:10366000314305E04FF6F576314044F00106314331
:1036700002830184F0BD70B505460C465D48854265
:103680000ED05D4885420BD0B5F1804F08D05B4825
:10369000854205D05A48854202D05A48854200D119
:1036A00000E000BF208850B92389A288618828469D
:1036B000FFF7ABFFE1882846FFF79EFF25E0208853
:1036C00004280AD12389A28861882846FFF753FF7E
:1036D000E1882846FFF742FF17E0208808280AD132
:1036E0002389A28861882846FFF7FBFEE1882846E7
:1036F000FFF7EEFE09E02389A28861882846FFF7DC
:10370000A6FEE1882846FFF795FE70BD2DE9F04141
:1037100005460C4600260127608808B9022600E00D
:103720000026A088012801D1022700E00127208877
:10373000A0B92389A28861882846FFF766FFE1883F
:103740002846FFF759FF23893A4631462846FFF7B6
:1037500012FFE1882846FFF701FF13E02389A288C2
:1037600061882846FFF707FFE1882846FFF7F6FE45
:1037700023893A4631462846FFF747FFE188284625
:10378000FFF73AFFBDE8F0810A884B881A438B881F
:103790001A43CB881A430B891A434B891A438B89E6
:1037A0001A43A0F8442070474FF6FF718180002132
:1037B0000180C180418001727047002101804180F9
:1037C0008180C180018141818181C1817047002157
:1037D00001804180012181800021C18001817047E9
:1037E0000021018041808180C180018141818181EE
:1037F00070470000002C01400034014000040040EC
:1038000000080040000C004021B1028842F0010293
:10381000028004E002884FF6FE731A40028070476F
:1038200031B1B0F8442042F40042A0F8442005E051
:10383000B0F84420C2F30E02A0F8442070471AB139
:1038400083890B43838102E083898B4383817047A3
:103850008182704741EA0203A0F8483070471AB1EC
:1038600083890B43838102E083898B438381704783
:1038700001894FF6F8721140018170470A46002114
:1038800001894FF68F73194011430181704730B59C
:1038900004460D4629462046FFF7F0FF208940F0F8
:1038A0000700208130BD2DE9F04104460D46164643
:1038B0001F46602D06D13B46012231462046FFF7C8
:1038C0005AFE05E03B46012231462046FFF79DFEA9
:1038D00029462046FFF7D2FF208940F007002081CB
:1038E000BDE8F08130B50C4600210189C9B24FF620
:1038F000FF7505EA0325154325432943018130BDA2
:103900002DE9F04105460E461746984600244346E9
:103910003A4631462846FFF7E5FF2C894FF6F87006
:10392000044044F007044FF68F70044044F07004E4
:103930002C81BDE8F081F0B504460D4616461F46C1
:103940003B46324629462046FFF7CCFF208940F40B
:1039500080402081F0BD0185828270470A460021A7
:1039600001884FF68F731940114301807047F0B5FD
:103970000C4615461E460021002200230189028BB9
:10398000038C4FF6F877394021434FF6FC473A4015
:1039900040F201173A434FF6DD773B404FF6FF7791
:1039A00007EA06172F433B43018102830384F0BDDE
:1039B0000A460021018B4FF68F7319401143018392
:1039C00070470A460021018B48F6FF7319404FF6F5
:1039D000FF7303EA02231943018370470A4600215B
:1039E000818B4FF68F7319401143818370470A46CC
:1039F0000021818B48F6FF7319404FF6FF7303EAED
:103A0000022319438183704721B1028842F080026A
:103A1000028004E002884FF67F731A4002807047EC
:103A200021B1828842F00402828004E082884FF64D
:103A3000FB731A408280704721B1828842F00802ED
:103A4000828004E082884FF6F7731A4082807047C4
:103A500021B1828842F00102828004E082884FF620
:103A6000FE731A40828070470A460021018B4FF690
:103A7000F77319401143018370470A460021018BF7
:103A80004FF2FF7319404FF6FF7303EA0223194305
:103A9000018370470A460021818B4FF6F773194066
:103AA0001143818370470A460021818B4FF2FF73D7
:103AB00019404FF6FF7303EA0223194381837047CD
:103AC0000A460021018B4FF6FB7319401143018315
:103AD00070470A460021018B4FF6FF3319404FF61D
:103AE000FF7303EA02231943018370470A4600214A
:103AF000818B4FF6FB7319401143818370470A464F
:103B00000021818B4FF6FF3319404FF6FF7303EA14
:103B100002231943818370470A460021018B4FF627
:103B20007F7319401143018370470A460021018BBE
:103B3000C1F30E014FF6FF7303EA02231943018319
:103B400070470A460021818B4FF67F73194011435D
:103B5000818370470A460021818BC1F30E014FF625
:103B6000FF7303EA02231943818370470A46002149
:103B7000018C4FF6FD7319401143018470470A46CA
:103B80000021018C4FF6F7731940114301847047EF
:103B90000A460021018C4FF6DF7319404FF6FF7380
:103BA00003EA02131943018470470A460021018C7D
:103BB0004FF67F7319404FF6FF7303EA0213194360
:103BC000018470470A460021018C4FF6FF531940CB
:103BD0004FF6FF7303EA02231943018470470A4634
:103BE0000021018C4FF2FF7319404FF6FF7303EA77
:103BF00002231943018470470A460021018C4DF6C7
:103C0000FF7319404FF6FF7303EA0233194301842F
:103C1000704730B5002301248C40A3B2048C9C4330
:103C20000484048C02FA01F5ADB22C43048430BD47
:103C300030B5002304248C40A3B2048C9C4304843C
:103C4000048C02FA01F5ADB22C43048430BD70B58A
:103C50000346002000241846183001258D40ACB2E0
:103C60001D8CA5431D8409B1082909D100EB610011
:103C7000056825F0700505600568154305600EE0D0
:103C80000D1FC5F34E052844056825F4E045056081
:103C900005684FF6FF7606EA02263543056070BDDB
:103CA00021B1028842F00202028004E002884FF64D
:103CB000FD731A400280704721B1028842F004026D
:103CC000028004E002884FF6FB731A4002807047BE
:103CD00021B1828842F08002828004E082884FF61F
:103CE0007F731A408280704702884FF6F7731A403C
:103CF000028002880A430280704782884FF68F73E1
:103D00001A40828082880A438280704702894FF677
:103D1000F8731A40028102890A43028170470289BE
:103D20004FF67F731A40028102890A43028170476D
:103D3000818470478185704781867047018770470D
:103D400081877047A0F84010704702884FF6FF4304
:103D50001A40028002880A43028070470146888E1A
:103D600070470146088F70470146888F70470146AB
:103D7000B1F8400070470146888C70470146088DB5
:103D8000704702460020138A0B4201D0012000E058
:103D900000207047CA430282704730B502460020B7
:103DA00000230024158A05EA0103958905EA010428
:103DB00013B10CB1012000E0002030BDCA430282E3
:103DC0007047000010B50446FB48844209D1012128
:103DD0008803FFF79BF800214FF48040FFF796F827
:103DE00032E0F648844209D101214804FFF79BF8EC
:103DF00000214FF40030FFF796F825E0F0488442A8
:103E000009D101218804FFF78EF800214FF48020AA
:103E1000FFF789F818E0EB48844209D10121C80472
:103E2000FFF781F800214FF40020FFF77CF80BE04A
:103E3000E548844208D101210805FFF774F8002104
:103E40004FF48010FFF76FF810BD2DE9F04786B0F2
:103E500005460E460024A24600BFA1460027B089B1
:103E600000B100BF2F462C8A4CF6FF700440F0884A
:103E700004432C82AC894EF6F3100440B08831899B
:103E80000843718908430443AC81AC8A4FF6FF4074
:103E90000440B0890443AC8201A8FEF7B0FFC648D5
:103EA000874202D1DDF810A001E0DDF80CA0A8895E
:103EB00010F4004F08D00AEBCA0000EB0A1031687A
:103EC0004900B0FBF1F807E00AEBCA0000EB0A106A
:103ED00031688900B0FBF1F86420B8FBF0F0040110
:103EE0002009642101FB1089A88910F4004F08D033
:103EF000322000EBC900B0FBF1F000F007000443F2
:103F000008E0322000EB09106421B0FBF1F000F072
:103F10000F0004432C8106B0BDE8F0874FF4165122
:103F2000016000218180C18001810C21418100213B
:103F30008181704710B502460020108A4FF2FF03BE
:103F400018400B884C8823438C882343CC88234318
:103F50001843108210BD0021018041808180C18002
:103F6000704721B1828942F40052828104E0828943
:103F70004DF6FF731A4082817047F0B50346002466
:103F8000002600250020A1F510676A3F00D100BF80
:103F90001846C1F3421401F01F06012707FA06F57F
:103FA000012C01D10C3004E0022C01D1103000E0D2
:103FB00014301AB107682F43076002E00768AF4367
:103FC0000760F0BD1AB1838A0B43838202E0838AC3
:103FD0008B4383827047028A4FF6F0731A40028245
:103FE000028A0A430282704782894FF2FF731A40A5
:103FF000828182890A438281704721B1828942F09D
:104000000202828104E082894FF6FD731A408281A8
:104010007047028A4FF6DF731A400282028A0A430F
:104020000282704721B1028A42F48042028204E097
:10403000028A4BF6FF731A4002827047C1F30802EE
:104040008280704701468888C0F3080070478189E4
:1040500041F0010181817047028BD2B20283028B51
:1040600042EA012202837047028B02F47F420283FC
:10407000028B0A430283704721B1828A42F02002F8
:10408000828204E0828A4FF6DF731A408282704790
:1040900021B1828A42F01002828204E0828A4FF6C5
:1040A000EF731A408282704721B1828A42F008027F
:1040B000828204E0828A4FF6F7731A408282704748
:1040C00021B1828942F40042828103E08289C2F3F5
:1040D0000E028281704721B1828A42F4006282829C
:1040E00004E0828A4FF2FF731A4082827047828A0C
:1040F0004FF6FB731A408282828A0A43828270479B
:1041000021B1828A42F00202828204E0828A4FF662
:10411000FD731A408282704702460020B1F5007F8D
:1041200000D100BF13880B4201D0012000E0002025
:10413000704701F40072B2F5007F00D100BFCA439E
:104140000280704770B5024600240023002500203D
:10415000A1F510666A3E00D100BFC1F3421501F01F
:104160001F03012606FA03F3012D02D1968933407D
:1041700006E0022D02D1168A334001E0968A3340D0
:104180000C12012606FA04F41688344013B10CB15F
:10419000012000E0002070BD10B500220023A1F531
:1041A00010646A3C00D100BF0A1201249440A3B2FB
:1041B000DC43048010BD0000003801400044004092
:1041C00000480040004C0040005000400CB500206A
:1041D000019000906B48006840F4803069490860A5
:1041E00000BF6848006800F4003000900198401C4F
:1041F0000190009818B90198B0F5A06FF1D161480D
:10420000006810F4003F02D00120009001E000207F
:1042100000900098012842D15B48006840F01000EF
:10422000594908600846006820F003000860084605
:10423000006840F0020008605248406851494860F8
:104240000846406848600846406840F4806048601E
:104250000846406820F47C1048600846406840F4F6
:10426000E81048600846006840F08070086000BFB1
:104270004448006810F0007FFAD04248406820F0BF
:104280000300404948600846406840F0020048602A
:1042900000BF3C48406800F00C000828F9D10CBD74
:1042A00010B5FFF793FF10BD10B53648006840F019
:1042B00001003449086008464068344908403149E3
:1042C000486008460068324908402E4908600846A0
:1042D000006820F4802008600846406820F4FE0052
:1042E00048604FF41F008860FFF7DAFF4FF000606E
:1042F0002849086010BD10B5002100200022214B84
:104300005B6803F00C0121B1042906D0082928D1EB
:1043100007E0214B214C236027E01F4B1F4C2360FB
:1043200023E0184B5B6803F47010164B5B6803F4D2
:104330008032022303EB904022B9194B4343174CC0
:1043400023600DE00F4B5B6813F4003F04D0144B67
:104350004343124C236003E00F4B43430F4C236055
:1043600003E00D4B0D4C236000BF00BF054B5B68A5
:10437000C3F303130B4CE15C084B1B68CB40074CA9
:10438000236010BD00100240002002400000FFF832
:10439000FFFFF6FE08ED00E000127A00300000207A
:1043A00000093D00340000200948804709480047C3
:1043B000FEE7FEE7FEE7FEE7FEE7FEE7FEE7FEE7D5
:1043C000FEE7FEE704480549054A064B7047000032
:1043D000A94200083101000858070020580D0020AC
:1043E000580900205809002070B5064600F056F81C
:1043F000056806F10B0020F00704B4429CBF0020C2
:1044000070BD2B466A68BAB11068A04210D304F19F
:10441000080188423CBF5068586007D351681019A2
:1044200041601168091B016058601460101D70BD67
:1044300013465268002AE7D12146284600F036F894
:104440000028DED170BD70B50446051F00F026F8C7
:104450000068002C14BF446870BD002C18BFA54232
:1044600084BF20466468F8D801680A18AA4218BFB9
:10447000456003D12A680546114401602868411946
:10448000A1421CBF6C6070BD61686960216808440E
:10449000286070BD70477047704700000048704743
:1044A00000070020704770477047704738B50446D2
:1044B0000A4600206946AFF30080002808BF38BDD7
:1044C00002460099204600F03FF8012038BD012047
:1044D00000F054B8F8B5AFF30080054600200C4654
:1044E000102000BF0646A819A0420DD932466946E1
:1044F0000020AFF30080070008BF00F03FF80098ED
:10450000A04218BF0546C419FFF7C8FF056007465B
:10451000F01D20F007004619284600F00AF8B442C2
:1045200008BFF8BDA21B31463868BDE8F84000F06E
:104530000BB800210160C0E90110704710207047DE
:1045400000487047F8060020034640688C46002863
:1045500018BF814284BF03464068F8D818681844E1
:10456000884207D00CF1030020F00700001D411A1B
:10457000521A0146081D0A60FFF765BF10B500F02A
:1045800035F8BDE8104000F02CB870477546FFF7CD
:10459000D7FFAE4605006946534620F00700854622
:1045A00018B020B5FFF70EFFBDE820404FF0000621
:1045B0004FF000074FF000084FF0000B21F007010B
:1045C000AC46ACE8C009ACE8C009ACE8C009ACE84E
:1045D000C0098D4670470446AFF300802046FBF7C4
:1045E000F2FD002801D000F029B8704710B501286D
:1045F00005D0002103A000F027F8012010BD09A17B
:10460000F8E7000053494752544D454D3A204F7545
:1046100074206F662068656170206D656D6F7279BA
:10462000000000003A2048656170206D656D6F7272
:104630007920636F72727570746564000149182087
:10464000ABBEFEE72600020070B505460C460A2008
:1046500000E06D1C00F011F835B128780028F8D181
:1046600002E0641C00F009F814B120780028F8D1A9
:10467000BDE870400A20AFF3008008B569468DF8A8
:1046800000000320ABBE08BDA846000800000020C3
:10469000440000006C010008EC46000844000020C3
:1046A000140D000088010008000000000000000058
:1046B000000000000100000000000000FF000000FA
:1046C00000000000000000000102030401020304D6
:1046D000060708090204060800A24A0400000000B8
:0C46E000000000000102030406070809A6
:0400000508000131BD
:00000001FF
