:020000040800F2
:1000000018170020350200083D0200083F020008D2
:1000100041020008430200084502000800000000F9
:10002000000000000000000000000000470200087F
:1000300049020008000000004B0200084D020008C1
:100040004F0200084F0200084F0200084F0200084C
:100050004F0200084F0200084F0200084F0200083C
:100060004F0200084F0200084F0200084F0200082C
:100070004F0200084F0200084F0200084F0200081C
:100080004F0200084F0200084F0200084F0200080C
:100090004F0200084F0200084F0200084F020008FC
:1000A0004F0200084F0200084F0200084F020008EC
:1000B00091130008C5130008FD1300084F02000843
:1000C0004F0200084F0200084F0200084F020008CC
:1000D0004F02000821160008D916000891170008E1
:1000E0004F0200084F0200084F0200084F020008AC
:1000F0004F0200084F0200084F0200084F0200089C
:100100004F0200084F0200084F0200084F0200088B
:10011000F9140008691500084F0200084F02000892
:100120004F0200084F0200084F0200084F0200086B
:100130004F0200084F0200084F0200084F0200085B
:100140004F0200084F0200084F0200084F0200084B
:100150004F0200084F0200084F020008D91800089B
:100160004F0200084F0200084F0200084F0200082B
:100170004F0200084F0200084F0200084F0200081B
:100180004F0200084F02000800F002F800F042F8A9
:100190000AA090E8000C82448344AAF10107DA45E2
:1001A00001D100F037F8AFF2090EBAE80F0013F0F2
:1001B000010F18BFFB1A43F0010318471C960000FB
:1001C0003C960000103A24BF78C878C1FAD852078C
:1001D00024BF30C830C144BF04680C6070470000C1
:1001E0000023002400250026103A28BF78C1FBD840
:1001F000520728BF30C148BF0B6070471FB509F0D8
:100200009FF99DE8030000F097F900F081F81FBD09
:1002100010B510BD00F0D3F91146FFF7EFFF08F05D
:1002200083FB00F00BFA03B4FFF7F2FF03BC00F00E
:1002300043FA00000948804709480047FEE7FEE707
:10024000FEE7FEE7FEE7FEE7FEE7FEE7FEE7FEE786
:1002500004480549054A064B70470000351300085D
:100260008901000818030020181700201813002027
:100270001813002010B54C1084EA530404D54042F2
:10028000C1F1000138BF491E1B4204D55242C3F1DF
:10029000000338BF5B1E00F0A7F814F0804F04D0B5
:1002A0004042C1F1000138BF491E14F0004F04D094
:1002B0005242C3F1000338BF5B1E10BD4FF0000275
:1002C00000B5134694469646203922BFA0E80C504C
:1002D000A0E80C50B1F12001BFF4F7AF090728BF27
:1002E000A0E80C5048BF0CC05DF804EB890028BFA3
:1002F00040F8042B08BF704748BF20F8022B11F0CC
:10030000804F18BF00F8012B704770477047704747
:1003100070B5064C7C44064D7D4403E020682044C3
:100320008047241DAC42F9D170BD0000E09400006C
:10033000E494000000487047EC02002070B50646C7
:1003400000F0DAF8056806F10B0020F00704B4426B
:100350009CBF002070BD2B466A68BAB11068A042ED
:1003600010D304F1080188423CBF5068586007D39D
:100370005168101941601168091B016058601460D0
:10038000101D70BD13465268002AE7D12146284649
:1003900000F0BEF80028DED170BD70B50446051F20
:1003A00000F0AAF80068002C14BF446870BD002C4F
:1003B00018BFA54284BF20466468F8D801680A18AF
:1003C000AA4218BF456003D12A680546114401605E
:1003D00028684119A1421CBF6C6070BD61686960EA
:1003E00021680844286070BD53EA020C00F069805F
:1003F0002DE9F04B4FF00006002B1FBFB3FA83F539
:1004000003FA05F424FA05F65E4012BF1643B2FA69
:1004100082F502FA05F4C5F120051EBF22FA05FC9B
:1004200044EA0C04203556EA044C4FEA144418BF41
:10043000641C4FF000084FF00009904271EB030C70
:1004400039D3002919BFB1FA81F701FA07F6B0FADA
:1004500080F700FA07F6C7F120071EBF20FA07FC55
:1004600046EA0C062037B6FBF4FCA7EB0507103F65
:1004700007F01F0BCBF120060CFA0BFB2CFA06F64B
:1004800044BFB3460026202FA4BF5E464FF0000BAA
:100490005BEA060C08BF4FF0010B19EB0B09ABFB35
:1004A000027C48EB0608C01B06FB02CC0BFB03CC0E
:1004B00071EB0C01C1E70B46024641464846BDE8D8
:1004C000F08B13B54FF000004FF00001AFF3008048
:1004D000BDE81C40704710B500F012F8006810BD70
:1004E00010B5044600F00CF8046010BD00F05AB8D6
:1004F00000487047B802002000487047C002002042
:1005000000487047B8020020704770477047704736
:1005100038B504460A4600206946AFF3008000283B
:1005200008BF38BD02460099204600F06DF8012052
:1005300038BD012000F090B8F8B5AFF30080054653
:1005400000200C46102000BF0646A819A0420DD975
:10055000324669460020AFF30080070008BF00F074
:100560007BF80098A04218BF0546C419FFF7C4FFE6
:1005700005600746F01D20F007004619284600F0E8
:100580000AF8B44208BFF8BDA21B31463868BDE87E
:10059000F84000F039B800210160C0E9011070474F
:1005A0001020704710B500F062F8016919B10022FF
:1005B0000261884701E08068804700F045F8754691
:1005C000FFF796FFAE4605006946534620F0070048
:1005D000854618B020B5FFF73BFEBDE820404FF040
:1005E00000064FF000074FF000084FF0000B21F01D
:1005F0000701AC46ACE8C009ACE8C009ACE8C009EA
:10060000ACE8C0098D467047034640688C46002818
:1006100018BF814284BF03464068F8D81868184460
:10062000884207D00CF1030020F00700001D411A9A
:10063000521A0146081D0A60FFF7AFBE0446AFF329
:1006400000802046FFF7EFFD002000F046F8FFF79E
:10065000DFFD012000F030F810B500F045F8BDE8EE
:10066000104000F035B8000010B5FFF7EDFF70B591
:1006700000F02AF804680546A4B92020FFF75EFEC2
:10068000040011D0094900202C60C4E90001084988
:10069000A1602073206160610649A06109B100F08A
:1006A0004BF8E061204670BDFFF7CEFF0000000070
:1006B000690600080000000001491820ABBEFEE7F3
:1006C000260002007047000000487047F402002036
:1006D000002801D0FFF7F0BF704710B500F064F8B4
:1006E000BDE81040FFF7F4BF10B5012805D0002188
:1006F00003A000F03FF8012010BD09A1F8E70000B9
:1007000053494752544D454D3A204F7574206F66FA
:100710002068656170206D656D6F72790000000062
:100720003A2048656170206D656D6F727920636F46
:10073000727275707465640010B58820FFF7FEFD55
:10074000002801D00021017010BD802902D808B115
:10075000017809B100207047012100F8081B70479B
:1007600018B100F10802914201D000207047002129
:100770000170704770B505460C460A2000E06D1CFC
:1007800000F02AF835B128780028F8D102E0641C7E
:1007900000F022F814B120780028F8D1BDE87040AC
:1007A0000A2000F019B8000010B5002102A0FFF7E0
:1007B000E1FF012010BD0000534947414252543A25
:1007C0002041626E6F726D616C207465726D696E2E
:1007D0006174696F6E00000008B569468DF800000D
:1007E0000320ABBE08BD0029816802D041F00101A1
:1007F00001E021F00101816070470000074B10B556
:100800001A6807490A40D0E900142143D0E90240A0
:10081000044321431143196010BD0000042301402B
:10082000E030FCFF0029816802D041F4807101E0D2
:1008300021F48071816070470029816802D041F401
:10084000007101E021F400718160704730B54268A9
:100850000F4B0C791A400B6842EA042213434360A1
:1008600082680C4B4D791A40D1E9034323438C68CD
:1008700044EA4504234313438360C26A097D22F49A
:100880007002491EC9B242EA0151C16230BD000086
:10089000FFFEFFFCFDF7FFC070B5072409290AD948
:1008A000C568A1F10A0606EB4606B440A543B3406D
:1008B0001D43C56007E0056901EB4106B440A5434F
:1008C000B3401D4305611F23072A09D2446B521E02
:1008D00002EB820293409C4391400C43446370BD01
:1008E0000D2A09D2046BD21F02EB820293409C4373
:1008F00091400C43046370BDC46A0D3A02EB82025E
:1009000093409C4391400C43C46270BD816841F0A8
:10091000804181607047000010B50A4C0122072316
:1009200011462046FFF7B8FF01212046FFF784FF5C
:1009300001212046FFF776FF2046BDE81040012147
:10094000FFF751BF002001401FB500204FF4804148
:100950000090CDE9010103906846FFF74FFF1FBDEE
:1009600010B590B012490020CDE900011149CDE940
:1009700002100A21CDE904104FF48061069149006C
:10098000079189000891491109914902CDE90A109E
:100990000121CDE90C10084C0E906946204600F06C
:1009A00055F80121204600F047F810B010BD0000B6
:1009B0004C200140A4020020106402401CB502201B
:1009C000009003208DF8040000208DF80700694690
:1009D000014800F07BF81CBD0000024010B5012169
:1009E000094800F027F90121080200F03BF9FFF760
:1009F000B7FFFFF7E3FFFFF7A7FF00F007F8BDE839
:100A00001040FFF789BF00000100400000B587B02B
:100A10000020012100908DF804108DF8051002903F
:100A200004908DF8141069460248FFF70FFF07B0D5
:100A300000BD0000002001400029016802D041F003
:100A4000010101E021F001010160704730B5036848
:100A5000124ACC6813400A682243D1E905452C4369
:100A60002243CC6922430C6A22434C6A22438C6A9B
:100A700022434C6B22438C6B22431A43026042692F
:100A800022F00703D1E90B2422431A4342610A6989
:100A900042604A6882608968C16030BD3F801CF056
:100AA0000021084A084600BF32F91030401CC0B28D
:100AB00019440A28F8D30A2091FBF0F00249088073
:100AC00070470000A4020020A6000020F0B500231B
:100AD000012403270D6804FA03F21540954242D120
:100AE000D0F800C05E0007FA06F52CEA050CC0F845
:100AF00000C091F804C0D0F800E00CFA06FC4CEA03
:100B00000E0CC0F800C091F804C0BCF1010F02D077
:100B1000BCF1020F1FD1D0F808C02CEA050CC0F8B8
:100B200008C091F805C0D0F808E00CFA06FC4CEAC1
:100B30000E0CC0F808C0D0F804C02CEA020CC0F8B3
:100B400004C0426891F806C00CFA03FC1FFA8CFC42
:100B500042EA0C024260C268AA43C260CA79C56810
:100B6000B2402A43C2605B1C102BB3D3F0BD4B07CD
:100B7000DB0E9A40C90810B500EB8100016A0F2412
:100B80009C40A1430162016A1143016210BD02460B
:100B9000002012690A4200D001207047024600205E
:100BA00052690A4200D00120704741837047018397
:100BB00070470AB1018370474183704770B50F21B8
:100BC000C478027801234FF0E026E4B1124C246887
:100BD00004F4E064C4F5E064C4F30724C4F104053C
:100BE000E1404478AC4085780D4025430B4C290109
:100BF0001155007800F01F018B40400906EB800082
:100C0000C0F8003170BD02F01F008340500906EBB0
:100C10008000C0F8803170BD0CED00E000E400E021
:100C20000249084302490860704700000000FA05C5
:100C30000CED00E0044A0029116801D0014300E0F6
:100C4000814311607047000030380240044A002997
:100C5000116801D0014300E081431160704700003A
:100C600040380240044A0029116801D0014300E0E5
:100C700081431160704700004438024070B5204A3B
:100C80001168204C11F00C0104D06610042903D027
:100C9000082903D004601BE0066019E01849091F09
:100CA0000B68C3F380550B6803F03F0315B1B6FB27
:100CB000F3F301E0B4FBF3F30C680968C4F38814A0
:100CC0006343C1F30141491C4900B3FBF1F10160E9
:100CD00011680F2303EA11110B4B5C5C0168E140C2
:100CE00041601468072505EA94241C5D21FA04F488
:100CF0008460126805EA52329A5CD140C16070BDCE
:100D0000083802400024F400A80000207CB501212E
:100D10000846FFF78FFF01210220FFF78BFF01211B
:100D20000420FFF787FF01210820FFF783FF01213F
:100D30001020FFF77FFF01212020FFF77BFF01211B
:100D40004020FFF777FF264D002423460122022191
:100D50001020CDE9004500F049F8002301220221CE
:100D60002020CDE9004500F041F81E4E0221CDE9DA
:100D7000004600230122480200F038F8CDE9004681
:100D8000022100230122084600F030F8CDE9004698
:100D9000012200230221104600F028F8022100233E
:100DA0000122C801CDE9004500F020F80E4D0023D6
:100DB0001A4602210420CDE9004500F017F800236F
:100DC000012202211020CDE9004500F00FF8002398
:100DD0001A4602212020CDE9004500F007F87CBD2D
:100DE00000000240000C0240000802401CB5059BB8
:100DF0008DF8042000908DF8051069461846FFF71D
:100E000065FE1CBDF0B52D4D074687B029462C4820
:100E100000F03EFE0021284600F09CFD012110203C
:100E2000FFF720FF01210846FFF704FF254C0722AA
:100E300009212046FFF79BFE07220A212046FFF7E3
:100E400096FE01260222CDE900640023114610021D
:100E5000FFF7CCFF0222CDE90064002311465002C7
:100E6000FFF7C4FF01210846FFF7E4FE02A800F0E7
:100E700043FE0020ADF80C00ADF80E00ADF81000F8
:100E8000ADF814000C20ADF81200029702A9284614
:100E900000F0A2FD01220021252000F0D9F9012255
:100EA00040F22551284600F07EFD012240F22661E5
:100EB000284600F078FD07B0F0BD000000100140AA
:100EC000F4000020000002402DE9FC41254E0746B9
:100ED0003146254800F0DCFD0021304600F03AFDA7
:100EE00001214804FFF7B2FE01210846FFF7A2FEE8
:100EF0001E4C072202212046FFF739FE072203215C
:100F00002046FFF734FE0125CDE9005402220023DC
:100F100011460420FFF76AFFCDE9005402220023A6
:100F200011460820FFF762FF01210846FFF782FE05
:100F30000C223946304600F073F9022200212620A7
:100F400000F086F9012240F22551304600F02BFDD9
:100F500002B03046BDE8F041012240F2266100F0C7
:100F600022BD0000004400403C010020000002407F
:100F70002DE9FC41254E07463146254800F088FD05
:100F80000021304600F0E6FC01218804FFF75EFEF8
:100F900001210820FFF74EFE1E4C072208212046A3
:100FA000FFF7E5FD072209212046FFF7E0FD0125B7
:100FB0000222CDE9005400231146D001FFF716FFAD
:100FC0000222CDE90054002311461002FFF70EFF64
:100FD00001210820FFF72EFE0C223946304600F092
:100FE0001FF903220021272000F032F9012240F2EC
:100FF0002551304600F0D7FC02B03046BDE8F04144
:10100000012240F2266100F0CEBC00000048004002
:1010100084010020000C02402DE9FC41254E0746CA
:101020003146254800F034FD0021304600F092FCA6
:101030000121C804FFF70AFE01210420FFF7FAFD91
:101040001E4C08220A212046FFF791FD08220B21A1
:101050002046FFF78CFD00250222CDE900542B46E7
:1010600011465002FFF7C2FE0222CDE900540023D0
:1010700011469002FFF7BAFE01210820FFF7DAFDC2
:101080000C223946304600F0CBF8002211463420BD
:1010900000F0DEF8012240F22551304600F083FCDA
:1010A00002B03046BDE8F041012240F2266100F076
:1010B0007ABC0000004C0040CC0100200008024037
:1010C0002DE9FC41284D07462946284800F0E0FC60
:1010D0000021284600F03EFC01210805FFF7B6FD7F
:1010E00001210420FFF7A6FD01210820FFF7A2FD42
:1010F0001F4C08220C212046FFF739FD1D4E082207
:1011000002213046FFF733FD20460124CDE900409F
:10111000022200231146D002FFF768FECDE9004607
:101120000222002311460420FFF760FE012108205F
:10113000FFF780FD0C223946284600F071F80322A3
:101140000021352000F084F8012240F22551284684
:1011500000F029FC02B02846BDE8F041012240F22F
:10116000266100F020BC0000005000401402002066
:1011700000080240000C02402DE9FC41254E0746C4
:101180003146254800F084FC0021304600F0E2FBA7
:1011900001212020FFF766FD01210420FFF74AFD11
:1011A0001E4C082206212046FFF7E1FC08220721F9
:1011B0002046FFF7DCFC0125CDE900540222002384
:1011C00011464020FFF712FECDE900540222002311
:1011D00011468020FFF70AFE01210846FFF72AFD8D
:1011E0000C223946304600F01BF8002211464720F9
:1011F00000F02EF8012240F22551304600F0D3FBDA
:1012000002B03046BDE8F041012240F2266100F014
:10121000CABB0000001401405C020020000802402C
:101220007FB5064614460D46684600F065FC002171
:10123000ADF80410ADF80810ADF80610ADF80C10BC
:101240000095ADF80A406946304600F0C5FB7FBD09
:1012500008B58DF800008DF801108DF802200120EE
:101260008DF803006846FFF7A9FC08BD0CB5002007
:101270002749019000900A6842F480320A604FF4D6
:10128000A0630A6802F400320092019A521C019293
:10129000009A12B9019A9A42F3D10A68920334D59E
:1012A000012000901A484030026842F080520260EB
:1012B0001848026842F4804202601548083002680B
:1012C0000260026842F400420260026842F4A052E6
:1012D0000260031F104A1A600A6842F080720A60B6
:1012E0000A689201FCD50D4A40F20561116001685F
:1012F00021F003010160016841F002010160016811
:10130000C1F381010229FAD10CBD00900CBD00008F
:10131000003802400070004008544007003C024082
:1013200042F6DE6302E01946491EFDD2401EFAD2A3
:1013300070470000124810B5016841F47001016067
:101340001048016841F0010101600E4A0021083295
:10135000116002680C4B1A400260031D0B4A1A60B0
:10136000026822F48022026006480C300160FFF718
:101370007DFF03494FF000608039086010BD000018
:1013800088ED00E000380240FFFFF6FE1030002438
:1013900010B54FF08044204601F030FA00280ED0FE
:1013A000204601F040FA204601F040FA0448006867
:1013B00001F08EFA2046BDE8104001F03EBA10BDA3
:1013C0000000002010B50B4C204601F017FA002851
:1013D0000ED0204601F027FA204601F027FA0648F1
:1013E000006801F0EFFA2046BDE8104001F025BA90
:1013F00010BD0000000400400000002010B50B4CA0
:10140000204601F0FBF900280ED0204601F00BFA2F
:10141000204601F00BFA0648006801F073FB2046F5
:10142000BDE8104001F009BA10BD000000080040FE
:1014300000000020C94301827047C9430182704700
:101440000029018802D041F0010101E021F00101F1
:101450000180704702460020138A92890B4202EAFB
:10146000010202D0002A00D001207047002A8289A0
:1014700001D00A4300E08A438281704730B5028878
:10148000164B174C98420DD0A0420BD0B0F1804FB4
:1014900008D0144DA84205D0134DA84202D0134DD8
:1014A000A84203D122F070054A882A43104DA84271
:1014B00006D0104DA84203D022F440750A892A4371
:1014C00002804A68C2620A880285984201D0A0421E
:1014D00001D1897A01860121818230BD000001405D
:1014E000000401400004004000080040000C0040DF
:1014F000001000400014004070B5184C40F2255513
:101500002946204600F030FA30B12946204600F046
:101510001BFA134800F0D8FA40F2277529462046F6
:1015200000F022FA30B12946204600F00DFA0C48AE
:1015300000F066F940F226652946204600F014FACC
:10154000002809D02946204600F0FEF9BDE8704089
:1015500002210448FFF729BB70BD0000004C004089
:10156000CC010020000C024070B5184C40F225550B
:101570002946204600F0F8F930B12946204600F00F
:10158000E3F9134800F0A0FA40F2277529462046F7
:1015900000F0EAF930B12946204600F0D5F90C48B0
:1015A00000F052F940F226652946204600F0DCF9A9
:1015B000002809D02946204600F0C6F9BDE8704051
:1015C00001210448FFF7F1BA70BD0000005000404F
:1015D00014020020000C024070B50446051D90F86E
:1015E000470095F94210814205D12068818921F098
:1015F0008001818170BD10210848FFF7D8FA94F965
:10160000471005F12000085C2168888015F8430F19
:10161000401C00F01F00287070BD00000000024058
:1016200070B5184C40F225552946204600F09CF92B
:1016300030B12946204600F087F9134800F044FAFB
:1016400040F227752946204600F08EF930B1294630
:10165000204600F079F90C48FFF7BEFF40F22665FE
:101660002946204600F080F9002809D02946204666
:1016700000F06AF9BDE8704010210448FFF795BA00
:1016800070BD000000100140F40000200000024086
:1016900070B50446051D90F8470095F94210814247
:1016A00005D12068818921F08001818170BD2021D0
:1016B0000848FFF77CFA94F9471005F12000085C10
:1016C0002168888015F8430F401C00F01F00287027
:1016D00070BD00000000024070B5184C40F2255566
:1016E0002946204600F040F930B12946204600F056
:1016F0002BF9134800F0E8F940F2277529462046F7
:1017000000F032F930B12946204600F01DF90C48AE
:10171000FFF7BEFF40F226652946204600F024F977
:10172000002809D02946204600F00EF9BDE8704097
:1017300020210448FFF739BA70BD00000044004082
:101740003C0100200000024070B50446051D90F8E1
:10175000470095F94210814205D12068818921F026
:101760008001818170BD4FF480610848FFF71FFA46
:1017700094F9471005F12000085C2168888015F86D
:10178000430F401C00F01F00287070BD000C024089
:1017900070B5184C40F225552946204600F0E4F873
:1017A00030B12946204600F0CFF8134800F08CF9FC
:1017B00040F227752946204600F0D6F830B1294678
:1017C000204600F0C1F80C48FFF7BEFF40F2266546
:1017D0002946204600F0C8F800280AD029462046AD
:1017E00000F0B2F8BDE870404FF480610348FFF7A5
:1017F000DCB970BD0048004084010020000C0240AC
:1018000070B50446051D90F8470095F942108142D5
:1018100005D12068818921F08001818170BD02217C
:101820000848FFF7C4F994F9471005F12000085C57
:101830002168888015F8430F401C00F01F002870B5
:1018400070BD0000000C024070B50446051D90F804
:10185000470095F94210814205D12068818921F025
:101860008001818170BD01210848FFF7A0F994F93A
:10187000471005F12000085C2168888015F8430FA7
:10188000401C00F01F00287070BD0000000C0240DA
:1018900070B50446051D90F8470095F94210814245
:1018A00005D12068818921F08001818170BD4FF4CC
:1018B00080710848FFF77BF994F9471005F1200083
:1018C000085C2168888015F8430F401C00F01F0059
:1018D000287070BD0000024070B5184C40F22555CC
:1018E0002946204600F040F830B12946204600F055
:1018F0002BF8134800F0E8F840F2277529462046F7
:1019000000F032F830B12946204600F01DF80C48AE
:10191000FFF7BEFF40F226652946204600F024F876
:1019200000280AD02946204600F00EF8BDE8704095
:101930004FF480710348FFF738B970BD00140140BF
:101940005C020020000002400A0A01219140C943C4
:10195000018070470029818902D041F4005101E0E3
:1019600021F400518181704730B501F01F0201243C
:101970000025C1F3421304FA02F2012B0FD0022B0F
:101980000FD0838A4FEA11210088134204FA01F430
:1019900000EA040001D000B10125284630BD83894A
:1019A000F0E7038AEEE710B5C1F3421301F01F041C
:1019B0000121A140012B07D0022B07D01430002AAF
:1019C000026805D00A4304E00C30F8E71030F6E76F
:1019D0008A43026010BD00007FB50446008A0D46B0
:1019E00020F44051E88808432082A08941F20C612C
:1019F0008843A9882A8911436A8902431143A18136
:101A0000A08A20F44071A8890843A0826846FFF7A5
:101A100035F91D48844202D01C48844201D1039804
:101A200000E00298A1890904002900EBC00101EB44
:101A30000010296802DA4FEA410101E04FEA810112
:101A4000B0FBF1F26420B2FBF0F14FEA01114FEA72
:101A500011136FF018056B4302EB8302A3891D0479
:101A60004FF0320306D503EBC202B2FBF0F000F0F8
:101A7000070005E003EB0212B2FBF0F000F00F00EC
:101A8000084320817FBD0000001001400014014088
:101A900040F8281B002141770177C1778177704793
:101AA00010F8441F4078814201D001207047002087
:101AB0007047011D90F94500085C11F8412F521C38
:101AC00002F01F020A70704730B500F1440211782D
:101AD0005278491C01F01F0103689B889142DBB2D8
:101AE00001D1002206E090F944500122041D2B553B
:101AF00080F84410104630BD4FF4165101600021AB
:101B00008180C18001810C2242818181704710F85F
:101B1000461F491C407801F01F01814201D001207D
:101B200070470020704730B50C460346021DFFF792
:101B3000EEFF01000ED092F84200151885F8204003
:101B4000401C00F01F0082F842001868828942F0B1
:101B500080028281084630BD7CB5017A05460124A9
:101B600004FA01F02146FFF765F828680023CDE963
:101B70000040A888012280B21946FFF737F97CBDE2
:101B8000002100F011B810B50446808881B22068A9
:101B9000FFF704F8C0F10100C2B2A08881B220684A
:101BA000BDE81040FFF705B805C8002991B201D083
:101BB000FEF7FBBFFEF7FBBF10B504461948C4E9AA
:101BC0000012814201D1002026E01748814201D154
:101BD000012021E01548814201D102201CE0144877
:101BE000814201D1032017E01248814201D1042033
:101BF00012E01148814201D105200DE00F488142D9
:101C000001D1062008E00E48814201D1072003E0FF
:101C10000C48814201D10820A0602046FFF79CFFBC
:101C2000204610BD000002400004024000080240AF
:101C3000000C024000100240001402400018024054
:101C4000001C024000200240406801280ED00228FB
:101C50000FD0032810D0042811D0052812D0062850
:101C600013D10A48012100BFFFF774BE01210848C3
:101C7000FAE701210748F7E701210748F4E70121C6
:101C80000648F1E701210648EEE7704700140140DD
:101C9000001001400044004000480040004C00405B
:101CA000005000402DE9F04116460D46074600243D
:101CB00006E0295D384600F00CF80028F9D0641CD5
:101CC000B442F6DBBDE8F0810068FFF7F2BE406881
:101CD000704710B50068FFF726FF002800D00120EC
:101CE00010BD10B50068FFF7DBFE002800D0012012
:101CF00010BD000010B504461046C4E901120129C8
:101D00000AD002290DD0032910D0042913D00529A7
:101D100016D0062919D01CE00F492160FFF772F890
:101D200017E00E492160FFF7CFF812E00C4921605F
:101D3000FFF71EF90DE00B492160FFF76DF908E090
:101D400009492160FFF7BCF903E008492160FFF76A
:101D500013FA204610BD0000F40000203C010020D2
:101D600084010020CC010020140200205C0200202D
:101D70002DE9F04700258146A846FFF7A8FF401E41
:101D8000C4B2354E5EE04846FFF79EFF014656F866
:101D9000240005F036FC56F8240005F02BFC56F81C
:101DA000240005F02BFCA4284CD1A43556F82400BF
:101DB00005F020FC56F8240005F020FC2844C5B2AC
:101DC00056F8240005F016FC56F8240005F016FC21
:101DD00040062ED55FF0000756F8240005F00EFCF3
:101DE0002844C5B256F8240005F004FC7F1C032FDC
:101DF000F2DB56F8240005F001FCA84214D1164984
:101E0000002504EB4400243901EB400756F8240078
:101E100005F0F0FB56F8240005F0F0FB78556D1C3A
:101E2000062DF3DB4FF0010856F8240005F0E2FB25
:101E300007E056F8240005F0E7FB56F8240005F00B
:101E4000E3FB00254846FFF74CFF414630EA080017
:101E500099D10846BDE8F087DC00002010B50446A3
:101E6000217A6068FFF735FF0028F9D0617A606851
:101E7000FFF72FFF0028F9D0A17A6068FFF729FF4C
:101E80000028F9D0E06841786068FFF722FF002859
:101E9000F8D0E06801786068FFF71BFF0028F8D0F1
:101EA000207A617A0844A17A0844E1684A7809787E
:101EB00010440844C1B26068FFF70BFF0028EFD060
:101EC00010BD19B9427C0AB1082A00D34174704789
:101ED000024900EB400001EB40007047B8000020D1
:101EE000427C082A00D24174704700210174704777
:101EF00010B504460A48C4E90001022005F0B6FB0B
:101F0000014600200880A422E16022726072A07263
:101F10000870E168487020746074204610BD0000AD
:101F200060970008418370474A1E092A16D2C9B239
:101F3000002241F020038372012907D0062907D02F
:101F4000092907D0C1680A80FFF788BF818A02E0AB
:101F5000C18A00E0018BC2681180F5E7704710B5B7
:101F60000446481E0C282AD2C8B20021A0720D28AF
:101F70001AD2DFE800F0190707090D0F1113151722
:101F800017171700608B00E0A08BE16808800BE05A
:101F9000E08BFAE7208CF8E7608CF6E7A08CF4E79A
:101FA000E08CF2E7E06801802046FFF757FF207CD5
:101FB000401CC0B22074152801D91520207410BD12
:101FC000B0F91210B1F5FA7F01DA012100E0032126
:101FD000FFF7C5BF428B002112B181834182704758
:101FE000428A40F6AC53521C12B242829A42F6DD4B
:101FF0004FF4FA724282818370472DE9F05F8B467D
:102000000025DDE90A1CDDE90CAE2C46AD1A9C4129
:1020100002DA14461D4603E00025544265EB030531
:10202000322700263C1BAE4173DA00252C46AD1A40
:102030009C4102DA16461F4603E00027564267EB32
:1020400003074FF42F750024AD1BBC4109DAB0F92A
:102050002E20A2FB0104D31703FB014102FB0C114C
:102060004BE000252C46AD1A9C4102DA9046994679
:1020700005E04FF00009D2F1000869EB03094FF4C5
:10208000E1750024B5EB080574EB09040ADAB0F930
:102090003000A0FB0134C21702FB014100FB0C1110
:1020A000122218E000252C46AD1A9C4103DB0024C7
:1020B000524264EB0303C825AA1AB0F93000002489
:1020C0009C41A0FB01344FEAE07202FB01410ADAB5
:1020D00000FB0C110F22A3FB020501FB025100249F
:1020E00003FB041109E000FB0C140521A3FB01050F
:1020F00004FB0151002203FB021152467346FEF716
:10210000B9F8DC46BDE8F04F00B25DF804EB60477B
:10211000FFE700214183BDE8F09F2DE9F05F0AACA5
:102120008246B4E8031000252C46DDF834B0AD1A21
:102130009C4102DA14461D4603E00025544265EB3B
:102140000305322700263C1BAE4174DA00252C46DD
:10215000AD1A9C4102DA16461F4603E0002756429C
:1021600067EB03074FF42F750024AD1BBC410CDA5D
:10217000BAF92E20A2FB0045D31703FB005002FB47
:10218000010162465B4620464DE000252C46AD1A13
:102190009C4102DA9046994605E04FF00009D2F1E1
:1021A000000869EB03094FF4E1750024B5EB08055D
:1021B00074EB09040ADABAF93020A2FB0045D31700
:1021C00003FB005002FB0101122318E000252C46FE
:1021D000AD1A9C4103DB0024524264EB0303C82583
:1021E000AA1A0024BAF930209C41A2FB00454FEA0C
:1021F000E27303FB00500ADA02FB01010F23A4FB88
:10220000030501FB0351002204FB021109E002FB5C
:1022100001020523A4FB030502FB0352002104FB7A
:10222000012162465B46FEF725F801B25046BDE843
:10223000F05F00F02DB80020AAF81A00BDE8F09F6A
:102240002DE9F0410025DDE90617DDE9086C2C4693
:10225000AD1A9C4103DB0025524265EB03030525C3
:102260000024AA1A9C4110DAB0F92E200446A2FBE1
:102270000105D31703FB015102FB071132466346E8
:10228000FDF7F8FF6083BDE8F08100214183FAE7A4
:102290004A1EC72A01D2C82104E011F1C70201D3A6
:1022A0006FF0C7014183704710B5FFF721FE0B495E
:1022B000016000214183C185018681838182C182C1
:1022C0000183C183018441848184C1840185418566
:1022D00081854FF4FA71418210BD000070970008AB
:1022E00010B5044604210C48FEF751FC0B490023AD
:1022F0004A7882420CD00A78642A06D9487008B11C
:10230000A37406E00120A07403E0521C0A7000E0F0
:102310000B70A07C10BD000000080240A00000204F
:10232000C17C044800294FF0100101D0FEF73DBCEC
:10233000FEF73DBC0008024010B50446807A00F06C
:10234000F00040F00200A072E26800201080E06817
:1023500001702046FFF782FD207C401CC0B2207433
:10236000142801D91420207410BD10B50446807AB9
:1023700000F0F00040F00300A072E268002010803E
:10238000E2681170E16848702046FFF767FD207C25
:10239000401CC0B22074142801D91420207410BD30
:1023A00010B5FFF7A5FD0649016003214172817A4E
:1023B00041F0300181720021C174817410BD0000B0
:1023C000809700081CB508A2D2E90012CDE90012DE
:1023D000817C8DF80410BC318DF805104068062210
:1023E0006946FFF75FFC1CBDA40117000000000058
:1023F000822901D9052102E07F2902D904218174B3
:1024000070477C2901D90321F9E7792901D90221F3
:10241000F5E7762901D90121F1E70021EFE7000076
:1024200010B5FFF765FD024901600121817410BDFF
:102430009097000810B50446807CA072E168A07DEA
:102440000870E168607D48702046FFF707FD207C3A
:10245000401CC0B22074142801D91420207410BD6F
:1024600010B5FFF745FD064901600A2141720021C0
:102470008172C174017541758175817410BD000050
:10248000A09700082DE9F0410025884604462F4614
:102490003EE04046FFF718FC0146206905F0B1F820
:1024A000206905F0A7F8206905F0A8F8A5282FD124
:1024B000A535EEB2206905F09DF8206905F09EF87B
:1024C000000621D40025206905F098F83044C6B2F2
:1024D000206905F08FF86D1C0B2DF4DB206905F0E9
:1024E0008DF8B0420CD10025206905F083F82069F1
:1024F00005F084F8A16948556D1C0D2DF4DB01270A
:10250000206905F077F802E0206905F07DF80025E4
:102510004046FFF7E6FBB843BBD13846BDE8F08143
:102520002DE9F0410546C168FFF7ACFF0F4C0026CE
:1025300010B1268001210FE021884FF4FA77B942CB
:1025400003D2491C2180BDE8F0812846A968FFF725
:1025500099FF18B1668002216960F4E76188B94289
:1025600002D2491C6180EEE76E60ECE7A200002019
:1025700042684169012A03D080680D22FFF792BBAF
:10258000C068FAE710B5002244698B5CA354521C62
:102590000D2AF9DB10BD000070B504461148002576
:1025A000C4E90005C4E90221082005F05FF80D2107
:1025B00005F02EF820610D2005F053F860610D2024
:1025C00005F04FF8A061002061690D54401C0D28F2
:1025D000FADB0020A1690D54401C0D28FADB2046CF
:1025E00070BD0000B097000810B5044606F092F9DF
:1025F000C0F30B00608210BD10B5FEF7EFF9BDE827
:1026000010400148FEF782B90020014070B5044631
:102610000848C4E90001022005F028F800250580DB
:10262000A060022005F022F80580E0606582204667
:1026300070BD0000C0970008202900D2C175704706
:10264000C17470478174704741757047052900D285
:102650008175704710B504460020E1680880207D30
:102660000028E068417802D041F0010101E001F06A
:10267000FE014170607D0028E068417802D041F0A1
:10268000200101E001F0DF014170A07C0028E0683A
:10269000417802D041F0400101E001F0BF014170FA
:1026A000E07C0028E068417802D041F0800101E040
:1026B00001F07F014170E168E27D08781043087005
:1026C000A27DE16840EA421008702046FFF7C6FB91
:1026D000207C401CC0B22074142801D9142020741E
:1026E00010BD00001CB50AA10446D1E90001CDE9E6
:1026F0000001062269466068FFF7D4FA207C401C7E
:10270000C0B22074142801D9142020741CBD00000C
:10271000A40932B5F589000010B5FFF7E9FB0749B8
:10272000016009214172817A41F0310181720021F9
:102730008174C1740175417510BD0000D097000807
:102740003EB50446012956DB481E042802D240F259
:102750008F102EE0481F052802D240F21F3028E0DB
:10276000A1F10A00282802D240F2DB5021E0A1F1B9
:102770003200322802D240F65F101AE0A1F1640064
:10278000B0F5C87F02D241F2670012E0A1F5FA70FD
:1027900040F6C412904202D242F2CF0009E0A1F604
:1027A000B830B0F5FA6F02D244F29F1001E04AF25D
:1027B0000F40A08110484143A089401C91FBF0F0DC
:1027C000401EA0600190A089ADF800000020ADF887
:1027D0000800ADF8020020798DF80A0069462069EA
:1027E000FEF74CFE01212069FEF724FE012211466E
:1027F0002069FEF73BFE3EBD204801000121FEF7A7
:1028000029BE08B50175427502788DF800208DF853
:102810000110407D8DF8020001208DF8030068460C
:10282000FEF7CCF908BD0121FEF707BE0021FEF737
:1028300007BE00690021FEF703BE0121FEF700BEBE
:1028400000690121FEF7FCBD10B504460161B1F13C
:10285000804F07D01A48814209D11D2001212060F4
:1028600002201BE01C2001212060084616E01548CC
:10287000814204D11E200121206004200EE0124874
:10288000814204D1322001212060082006E00F4857
:10289000814205D13720206001212020FEF7D6F9A2
:1028A000002211462046FFF7ACFF002020710121D5
:1028B0002046FFF745FF2046FFF7BBFF204610BD2F
:1028C0000004004000080040000C004000140040DC
:1028D00070B50446C06C00792076A06DFFF700FD4E
:1028E00030B194F82400012802D1204604F0EAFC1B
:1028F00094F82000012803D0207E012528B109E0AA
:102900002046BDE8704001F023BF204601F002FDE3
:1029100084F82150204601F037FD94F82300002868
:102920004DD0204601F01AFE94F82500002846D02C
:10293000204600F04FF994F8260000283FD02046AA
:1029400004F0CCFB94F82400002838D0E06CFFF7AA
:10295000E7FD68B184F82150204602F0F5FE2046DC
:1029600004F09CF9204603F0E3FBE06CFFF700FE67
:10297000204602F0E1F8204602F0A2FC204602F0D8
:10298000CDFE0F4CA06DFFF725FBE06DFFF722FB9E
:10299000206EFFF71FFB606EFFF71CFBA06EFFF7BA
:1029A00019FBE06EFFF716FB206FFFF713FB606F5C
:1029B000FFF710FBA06FBDE87040FFF70BBB70BDC9
:1029C0000800002070B5044602F0DCF994F82400F9
:1029D00000286FD0204603F01DF894F8230000284B
:1029E00068D0204603F0BAF894F82500002861D09A
:1029F000204602F0AFFB94F8260000287FD0204646
:102A000002F046FC94F82700002878D094F82100C2
:102A1000002874D03A4DA8780B2866D2DFE800F081
:102A2000061117252D3B41464B515500A86DFFF768
:102A3000C7FA207E0028206D15D100218183206DEA
:102A40000FE0E86DFFF7BCFA0021A06D12E0286EE0
:102A5000FFF7B6FA207E0028606D04D10021818343
:102A6000606D032110E002210EE0686EFFF7A8FA06
:102A70000121A06DFFF779FC37E0A86EFFF7A0FAFF
:102A8000207E20B10221686DFFF769FA2DE0686DA4
:102A900000218183E5E7E86EFFF792FA0221A06D3D
:102AA000E8E7286FFFF78CFA206D08E0686FFFF702
:102AB00087FA1AE023E0A86FFFF782FA606D092118
:102AC000E2E7E06DFFF7C6FD0FE0207E012802D1AE
:102AD000A06EFFF7AFFCE978A06D49B2FFF72CFCC0
:102AE000E878401C00F00300E870A878401CC0B2F1
:102AF000A8700B2803D10020A87084F8210070BDB5
:102B00000800002010B50446806DFFF709FC606ED8
:102B1000FFF758FC207E02280AD0207E012809D029
:102B20002069FFF72DF86069BDE81040FFF728B86D
:102B3000206900E06069BDE81040FFF724B800009C
:102B40002DE9F041214C40F2DC57214E226A40F23F
:102B50004C45B2F90020BA4209DB626AB2F90020A2
:102B6000AA4204DBE269B2F90020B2422CDD002265
:102B700002F0C2F9206A44F62062B0F900104FF466
:102B8000FA70B942216E01DA8A8301E000238B8357
:102B90004882616AB1F90010A942616E02DA8A8343
:102BA000488202E0488200228A83E169B1F900107C
:102BB000B142E16D02DD4BF2E01200E000228A83B7
:102BC00048820020BDE8F0810120FBE708000020DA
:102BD000E0FCFFFF70B5044690F8260000260028B0
:102BE0001DD1E06990F9002075490B250B2AC96CAD
:102BF00016DA0846FFF7BCF8002810D03046FFF779
:102C000067F9417809070AD18178662907D1C17827
:102C10004F2904D100794B2801D1E069057070BDBE
:102C200090F901200B2A18DA0846FFF7A1F80028CE
:102C3000F5D03046FFF74CF9417801F00F0101293A
:102C4000EDD181786629EAD1C1784F29E7D10079A1
:102C50004B28E4D1E069457070BD90F902200B2A41
:102C600018DA0846FFF784F80028F5D03046FFF759
:102C70002FF9417801F00F010229EDD18178662901
:102C8000EAD1C1784F29E7D100794B28E4D1E06936
:102C9000857070BD90F903200B2A18DA0846FFF7FB
:102CA00067F80028F5D03046FFF712F9417801F0B7
:102CB0000F010329EDD181786629EAD1C1784F2926
:102CC000E7D100794B28E4D1E069C57070BD90F977
:102CD00004200B2A18DA0846FFF74AF80028F5D036
:102CE0003046FFF7F5F8417801F00F010429EDD1E6
:102CF00081786629EAD1C1784F29E7D100794B283C
:102D0000E4D1E069057170BD90F905200B2A18DA4D
:102D10000846FFF72DF80028F5D03046FFF7D8F821
:102D2000417801F00F010529EDD181786629EAD1BA
:102D3000C1784F29E7D100794B28E4D1E06945718A
:102D400070BD90F906200B2A18DA0846FFF710F834
:102D50000028F5D03046FFF7BBF8417801F00F01AD
:102D60000629EDD181786629EAD1C1784F29E7D1CA
:102D700000794B28E4D1E069857170BD90F90700B6
:102D80000B2818DA0846FEF7F3FF0028F5D0304686
:102D9000FFF79EF8417801F00F010729EDD1817806
:102DA0006629EAD1C1784F29E7D100794B28E4D1CF
:102DB000E069C57170BD012084F8260070BD000077
:102DC00008000020002280F826201146C3695A54CA
:102DD000491C0D29FADB704770B53D4E0C462DEDB0
:102DE000088B44F25061B069B0F90050F069B0F955
:102DF0000000084406F047F89FED36AB53EC1A2B61
:102E000006F0A8F89FED359B53EC192B06F0A2F8BD
:102E10009FED34BB53EC1B2B05F0AEFE41EC180BC1
:102E2000306AB0F9000006F02EF853EC1A2B06F0C9
:102E300091F853EC192B06F08DF853EC1B2B05F091
:102E40009BFE41EC100B51EC190B53EC102B06F0D0
:102E50008DFA53EC182B06F089FA41EC100B04F0B4
:102E60004FFF9FED221B51EC100B53EC112B06F082
:102E700071F841EC190BB0EE480AF0EE680A04F064
:102E80003FFF9FED1C1B51EC100B53EC112B06F078
:102E900061F853EC192B05F0BBFD9FED181B53ECAB
:102EA000112B06F055F906D2604200B2002C04DA6C
:102EB00014498D4205DC002003E043F20C018D42F1
:102EC000F9DABDEC088BBDE8704002F0B9BF000034
:102ED000080000200000000000000040E08644548C
:102EE000FB210940000000000094E14000000000C8
:102EF0008047EA4000000000003FEB400000000077
:102F00000011E240F4CFFFFF2DE9F04F1F462DEDF9
:102F1000108B83B014460E4683469FEDFDCB90F890
:102F200022004FF0000A9FEDFCAB9FEDFDBBFE4D74
:102F30000028A5F180086ED104F1080090EC040B84
:102F400051EC100B53EC112B05F062FD41EC100B12
:102F500004F0D6FE53EC1A2B51EC100B05F0FAFFDF
:102F600041EC180B94ED020B04F0CAFE53EC1B2B42
:102F700051EC100B05F0EEFF53EC182B06F0F6F9B0
:102F800041EC180B94ED000B04F0BAFE53EC182B37
:102F900051EC100B05F0DEFF41EC100B85ED000B42
:102FA00094ED000B04F018FF53EC182B51EC100BB0
:102FB00005F0D0FF41EC100B04F1080085ED020B89
:102FC00090EC040B51EC100B53EC112B05F020FD91
:102FD00041EC100B04F000FF53EC1A2B51EC100BDA
:102FE00005F0B8FF41EC180B94ED020B04F0F4FE71
:102FF00053EC1B2B51EC100B05F0ACFF53EC182BD2
:1030000006F0B4F941EC100B012185ED040B88F8B2
:1030100008A08BF8221007EB47099FEDC4DB9FED5A
:10302000C5EB9FEDC6FB9FEDC78B9FEDC89B012EA7
:1030300006D0022E7ED0032E7DD0002E7CD0F0E272
:1030400004F1080090EC040B51EC100B53EC112B25
:1030500005F0DEFC41EC100B04F052FE53EC1A2B91
:1030600051EC100B05F076FF41EC1C0B94ED020BBC
:1030700004F046FE53EC1B2B51EC100B05F06AFFDD
:1030800053EC1C2B06F072F941EC1C0B98F908006C
:10309000022802D003280FD036E094ED000B04F094
:1030A0002FFE53EC1C2B51EC100B05F053FF41ECA1
:1030B000100B85ED000B27E004F1080090EC040BE9
:1030C00051EC100B53EC112B05F0A2FC41EC100B52
:1030D00004F082FE53EC1A2B51EC100B05F03AFF72
:1030E00041EC1A0B94ED020B04F076FE53EC1B2B13
:1030F00051EC100B05F02EFF53EC1A2B06F036F9AD
:1031000041EC100B85ED040B484605F0BCFE41EC8C
:103110001A0B94ED000B04F05FFE53EC1C2B51ECEA
:10312000100B05F017FF53EC1A2B05F071FC41EC66
:10313000100B02E0D2E075E2B5E385ED020B53EC33
:10314000102B05F007FF95ED000B41EC1A0B53EC2B
:10315000102B51EC100B05F0FDFE53EC1A2B05F073
:1031600057FC95ED040B41EC1B0B53EC102B51EC71
:10317000100B05F0EFFE53EC1B2B05F049FC41EC66
:103180001A0BB0EE4B0AF0EE6B0A04F091FEB0EEB3
:1031900040BAF0EE60BAB0EE4A0AF0EE6A0A04F005
:1031A00087FEB0EE40CAF0EE60CA9FED6A0B53ECAA
:1031B000102B95ED000B51EC100B05F08FFE0CD28F
:1031C000D8F85820A2F81AA0D8F85C20A2F81AA0C3
:1031D000D8F86000A0F81AA01FE295ED000B53ECA0
:1031E000102B95ED020B51EC100B05F0C5FC41ECDA
:1031F000100B04F011FC53EC182B51EC100B05F0E4
:10320000A9FE53EC192B05F0B7FC41EC100B53EC65
:103210001D2B8DED000B51EC1C0B05F09BFE41ECC2
:103220001C0B53EC1E2B51EC1A0B05F0F1FB53EC6D
:103230001F2B06F09BF853EC1C2B05F09DFC41EC7A
:10324000100B04F041FAB0EE40CAF0EE60CA95ED02
:10325000040B53EC1B2B51EC100B05F08DFC41ECD7
:10326000100B04F0D9FBB0EE401AF0EE601A53ECEC
:103270001C2B51EC110B05F0CBFB9FED381B53ECD5
:10328000112B06F073F853EC182B05F063FE53EC8A
:10329000192B05F071FC53EC182B06F067F89FED25
:1032A000310B41EC1B0B53EC1A2B51EC100B06F0BD
:1032B0005DF89FED2E1B53EC112B05F05DFC41ECEE
:1032C000100B04F001FA53EC182B51EC100B05F025
:1032D00041FE53EC192B05F04FFC89E104F1080085
:1032E00090EC040B51EC100B53EC112B05F090FB00
:1032F00041EC100B04F004FD53EC1A2B51EC100BB5
:1033000005F028FE41EC1C0B94ED020B32E00000AE
:1033100000000000000000009A99999999D180401E
:1033200000000000007081408800002000000000C4
:103330000070914000000000100113415C8FC2F545
:10334000ECAD1141000000000094D140E0864454EF
:10335000FB2109400000000000C07240C154336BE3
:1033600029209D3FAE47E17A7E5722416666666618
:103370006E54224104F0C4FC53EC1B2B51EC100B97
:1033800005F0E8FD53EC1C2B05F0F0FF41EC1C0BA5
:1033900098F90800012802D003280FD036E094EDF8
:1033A000000B04F019FD53EC1C2B51EC100B05F035
:1033B000D1FD41EC100B85ED020B27E004F1080074
:1033C00090EC040B51EC100B53EC112B05F020FB8F
:1033D00041EC100B04F000FD53EC1A2B51EC100BD8
:1033E00005F0B8FD41EC1A0B94ED020B04F0F4FC6F
:1033F00053EC1B2B51EC100B05F0ACFD53EC1A2BCE
:1034000005F0B4FF41EC100B85ED040B09EBD9700E
:10341000401005F038FD41EC1A0B94ED000B04F060
:103420006FFC53EC1C2B51EC100B05F093FD53EC8F
:103430001A2B05F0EDFA41EC1A0B85ED00AB95ED7A
:10344000020B53EC102B51EC100B05F083FD41ECFB
:103450001B0B53EC1A2B51EC1A0B05F07BFD53ECB4
:103460001B2B05F0D5FA95ED040B41EC1B0B53EC2F
:10347000102B51EC100B05F06DFD53EC1B2B05F0E0
:10348000C7FA41EC1A0BB0EE4B0AF0EE6B0A04F0EF
:103490000FFDB0EE40BAF0EE60BAB0EE4A0AF0EEC0
:1034A0006A0A04F005FDB0EE40CAF0EE60CA95ED80
:1034B000000B53EC102B95ED020B51EC100B05F0AB
:1034C0005BFB41EC100B04F0A7FA53EC182B51EC0A
:1034D000100B05F03FFD53EC192B05F04DFB41ECB3
:1034E000100B53EC1D2B8DED000B51EC1C0B05F05C
:1034F00031FD41EC1C0B53EC1E2B51EC1A0B05F06B
:1035000087FA53EC1F2B05F031FF53EC1C2B05F011
:1035100033FB41EC100B04F0D7F8B0EE40CAF0EEEC
:1035200060CA95ED040B53EC1B2B51EC100B05F00E
:1035300023FB41EC100B04F06FFAB0EE401AF0EEF2
:10354000601A53EC1C2B51EC110B05F061FA1FEDC6
:103550007D1B53EC112B05F009FF53EC182B05F0E4
:10356000F9FC53EC192B05F007FB53EC182B05F075
:10357000FDFE53EC1A2B41EC1B0B1FED860B51EC9F
:10358000100B05F0F3FE1FED871B53EC112B05F01C
:10359000F3FA41EC100B04F097F853EC182B51ECB4
:1035A000100B05F0D7FC53EC192B05F0E5FA41ECB4
:1035B000180B9FEDD70B53EC102B95ED000B51EC36
:1035C000100B05F08BFC02D2002FFFF6F9AD9FED3A
:1035D000D20B53EC102B95ED000B51EC100B05F0BA
:1035E000B7FD1AD27900032091FBF0F751EC180BCC
:1035F00005F01AFC814651EC1B0B05F015FC9DED06
:10360000000B044651EC100B05F00EFC01464B4636
:1036100022460097584601F0D7FC88F8086095EDDF
:1036200000CB49E104F1080090EC040B51EC100BC5
:1036300053EC112B05F0ECF941EC100B04F060FB9E
:1036400053EC1A2B51EC100B05F084FC41EC1C0BD5
:1036500094ED020B04F054FB53EC1B2B51EC100BBC
:1036600005F078FC53EC1C2B05F080FE41EC1C0BA4
:1036700098F90800012802D002280FD01CE094ED30
:10368000000B04F0A9FB53EC1C2B51EC100B05F0C4
:1036900061FC41EC100B85ED020B0DE094ED000B8D
:1036A00004F02EFB53EC1C2B51EC100B05F052FCDC
:1036B00041EC100B85ED000B384605F0E4FB41ECC6
:1036C0001C0B04F1080090EC040B51EC100B53ECB4
:1036D000112B05F09DF941EC100B04F07DFB53EC30
:1036E0001A2B51EC100B05F035FC41EC1A0B94ED44
:1036F000020B04F071FB53EC1B2B51EC100B05F08B
:1037000029FC53EC1A2B05F031FE53EC1C2B05F071
:103710007FF941EC1A0B85ED04AB95ED020B53ECF0
:10372000102B51EC100B05F015FC95ED000B41EC46
:103730001B0B53EC102B51EC100B05F00BFC53EC56
:103740001B2B05F065F941EC1B0B53EC1A2B51ECCC
:103750001A0B05F0FFFB53EC1B2B05F059F941EC5C
:103760001A0BB0EE4B0AF0EE6B0A04F0A1FBB0EEC0
:1037700040BAF0EE60BAB0EE4A0AF0EE6A0A04F01F
:1037800097FB53EC1D2B51EC100B05F0E3FB41ECC8
:103790001C0B53EC1E2B51EC1A0B05F039F953ECB2
:1037A0001F2B05F0E3FD53EC1C2B05F0E5F941EC74
:1037B000100B03F089FFB0EE40CAF0EE60CA95ED41
:1037C000040B53EC1B2B51EC100B05F0D5F941EC1D
:1037D000100B04F021F9B0EE401AF0EE601A53EC31
:1037E0001C2B51EC110B05F013F99FED4D1B53EC05
:1037F000112B05F0BBFD53EC182B05F0ABFB53EC84
:10380000192B05F0B9F953EC182B05F0AFFD53EC6B
:103810001A2B41EC1B0B9FED440B51EC100B05F0E8
:10382000A5FD9FED431B53EC112B05F0A5F941ECD1
:10383000100B03F049FF53EC182B51EC100B05F063
:1038400089FB53EC192B05F097F99FED3B0B41ECED
:103850001A0B53EC102B95ED000B51EC100B05F0EF
:103860003DFBFFF4ADAC032097FBF0F751EC1A0BD6
:1038700005F0DAFA824651EC1B0B05F0D5FA94ED0F
:10388000000B814653EC182B51EC100B05F062FB3A
:1038900053EC192B05F070F905F0C6FA01465346B2
:1038A0004A460097B6E6002002F0CAFA002002F06D
:1038B000F3F9002002F068FBD8F85C004446418B25
:1038C000D8F86000408B084401B2D8F86400FEF7D5
:1038D00029FBA06DB0F91A0005F0D5FA9FED181B71
:1038E00053EC112B05F036FB05F09EFA404201B275
:1038F000A06EFEF717FB584601F0A4F803B0B0EE37
:103900004C0AF0EE6C0ABDEC108BBDE8F08F0000A5
:103910000000000000A074400000000000406F4064
:10392000C154336B29209D3FAE47E17A7E57224137
:10393000666666666E5422410000000000C0724058
:1039400026E4839ECD2AF63F70B508462DED108BF8
:1039500082B09FEDFD8BFE4C05F095FA41EC190B02
:10396000E06944F25061B0EE48BAB0F90000F0EE00
:1039700068BAB0EE48AAF0EE68AA084405F083FAE7
:103980009FEDF4FB53EC1F2B05F0E4FA9FEDF3DB06
:1039900053EC1D2B05F0DEFA9FEDF21B53EC112BBF
:1039A00005F0EAF841EC1C0B206AB0F9000005F0C4
:1039B0006AFA53EC1F2B05F0CDFA53EC1D2B05F0E2
:1039C000C9FA9FEDE81B53EC112B05F0D5F841EC3B
:1039D0001E0B606AB0F9000005F055FA53EC1F2B7E
:1039E00005F0B8FA53EC1D2B05F0B4FA9FEDDD1B82
:1039F00053EC112B05F0C0F841EC1F0B53EC1E2BC0
:103A000051EC1D0B05F0B2FC53EC1C2B05F0AEFC89
:103A100041EC100B53EC1C2B8DED000B9FEDD30BE9
:103A200051EC100B05F0A2FC41EC1D0B53EC1E2BCE
:103A300051EC1F0B05F09AFC53EC1D2B04F0E8FF32
:103A400041EC1E0BB0EE4C0AF0EE6C0A04F058F993
:103A50009FEDC81B51EC100B53EC112B05F07AFABB
:103A600041EC1C0B9DED000B04F04AF99FEDC31BCC
:103A700051EC100B53EC112B05F06CFA41EC1D0BC3
:103A800051EC1C0B53EC1D2B04F0C2FF0E460546F7
:103A900046EC1C0BB0EE4E0AF0EE6E0A04F09CF9F8
:103AA0009FEDB81B51EC100B53EC112B05F052FAA3
:103AB00053EC1C2B05F082FB41EC1F0B9FEDB3EB8D
:103AC00051EC1C0B53EC1E2B05F008FA06D353ECFB
:103AD0001E2B51EC1F0B05F001FA06D253EC182BEC
:103AE00051EC190B05F034FB3AD353EC182B51EC85
:103AF000190B05F0F3F908D29FEDA60B51EC1C0B46
:103B000053EC102B05F0EAF92AD3B0EE480AF0EE98
:103B1000680A53EC102B51EC190B05F0DFF90DD2AC
:103B2000206A43F2C821B0F90000884218DC606ABC
:103B300043F69821B0F90000884211DCB0EE49AAA2
:103B4000F0EE69AA46EC1B5B53EC1D2B51EC190BF4
:103B500005F000FA53EC1B2B05F00EF841EC1B0BA3
:103B600051EC1A0B53EC1B2B05F000FC41EC1D0B28
:103B700053EC182B51EC1A0B05F0EAFA04D2B0EE14
:103B80004AEAF0EE6AEA05E051EC1A0B04F033FF62
:103B900041EC1E0BB0EE48CAF0EE68CA53EC1C2B89
:103BA00051EC1B0B05F0D4FA04D2B0EE4B0AF0EE48
:103BB0006B0A05E051EC1B0B04F01DFF41EC100BF0
:103BC00053EC1E2B51EC100B05F0C2FA53EC1C2BDE
:103BD0000CD251EC1B0B05F0BBFA04D2B0EE4B8AB1
:103BE000F0EE6B8A12E051EC1B0B0BE051EC1A0B60
:103BF00005F0AEFA04D2B0EE4A8AF0EE6A8A05E029
:103C000051EC1A0B04F0F7FE41EC180B53EC1C2B93
:103C100051EC1D0B05F09CFA04D2B0EE4DEAF0EE2B
:103C20006DEA05E051EC1D0B04F0E5FE41EC1E0BC6
:103C300053EC1C2B51EC180B05F08AFA04D2B0EEB1
:103C4000480AF0EE680A05E051EC180B04F0D3FEC8
:103C500041EC100B53EC1E2B51EC100B05F078FAD5
:103C600053EC1C2B07D251EC180B05F071FA12D350
:103C700051EC180B0BE051EC1D0B05F069FA04D266
:103C8000B0EE4D8AF0EE6D8A05E051EC1D0B04F0AC
:103C9000B2FE41EC180B53EC1C2B51EC190B05F048
:103CA00057FA05D351EC190B04F0A5FE41EC190BA2
:103CB00053EC182B51EC1B0B04F05EFF53EC192B4B
:103CC00005F048F941EC1B0B53EC182B51EC1A0B87
:103CD00004F052FF53EC192B05F03CF941EC1A0BA0
:103CE00053EC182B51EC1D0B04F046FF53EC192B31
:103CF00005F030F941EC180B51EC1B0B05F094F872
:103D000000B201F0C9FF51EC1A0B04F074FE05F08B
:103D10008BF800B202F038F951EC180B04F06BFE8E
:103D200005F082F800B201F05FFCE06D408B30B12D
:103D3000206E408B18B1606E408B002838D1002077
:103D400001F0AAFF002029E00000000000000000B0
:103D5000080000200000000000000040E0864454FD
:103D6000FB210940000000000094E140E08644543B
:103D7000FB21F93F00000000003FEB400000000085
:103D80008047EA4000000000006AD84000000000C0
:103D90000088E340000000000046DE4002F0F4F836
:103DA00002B00020BDEC108BBDE8704001F01CBCDF
:103DB00002B0BDEC108B70BD2DE9F34F8B462DED9D
:103DC000108B87B044F2506A9FEDFD8BFE49894607
:103DD0008A69B0EE489AF0EE689AB2F900600A6A11
:103DE000B2F900504A6AC969B2F90040B1F900104D
:103DF00001EB0A0005F047F89FEDF4EB53EC1E2BA6
:103E000005F0A8F89FEDF3CB53EC1C2B05F0A2F8BE
:103E10009FEDF2FB53EC1F2B04F0AEFE9FEDF1BBC8
:103E200053EC1B2B04F0F4FD41EC1A0B284605F073
:103E30002AF853EC1E2B05F08DF853EC1C2B05F0E3
:103E400089F853EC1F2B04F097FE41EC1D0B204624
:103E500005F019F853EC1E2B05F07CF853EC1C2BE5
:103E600005F078F853EC1F2B04F086FE41EC1F0B95
:103E700053EC1D2B51EC1C0B05F078FA53EC1A2B6C
:103E800005F074FA41EC1E0B53EC1A2B51EC1B0B92
:103E900005F06CFA53EC1B2B04F0BAFD41EC1C0B43
:103EA00053EC1D2B51EC1F0B05F060FA53EC1C2B4F
:103EB00004F0AEFD41EC100B8DED040BB0EE4A0AA0
:103EC000F0EE6A0A03F01CFF9FEDC8DB51EC100B0B
:103ED00053EC1D2B05F03EF841EC100B8DED020B61
:103EE000B0EE4E0AF0EE6E0A03F00AFF9FEDC1FB42
:103EF00051EC100B53EC1F2B05F02CF841EC1C0B74
:103F000053EC1B2B51EC1A0B05F030FA804641ECB8
:103F1000100B019103F060FF53EC1D2B51EC100BC3
:103F200005F018F841EC1A0B53EC1B2B51EC1E0B4F
:103F300004F06EFD074641EC100B009103F04CFFBE
:103F400053EC1F2B51EC100B05F004F841EC1B0B4C
:103F5000009941EC107B03F0D3FE53EC1F2B51EC86
:103F6000100B04F0F7FF41EC1E0B019941EC108B94
:103F700003F0C6FE53EC1D2B51EC100B04F0EAFFCE
:103F800053EC1E2B04F044FD41EC1D0B9DED040B86
:103F900003F022FF9FED991B51EC100B53EC112BFA
:103FA00004F0D8FF53EC1D2B05F008F941EC1E0B73
:103FB0009FED940B51EC1D0B53EC102B04F08EFF76
:103FC00037D2002440F25227BBF1000F0DDD1798C5
:103FD00000F0BEF9002827D042F22830CDE9014098
:103FE00053464242CDF800A018E04FF4FA639D42D8
:103FF00076DB06F2077041F21751884206D244F28E
:104000006820CDE90140814A009307E043F66C1037
:10401000CDE9014041F6C8137D4A0093CDE903473D
:104020003146179800F0F0FB07B0BDEC108BBDE8EF
:10403000FC8F9FED780B51EC1E0B53EC102B04F012
:104040004DFF4DD353EC1B2B51EC1A0B05F080F8B0
:10405000584604D204F017FF04F0CDFC01E004F050
:1040600012FFB0EE48DAF0EE68DA41EC1A0B53ECCE
:104070001D2B04F033FF05D243F2C82085421BDC20
:10408000844219DC9DED020BB0EE4A8AF0EE6A8A9A
:1040900053EC1C2B51EC100B04F0BAFC41EC190B47
:1040A00053EC1C2B51EC1A0B04F054FF53EC192B5E
:1040B00004F062FD41EC190B51EC180B53EC192B79
:1040C00005F054F941EC1C0B53EC1D2B51EC180B73
:1040D00005F03EF805D2B0EE48BAF0EE68BA06E058
:1040E0000AE151EC180B04F086FC41EC1B0B53EC7D
:1040F0001D2B51EC190B05F02BF804D2B0EE490A38
:10410000F0EE690A05E051EC190B04F074FC41EC87
:10411000100B53EC1B2B51EC100B05F019F853EC62
:104120001D2B0CD251EC190B05F012F804D2B0EE95
:1041300049BAF0EE69BA12E051EC190B0BE051EC00
:10414000180B05F005F804D2B0EE48BAF0EE68BAE4
:1041500005E051EC180B04F04EFC41EC1B0B53EC4A
:104160001D2B51EC1C0B04F0F3FF04D2B0EE4CEA13
:10417000F0EE6CEA05E051EC1C0B04F03CFC41EC69
:104180001E0B53EC1D2B51EC1B0B04F0E1FF04D272
:10419000B0EE4B0AF0EE6B0A05E051EC1B0B04F09D
:1041A0002AFC41EC100B53EC1E2B51EC100B04F0CD
:1041B000CFFF53EC1D2B37D251EC1B0B2EE0000030
:1041C00000000000000000000800002000000000C7
:1041D00000000040E0864454FB210940000000003C
:1041E0000094E140E0864454FB21F93F00000000C8
:1041F000003FEB40000000008047EA400000000064
:10420000006AD84000000000004CDD4018FCFFFFB1
:104210001CF3FFFF000000000011E24004F098FFD3
:1042200012D351EC1B0B0BE051EC1C0B04F090FF74
:1042300004D2B0EE4CBAF0EE6CBA05E051EC1C0BB7
:1042400004F0D9FB41EC1B0B53EC1D2B51EC1A0B6A
:1042500004F07EFF05D351EC1A0B04F0CCFB41ECCB
:104260001A0B53EC1B2B51EC190B04F085FC53EC8F
:104270001A2B04F06FFE41EC190B53EC1B2B51EC85
:10428000180B04F079FC53EC1A2B04F063FE41EC9C
:10429000180B53EC1B2B51EC1C0B04F06DFC53EC76
:1042A0001A2B04F057FE41EC1A0B51EC190B04F0D9
:1042B000BBFD00B201F0F0FC51EC180B04F09BFBCD
:1042C00004F0B2FD00B201F05FFE51EC1A0B04F0F5
:1042D00092FB04F0A9FD00B201F086F9D9F85C1058
:1042E0004846498B41B1016E498B29B1D9F8640028
:1042F000408B00287FF498AE002001F0CDFC002018
:1043000001F042FE07B00020BDEC108BBDE8FC4F71
:1043100001F06AB9026D00215183406D41830B4861
:10432000426D5183826D5183C26D5183026E518300
:10433000426E5183826E5183C26E5183026F5183EC
:10434000426F5183806F4183704700000800002056
:1043500070B540F2522405462146FEF7F1FB0028D5
:104360000DD00848C06BB0F90000A0F24E2009281B
:1043700006D300222146284600F0BEFD002070BD75
:10438000012070BD080000202DE9F041044690F89E
:104390002300002700281BD1E16991F900206E4E0F
:1043A0000B250B2AF06C15DAFDF7E2FC00280FD084
:1043B0003846FDF78DFD4178090709D181784C29F0
:1043C00006D1B169C2784A7000790870E069057059
:1043D000BDE8F08191F901200B2A16DAFDF7C8FC3F
:1043E0000028F5D03846FDF773FD417801F00F0144
:1043F0000129EDD181784C29EAD1F169C2784A705E
:1044000000790870E0694570E2E791F902200B2A13
:1044100016DAFDF7ADFC0028DAD03846FDF758FD76
:10442000417801F00F010229D2D181784C29CFD1F6
:10443000316AC2784A7000790870E0698570C7E710
:1044400091F903200B2A16DAFDF792FC0028BFD061
:104450003846FDF73DFD417801F00F010329B7D142
:1044600081784C29B4D1716AC2784A700079087099
:10447000E069C570ACE791F904200B2A16DAFDF764
:1044800077FC0028A4D03846FDF722FD417801F0E2
:104490000F0104299CD181784C2999D1B16AC27845
:1044A0004A7000790870E069057191E791F905207B
:1044B0000B2A16DAFDF75CFC002889D03846FDF798
:1044C00007FD417801F00F01052981D181784C2940
:1044D0009AD1F16AC2784A7000790870E069457132
:1044E00076E791F906200B2A16DAFDF741FC002841
:1044F0008AD03846FDF7ECFC417801F00F0106291F
:104500009DD181784C299AD1316BC2784A7000795B
:104510000870E06985715BE791F907100B2916DADD
:10452000FDF726FC00288AD03846FDF7D1FC4178FB
:1045300001F00F0107299DD181784C299AD1716B27
:10454000C2784A7000790870E069C57140E70120BF
:1045500084F823003CE700000800002070B5044602
:1045600090F82500002600281DD1E06990F9003060
:10457000764A0B250B2BD16C16DA0846FDF7F8FBB3
:10458000002810D03046FDF7A3FC417809070AD176
:104590008178622907D1C1784F2904D100794B284D
:1045A00001D1E069057070BD90F901300B2B18DA6C
:1045B0000846FDF7DDFB0028F5D03046FDF788FC06
:1045C000417801F00F010129EDD181786229EAD10A
:1045D000C1784F29E7D100794B28E4D1E0694570D3
:1045E00070BD90F902300B2B18DA0846FDF7C0FBBE
:1045F0000028F5D03046FDF76BFC417801F00F0143
:104600000229EDD181786229EAD1C1784F29E7D119
:1046100000794B28E4D1E069857070BD90F90330D2
:104620000B2B18DA0846FDF7A3FB0028F5D030461F
:10463000FDF74EFC417801F00F010329EDD181789F
:104640006229EAD1C1784F29E7D100794B28E4D11A
:10465000E069C57070BD90F904300B2B18DA08467C
:10466000FDF786FB0028F5D03046FDF731FC417898
:1046700001F00F010429EDD181786229EAD1C178D6
:104680004F29E7D100794B28E4D1E069057170BD6D
:1046900090F905300B2B18DA0846FDF769FB002866
:1046A000F5D03046FDF714FC417801F00F010529E3
:1046B000EDD181786229EAD1C1784F29E7D100791B
:1046C0004B28E4D1E069457170BD90F906300B2BA1
:1046D00018DA0846FDF74CFB0028F5D03046FDF708
:1046E000F7FB417801F00F010629EDD181786229AD
:1046F000EAD1C1784F29E7D100794B28E4D1E069AC
:10470000857170BD90F907000B2818DA0846FDF78F
:104710002FFB0028F5D03046FDF7DAFB417801F099
:104720000F010729EDD181786229EAD1C1784F299B
:10473000E7D100794B28E4D1E069C57170BD012053
:1047400084F825000020507070BD00000800002093
:1047500010B590F91800214C01280BD0022827D061
:1047600010BD606CFDF7B0FA0146E06CFDF7B1FAE0
:104770000028F6D0606CFDF7B4FA0028F1D108E00B
:10478000E06CFDF7A1FA0146606CFDF7A2FA002883
:10479000F6D0E06CFDF7A5FA0028F1D110BD206C31
:1047A000FDF792FA0146E06CFDF793FA0028F6D087
:1047B000206CFDF796FA0028F1D108E0E06CFDF7D7
:1047C00083FA0146206CFDF784FA0028F6D0E06CED
:1047D000FDF787FA0028F1D110BD00000800002085
:1047E000002280F823201146C3695A54491C0D2920
:1047F000FADB7047002280F825201146C3695A541D
:10480000491C0D29FADB70472DE9FF4F95B00F4683
:1048100023A91D46B1E8000F1646202104A8FBF786
:104820004DFD20210CA8FBF749FD654C48F6986228
:10483000A069B0F90000381A0490E069B0F90000EE
:10484000301A0590206AB0F90000281A0690606AB4
:10485000B0F900102298401A0790A06AB0F9001031
:10486000A8EB01000890E06AB0F90010A9EB010084
:104870000990206BB0F90010AAEB0100CDE90A0BFA
:104880000498C0EBC001C1EBC010C11700EB117060
:1048900000110C90059948F69860414341F2ED7083
:1048A00091FBF0F10D910699514391FBF0F10E91BE
:1048B0000799514391FBF0F00F90089840F2755121
:1048C0004843C82190FBF1F01090099840F27551CF
:1048D00048434FF4967190FBF1F011900A9840F61E
:1048E000DF2148434FF47A7190FBF1F012900020E1
:1048F00013900CA9159802F0F9FA054600220B99BD
:10490000159800F0F9FA60784042054255D0EE174C
:10491000CDE902561298C117CDE900010A9A206F1D
:10492000D317FDF7FAFBCDE902561198099AC11782
:10493000CDE90001D3172349E06EFDF75EFBCDE919
:1049400002561098089AC117CDE90001D317A06E3E
:10495000FDF7E3FBCDE902560F98079AC117CDE9A1
:104960000001D3171849606EFDF747FB0E98CDE99B
:104970000256C117CDE90001069A1449D317206EDB
:10498000FDF73BFBCDE902560D98C117CDE90001BB
:10499000059A0F49D317E06DFDF72FFBCDE90256BD
:1049A0000C98049AC117CDE90001D3170949A06DED
:1049B000FDF723FB159800F045F819B0BDE8F08F1E
:1049C0000800002061600008E9550008895F0008C0
:1049D000995C0008415E000830B5C46B836B00220F
:1049E000B4F90040B3F9003004EBD474C4F34705C4
:1049F000046C406C03EBD373B4F90040B0F90000D1
:104A0000C3F3470304EBD47400EBD0701146C4F336
:104A10004704C0F34700322B01D901221946322D39
:104A200001D9521C2944322C01D9521C214432286C
:104A300001D9521C01441AB1B1FBF2F0C0B230BD31
:104A40000020FBE72DE9FE4F3A484FF00008C4462E
:104A5000416D47468B46497C46464546444643465B
:104A600042460B2901D00C2901D14FF00108816D7C
:104A70000291497C0B2901D00C2901D14FF0010C86
:104A8000C16D0191497C0B2901D00C2900D101276E
:104A9000016E0091497C0B2901D00C2900D101261F
:104AA000416E8E46497C0B2901D00C2900D101258D
:104AB000816E8A46497C0B2901D00C2900D1012442
:104AC000C16E8946497C0B2901D00C2900D10123F4
:104AD000016F487C0B2801D00C2800D1012248EA44
:104AE0000C003843304328432043184310431ED062
:104AF0000020B8F1000F01D1ABF81A00BCF1000F93
:104B000003D1DDF808C0ACF81A000FB9019F788313
:104B10000EB9009E70830DB9AEF81A000CB9AAF850
:104B20001A000BB9A9F81A0002B948830120BDE8A0
:104B3000FE8F0000080000202DE9F041904C064651
:104B4000A06D017C0A2902D90821FDF7BAF9E06DB0
:104B5000017C0A2902D90821FDF7B3F9206E017CF6
:104B60000A2902D90821FDF7ACF9606E017C0A29F7
:104B700002D90821FDF7A5F9A06E017C0A2902D906
:104B80000821FDF79EF9E06E017C0A2902D908216F
:104B9000FDF797F9206F017C0A2902D90821FDF75A
:104BA00090F9606F017C0A2902D90821FDF789F983
:104BB000A06F017C0A2902D90821FDF782F9F06D66
:104BC000017C0A2902D90821FDF77BF9B06E007C2F
:104BD0000A2802D9002086F82800E06CFDF7C8F802
:104BE00000287DD00020FDF773F9417805460F09B4
:104BF00000D00837A878412803D0682801D043287E
:104C000064D101F00F00092860D2DFE800F0050F41
:104C100019232D37414B5800A06DFDF766F9394631
:104C2000A06DFDF74EF9E978A06944E0E06DFDF76D
:104C30005CF93946E06DFDF744F9E978E0693AE05E
:104C4000206EFDF752F93946206EFDF73AF9E97802
:104C5000206A30E0606EFDF748F93946606EFDF776
:104C600030F9E978606A26E0A06EFDF73EF9394632
:104C7000A06EFDF726F9E978A06A1CE0E06EFDF76A
:104C800034F93946E06EFDF71CF9E978E06A12E084
:104C9000206FFDF72AF93946206FFDF712F9E97800
:104CA000206B08E0606FFDF720F93946606FFDF773
:104CB00008F9E978606B41702979017006E0A06F0E
:104CC000FDF713F93946A06FFDF7FBF820780328AC
:104CD00036D1E069B0F90000A0F25720414200E06F
:104CE0004CE040F2AE48414508D8E06D417C0B29CC
:104CF00001D00C2902D10021FDF7E3F8206AB0F9B8
:104D00000000A0F2AF404142414508D8206E417CEE
:104D10000B2901D00C2902D10021FDF7D2F8606ADD
:104D2000B0F90000A0F21F304142414508D8606E42
:104D3000417C0B2901D00C2902D10021FDF7C1F8DB
:104D4000687800F00F00092806D1F06DFDF7CDF866
:104D50003946F06DFDF7B5F8687800F00F000A28C5
:104D60000CD1B06EFDF7C1F83946B06EFDF7A9F869
:104D7000B06E2979C174012086F82800BDE8F08161
:104D80000800002070B5044690F8240000281ED1C9
:104D9000E16991F90900032807DA487A401C487252
:104DA000BDE870406420FCF7BBBA91F90000514A9D
:104DB0000A2805DA0878401C08700721906D7CE00D
:104DC00091F900000B2803DA0878401C087070BDC8
:104DD00091F901000A2805DA4878401C487007213B
:104DE000D06D6AE091F901000B2803DA4878401C85
:104DF000487070BD91F902000A2805DA8878401CD5
:104E000088700721106E58E091F902000B2803DA30
:104E10008878401C887070BD91F903000A2805DA73
:104E2000C878401CC8700721506E46E091F9030015
:104E30000B2803DAC878401CC87070BD91F90400D3
:104E40000A2805DA0879401C08710721906E34E0C1
:104E500091F904000B2803DA0879401C087170BD31
:104E600091F905000A2805DA4879401C48710721A4
:104E7000D06E22E091F905000B2803DA4879401C36
:104E8000487170BD91F906000A2805DA8879401C3E
:104E900088710721106F10E091F906000B2803DAE2
:104EA0008879401C887170BD91F907000A2808DADA
:104EB000C879401CC871506F0721BDE87040FDF7EC
:104EC00033B891F907000B2803DAC879401CC87180
:104ED00070BD91F908000128FADA01250D724FF42E
:104EE000FA60FCF71DFAA06DC574A06DBDE87040B6
:104EF000FDF716BA080000202DE9F047DFF8C4904E
:104F00009246A1F23A33D9F83C00B0F900200020D3
:104F1000702B54D3A2F23A33702B50D34FF4FA646F
:104F200041F65833674240F23938A5105E424FEAE5
:104F3000A70C414514D8A2F2AA38B8F1560F07D2EF
:104F4000891A01F5806112E00A2915DD204625E065
:104F50008A420BDB511A19E00A291CDD38461DE094
:104F600040F2AA3842450BD38A4209DA891A09B2BB
:104F70001429E9DD184611E004290FDD28460DE06B
:104F80008A4202DBB2F5806FE4D3891A09B2142990
:104F9000E2DD304602E0042900DD6046BAF1000F90
:104FA00000B208D000F076FA0146D9F85400BDE806
:104FB000F047FCF795BFBDE8F04700F06BBABDE8DD
:104FC000F0870000080000202DE9F04FDFF834C121
:104FD00085B0DCF818000E9FB0F90000A1EB000BC3
:104FE000DCF81C00CBEBCB01B0F90000A2EB000A0F
:104FF000DCF82000B0F900001A1AC1EBCB10C11781
:1050000000EB1170041148F698610AFB01F041F2BF
:10501000ED7190FBF1F548F69860504390FBF1F08C
:10502000002C01DD214600E06142002D01DD2B4610
:1050300000E06B42994205DD002C01DD264606E0CA
:10504000664204E0002D01DD2E4600E06E42002E97
:1050500001DD334600E07342002801DD014600E037
:1050600041428B4203DD002E06DC764204E000283C
:1050700001DD064600E046429CF8011049420E421E
:105080003CD079428946002F00DD394648434FF035
:10509000070890FBF8F0F317C117CDE90263CDE9DB
:1050A000000118480493D317006EFDF7C9F8002FCC
:1050B00001DD384600E04846454395FBF8F0049A88
:1050C000104DCDE90262C117CDE9000152464FEA09
:1050D000EA73E86DFDF7B4F8002F00DC4F467C431F
:1050E00094FBF8F0049AC117CDE90262CDE9000102
:1050F0005A464FEAEB73A86DFDF7A2F805B0BDE87C
:10510000F08F00000800002070B50446006EFDF727
:1051100073FA0F4D286CFCF797FD686CFCF794FD53
:10512000A86CFCF791FDE86CFCF78EFD286DFCF790
:105130008BFD2068FCF788FD6068FDF781FBA068A7
:10514000FDF77EFBE068BDE87040FDF779BB00002D
:105150000800002090F82610002912D1C16991F9A9
:1051600000304A4A0A2B05DA0878401C08700621EC
:10517000906D7CE091F900300B2B03DA0878401C2D
:105180000870704791F901300A2B05DA4878401C05
:1051900048700621D06D6AE091F901300B2B03DADB
:1051A0004878401C4870704791F902300A2B05DAA4
:1051B0008878401C88700621106E58E091F9023002
:1051C0000B2B03DA8878401C8870704791F9033004
:1051D0000A2B05DAC878401CC8700621506E46E0DC
:1051E00091F903300B2B03DAC878401CC870704764
:1051F00091F904300A2B05DA0879401C0871062160
:10520000906E34E091F904300B2B03DA0879401CDE
:105210000871704791F905300A2B05DA4879401C6E
:1052200048710621D06E22E091F905300B2B03DA8C
:105230004879401C4871704791F906300A2B05DA0D
:105240008879401C88710621106F10E091F90630B2
:105250000B2B03DA8879401C8871704791F907306D
:105260000A2B06DAC879401CC8710621506FFCF77A
:105270005BBE91F907200B2A03DAC879401CC8717C
:105280007047012180F826107047000008000020B8
:1052900010B590F8271000290ED1084C21790A2961
:1052A00005D2C06DFDF71EFA2079401C03E00121F4
:1052B00080F827100020207110BD00000800002099
:1052C0002DE9F041724E044641F28832B6F91010D1
:1052D000481C00B2914201DA30820CE004D13082E5
:1052E000A06DFCF702FE06E0A06D017C0A2902D940
:1052F0000821FCF7E6FD206D017C0A2902D908216E
:10530000FCF7DFFD606D017C0A2902D90821FCF75A
:10531000D8FD706D017C0A2902D90821FCF7D1FD66
:10532000306DFCF725FD002827D00120FCF7D0FDCB
:1053300005464078070900D0083710F00F001ED04E
:10534000012836D002284FD0032816D1A06DFCF7D3
:10535000CCFD3946A06DFCF7B4FDA87801210222EE
:10536000722853D0732808D1E87883097ED0B1EB36
:10537000901F7CD1287984F84900BDE8F081206D28
:10538000FCF7B3FD17B13946206D07E094F94800EA
:105390005A28206D01DD092100E00021FCF791FD74
:1053A000A8784928E9D1216BE87848702879216BE1
:1053B00018E0606DFCF799FD17B13946606D07E0A4
:1053C00094F949005A28606D01DD092100E00021AF
:1053D000FCF777FDA8784928CFD1616BE878487051
:1053E0002879616B0870C8E7706DFCF77EFD0FB11E
:1053F000394606E094F94A005A2801DD092100E007
:105400000021706DBDE8F041FCF75BBDE8788309D1
:1054100009D0B1EB901F0DD1E16B00F03F00487057
:105420002879E16B1AE0A16B00F03F004870287901
:10543000A16B13E0B2EB901F06D1216C00F03F008E
:1054400048702879216C09E00321B1EB901F06D147
:10545000616C00F03F0048702879616C087020464C
:10546000FFF7BAFA6076617E606E01E004E007E063
:10547000BDE8F041FCF7BCBF287984F848007CE720
:10548000B2EB901FAFD1287984F84A0075E700008D
:10549000080000202DE9F0474F4D01460024E86B3D
:1054A00040F26542008810FB02F0C21700EBD260A8
:1054B000C0F34F12E8692346B0F90070A869B0F94B
:1054C00000602846406D69B16D787DB1A2F5E44574
:1054D000DC3D40F6644C65450BD20521438308460C
:1054E000BDE8F087014618464B83F9E7FCF7D0FE8C
:1054F0006FE03A4DDFF8E8C041F2EC38002937DAC6
:105500006FF0C709AF421BDD664519DD464517DA66
:10551000A2F5E6453F3D41F28236B542E6D248F279
:10552000F8518A4201D92F49E0E748F230518A42C6
:1055300003D94946FCF7ACFE00E04383032448E06E
:1055400045F2EA35AA42D1D845F2BE25AA4204D98D
:10555000052291FBF2F109B2C8E745F2F6118A4241
:1055600003D94946FCF794FE00E04383012430E070
:105570004FF4FA69AF421ADD664518DD464516DA82
:10558000A2F5D6455C3DB5F59C5FAFD846F6244103
:105590008A4201D24946A9E746F6EC418A4203D243
:1055A000C821FCF775FE00E04383042411E046F2B5
:1055B0008475AA429AD346F64C018A42EAD346F64B
:1055C00078118A4203D2C821FCF762FE00E04383CF
:1055D0000224204684E700000800002014ECFFFFAE
:1055E000FCEFFFFF30F8FFFF2DE9F0414A490500CD
:1055F0004FF00004086A2346B0F90060486AB0F929
:105600000020C86AB0F90070486BB0F900C00846C5
:10561000406E1FD0497800297CD0032195FBF1F121
:1056200009B24FF4AF6E002D2ADA42F6186C6FF013
:10563000C706674515DA40F6C417BA426ADC40F679
:105640003405AA4256DCB2F5FA6F07DD3146FCF7A5
:105650001FFE04E043831846BDE8F0814383012424
:1056600056E0724556DCB2F57A7F43DCB2F5617FD5
:1056700003DD3146FCF70CFE00E04383022447E0E3
:1056800040F6AC57BE4216DA764502DA438303246D
:105690003EE0B2F57A6F3DDB41F23015AA4229DBDC
:1056A00041F294118A4203DAC821FCF7F1FD00E0CF
:1056B000438304242CE040F24C46B44512DA44F211
:1056C0005C46B24226DB44F28855AA4212DB44F221
:1056D000EC518A4203DAC821FCF7DAFD00E043838B
:1056E000052415E043F2F436B24213DB43F284554D
:1056F000AA4203DAFCF7CCFD0AE00BE043F2E851E2
:105700008A4203DAC821FCF7C3FD00E04383062484
:105710002046A1E72946EDE70800002010B5006EFD
:10572000FCF762FF00EB00104821B0FBF1F072289B
:1057300002DA00F28D3000E072380249C96B08804D
:1057400010BD0000080000202DE9F0410446C06CA7
:105750000126002581694878302802D0502837D0AA
:1057600054E08878AA2804D0112815D0552821D0D3
:105770004CE0C878BB2849D10879CC2846D1487973
:10578000DD2843D184F82060A068FDF752F8E06876
:10579000BDE8F041FDF74DB8C878222836D1087928
:1057A000332833D14879442830D12046BDE8F04130
:1057B000FFF720B8C878662828D10879772825D13E
:1057C0004879882822D12046BDE8F041FDF7FABA91
:1057D0008878AA281AD1C878BB2817D10879CC288C
:1057E00014D14879DD2811D18879EE280ED1C879F5
:1057F000FF280BD1087A112808D1487A222805D130
:10580000887A332802D1C87A442816D084F82050E8
:10581000487A4B4A07070D23002F12D050DA8D79B2
:1058200005F00705012D0ED0022D11D0032D14D047
:10583000042D20D0052D23D071E084F82750BDE839
:10584000F081157073E00879400768D106206DE09B
:105850000879400763D1072068E00D796E0704D00E
:1058600005F00705032D02D059E008205EE040074F
:1058700055D503205AE00879400758D1092055E052
:105880000D796F0704D005F00705012D02D005E062
:105890000A204BE0470701D5167048E0022D03D1DE
:1058A000460701D5022041E0042D03D1460701D56A
:1058B00004203BE0052D32D1400730D5052035E0EE
:1058C000C0F38105012D06D000F0030002282AD084
:1058D00001282AD02BE00879C5436D0704D000F0D9
:1058E000070006281DD01AE04879450705D00007B3
:1058F00001D412201AE0132018E0C879450705D01A
:10590000000701D4102011E011200FE010F0700FFB
:1059100005D0000601D40F2008E00E2006E0137029
:1059200005E0142002E00B2000E00C2010700020A5
:10593000E36A0A5C1A54401C0D28F9DB7FE700007B
:105940000800002070B52D4E00243146706B8A6E21
:10595000B0F90050B06AB0F9000000280FDDB0F5D2
:105960007A7F01DD264918E0C82801DD254914E0C9
:10597000642801DD244910E00020508310E010F578
:105980007A7F02DA42F6E06107E010F1C80F02DA2E
:1059900041F2707101E04FF4C8711046FCF778FCD9
:1059A00041F2BA3141F27C508D420CDD854201DD7D
:1059B000164C1AE041F21E40854201DD144C14E001
:1059C000114C643411E041F288318D4202DA42F226
:1059D00028340AE041F2B4418D4202DA41F29414D3
:1059E00003E0854201DA4FF4967420B201F0FAF830
:1059F0000146706FBDE87040FCF772BA08000020E5
:105A000020D1FFFF90E8FFFF70FEFFFFD8DCFFFF13
:105A10006CEEFFFF90F82310002912D1C16991F9B3
:105A200000304D4A0A2B05DA0878401C08700C211A
:105A3000906D7CE091F900300B2B03DA0878401C64
:105A40000870704791F901300A2B05DA4878401C3C
:105A500048700C21D06D6AE091F901300B2B03DA0C
:105A60004878401C4870704791F902300A2B05DADB
:105A70008878401C88700C21106E58E091F9023033
:105A80000B2B03DA8878401C8870704791F903303B
:105A90000A2B05DAC878401CC8700C21506E46E00D
:105AA00091F903300B2B03DAC878401CC87070479B
:105AB00091F904300A2B05DA0879401C08710C2191
:105AC000906E34E091F904300B2B03DA0879401C16
:105AD0000871704791F905300A2B05DA4879401CA6
